:020000022000DC
:106000000000012019620200016202000362020026
:10601000056202000762020009620200000000003F
:106020000000000000000000000000000B62020001
:106030000D620200000000000F6202001162020007
:106040001362020013620200136202001362020074
:106050001362020013620200136202001362020064
:106060001362020013620200136202001362020054
:106070001362020013620200136202001362020044
:106080001362020013620200136202001362020034
:106090001362020013620200156D02001362020017
:1060A0001362020013620200136202001362020014
:1060B00013620200136202000000000000000000F2
:1060C00013620200136202001362020013620200F4
:1060D000136202001362020013620200000000005B
:1060E00000000000000000000000000000000000B0
:1060F00000000000000000000000000000000000A0
:10610000000000000000000000000000000000008F
:10611000000000000000000000000000000000007F
:10612000000000000000000000000000000000006F
:10613000000000000000000000000000000000005F
:10614000000000000000000000000000000000004F
:10615000000000000000000000000000000000003F
:10616000000000000000000000000000000000002F
:10617000000000000000000000000000000000001F
:10618000000000000000000000000000000000000F
:1061900000000000000000000000000000000000FF
:1061A00000000000000000000000000000000000EF
:1061B00000000000000000000000000000000000DF
:1061C00000000000000000000000000000000000CF
:1061D00000000000000000000000000000000000BF
:1061E00000000000000000000000000000000000AF
:1061F000000000000000000000000000000000009F
:10620000FEE7FEE7FEE7FEE7FEE7FEE7FEE7FEE766
:10621000FEE7FEE7704700BF1048804710484FF088
:106220000701884385460F4880470F48016841F4BD
:1062300070010160BFF34F8FBFF36F8F00F01CB888
:106240000A480B490B4A884207D0521A05D00378F6
:1062500001300B700131013AF9D17047156202002B
:1062600000000120B164020088ED00E0506F0200E0
:10627000B8570020B85700203A493B480A1A02D0C4
:10628000072291438D46394939480A1A06D0072218
:10629000914381F30988022282F3148835483649F4
:1062A000364A00F041F836483649374A00F03CF8A3
:1062B00036483749374A00F037F837483749384ABF
:1062C00000F032F837483849384A00F02DF838489D
:1062D0003849394A00F028F838483949394A00F035
:1062E00023F839483949002200F036F8384839494E
:1062F000002200F031F838483849091A00F062FDF0
:10630000374A904725482649884205D0026804301C
:1063100003B4904703BCF7E700208646EC46002014
:106320000021304A9047FEE7884214D0521A12D01A
:1063300003460B4313430324234206D1036804306E
:106340000B600431043AF9D17047037801300B70C7
:106350000131013AF9D17047884202D00270013010
:10636000FAE770470000012000E000200000012053
:1063700000000120E8700200B8570020BC57002040
:10638000E8630200E8630200486F0200E870020060
:10639000B8570020B8570020506F0200506F02001D
:1063A000506F0200506F0200506F0200506F0200E9
:1063B000506F0200506F0200E8700200EC700200A3
:1063C000BC570020BC570020BC570020E0570020DD
:1063D000E0570020E0570020E0570020E077002041
:0863E00041620200E9630200C2
:1063E80000B5ADF2144D0DF58263A3F5847318461C
:1063F8004FF480731A46002100F0F0FC0DF582631B
:10640800A3F5027318464FF480731A46002100F072
:10641800E5FC0DF58263A3F5427318464FF48073CB
:106428001A46002100F0DAFC0DF58263A3F58163BA
:1064380018464FF480731A46002100F0CFFC42AB97
:10644800CDF80C3442AB8033CDF80834C2A9803182
:10645800C2A8802300930523DDF80C2400F0EEFC8D
:10646800002318460DF2144D5DF804FBBFF34F8F5F
:1064780000BF064BDB6803F4E0620449044B134396
:10648800CB60BFF34F8F00BF00BFFDE700ED00E01A
:106498000400FA05024B034A1A6000BF704700BFA8
:1064A800B85700200090D00308B500F069F90346FA
:1064B800002B06D0A04B1B681B0AA04A03F01F0341
:1064C800136000F089F90346002B02D09C4B9D4ACB
:1064D8001A6000F09DF90346002B06D09A4B1B6802
:1064E8005B0B9A4A03F00703136000F0BDF90346FB
:1064F800002B05D0964BDB68954A23F08073D36058
:1065080000F0CEF90346002B0ED04FF08043002256
:10651800C3F80C214FF080430022C3F810214FF03C
:1065280080430022C3F8382500F0E6F90346002B23
:1065380002D0884B03221A6000F0FAF90346002BB8
:106548000BD0854B05221A60844B01221A60844BBC
:1065580000221A60834B3F221A6000F005FA0346B6
:10656800002B76D04FF080537F4AD3F80434C2F81A
:1065780020354FF080537C4AD3F80834C2F82435CC
:106588004FF08053784AD3F80C34C2F828354FF0CE
:106598008053754AD3F81034C2F82C354FF0805325
:1065A800714AD3F81434C2F830354FF080536E4A2C
:1065B800D3F81834C2F834354FF080536A4AD3F808
:1065C8001C34C2F840354FF08053674AD3F8203462
:1065D800C2F844354FF08053634AD3F82434C2F8E4
:1065E80048354FF08053604AD3F82834C2F84C3508
:1065F8004FF080535C4AD3F82C34C2F850354FF032
:106608008053594AD3F83034C2F854354FF0805388
:10661800554AD3F83434C2F860354FF08053524AA3
:10662800D3F83834C2F864354FF080534E4AD3F863
:106638003C34C2F868354FF080534B4AD3F84034A5
:10664800C2F86C354FF08053474AD3F84434C2F847
:10665800703500F0A5F90346002B05D0434B1B68A5
:10666800434A03F04F03136000F0C6F90346002BBA
:106678000DD04FF08043D3F8003403F00103002B12
:1066880005D04FF080436FF00102C3F8002400F0FA
:10669800DFF90346002B05D0364B1B68354A43F417
:1066A80080631360344BD3F88830334A43F4700363
:1066B800C2F88830BFF34F8F00BFBFF36F8F00BFA2
:1066C8004FF01023D3F80032002B05DB4FF01023D6
:1066D800D3F80432002B2BDA284B0122C3F8042507
:1066E80000BF264BD3F80034002BFAD04FF010230C
:1066F8001522C3F8002200BF204BD3F80034002B2A
:10670800FAD04FF010231522C3F8042200BF1B4B08
:10671800D3F80034002BFAD0184B0022C3F8042514
:1067280000BF164BD3F80034002BFAD0FFF79EFEBB
:10673800FFF7B0FE00BF08BD24030010403501403C
:1067480074C007400DF0ADBA440200103C0500408B
:10675800F0ED00E0A00500401056004088560040CB
:10676800185600401456004000C00040580200105F
:10677800E40E00403C17004000ED00E000E001405E
:10678800124B1B68DBB2062B1DD1114B1B6803F0A3
:106798000F03002B17D10F4B1B6803F0F003302BAE
:1067A80001D1012310E00B4B1B6803F0F003402BD1
:1067B80001D1012308E0074B1B6803F0F003502BBD
:1067C80001D1012300E0002318467047E00F00F0D4
:1067D800E40F00F0E80F00F00A4B1B68DBB2062B51
:1067E8000DD1094B1B6803F00F03002B07D1074B92
:1067F8001B6803F0F003302B01D1012300E00023D4
:1068080018467047E00F00F0E40F00F0E80F00F0C2
:10681800124B1B68DBB2062B1DD1114B1B6803F012
:106828000F03002B17D10F4B1B6803F0F003302B1D
:1068380001D1012310E00B4B1B6803F0F003402B40
:1068480001D1012308E0074B1B6803F0F003502B2C
:1068580001D1012300E0002318467047E00F00F043
:10686800E40F00F0E80F00F00A4B1B68DBB2062BC0
:106878000DD1094B1B6803F00F03002B07D1074B01
:106888001B6803F0F003302B01D1012300E0002343
:1068980018467047E00F00F0E40F00F0E80F00F032
:1068A800124B1B68DBB2062B1DD1114B1B6803F082
:1068B8000F03002B17D10F4B1B6803F0F003302B8D
:1068C80001D1012310E00B4B1B6803F0F003402BB0
:1068D80001D1012308E0074B1B6803F0F003502B9C
:1068E80001D1012300E0002318467047E00F00F0B3
:1068F800E40F00F0E80F00F00A4B1B68DBB2062B30
:106908000DD1094B1B6803F00F03002B07D1074B70
:106918001B6803F0F003302B01D1012300E00023B2
:1069280018467047E00F00F0E40F00F0E80F00F0A1
:106938000A4B1B68DBB2062B0DD1094B1B6803F011
:106948000F03002B07D1074B1B6803F0F003302B14
:1069580001D1012300E0002318467047E00F00F042
:10696800E40F00F0E80F00F00A4B1B68DBB2062BBF
:106978000DD1094B1B6803F00F03002B07D1074B00
:106988001B6803F0F003502B01D1012300E0002322
:1069980018467047E00F00F0E40F00F0E80F00F031
:1069A800124B1B68DBB2062B1DD1114B1B6803F081
:1069B8000F03002B17D10F4B1B6803F0F003302B8C
:1069C80001D1012310E00B4B1B6803F0F003402BAF
:1069D80001D1012308E0074B1B6803F0F003502B9B
:1069E80001D1012300E0002318467047E00F00F0B2
:1069F800E40F00F0E80F00F0124B1B68DBB2062B27
:106A08001DD1114B1B6803F00F03002B17D10F4B3F
:106A18001B6803F0F003302B01D1012310E00B4B6E
:106A28001B6803F0F003402B01D1012308E0074B5A
:106A38001B6803F0F003502B01D1012300E0002371
:106A480018467047E00F00F0E40F00F0E80F00F080
:106A5800064B1B68062B05D1054B1B68062B01D17D
:106A6800012300E000231846704700BF30010010E2
:106A78003401001086B003900291019201238DF831
:106A880017309DF81730214A039B13601F4A029B59
:106A980053601E4A019B9360039B44F20102934298
:106AA80013D0039B44F20202934221D1019B174A5F
:106AB800D360164BDB681B881A46144B9A61134B3C
:106AC800DB685B68114AD36112E0019B0F4A1361CE
:106AD8000E4B1B699B680D4A53610C4B1B691B6865
:106AE8000A4A9361094B1B695B68084AD36100BF76
:106AF80072B600BF00BF9DF81730DBB2002BFAD189
:106B080062B600BF00BF06B0704700BFBC57002088
:106B180000B583B002900091019244F201007146E1
:106B28006A4600F003F803B000BD00BF00B587B0A7
:106B380003900291019272B600BF039B44F20202D5
:106B4800934217D0039B44F20202934218D8039B46
:106B580044F20102934210D0039B44F20102934293
:106B68000ED8039B012B0DD0039B41F201029342E7
:106B78000AD005E0019B059307E0019B049304E01C
:106B880000BF02E000BF00E000BF084B1B6803F035
:106B98000103002B00D000BE019A02990398FFF769
:106BA80069FF00BF07B05DF804FB00BFF0ED00E02F
:106BB80000B585B003460091ADF80630BDF8063043
:106BC800ADF80830009B039302AB1A46002144F24B
:106BD8000200FFF7ABFF00BF05B05DF804FB000043
:106BE80000B583B001900091019B002B03D110499F
:106BF8005020FFF7DDFF009B002B03D10C495120EB
:106C0800FFF7D6FF019B009A1A60019B1B681A6860
:106C1800019B5A60019B5A68019B1B685B689A42FA
:106C280002D1019B00225A6000BF03B05DF804FB4B
:106C3800506F020000B583B00190019B002B03D177
:106C480014496320FFF7B4FF019B1B68002B03D195
:106C580010496420FFF7ACFF019B5B68002B14D040
:106C6800019B5B681A46019B1B689B6813441A4684
:106C7800019B5A60019B5A68019B1B685B689A429A
:106C880004D1019B00225A6000E000BF03B05DF808
:106C980004FB00BF506F020000B583B00190019B58
:106CA800002B03D10449C420FFF782FF019B5B68D6
:106CB800184603B05DF804FBA86F020000B585B064
:106CC8006B4611491846FFF78BFF10E06B461846D4
:106CD800FFF7E2FF0390039B1B680293039B5A682C
:106CE800029B104698476B461846FFF7A3FF6B4672
:106CF8001846FFF7D1FF0346002BE7D100BF00BFBE
:106D080005B05DF804FB00BF3C70020008B5FFF752
:106D1800D5FF00BF08BD000000B583B00190019BFE
:106D2800002B03D10449C420FFF742FF019B5B6895
:106D3800184603B05DF804FB487002004BDF70474B
:106D480000BF184600B589B0019004AB1846FFF79C
:106D5800F5FF0790079B002B03D0079B052B20D13D
:106D680024E002AB13491846FFF73AFF11E002ABE3
:106D78001846FFF7D1FF0690069B1B680593049AF7
:106D8800069B5968059B1046984702AB1846FFF7C3
:106D980051FF02AB1846FFF7BFFF0346002BE6D1B1
:106DA800D3E7054A6B210798FFF7B2FE00BF09B089
:106DB8005DF804FBDC7002009C700200082938BFF3
:106DC80070470022C0E9002145F2DC71C2F20001DF
:106DD8000860704700220B0011001A0084465AB35D
:106DE800830704D000F8011B013AF9D124E0C9B2A5
:106DF80041EA012141EA0141202A11D3203A2DE933
:106E0800F0030B460C460D460E460F46884689464B
:106E1800A0E8FA03203AFBD2BDE8F00320320BD0F9
:106E2800042A05D340F8041B043A05D0042AF9D2F1
:106E380000F8011B013AFBD1604670472DE9F04F7D
:106E4800099C5FEA940A78D04FF0010808FA03F821
:106E58004FEA8A0B4FEA5808071D0E1D02EB8A0AF3
:106E680017F9044C16F9045C14FB0584DC4004F3A0
:106E7800070417F903CC16F9035C1CFB058C2CFAE4
:106E880003FC0CF3070C17F9025C16F902EC15FB6E
:106E98000E85DD4005F3070517F901EC16F9019C8D
:106EA8001EFB098E2EFA03FE0EF3070EE4B24FEA1C
:106EB8000C2C44EA0E6E0CF47F4C2D044EEA0C0E9A
:106EC80005F47F054EEA050542F8045B524507F1D3
:106ED800040706F10406C3D158445944099A12F02C
:106EE800030228D0012591F9004090F900609D40E7
:106EF8006D0814FB0654DC4004F30704013A8AF8D1
:106F0800004018D091F9014090F9016014FB065433
:106F1800DC4004F30704012A8AF801400BD090F9F9
:106F2800022091F9021012FB015525FA03F303F32D
:106F380007038AF80230BDE8F08F9246CEE700BF1B
:086F48004D6D02000000000085
:106F5000433A5C6E5246355F53444B5F31352E32B7
:106F60002E305C636F6D706F6E656E74735C6C69F0
:106F7000627261726965735C6578706572696D656E
:106F80006E74616C5F73656374696F6E5F76617256
:106F9000735C6E72665F73656374696F6E5F69744C
:106FA00065722E63000000002E2E2F2E2E2F2E2E07
:106FB0002F2E2E2F2E2E2F2E2E2F636F6D706F6E75
:106FC000656E74732F6C69627261726965732F6587
:106FD00078706572696D656E74616C5F73656374FA
:106FE000696F6E5F766172732F6E72665F73656331
:106FF00074696F6E5F697465722E6800433A5C6EE7
:107000005246355F53444B5F31352E322E305C6330
:107010006F6D706F6E656E74735C736F66746465AC
:10702000766963655C636F6D6D6F6E5C6E72665FD3
:107030007364682E6300000001000007486F0200BF
:10704000506F0200080000002E2E2F2E2E2F2E2E05
:107050002F2E2E2F2E2E2F2E2E2F636F6D706F6ED4
:10706000656E74732F6C69627261726965732F65E6
:1070700078706572696D656E74616C5F7365637459
:10708000696F6E5F766172732F6E72665F73656390
:1070900074696F6E5F697465722E6800433A5C6E46
:1070A0005246355F53444B5F31352E322E305C6390
:1070B0006F6D706F6E656E74735C736F667464650C
:1070C000766963655C636F6D6D6F6E5C6E72665F33
:1070D0007364685F736F632E63000000486F020083
:0870E000486F020008000000E7
:0470E8000090D00341
:04000003200062195E
:00000001FF
