:020000022000DC
:1070000000000420757302005D7302005F730200CC
:1070100061730200637302006573020000000000E8
:107020000000000000000000000000006773020084
:1070300069730200000000006B7302006D730200B0
:10704000399402006F730200719602006F730200A0
:107050006F7302006F730200F19402006F730200FD
:107060006F7302006F7302006F7302006F73020090
:107070006F7302006F7302006F7302006F73020080
:107080006F7302007D8602006F7302006F7302004F
:107090006F7302006F730200E1AF02006F730200B2
:1070A0006F7302006F7302006F7302006F73020050
:1070B0006F7302006F730200000000000000000008
:1070C0006F7302006F7302006F7302006F73020030
:1070D0006F7302006F7302006F7302006F73020020
:1070E0006F7302006F7302006F73020000000000F4
:1070F000000000006F730200000000006F730200C8
:10710000000000000000000000000000000000007F
:10711000000000000000000000000000000000006F
:10712000000000000000000000000000000000005F
:10713000000000000000000000000000000000004F
:10714000000000000000000000000000000000003F
:10715000000000000000000000000000000000002F
:10716000000000000000000000000000000000001F
:10717000000000000000000000000000000000000F
:1071800000000000000000000000000000000000FF
:1071900000000000000000000000000000000000EF
:1071A00000000000000000000000000000000000DF
:1071B00000000000000000000000000000000000CF
:1071C00000000000000000000000000000000000BF
:1071D00000000000000000000000000000000000AF
:1071E000000000000000000000000000000000009F
:1071F000000000000000000000000000000000008F
:10720000354936480A1A02D0072291438D4634493F
:1072100034480A1A06D00722914381F309880222D2
:1072200082F3148830483149314A00F044F831483B
:107230003149324A00F03FF831483249324A00F0D1
:107240003AF832483249334A00F035F83248334987
:10725000334A00F030F833483349344A00F02BF811
:1072600033483449344A00F026F83448344900227F
:1072700000F02CF833483449002200F027F8334856
:107280003349091A082902DB002202604160314AB1
:1072900090471F481F49884205D00268043003B454
:1072A000904703BCF7E700208646EC46002000210B
:1072B000294A9047FEE7884207D0521A05D0037842
:1072C00001300B700131013AF9D17047884202D088
:1072D00002700130FAE770470000042000E003204C
:1072E00000000420000004200C450400E82A0020CF
:1072F000502B0020D0730200D0730200C4D70200CC
:107300000C450400E82A0020E82A0020C0D802002A
:10731000C0D80200C0D80200C0D80200C0D8020005
:10732000C0D80200C0D80200C0D802000B4504003B
:1073300074450400502B0020502B0020502B0020BF
:107340002C4100202C4100202C4100202C41002009
:107350002C6100209D730200E1A10200FEE7FEE720
:10736000FEE7FEE7FEE7FEE7FEE7FEE7FEE7FEE7F5
:1073700000F002B8FFF7FCBF0F484FF00701884349
:1073800085460E4880470E48016841F4700101604F
:10739000BFF34F8FBFF36F8FFFF732BF09480A4922
:1073A0000A4A884207D0521A05D0037801300B7080
:1073B0000131013AF9D1704700000420B98F020071
:1073C00088ED00E0C0D80200E82A0020E82A00206A
:1073D0007047000007B5044B0093044A402300F0B7
:1073E00032F803B05DF804FBF1730200512B00206A
:1073F0002DE9F84388461446B2B10F4B0F4E0325D2
:10740000002743F00109224608EB0701002003F0A2
:107410003BF80744241A48B933782BB14FF47A402B
:10742000C847013D02D13570BDE8F88301233370B0
:10743000002CE8D1F8E700BFC0D80200502B002094
:10744000704703F055B8F0B595B01D46164608468E
:107450000C4601F0C5FC1A9B0D93CDE9086500258B
:107460002B46082205A920460A958DF82C500C952C
:1074700001F0D3FC079B0293069B03939DF8143005
:107480008DF8115003F00302012A1DD1BDF814201C
:10749000059DC3F3C203C2F383168DF81030B2000A
:1074A00008230EA9204601F0B8FCC5F3952508ABCA
:1074B0000093324602AB0EA9284600F02BFB204673
:1074C00001F092FC15B0F0BD022AF8D1BDF81650BB
:1074D000C3F3C203C5F389158DF810300827082DB2
:1074E0002E4628BF08263B4632460EA9204601F00C
:1074F00094FCAD1B08AB02AA31460EA8374400F03D
:107500006DFB002DEBD1DAE708B5FFF79AFF0448D1
:10751000042100F069FA034B01225A7108BD00BF33
:10752000B0D80200E82A0020037813F0040216D035
:1075300003F00303012B03D0022B09D00120704775
:107540000A6800880232C0F3831002440A60F5E73B
:107550000B684288023303EB92130B60EEE7104690
:10756000704700002DE9F04F87B000230446861CC9
:107570000DF107000F4615468DF8073000F010FF9B
:10758000404A51683960936803F580735B1A9246EC
:1075900002F21C4702F5836902F21448B3421AD37F
:1075A0000020002D69D004F00F039B0143F0050378
:1075B00063F30F00DAF80430DAB203321E444AF8FB
:1075C00022009DF80700CAF8046000F00DFF0120BA
:1075D00007B0BDE8F08F0121384601F02CF948468C
:1075E00001F041F9404601F03EF9DAF80800029056
:1075F000C0B203300AEB800002A9FFF795FF029B9F
:1076000030BBDAB20AEB8202D16803919A1C0133D3
:10761000DBB20AEB83030292D3F80CB001F0030350
:10762000012B22D0022B15D08346404601F01EF9D3
:1076300010B1029BCAF808305946384601F0FBF8F1
:10764000DAF80830DAF8042003F580739B1AA5E70E
:10765000D8B2CEE7BDF80E30C3F3891303334FEA37
:107660001B4B02EB93030293DFE7BDF80C30C3F32F
:1076700083134FEA1B4B1344F5E7A40544F00600BF
:1076800098E700BF642C0020064B074810B5002285
:107690001A7001F05EFB044610B9044801F0F0FBDB
:1076A000204610BD642C00201CD80200FCD802002B
:1076B00030B50A4C71B10A4A0A49121BD20800239C
:1076C0009A4201D1002030BD31F82350854202D0CA
:1076D0000133F5E7034654F83300F4E730D80200ED
:1076E000B0D80200E82A0020094B013903EBC000A2
:1076F000032909D8DFE801F00A02040604207047D4
:107700000079704740797047002070470220704729
:1077100030D8020070470000034BD3E90130C31A90
:1077200058425841704700BF642C00202DE9F041B9
:1077300086B0FFF7F1FF0546002840F0E680744C64
:10774000C4F81804BFF34F8FA3680293DBB203336E
:1077500004EB830002A9FFF7E7FE029B18B1D4F8FF
:107760001824002A55D0DAB2991C013304EB8202A6
:10777000DBB204EB8303D268DB68049302F00303FB
:10778000022B039202914FD1BDF80E306148C3F332
:107790008917502F3E4628BF502666F38F1306F1F7
:1077A0000801ADF80E3001F0ECFA0546002800F0B3
:1077B000978001F015FB002303A90822284601F059
:1077C00022FB0299CB43DBB20133C9B20331B6EBE2
:1077D000830F4FEA830804EB810122D90823424634
:1077E000A6EB0806284601F00EFBF6B24A4908F15E
:1077F00008033246284601F006FB029B033703EBE1
:1078000097070297D4F81834002B41D1D4F81064AC
:1078100051E062689A4299D8A260284606B0BDE855
:10782000F08108233246E5E7012B59D1BDF80C3031
:107830003848C3F38311062928BF062161F3891351
:1078400002318900ADF80C3001F09BFA05460028A2
:1078500046D001F0C5FA0023082203A9284601F00A
:10786000D2FA0026BDF80C20C2F38312B300964270
:1078700003F10803C6D202994A1CC9B2033102922D
:1078800004EB81010422284601F0BDFA0136E9E744
:10789000284601F0A9FAFFF73FFF80F00100C5B2CA
:1078A000BBE7F3685B7923B1336829461B68304630
:1078B0009847F3681E68002EF3D1284601F094FA29
:1078C0000DF107008DF8076000F06AFDD4F8183458
:1078D0000BB9029BA3609DF8070000F085FDDAE775
:1078E000D4F8104454B90D4B0D480E49C01AC008C5
:1078F000000440F0020000F05FF8CCE72368204667
:107900009B689847E3681C68ECE7002585E700BFA3
:10791000642C00201CD80200702C002030D80200FB
:1079200058D80200E4D802002DE9F34704460E4679
:10793000924601A9012218469946FFF713FE1C4FF3
:1079400010B3019D4FF00008AA1CC84508EB0201C6
:1079500025D11848002100F03FFF80F310000004FB
:1079600040EA1440E4006B1C04F03804DBB2EDB2D2
:1079700044F0010407EB8303033544EA881444EA26
:107980008624D86047F825403B781BB1FFF7CEFE30
:107990000028FBD1FFF7BEFE02B0BDE8F087C9B2F8
:1079A00007EB81015AF82830CB6008F10108CCE7D9
:1079B000642C00208030002000231A46FFF7B4BF5B
:1079C00007B50123019201AAFFF7AEFF03B05DF8EE
:1079D00004FB07B5CDE9002302236A46FFF7A4FFA5
:1079E00003B05DF804FB000030B50F49D1F8102456
:1079F00003460020144634B9DC6820714AB9C1F846
:107A00001034226030BDE4682579854206D02468B0
:107A1000F1E7D268116821601360F3E701300A28AA
:107A2000E8D14FF0FF30EDE7642C0020084A38B56C
:107A30000123D2F8104413701D4604B938BDE36821
:107A40005D71236820465B689847E3681C68F4E72B
:107A5000642C002007B503460846197A052911D081
:107A60005B7A2BB1094A0A49019000F062FF019844
:107A70000849019000F05DFF019803B05DF804EB48
:107A800000F04CBF002AF8D0F2E700BF08D902008E
:107A90000DD90200C3DF020030B5C38885B00446AB
:107AA0000D4633B1144A00921449154A284600F095
:107AB00040FF217A05291DD0637A4BB1A088FFF7DA
:107AC00013FE104B104953F82020284600F031FFD8
:107AD000227A0E4BA08853F8222003920021FFF750
:107AE000E7FD039A0A490346284605B0BDE8304041
:107AF00000F01FBF05B030BD08D9020018D9020040
:107B000010D9020090D902000DD90200B4D90200A8
:107B100030D902002DE9F04385B01F460C9D0023AB
:107B200095F80C902B7306460C469046294638462D
:107B3000FFF7B2FFB8F1060F09D8DFE808F004122A
:107B4000181F283340003146284600F0F2FE00227C
:107B500029463846FFF77EFF85F80C9005B0BDE852
:107B6000F08322683146284600F0E3FEEFE7D4E9CF
:107B700000233146284600F0DCFEE8E7A3680093C6
:107B80003146D4E90023284600F0D3FEDFE7E3685E
:107B90000193A36800933146D4E90023284600F0FE
:107BA000C8FED4E723690293E3680193A3680093B6
:107BB0003146D4E90023284600F0BBFEC7E76369DD
:107BC000039323690293E3680193A368009331460A
:107BD000D4E90023284600F0ACFEB8E708292DE9D7
:107BE000F74F80460E4617461C463CD8002593F8B2
:107BF0000C901D7319461046FFF74EFFDFF888A062
:107C0000DFF888B0AE4231D918F805205946204631
:107C100000F08FFE0135082DF4D11949194DDFF818
:107C200070A0204600F085FE4FF0000B5E4522D983
:107C300018F80B207E2A05D81046019205F020F98D
:107C4000019A00B92E225146204600F072FE0BF137
:107C5000010BBBF1080FE9D1012221463846FFF79D
:107C6000F9FE84F80C9003B0BDE8F08F5146204631
:107C700000F05FFECEE72946204600F05AFEE6E718
:107C800040D902007E3D0400303D04003AD9020094
:107C900042D902001FB50021039001AA44F201005D
:107CA000CDE9011100F004F805B05DF804FB000017
:107CB00010B572B6FFF7BAFEFFF738FD0028FBD10A
:107CC000104B114C1149E41AE408240444F001005B
:107CD000FFF772FE0E4B1B68DB0700D500BE0D4997
:107CE00044F00200FFF768FEBFF34F8F0A490B4BC9
:107CF000CA6802F4E0621343CB60BFF34F8F00BF4A
:107D0000FDE700BF30D8020058D80200D3D90200E6
:107D1000F0ED00E0DFD9020000ED00E00400FA051C
:107D200049B152B1531E1A4007D18260016083806D
:107D3000C260104670470E2070470920704710B58A
:107D40008468C2688388121B934208D3C2681340B8
:107D50000268D154C3680133C360002010BD042001
:107D6000FCE78268C3689A420AD08268838813401D
:107D70000268D35C0B708368013383600020704716
:107D800005207047D0E90223D1E90201994208BFDA
:107D900090422CBF012000207047000008B50B481E
:107DA00000F055FC0A4B0B49D3E900231218D1E926
:107DB000000143F100038B4208BF824203D212F15B
:107DC000807243F100031046194608BDF02A0020D6
:107DD000203100209831002037B505460C460A486E
:107DE00001A900F068FC60B10570446001A9064873
:107DF00000F08BFC18B1054800F02EFC002003B009
:107E000030BD0420FBE700BF84310020F02A0020B1
:107E1000284B73B51E7804461EB90026304602B0C2
:107E200070BD0028F9D0FFF7B9FFD4E902239942C9
:107E300008BF904238D300230DF107008DF80730BA
:107E400000F0AEFA23692BB94FF0FF324FF0FF3349
:107E5000C4E902239DF8070000F0C6FAD4E9053012
:107E6000984700250DF107008DF8075000F098FAAB
:107E70002169B9B1D4E90223581C08BFB2F1FF3F10
:107E800005D0521843F10003C4E9022335469DF89A
:107E9000070000F0A9FA002DBFD00748214601F0E5
:107EA0000EF8BBE70D46F2E7013308BFB2F1FF3F22
:107EB000B3D0F2E728310020FCD9020013B5114BF2
:107EC00011491868019008231048582200F0E0FB7F
:107ED000044698B90E4A0F4801A900F0A9FA0446D1
:107EE00060B90C48012100F095FB01230A4A0948BA
:107EF000194600F0F7FA094B01221A70204602B029
:107F000010BD00BFF6D902002C31002084310020C2
:107F1000CD7F0200F02A0020FFFF7F0028310020E3
:107F2000F7B5054600240DF1070017460E468DF8FB
:107F3000074000F035FAD5E90223013308BFB2F15A
:107F4000FF3F07D1FFF72AFF801941F10001C5E982
:107F5000020101249DF8070000F046FA4CB12B699C
:107F6000AF6103B12E6129460020FFF735FF03B052
:107F7000F0BD2046FBE737B5054600240DF10700AC
:107F80008DF8074000F00CFAD5E9022301330FBF4A
:107F9000B2F1FF3F4FF0FF324FF0FF33C5E902234C
:107FA00018BF01249DF8070000F01EFA2CB12946E5
:107FB0000120FFF711FF03B030BD2046FBE70000B2
:107FC000014800F044BB00BFF02A00202DE9F74F24
:107FD000804600F027FB40B1634AD2E9003113F13B
:107FE000807341F10001C2E900310021404600F0F8
:107FF00028FB38B15D4E336823B13068FFF708FFC6
:10800000002333600121404600F01BFB20B1FFF745
:10801000C5FE574BC3E900015648DFF8509101A94E
:1080200000F083FB4FF0FF364FF0FF3798B9DFF8D1
:1080300048A14E4F504600F058FF002800F08780BE
:10804000D0E90223591C08BFB2F1FF3F34D150469A
:1080500000F045FFEEE70378012B20D0022B09D179
:10806000DFF814A1504600F03AFF002877D0C0E9AD
:108070000267F7E753B94168D1E90223013308BF2A
:10808000B2F1FF3F02D03C4800F019FF01A9394886
:1080900000F076FB01A9374800F047FBC6E74168CE
:1080A000D9F80030994203D10023C9F80030EDE738
:1080B000314800F01DFFE9E7396891B13968D1E92D
:1080C00002018B4208BF82422FD23B68D3E90223D0
:1080D000013308BFB2F1FF3F03D03968504600F0CA
:1080E000EEFE504600F0FBFED0E9026B8146FFF742
:1080F00055FE341A6BEB0105012C75F1000319DBF9
:10810000B4F5350F14D3FFF75BFF1C4A02441C483B
:108110004FF49603002100F005FA98B93B6813B9B3
:10812000404600F0D7F9C7F8009003B0BDE8F08FE3
:108130003246ECE71248002100F079FA4846FFF792
:1081400067FE01E00D28F9D000233B6072E7074B82
:108150001B68002BE9D1404600F0C0F9E5E7094B68
:1081600001221A7092E700BF20310020A0310020C8
:108170009831002084310020FCD90200FFFFB400B8
:10818000F02A0020283100200648074A03780749D2
:10819000D35C012213B1043001F0F0BE0C3001F0C9
:1081A0009FBC00BFF82A00200C320020CC310020F8
:1081B0000648074A03780749D35C012213B104300B
:1081C00001F088BE0C3001F039BC00BFF82A002055
:1081D0000C320020CD31002037B50578012D0BD0B1
:1081E000022D2ED065B91E491E48FFF7BAFD0028A2
:1081F00032D1FFF7DDFF03E0037A1BB9FFF7C4FFBD
:1082000003B030BD4368184C19782046FFF797FD3E
:1082100080B18DF800500190144B68461B68984758
:10822000A168E368A2885B1A9A42E7D2104B012248
:108230001A70E5E7A268E3689A42F1D08DF8000071
:10824000EAE7C3688DF800500193FFF79DFF074BE5
:1082500068461B689847D3E703238DF80030F6E79C
:10826000CD310020BC310020A8310020A4310020F5
:10827000B8310020F0B51F46234B89B004461A6080
:108280000D4600293DD08A8820480968FFF748FD3F
:10829000002834D1AA89A9681D48FFF741FD0028AC
:1082A0002DD11C4E0FCE6D460FC596E80F0085E808
:1082B0000F0063690693237C174A18488DF81C70D9
:1082C000003B18BF01238DF81430637C002B14BFD2
:1082D0000E2300238DF81530E3680293A3680393FF
:1082E0002368019369466368009301F02BF830B965
:1082F0000B4B18702368013301D0FFF745FF09B01D
:10830000F0BD0720FBE700BFA4310020A83100200A
:10831000BC31002008DA0200D9810200F82A0020CE
:10832000B831002070B5084D014608482E78FFF797
:1083300018FD044636B100232B70FFF725FF08B166
:10834000FFF7A8FC204670BDB8310020A8310020FE
:1083500010B501460E48FFF7F2FC0446A8B90D48D7
:108360000D4A0378D35C63B1043001F0FBFD60B9C2
:108370000A490748FFF7F5FC38B9BDE81040FFF798
:1083800017BF0C3001F0A0FBF1E7204610BD00BF85
:10839000BC310020F82A00200C320020CD31002012
:1083A00070B5EFF3108672B60C4A946801239CB93D
:1083B00093600B4B0B4DD3F8801029401160C3F82C
:1083C0008050D3F8841051604FF0FF32C3F88420FE
:1083D000047006B962B670BD0370FAE7D0310020B0
:1083E00000E100E0FC06FFBD084B9A6810B55AB1E9
:1083F00050B9EFF3108172B6054A1C6814605C68CE
:108400005460986001B962B610BD00BFD031002041
:1084100000E100E0435882B03BB100234350435891
:108420000193019B012002B070471846FBE7000052
:10843000F8B5204B4479204D43F824201F4A204BA7
:1084400005EBC4049B1A2279DB081B0432B143F00C
:1084500002001C49FFF7B0FA0820F8BD02680C883A
:10846000C2F8084590F904608A7804795201002E18
:10847000D2B219DB14498F1987F80023012276093B
:1084800004F01F0402FA04F441F82640427905EB97
:10849000C201012445F832000C7143F003000B497E
:1084A000FFF78AFA0020D8E7094904F00F040A55BB
:1084B000ECE700BFE4310020DC31002030D80200BE
:1084C00068D8020028DA020000E100E04ADA02007F
:1084D00014ED00E0036801221A607047036801226E
:1084E0005A60704773B501F15005AD000068ADB238
:1084F0004FF480348C400026C0F80843C0F848434D
:10850000465101F5A8714559019522F07F42019D20
:1085100040F82120C0F844430BB1C0F8044302B036
:1085200070BD00002DE9F74F0D4622F07F44026830
:108530004FF4803705F150068F408046B60002EBBD
:108540008500C2F84873B6B2C2F80873D2F80415B1
:1085500099464FF0000BD0F84035C0F8401542F86E
:1085600006B05B1A9259009223F07F43012B009AC8
:108570004FEA850A0CD1264B4FF4806043F001038B
:108580009847D8F8003043F806B09B590193019BF7
:10859000D8F80010D1F80465C1F84473A31B23F088
:1085A0007F43012B1CD11A4B05F5A875013443F00C
:1085B000010341F825404FF480609847D8F8003017
:1085C000D3F804359E4209D1D8F800300020C3F812
:1085D0004473C3F8047303B0BDE8F08F0D20FAE7CD
:1085E0008A44C9F1FF13CAF84045D1F80405221A9C
:1085F000013A22F07F4203F57F439342EED3002AF3
:10860000E2D10134CAF84045D1F804359842DAE79E
:1086100060DA020003680222C3F8442309B1C3F8F8
:108620000423704700684FF48271FFF7F3BE4FF4E4
:10863000803303FA01F10368C3F84813C3F8081341
:10864000704750318900006889B2FFF7E3BE0368C4
:10865000D3F804057047000090F90430002B09DBC3
:108660005A09012103F01F0301FA03F340320249C2
:1086700041F82230704700BF00E100E0024B034A9E
:108680001B681068184700BFE4310020DC3100206F
:1086900010B561B1B2FBF3F403FB1424A4B244B9E6
:1086A000C0E9001484608281C381204610BD0E2081
:1086B000FCE70920FAE737B550E8013F9DB2C489CD
:1086C00025448489A54228BF2D1B0489A54202BFE9
:1086D000BFF32F8F002207E0C5EA030540E80154ED
:1086E000002CE9D14FF001028DF803200193019B8A
:1086F0009DF803200B6002F0FF0322B10B88006895
:10870000184403B030BD1846FBE70A884B889A42EC
:1087100009D150E8012FC2EA024240E80123002BB0
:10872000F7D1012070470020704737B550E8023F6D
:108730001FFAA3F5C488A54202BFBFF32F8F002202
:108740000DE0C48925448489A54228BF2D1BC3EAB6
:10875000054540E80254002CE8D14FF001028DF8A5
:1087600003200193019B9DF803200B6002F0FF039F
:1087700022B14B880068184403B030BD1846FBE7AF
:108780000A884B889A4209D150E8022FC2EA224255
:1087900040E80223002BF7D10120704700207047EA
:1087A00001F01F024B090121914000EB830000F012
:1087B0001EB801F01F0301229A404B0900EB830011
:1087C000D14300F02CB84B0901F01F0150F82300F1
:1087D000C84000F00100704710B5034653E8000F91
:1087E0000A4643E8002494F0000FF7D110BD10B5FD
:1087F000034653E8002F42EA010043E8000494F0E6
:10880000000FF6D110BD10B5034653E8000F00EA83
:10881000010243E8002494F0000FF6D110BD10B51A
:10882000034653E8002F02EA010043E8000494F0F5
:10883000000FF6D110BD10B5034653E8002F02EB30
:10884000010043E8000494F0000FF6D110BD10B50C
:10885000034653E8002FA2EB010043E8000494F024
:10886000000FF6D110BD0121FFF7C1BF0021FFF7B6
:10887000CABF10B590B1D0E9012301689B1ADBB2E1
:108880000A60013BDBB2FF2B026802D100201071AD
:1088900010BD11684C1C14600B70F2E70E20F7E756
:1088A00037B5054600240DF107008DF80740FFF7A6
:1088B00077FD2A686B68116899420ED9481E1060CE
:1088C00011F8014CEB68298A01FB0434AB6811797B
:1088D0001B1ADBB2994238BF13719DF80700FFF7EE
:1088E00083FD204603B030BD37B5054600230DF1AA
:1088F00007000C468DF80730FFF752FD2A68136811
:10890000591C1160E968641A298AB4FBF1F41C70DF
:108910009DF80700FFF768FD03B030BD826810B511
:1089200004462AB143690168006998470023A3609F
:1089300010BD0EB403B5039921B104AB01AA019394
:1089400000F076F802B05DF804EB03B070470A2936
:1089500038B504460D4602D10D21FFF7F8FFA36894
:108960002268591CA160D554D4E901329A4204D33B
:108970002046BDE83840FFF7D1BF38BD2DE9F84F9C
:108980009846DDE90A43154682460F460A464FF0EF
:108990000109AA420FD2C14538BFC14613F0010BED
:1089A00001D16CB900240126B8F1010F1BD908F1DF
:1089B000FF386E43F8E709F10109B2FBF5F2E8E789
:1089C0009B070ED5B8F1000F0CBF30262026A1451D
:1089D000E9D2013C31465046FFF7B9FF002CF6D1F1
:1089E000E0E72026F3E7B7FBF6F39D42E1D9DFF895
:1089F0003C80B7FBF6F3504618F8031006FB1377DC
:108A0000FFF7A5FF3346AB42B6FBF5F6F1D2BBF15B
:108A1000000F02D00CB1A14501D3BDE8F88F202191
:108A20005046013CFFF793FFF4E700BF66DA02000F
:108A30002DE9F74F054617468846002900F0428188
:108A400018F8011B49B92B7B002B00F03B8128460D
:108A500003B0BDE8F04FFFF761BF252940F0B780B4
:108A6000002698F800302D2B424608F1010823D04B
:108A7000302B24D02B2B25D000242A2B02F10101EE
:108A800023D13B681A1D1B683A601C440A461378C0
:108A90002E2B26D101324FF0000A104610F8011B90
:108AA000A1F1300CBCF1090F1DD80A2303FB0A13F6
:108AB000A3F1300A0246F0E746F00106D1E746F09E
:108AC0000206CEE746F00406CBE711F8013CA3F11D
:108AD00030000928DBD80A2202FB0434303C0A4665
:108AE000CBE74FF0000A12F8011B01F0FB006828E9
:108AF0009046F8D0782909D86F290CD8632962D01C
:108B000022D8252963D0582900F0888098F80030B1
:108B1000002B95D197E770390829F7D801A353F8AE
:108B200021F000BF9F8C02000D8B02000D8B020014
:108B30002D8C02000D8B02000B8C02000D8B0200AD
:108B40000D8B02001D8C0200642901D06929DDD142
:108B50003A68D2F80090111D89EAE9723960A2EBF7
:108B6000E9724FF0010B092A35DCD34538BFD346F3
:108B70002CB1B9F1000F01DB720700D5013CB3073E
:108B800002D5BAF1000F03D0F00701D44CBB00248A
:108B9000B9F1000F2DDAC9F100092D212846FFF7A0
:108BA000D6FE06F00302022A04D1BAF1000F01D169
:108BB0001CBB0024CDE9004653460A2249462846FC
:108BC000FFF7DCFEA2E73B681A1D19783A602846D9
:108BD000FFF7BDFE9AE70A230BF1010BB2FBF3F29C
:108BE000C1E7A345D4D220212846013CFFF7AFFEC0
:108BF000CCE77107D5D52B21D0E7A345DAD23021B8
:108C00002846013CFFF7A3FED2E73968CDE90046CC
:108C10000A1D3A6053460A220968D0E739680A1DDE
:108C20003A60CDE9004653461022F5E73B681A1D2D
:108C30003A6016F00106D3F8009028D1B9F1000F80
:108C400003D0484604F06FFA0646B44200D904BB8C
:108C500009F1FF3919F8011F00293FF457AF2846E1
:108C6000FFF775FEF6E728460136FFF770FE19F8A4
:108C700006100029F7D1A642BFF448AF002C3FF4FC
:108C800045AF20212846013CFFF761FEF3E70026AF
:108C9000EDE720212846013CFFF759FED5E73B6868
:108CA0001A1D3A60302128461C68FFF750FE7821D3
:108CB0002846FFF74CFE00220823CDE9003221466A
:108CC00010227CE703B0BDE8F08F00BF2DE9F84F1C
:108CD000B0F806A04579D2F800B09DF828900AFBBC
:108CE00005F5043D88460BEB0301A94203F104049A
:108CF00088BFA5EB030BB4FBFAF607460AFB164444
:108D0000C2F800B04EB9AAEB04055D4528BF5D4628
:108D1000BBF1000F04D1BDE8F88F3F68013EF1E7D9
:108D2000043408EB06003C442A46B9F1000F0DD08C
:108D30002146ABEB050B04F078F9DA452E443F6889
:108D400055464FF0000428BF5D46E1E70146204646
:108D5000EFE7FFF78EBDF8B546790146721E05466E
:108D6000002393422D6803D30024A64202D8F8BD05
:108D70000133F6E70F682846FFF7B6FD01343946A0
:108D8000F3E72DE9F843068ACD1C0746FFF788FD77
:108D9000043E35440446B5FBF6F5F0B14FF480735C
:108DA000EDB28380C680013D076081464FF0000828
:108DB000A84512D23846FFF773FD064648B16379DD
:108DC0000133637108F10108C9F8000007608146AA
:108DD000EEE72046FFF7BFFF34462046BDE8F883A4
:108DE00001210430FFF727BD10B5012104460430EE
:108DF000FFF72DFD10F0FF0F04D12046BDE8104015
:108E0000FFF7A9BF10BD1FB503920022009203AA6D
:108E1000FFF75CFF05B05DF804FB1FB5039201226C
:108E2000009203AAFFF752FF05B05DF804FB41DF93
:108E30007047000007B500230DF107008DF80730DB
:108E4000FFF7AEFAF1EE103A23F09F03E1EE103A8D
:108E5000BFF35F8F094B4022C3F884219DF80700C0
:108E6000FFF7C2FA02F0A2F820B1FFF7E0FF03B06B
:108E70005DF804FB20BF40BF20BFF8E700E100E041
:108E8000836800225A60C3E904229A60DA601A609B
:108E900070470B684A684360934208BF0023016033
:108EA00008BF43607047436843B1026891685268E5
:108EB0000B449342436004BF00234360704770B586
:108EC000446806460D46206818B1B368294698479D
:108ED00018B923682B60256070BD2468F3E74368E8
:108EE000186808B102681A607047436818687047CC
:108EF0004368186800B97047884203D102681A6055
:108F00000120704703460068F4E7000010B50D49E2
:108F1000A1F59472914201D800200FE08C1AE30F62
:108F200003EBE4035B1002EBC30452F833308342DB
:108F300005D802D204F10802ECE7606810BD2146B2
:108F4000E8E700BF80DF020008B5FFF7DFFF024B54
:108F5000002808BF184608BD42DE020010B50446CE
:108F6000C0B2FFF7F5F9204610BD0000034B1868AA
:108F7000A0F1080358425841704700BF300100106B
:108F8000064B1B68082B06D1054B1B68052B02D826
:108F9000044AD05C70470020704700BF30010010C9
:108FA0003401001086DF0200024AD2F80034002BA0
:108FB000FBD0704700E0014010B5FFF7D7FF40B18C
:108FC0004FF080430022C3F80C21C3F81021C3F8EE
:108FD0003825FFF7CBFF002846D04FF08052614B79
:108FE000D2F80414C3F82015D2F80814C3F82415D5
:108FF000D2F80C14C3F82815D2F81014C3F82C15A5
:10900000D2F81414C3F83015D2F81814C3F8341574
:10901000D2F81C14C3F84015D2F82014C3F8441534
:10902000D2F82414C3F84815D2F82814C3F84C1504
:10903000D2F82C14C3F85015D2F83014C3F85415D4
:10904000D2F83414C3F86015D2F83814C3F8641594
:10905000D2F83C14C3F86815D2F84014C3F86C1564
:10906000D2F84424C3F87025FFF78AFF10B13E4BB5
:109070003E4A1A60FFF784FF18B13D4BFB22C3F84C
:109080001825FFF77DFF48B13A493B4B0A681B683A
:1090900022F00F0203F00F0313430B60FFF770FF82
:1090A00018B1364B4FF400721A60FFF75FFF48B1FA
:1090B0004FF08043D3F80024D20744BF6FF0010281
:1090C000C3F800242E4AD2F8883043F47003C2F863
:1090D0008830BFF34F8FBFF36F8F2A4B1B68082B6D
:1090E0000ED1294B1B68052B02D8284AD35C3BB113
:1090F0004FF01023D3F808224FF08043C3F85825CF
:109100004FF01023D3F80022002A03DBD3F80432F7
:10911000002B22DA1E490123C1F80435FFF744FF72
:109120004FF010201224C0F80042FFF73DFFC0F8B6
:109130000442FFF739FF0023C1F80435FFF734FF7D
:10914000BFF34F8F0E49134BCA6802F4E06213431A
:10915000CB60BFF34F8F00BFFDE70F4B0F4A1A6084
:1091600010BD00BF00C000408C5600404881030085
:1091700000F00040E40E004058020010409602400B
:1091800000ED00E0300100103401001080DF02002B
:1091900000E001400400FA050C2B00200090D003F1
:1091A00038B5074C051E04F1080318BF1C46236898
:1091B0002BB11A6822605B6828469847F7E738BDEC
:1091C000F031002020B9054B01225A70FFF7E8BFAB
:1091D000012802D1014A9070F8E77047E831002079
:1091E00020B9034B01225A70FFF7DABF704700BF66
:1091F000E831002038B50E4C2378B3B90D486360D0
:10920000A3602361E36000F0E5F8054601F0CEFEBF
:1092100008B900F0EBF801232370074BD3F80034B2
:109220000BB10123A370284638BD8525F5E700BFA3
:10923000E8310020C59102000000014037B50D4C17
:1092400000230DF107008DF80730FFF7A9F8E36858
:10925000013BE360E36833B9074BD3F8005415B919
:1092600000F0D6F8A5709DF80700FFF7BDF803B031
:1092700030BD00BFE831002000000140012813B5D7
:109280000CD0032820D038B9124B0122C3F880201B
:10929000BFF34F8FBFF36F8F02B010BD0E4C002392
:1092A0000DF107008DF80730FFF77AF823780BB936
:1092B000FFF7A0FFE3689DF807000133E360012397
:1092C000A370FFF791F8E7E700F090F8FFF7B6FF1B
:1092D000E2E700BF00E100E0E83100201FB50378BD
:1092E0008DF800304368019383688DF80830C368B7
:1092F000054A0393054B684653F8213052F8211074
:10930000984705B05DF804FBFC31002004320020D2
:109310001FB503788DF800304368019383688DF89A
:109320000830C368054A0393054B684653F821305B
:1093300052F82110984705B05DF804FBFC3100207D
:1093400004320020F0B5194B90F800C0DFF86CE053
:1093500043F82C20164B16460A6943F82C204B7F05
:109360000EF80C300C4607460FCC89B06D460FC581
:1093700094E80F0085E80F001EF80C30CDF810C0FF
:109380004BB1002E0B4A694608BF3246381D00F02B
:10939000C3FC09B0F0BD002E074A694608BF32463B
:1093A00007F10C0000F078FAF3E700BF0432002068
:1093B000FC310020DD920200119302000C320020EB
:1093C00000F18040002382B0036003680193019B99
:1093D00002B07047044A137923B9012110609180CB
:1093E000184670478520704710320020074B1A68D6
:1093F000D20704D4C02283F8002301221A604FF060
:1094000080430122C3F81825704700BF00E100E047
:109410004FF0804208B50223C2F808334FF482703F
:10942000FFF7CEFF034B01211960D2F81834DB039C
:10943000FBD408BD0C000040124B1B6810B573B183
:109440004FF48070FFF7BCFF4FF080430122C3F858
:1094500008230D4B587910B95A711B6898470B4B6C
:109460001B6873B14FF48270FFF7AAFF4FF080437F
:109470000222C3F80823044BBDE810401B680120FA
:10948000184710BD000100401032002004010040C8
:1094900000F1804000F5C040002382B00360036803
:1094A0000193019B02B0704703681F2B83BF03F039
:1094B0001F03036001484FF0A040704700030050B5
:1094C00007B5019001A8FFF7EFFF019B00EB8300B8
:1094D000D0F8003723F44033C0F80037D0F8003715
:1094E00043EA0141C0F8001703B05DF804FB000037
:1094F0002DE9FF470024CDE90244584D4FF4807216
:10950000012102F1804303F5C04390B21B68012B97
:1095100006D1D5F804330B4202D0FFF7B9FF0C4354
:109520000432B2F5907F4FEA4101EAD14C4B1B68FF
:10953000012B11D14FF4BE70FFF7AAFF4FF0A043EB
:1095400044F00044D3F820250292C3F82025D3F834
:1095500020280392C3F8202814F0FF0F1AD0414F9F
:1095600000250126344210D0AB0003F1804303F5FF
:10957000C043D3F81005D3F8101557F8253023B1A0
:10958000C1F30141C0F3052098470135082D4FEA8A
:109590004606E7D1002C59DA324D334C334E4FF0AA
:1095A0000008012716F9013B5A1C3CD0C3F3C20145
:1095B00004A801445FFA83F911F8081C03F03F0284
:1095C00003F0070307FA03F319422CD001A8019214
:1095D000FFF76AFF019B03F5E07350F82330C3F3F4
:1095E000014ABAF1020F10460CBF03210221FFF716
:1095F00067FF01A80192FFF757FF019B07FA03F3EA
:10960000C0F82035AB1893F9303055F8233053B1FA
:109610004FEA9911032904D0BAF1020F19D1012997
:1096200001D11046984708F10108B8F1040FB9D1EB
:109630004FF0A043D3F820250292C3F82025D4F898
:1096400020350393C4F820351343A7D104B0BDE8F7
:10965000F087BAF1030FE6D10229E1E7006000408C
:109660007C61004018320020000300507832002056
:10967000014B1B68184700BF843200200E4B9842F4
:1096800037B50C4602D0002003B030BD00230DF1E9
:1096900007008DF80730FEF783FE084B1D7915B9DA
:1096A00001221C601A719DF80700FEF79DFE002D37
:1096B000E9D01120E8E700BF0020004084320020FC
:1096C0000023435082B043580193019B02B070477E
:1096D0000A4610B54FF48E71FFF7F2FF136A9168D6
:1096E000C95C136A01331362C0F81C1510BD024631
:1096F00008B500684FF49271FFF7E2FF4FF48471F0
:109700001068FFF7DDFF136801221A6008BD8B693E
:109710000A4610B54FF4847123B9FFF7D1FFD0F892
:10972000183510BDFFF7CCFF536AD168D0F8180583
:10973000C854536A01335362F3E700001FB5012395
:109740008DF80030044BCDE90110D3E900126846D2
:10975000904705B05DF804FB8C32002030B54C48D2
:10976000D0F8043313F4007F85B005464DD0D0F80F
:109770002431002B49D04FF49271FFF7A1FF4FF431
:109780000173C0F80833434B93F829200AB901222A
:1097900042603F4902228DF80020D1F88024C1F8B0
:1097A000802403929A690292DA6801920022C3E946
:1097B00006226846D3E9001290473548D0F81C319C
:1097C0005BB134494A690B6A9A420A464AD991F810
:1097D0002830002B46D1FFF77BFF2D48D0F84431CD
:1097E0008BB14FF4A271FFF76BFF2A4B93F829203E
:1097F0000AB1012202609A692AB10022586AD96826
:109800009A61FFF79BFF05B030BDD5F804335B07C5
:10981000D3D5D5F80831002BCFD01E4C1C4821469B
:10982000FFF775FF636AA2699A422346C5D1E269D0
:10983000E1684AB12369E3600023606AA261E361E1
:109840006362FFF77BFFB8E794F829200AB9012289
:109850006A600F4A4FF40170C2F808030022586A88
:109860009A61EEE70A484FF48E71FFF729FF5369BA
:10987000002BB2D051690291002391688DF800301D
:10988000019153616846D2E900139847A5E700BFEC
:10989000002000408C3200202DE9F843614B05790F
:1098A00091462C2202FB0532064692F82A200C46ED
:1098B0009846002A40F0B1805B490068FFF7DEFE61
:1098C0000746002840F0AB8021684A1C10D01F29B1
:1098D00087BF564A01F01F030B464FF0A0420120FC
:1098E000984003F5E073C2F80805032042F823000E
:1098F0006068431C0DD01F288BBF00F01F03034678
:109900004A4A4FF0A04203F5E0734FF0000C42F8D2
:1099100023C03368A269C3F8242594F814C0627D7B
:10992000BCF1010F4CEA0202C3F86C25C3F8140520
:10993000C3F80C152BD1A168481C0DD01F298BBF73
:1099400001F01F020A4639484FF0A04002F5E072CC
:109950004FF0000C40F822C0E068421C13D01F28D2
:1099600087BF324A00F01F0C84464FF0A0424FF0F0
:10997000010E0EFA0CFE0CF5E07CC2F808E54FF083
:10998000030E42F82CE0C3F80805C3F810152C2389
:109990006B4308EB0302C2F80490226948F80320E5
:1099A000B9F1000F21D03068247F4FF48E71FFF79A
:1099B00087FE4FF4A2713068FFF782FE32681C4BBD
:1099C000C2F80433110B42F307326301002ADBB201
:1099D0001EDB1848841884F800330123520901F073
:1099E0001F0103FA01F140F8221033680422C3F882
:1099F00000252C2303FB05830022C3E9062283F8FC
:109A000029205A61012283F82A203846BDE8F883CC
:109A1000094A01F00F015354E7E70827F5E711273A
:109A2000F3E700BF8C3200205D9702000003005076
:109A30008000020000E100E014ED00E02DE9F047B5
:109A4000204F90F804904FF02C0808FB097405464D
:109A50006669002E34D162610068A16026624FF40D
:109A60008E7184F82860FFF72BFE2868012383603D
:109A70002146FFF72DFE6368A0468BB92868D4F80D
:109A800014A0236A9A4511D82A68D2F81C31002BF9
:109A9000FBD00123D3602C2303FB097300225A61FE
:109AA0003046BDE8F08794F828303BB9D0F81C3137
:109AB000002BF8D04146FFF70BFEE2E70F26EAE75E
:109AC0001126EDE78C3200200379044A2C2101FB9A
:109AD00003235869003818BF012070478C320020DA
:109AE0002DE9F843394F05792C2303FB057306460E
:109AF0005C6824B103684FF40170C3F808032C2399
:109B000003FB0573986950B1D86900283ED024B191
:109B100033684FF40172C3F80423112433E09A61CF
:109B2000D9605862D8612C2303FB057393F8293060
:109B30001BB910B93046FFF7DAFD4FF02C0909FBCD
:109B400005783068D8F80430002B34D14FF4A27176
:109B5000C146FFF7B5FD3068D0F82431D0F80821B0
:109B6000D0F84441B2B90CB9002BF4D02C2202FB3E
:109B700005750022AA6123BB2CBB95F82910336818
:109B80000122B1B11A602046BDE8F8831961DA619B
:109B90000120C8E7002BE9D1002CE7D14946FFF7A7
:109BA000B6FDD8F82430D8F818209A42D3D82346E6
:109BB000DCE75A60E7E74FF40173C0F80433002490
:109BC000E1E70324DFE70F24DDE700BF8C3200204C
:109BD0000023435082B043580193019B02B0704769
:109BE0001FB501238DF80030044BCDE90110D3E9F6
:109BF00000126846904705B05DF804FBB8320020BB
:109C00007FB5434AD2F82461002E60D010464FF44D
:109C10009271FFF7DDFF02238DF80030D2F8803417
:109C2000C2F880340393D2F83C350293394BDA689A
:109C300001920022C3E906226846D3E90012904748
:109C40003348D0F8443173B14FF4A271FFF7C0FF2D
:109C5000304B9A693AB10022C3E90622D968D0F89C
:109C60003C05FFF7BDFF2A48D0F82031ABB14FF4D7
:109C70009071FFF7ADFF0123C360264B5A6962B1B3
:109C8000D0F84C150291002299688DF800200191BE
:109C90005A616846D3E9001290471D48D0F8583100
:109CA0009BB14FF4AC71FFF793FF1A4B5A6962B145
:109CB000D0F84C150291002299688DF8002001918E
:109CC0005A616846D3E90012904704B070BDD2F8DB
:109CD0001031002BB4D04FF488711046FFF778FF95
:109CE0000C4BD2F83C0599698842A9D1DC69D96846
:109CF00064B1D2F8005225F02005C2F800521A696A
:109D00009C61DA60DE61FFF76BFF99E79C61FAE71F
:109D100000200040B83200202DE9F843674B067957
:109D20009146242202FB0632044692F820200D467A
:109D30009846002A40F0BE8061490068FFF79EFC0B
:109D40000746002840F0B8802868421C10D01F2821
:109D500087BF5C4A00F01F0303464FF0A042012179
:109D6000994003F5E073C2F80815032142F8231067
:109D700069684B1C0DD01F298BBF01F01F030B46D8
:109D8000504A4FF0A04203F5E0734FF0000C42F848
:109D900023C02368AA69C3F8242595F814C06A7DF6
:109DA000BCF1010F4CEA0202C3F86C25C3F80C05A4
:109DB000C3F814152BD1A968481C0DD01F298BBFDF
:109DC00001F01F020A463F484FF0A04002F5E07242
:109DD0004FF0000C40F822C0E868421C13D01F2846
:109DE00087BF384A00F01F0C84464FF0A0424FF066
:109DF000010E0EFA0CFE0CF5E07CC2F808E54FF0FF
:109E0000030E42F82CE0C3F80805C3F8101524230C
:109E1000734308EB0302C2F804902A6948F8032050
:109E2000B9F1000F30D020682A7F4FF48871FFF716
:109E3000CFFE20684FF49071FFF7CAFE20684FF400
:109E40009271FFF7C5FE20684FF4A271FFF7C0FEC4
:109E50004FF4AC712068FFF7BBFE23681A49C3F8C2
:109E60000413190B43F307335201002BD2B21CDB4E
:109E70001648C51885F8002301225B0901F01F016F
:109E800002FA01F140F8231023680822C3F80025E4
:109E9000242303FB06830022C3E906225A61012220
:109EA00083F820203846BDE8F883094B01F00F0104
:109EB0005A54E9E70827F5E71127F3E7B8320020FD
:109EC000019C0200000300501003420000E100E08A
:109ED00014ED00E001F06043B3F1005F2DE9F041C3
:109EE000064638D11E4B0779242505FB07359846D1
:109EF0006C69002C31D16A610068A9604FF49071DF
:109F0000FFF766FE4FF4AC713068FFF761FE33680F
:109F10006A69A968C3F84415C3F8482501229A6004
:109F20006A68AAB9D3F82021D3F858411AB9002C8D
:109F3000F8D00F2407E0002CFBD10122DA60D3F81F
:109F40005821002AFBD0242303FB078700237B61D1
:109F50002046BDE8F0811024FAE71124F8E700BF9D
:109F6000B83200200379044A242101FB03235869F5
:109F7000003818BF01207047B8320020F8B501F052
:109F80006043B3F1005F04460F465ED10379304D64
:109F9000242101FB0351496821B100684FF4047684
:109FA000C0F80863242000FB03539E6956B1D869AA
:109FB000002839D021B123684FF40472C3F8042378
:109FC000112030E09A61DF60DE6120684FF4887113
:109FD000FFF7FEFD20684FF4A271FFF7F9FD23683B
:109FE000C3F83475C3F8382516BB01221A602179ED
:109FF000242202FB015252680ABBD3F81041D3F865
:10A000004421D3F82401144302D10028F5D022467C
:10A01000242303FB01550023984218BF03209A42D2
:10A02000AB6118BF0F20F8BD1F61DA610126CCE7D4
:10A03000D3F8002242F02002C3F80022D7E74FF401
:10A040000472C3F804230020EDE71020EBE700BF03
:10A05000B8320020032811D8012A0AD101290FD1D2
:10A0600000F10E02D2B20D4B00EB40001A5400205A
:10A0700070470129F7D0022904D049B10720704761
:10A080000022F8E7054B00EB400018444270EEE771
:10A09000024B00EB400018448270E8E7DC320020FD
:10A0A00008B5012202210020FFF7D4FF08B10728DC
:10A0B00010D1072202210120FFF7CCFF08B10728A9
:10A0C00008D100210A220846FFF7C4FF10B1072873
:10A0D00008BF002008BD00000388102B10B502D077
:10A0E000112B1ED010BD1A4C2168B1B901220846AF
:10A0F000FFF7B0FF08B1072824D107220221012071
:10A10000FFF7A8FF08B107281CD104220221002074
:10A11000FFF7A0FF08B1072814D12368013323609B
:10A12000E0E70B4A1368013B1360002BDAD1FFF71D
:10A13000B7FF0028D6D0074B1B68002BD2D0BDE854
:10A1400010401847034B1B68002BE6D09847E4E704
:10A15000EC320020E832002073B50378012B33D0B5
:10A16000022B31D073BB1A4C1A4D20782844FEF7CD
:10A17000D9F823780133DBB21D44237015F8012C84
:10A180000A2A05D00D2A03D0134A12889A4219D8F8
:10A19000012B15D90F4D114E2378ADF806300DF176
:10A1A00006024FF6FF732946304600F0CBFE082822
:10A1B00006D01328F0D0052802D008B1FDF76AFDBB
:10A1C0000023237002B070BD4068FDF763FDF9E71E
:10A1D000E4330020F0320020102B0020142B00204C
:10A1E00070B5554D0FCD8CB006AC0FC495E803008B
:10A1F000524B534A02934FF4807384E80300CDE935
:10A20000042303934F4A072302A906A8FEF732F856
:10A2100008B1FDF73FFD4FF480410020FDF734FA0F
:10A2200008B1FDF737FDFDF76FF9FDF747FE08B1FF
:10A23000FDF730FD444C454802F0C6FE4FF4C870AF
:10A2400001F0A4FF204601F077FC414802F0ACFB8E
:10A2500005464048E66802F03BF92946B047A66942
:10A26000019002F093F80199B04701903A48E668EE
:10A2700002F0C6FC0199B04701903848E66802F048
:10A2800027F90199B047A669019002F07FF801997A
:10A29000B04701903248E66802F0B2FC0199B0473D
:10A2A00001903048E66802F013F90199B047A669B9
:10A2B000019002F06BF80199B04701902A48E668D6
:10A2C00002F09EFC0199B04701902848E66802F030
:10A2D0003BFB0199B04701902548E66802F0ACFAD3
:10A2E0000199B047A669019002F050F80199B04772
:10A2F00001902048E66802F09FFA0199B04701906A
:10A300001D48E66802F028FD0199B04701901B48FE
:10A31000E66802F0B5FC0199B0472946024620469E
:10A3200001F04EFE204601F02DFFFDF7FFF9002859
:10A33000FBD1FEF77FFDF8E73CE00200E23B0020A6
:10A34000E23C002059A1020040380020AEDF0200AC
:10A3500028E10200B8E0020050E1020058E00200EB
:10A3600030E1020088E0020040E1020024E1020046
:10A3700008E10200E8E0020068E1020060E102009A
:10A380000369C1688B429DBF8268D21802F1FF3217
:10A3900003F1FF3394BF501A581A70472DE9F84360
:10A3A000D0E902940546A9EB040840689045204492
:10A3B0000F46144404D902F038FEEC60BDE8F8837F
:10A3C0004246A4EB090402F030FE6868224607EB1F
:10A3D0000801F0E72DE9F843C568064689461746A7
:10A3E0004FF000083469B3687068A54228BFE418CC
:10A3F000013C621B5C1BBC4228BF3C46944228BF08
:10A40000144649462844224602F00FFEB36825440C
:10A41000AB4208BF00253F1BA044A144F560E1D139
:10A420004046BDE8F883000010B5114C114AA26106
:10A430000223C4E90433104BE361A2644FF40073B8
:10A440000E4A0F492362E26400231022E01DA3623A
:10A450006362E362A3656365E365226502F041FE22
:10A460000849204602F03DFE2023A37110BD00BF25
:10A47000E43D0020883A04006C3E00205C3E002051
:10A48000913A0400953A0400F8B5184C182300FBE3
:10A49000033503FB00402544C46A012C0F461646D1
:10A4A0000FD0022C1AD0F4B92846FFF769FF864274
:10A4B00005D8324639462846FFF770FF3446204615
:10A4C000F8BD2846FFF75CFF8642344628BF0446A5
:10A4D000224639462846FFF761FFF0E72846BDE8E7
:10A4E000F840FFF777BF0024E9E700BFE43D002014
:10A4F000FFF79ABF30B5C8B1F2B10024651C8D4298
:10A5000006DA1588A54212D805196D789D420ED13C
:10A51000A14211D9005D48B1013880B230B1023496
:10A52000A3B210FA84F4A14206DB138030BD055DAE
:10A5300001352C44A4B2E1E70020F7E713B5134638
:10A540000022ADF806200DF106020446FFF7D2FF07
:10A5500010B1BDF80630E01802B010BD72DF7047D0
:10A5600073DF704738B5012204460D46B0F8141465
:10A57000D0F81004FFF7E2FF00B1057004F13C02CF
:10A5800004F5826104F15400BDE83840FFF7E6BFEE
:10A59000F8B5077804460D46002F00F0098100F257
:10A5A0002646817007220021304602F067FDE388CD
:10A5B00013B1A378012B04D0E3794BB1A378022B1C
:10A5C00006D1636BA3B1012284F82D24082098479B
:10A5D000334604F22C4113F8012F12B99942FAD1F3
:10A5E00017466B1E032B57D8DFE803F0050B0F123D
:10A5F00084F82D34ECE7A3791BB194F8243003B927
:10A600005FB9E3790BB1002F48D1237A002B47D1F2
:10A61000637A002B0CBF00250425636BA570002B0B
:10A6200040D0033D012D3DD86279002A3AD094F8FC
:10A630002E24002A36D184F83024012284F82F24D5
:10A640000720984704F13C0518220021284602F013
:10A6500015FDE26A0123511E994284F83C3001D96C
:10A66000042A00D1D3B294F8242084F8513042B1A6
:10A67000A36A591E012902D9042B18BF012384F8AB
:10A680005230A178002384F8503004291BD8DFE829
:10A6900001F0770D223559000025BEE70225BCE701
:10A6A0000325BAE7002384F82F34CBE7C4E910630D
:10A6B000C4F820340223012284F83C30802384F83B
:10A6C0003120A4F84830A378002B5CD1636B002BB9
:10A6D0006AD1002067E00223002A84F8313014BFD9
:10A6E0000723032384F83C302369A4F8483000236F
:10A6F000C4F82034E36826646364E4E76369636450
:10A70000A369A4F8483012B1062384F83C30637979
:10A71000B3B194F82E349BB994F8303483B102234A
:10A7200084F8503004212046FFF71CFF0028CAD1CE
:10A73000052384F8313004F58263C4F82034C2E77D
:10A740000323F6E7E3696364236AA4F8483012B18F
:10A75000062384F83C30637983B194F82E346BB9C6
:10A7600094F8303453B1022384F850300421204649
:10A77000FFF7F8FE0028A6D10623DAE70423D8E77E
:10A7800084F831309FE7D4F820142A4604F15400AD
:10A79000FFF7E4FE38B994F8301094F85400FFF74E
:10A7A000DFFE002892D0F8BD94F83100984790E77A
:10A7B0000820F8E70388112B10B50C460AD0262B89
:10A7C0001FD0102B05D1C37B012B02D18388A1F8A8
:10A7D000243410BD0022838881F82E24B1F824246B
:10A7E0009A42F6D10B79002BF3D101212046FFF7D5
:10A7F000CFFE0028EDD0A36B002BEAD0BDE81040BF
:10A800001847037A013B012BE3D8897805230131EE
:10A81000B1FBF3F303EB8303C91AC9B2E6E7000007
:10A82000034B1A8882420CBF18460020704700BFB5
:10A8300088400020024B9B6903B11847704700BF56
:10A840006C40002037B50B46497A0F4A71B9D2E9FE
:10A8500001141D7A0246002D18BF21465868FDF7E5
:10A860005FFB08B1FFF7E6FF03B030BD00211972AE
:10A870005369002BF8D00122ADF806008DF80420B2
:10A8800001A89847F0E700BF6C4000204B88028881
:10A890009A4213D842889A4210D380888A8840F21C
:10A8A000F313984294BF031AC31A934206D800F2D6
:10A8B000F310904234BF0020012070470020704701
:10A8C0000388122B70B5014659D004D8102B1ED026
:10A8D000112B44D070BD502BFCD12F4BC288DB898B
:10A8E0009A42F7D1038A022BF4D186883046FFF7CB
:10A8F00097FF05460028EDD001F1120000F028F97D
:10A9000038BB6868FDF737FB0028E3D009E0C37B5C
:10A91000012BDFD14FF6FF70FFF782FF054620B90C
:10A920000420BDE87040FFF785BF1C4A8E88068072
:10A93000002303721368C0F80A305368C0F80E3061
:10A9400010310A30FFF7A2FF134B6872DB89002B2E
:10A95000C0D129463046BDE87040FFF773BF8088FC
:10A96000FFF75EFF04460028B4D04068FDF703FB04
:10A9700008B1FFF75FFF4FF6FF732380AAE78688D1
:10A980003046FFF74DFF05460028A3D008310A30B6
:10A99000FFF77CFF6872DCE76C4000209C400020E1
:10A9A0000AB1FDF7FDBEFDF704BF73B50191019C2F
:10A9B00006466CB100252C46294601A8FDF703FF89
:10A9C00018B106EB440301349D800135142DF3D1F9
:10A9D0003046346002B070BD2DE9F04703888488AA
:10A9E000103B8CB005460A2B1FD8DFE803F0063F6A
:10A9F0001E1E1E1E1E1E1E604400314EB368DB4329
:10AA0000009371686846FDF70AFF009901A8FFF7F7
:10AA1000CCFF0DF108094FF00008019B984507D3C2
:10AA2000132C13D90420FDF735F90CB0BDE8F087DD
:10AA300039F802AB00270137514606EB8700FDF7D6
:10AA4000B8FE1E2FF7D108F10108E6E71D482146A0
:10AA5000FDF7A6FE1C482146FDF7A2FEEB7B022B6C
:10AA6000E3D11A482146FDF79BFEDEE71548214653
:10AA7000FDF79FFED9E7027A15483F2A4FEA1215E3
:10AA8000214694BF00220122FFF78AFF022D94BFC6
:10AA9000002201220F482146FFF782FF012D0E48B8
:10AAA00094BF002201222146FFF77AFFBDE7037A17
:10AAB000002BBAD1427A0648C2F3C0022146F3E71E
:10AAC000A4400020AC400020A8400020B04000205E
:10AAD000BC400020B8400020B440002013280146AC
:10AAE00002D80248FDF76FBE00207047A840002042
:10AAF00010B50446FFF7F2FF002814BF20461420CB
:10AB000010BD70B50546164608460AB90E2070BD40
:10AB100000231360002DF9D02B68002BF6D0EB88B2
:10AB200013F003040ED1FFF7E3FFC0B214280BD0DB
:10AB30002B7983420AD9EB882A6800FB0320306016
:10AB40002046E4E70720E2E70520E0E70420DEE70F
:10AB5000007800F00100704790DF7047A5DF704774
:10AB6000B5DF70477FB50023ADF80810ADF80A10C7
:10AB70006A4602A9064603930093ADF80430FFF736
:10AB8000EBFF054600B3124B124CE41AE408FEF743
:10AB9000DBF9240444F0010403460F493246204601
:10ABA000FCF717FFBDF80020BDF8023052EA0301A0
:10ABB00003D00A492046FCF70CFFBDF804201AB167
:10ABC00007492046FCF7FCFE284604B070BD00BFD4
:10ABD00030D8020080D802009C3A0400E63A040013
:10ABE000253B040013B5034680880C46A0B91A889B
:10ABF000242A75D012D8112A51D0232A7DD0102AA8
:10AC00003AD0A37A43B1E1880020FFF7A7FF0028DC
:10AC100079D14FF48073638102B010BD3A2A47D0D6
:10AC2000552AEED1DB88C988A072172B38BF1723AD
:10AC30008B4228BF0B462381FFF792FF60B1FEF7DE
:10AC400083F9394B3949024639481B1ADB081B0482
:10AC500043F00100FCF7B4FEE37A002BD1D1236965
:10AC6000002BCED040F6772200922289ADF8042046
:10AC7000694620469847C4E7DB7B09792173012B9D
:10AC800008D0022B09D0637B8B42BAD20020FFF799
:10AC900069FFB6E72388E380F5E76388FBE7F723DE
:10ACA000CB8017230B8141F6FB3348818B81A8E7CA
:10ACB0005B89CA88934228BF1346172B0A6938BF9D
:10ACC00017230B814AB1C97A39B140F67721009137
:10ACD000ADF804306946204690470023638190E731
:10ACE0001A7A0B694A73002B8BD04DF67A218DF8B6
:10ACF000050000918DF80420BAE7197A237B994268
:10AD000028BF1946C3E7112886D0FEF71DF9064B68
:10AD10000849024606481B1ADB081B0443F00100E1
:10AD2000FCF74EFE78E700BF80D802007B3B0400B2
:10AD300030D80200AA3B0400B0DF704766DF7047DE
:10AD400010B5002104464088FFF7F8FF034608B914
:10AD5000237210BD112801D10123F9E76368BDE812
:10AD600010401847F0B5054685B00C46F1B1E8B182
:10AD70000B78DE2B1AD182884B889A4204D10B7A49
:10AD800013B10846FFF7DCFF2B88112B32D0512B73
:10AD90000ED0012B0AD12B7A012B07D1A98862880A
:10ADA000914203D123722046FFF7CAFF05B0F0BDE0
:10ADB000AE886388B342F9D1AF79022FF6D1AD7B6B
:10ADC0002B1F022BF2D800211022684602F056F900
:10ADD000052D14BF4FF4C0730023694630468DF82B
:10ADE0000070ADF80430FFF7A7FF0028DED06368DD
:10ADF0009847DBE76388AA889A4204BF4FF6FF733F
:10AE00006380D3E7ADDF7047AEDF704770B50546AE
:10AE10008AB00C46002962D0002860D00388502BED
:10AE200037D0572B72D0102B59D1818860690026FA
:10AE300001AA0196FFF765FE082231460DEB0200DC
:10AE400002F01CF902232189A888CDF80CD002AAAF
:10AE50000293FFF7D7FF002841D1A369002B3ED012
:10AE60000398FFF775FE002839D0019B0BB1012232
:10AE70001A701822002104A802F000F902238DF8AC
:10AE80001030AB88ADF81830019B05940793A36987
:10AE900023E08188606902AAFFF733FE18220021AF
:10AEA00004A802F0EBF8AB882189ADF81830EB88E4
:10AEB000029A05949942079218D12E8A022E15D132
:10AEC0006AB105F11200FFF743FE029B48B101226F
:10AED0001A708DF81060A3690BB104A898470AB0E6
:10AEE00070BD187003238DF81030F4E7A2899A42E0
:10AEF000F5D1A369002BF2D000228DF8102005F1C6
:10AF0000120208922A8AADF82420E6E78188606957
:10AF100002AAFFF7F6FD01460028E0D1029B1B784C
:10AF2000002BDCD0A369002BD9D0182204A802F092
:10AF3000A5F801238DF81030AB88ADF818300594D2
:10AF4000029BA3E7F0B50F4687B016461C460546A0
:10AF500018B3406901AA1946FFF7D3FDD8B94FF6D7
:10AF6000FF739C421BD0019BCBB11B78CBB13388C4
:10AF7000F42B18D80146102202A802F07FF8AB8803
:10AF8000ADF8083002A901232046CDE904678DF809
:10AF90000A30FFF739FF07B0F0BD0E20FBE70520B0
:10AFA000F9E70820F7E70720F5E70000014B1878DC
:10AFB000704700BF2041002007B508496846FDF7EB
:10AFC00068FF019B13B903B05DF804FBD3E90020CF
:10AFD00090476846FDF767FFF3E700BFF83B0400C2
:10AFE000FFF7EABF61DF704730B5114DADF5017D68
:10AFF0004FF4FA740DF1020103A8ADF80240FFF717
:10B00000F1FF70B9294601A8FDF743FF029B002B11
:10B01000F0D003A8D3E90021904701A8FDF743FF32
:10B02000F4E7052801D0FCF735FE0DF5017D30BDB4
:10B03000103C0400024B1B780BB1FFF7D5BF7047E3
:10B04000214100204BDF70471FB50D4C01A8FFF7D1
:10B05000F9FF70B9214602A8FDF71BFF039B002BE7
:10B06000F4D00198D3E90021904702A8FDF71BFF17
:10B07000F4E7052801D0FCF70DFE04B010BD00BFB9
:10B08000283C04002DE9F04F93B08946BDF88410A8
:10B090000A920191BDF87C20BDF888100291BDF89C
:10B0A0008C100B91514289B20E91BDF87410BDF80D
:10B0B00080B009909A46BDF878308A1A0F925A42A9
:10B0C00092B21092BDF87020D31A002711933DB2AE
:10B0D000554561DA00230093099B0E982B440D938C
:10B0E00021E023B20893119B01FB0B330493079BD0
:10B0F0006FF0800E059A93422BDB069B19440AFBE6
:10B1000001F10C9B5C4403F801E00CF1010CA4B2CA
:10B11000029B0FFA8CF19942E3DB009B0133009311
:10B12000019B184480B2BDF900300B9A934231DA8A
:10B1300002B20F990792019A109C03FB021205922A
:10B14000029A53430693259B2B444FF0000C0C931B
:10B15000DEE703FB09F20392089A049EB24202DB87
:10B1600001331BB2C6E7002B11DB002A0FDB0A9E5E
:10B170009E420CDD91450ADD039E06EB02080AFBA8
:10B1800008F80D9E16F90880C645B8BFC6460132BC
:10B1900012B2E2E701379AE713B0BDE8F08F2DE96C
:10B1A000F04FA5B01F46BDF8BC300A93BDF8C030C3
:10B1B0000093BDF8C4300B93BDF8C8301B93BDF8A5
:10B1C000CC301C93BDF8D0301D93BDF8D4301E9305
:10B1D000BDF8F4300C93BDF8F8301F939DF8EC30B7
:10B1E0001A925A1E534253410F93009B0B9ABDF87B
:10B1F000DCC0BDF8D8E019907B43534318930CFB97
:10B2000001F3169307FB0EF315930CF1FF334FF088
:10B2100000090D930EF1FF330691C846CA460E93FE
:10B220000A9B534540F3C1803C9B53444FF0000BB5
:10B23000239317E01E9B1C9A0D990BFB03F39B1A9B
:10B240000C9A0BFB02F212920D9AD21A20921A9AC1
:10B25000D21A0A44CDE9212300200C9B83420BDC47
:10B260000BF1010B1F9B5B45E4DC0F9B9844189B83
:10B270000AF1010A9944D3E71D9B0B9C00FB03F5DF
:10B280001B9BED1A209B93FBFCF10E9B5A1B219BF1
:10B2900093FBFCF3A342A8BF23461393069B0E9C8B
:10B2A00092FBFEF25B1B2344009C93FBFEF3A34244
:10B2B000A8BF234614933A9B53F8283009930124DE
:10B2C00004FA03F32341389C21EAE17122EAE27295
:10B2D0003CB114F90A60399C54F8284006FA04F489
:10B2E0002344229C01FB0C46069C6643009C4C4375
:10B2F00005940EFB0254179422E0049D199C2C44E3
:10B300000794019D2E9C2C44089400240294029CD6
:10B31000A74224DC039C049D01340394159C25441E
:10B32000019C04953C440194039C2546149CA54231
:10B33000E3DB169C009D2644059C2C4401310594BA
:10B34000139CA1421FDA179C0392351907FB05F4E1
:10B350000494059C141907FB04940194E4E7079CEA
:10B36000254615F9014B1094089C0795254615F9BB
:10B37000014B1194109C08952546119C15FB043334
:10B38000029C0134C2E7129A0A9902444A4309997D
:10B390000B417F2B6FF07F01A8BF7F238B42B8BF8B
:10B3A0000B46239901308B5457E725B0BDE8F08F49
:10B3B0002DE9F04F91B001250E93BDF8683003934D
:10B3C0000E9B02929B0809931D9BBDF86CE00791B0
:10B3D0000433009393080A9393000A9A049301EBB1
:10B3E0000213059300EB82030D93029B0D9A03F069
:10B3F0000303D3180F93CDE90B011C9B019305FAAE
:10B400000EF5099B06936D10069B9BB9049B099A48
:10B410000C9902FB03111D9B03EB82040E9B03F0AE
:10B42000030323446FF07F069C4240F0DD8011B09F
:10B43000BDE8F08F1C9B002B00F0BE80019B0398A1
:10B4400093F90010039B9940019B93F90120039B02
:10B450009A40019B93F902308340019890F9034090
:10B46000039884400198043029442A442B442C44F6
:10B4700001900B9F07980A9E52E017F9029C10F961
:10B480000EBC17F9046C10F910AC17F9018C17F900
:10B4900003CC1BFB09FB16FB0ABA10F90DBC514487
:10B4A00010F90FAC1BFB09FB16FB0ABA10F90ABC1A
:10B4B000524410F90CAC1BFB09FB16FB0ABA5344AF
:10B4C00010F909AC10F90BBC1AFB09F916FB0B9922
:10B4D0004C4410F9069C10F9086C19FB08F91CFB88
:10B4E000069610F9059C314410F9076C19FB08F910
:10B4F0001CFB069610F9029C324410F9046C19FBEF
:10B5000008F91CFB0696334410F9016C10F9039CF2
:10B5100016FB08F8089E1CFB0988013E4444B6B29D
:10B520000896089E10300437002EA6D105980D9F6E
:10B530000F9EB74200F1040043D141FA0EF1079883
:10B54000049E7F293044A8BF7F216FF07F0642FA16
:10B550000EF2B142B8BF31467F2AA8BF7F220790C2
:10B56000009843FA0EF3B24200F8041CB8BF32460A
:10B5700000997F2BA8BF7F2301F8032CB342009AC8
:10B58000B8BF334602F8023C069B44FA0EF47F2C07
:10B5900003F1FF33A8BF7F249BB2B4420693134646
:10B5A00003F10403B8BF344602F8014C0093DDE90F
:10B5B00004231344059327E72C462B462A462946A5
:10B5C00057E717F9016B10F904CC16FB0C1110F9B1
:10B5D00003CC16FB0C2210F902CC16FB0C3310F92D
:10B5E00001CC16FB0C44A3E71C9AB2B11046039F92
:10B5F00010F9012B1C90BA402A440020029F874278
:10B600000DDC42FA0EF27F2AA8BF7F22B242B8BFF9
:10B61000324604F8012B394406E72A46EDE70B9F32
:10B6200017F900C00F5601301CFB0722E6E72DE991
:10B63000F041034606460F186FF48074BB4214D1E4
:10B64000083C24B200254FF0010CBE4213D14FF448
:10B65000801696FBF5F600252F4604F10D0C6FF0D1
:10B660007F0EA94212D1BDE8F08113F9015BAC4213
:10B67000B8BF2C46E2E716F9013BA342C1BF1B1B32
:10B6800083F305030CFA03F3ED18DEE74357A342F7
:10B690000EDDACEB030383F3050346FA03F37F2BC4
:10B6A000A8BF7F237345B8BF734653550135D8E70C
:10B6B0005755FBE701440023884200D1704790F9B9
:10B6C0000020002AB8BF03700130F5E72DE9F04FE4
:10B6D000A7B09C46BDF8C4300E93BDF8C8300593A2
:10B6E000BDF8CC300F93BDF8D0301E93BDF8D430E8
:10B6F0001F93BDF8D8302093BDF8DC302193BDF8FE
:10B70000E4300393BDF8FC301093BDF80031229370
:10B710009DF8F4301D925A1E534253411393059BDA
:10B720000F9ABDF8E0E01C9003FB0CF353431B930E
:10B73000039B0B914B4319930CFB0EF31893039B44
:10B74000013B4FF0000911930EF1FF33C846CB4681
:10B7500012930E9B5B4540F3E2804FF0000A17E026
:10B76000219B1F9A11990AFB03F39B1A109A0AFB5B
:10B7700002F21592119AD21A23921D9AD21A0A44F1
:10B78000CDE924230020109B83420BDC0AF1010A3F
:10B79000229B5345E4DC139B98441B9B0BF1010B4C
:10B7A0009944D6E7209B039A039C00FB03F51E9B5C
:10B7B000ED1A239B93FBF2F1129B5A1B249B93FBE4
:10B7C000F4F30F9C92FBFEF2A342A8BF234616930C
:10B7D0000B9B129C5B1B2344059C93FBFEF3A34233
:10B7E000A8BF234617933C9B53F828300493049C2E
:10B7F000012303FA04F71F413A9B21EAE17122EA8F
:10B80000E272CBB113F90B603B9B53F8284006FA68
:10B8100004F43C442646E717CDE90067039B259CCA
:10B8200001FB03460B9B73430693059B4B430A9313
:10B830000EFB02531A9326E03B46FC17CDE9003479
:10B84000ECE7099C1C9B03EB44030C93089C309B86
:10B8500023440D9300230793079B9C4523DC189BEF
:10B86000099C1C44089B0994634401370893179B67
:10B870009F42E6DB199B069C1C4406940A9B059C90
:10B88000234401310A93169B994222DA1A9B069CA3
:10B89000E5180CFB05F309930A9BD4180CFB0493E1
:10B8A00008931746E3E70C9B1C4634F9023B0C94C3
:10B8B0001E460D9B1C4614F9013B14930D94DDE9C3
:10B8C0000045149BC6FB8345079BCDE9004501332A
:10B8D000C1E7159B049D1A180E9B03FB02B2049B43
:10B8E000B3F12001C3F12004009B23FA05F3019D6D
:10B8F00005FA04F443EA04035FBF2C460C412146D9
:10B900000B4347F6FF718B42A8BF0B4605498B429C
:10B91000B8BF0B463E99013021F8123033E727B00B
:10B92000BDE8F08F0080FFFF10B500231A468B4260
:10B9300000D110BD30F91340002CB8BF20F81320FF
:10B940000133F4E7486108467047000008B500F18C
:10B950006003027A32B10C309842FAD1024801F009
:10B9600033FB002008BD00BF343C04002DE9F0414A
:10B9700005461148114E124FDFF84C8001F024FBB0
:10B980000024A30702D1304601F01EFB0C2305F171
:10B9900008026343D15C51B1404601F015FB01340C
:10B9A000082CEED1BDE8F041064801F00DBB384649
:10B9B00001F00AFBF3E700BF303D04007E3D0400C8
:10B9C0001D3D0400C4DF0200A03C040008B970471C
:10B9D0005869436A1B68002BFAD1704708B50246C4
:10B9E00029B9094801F0F0FA6FF0060008BD0068B7
:10B9F000FFF7ECFF08B91160F8E7426A0B6A1360C1
:10BA000000201A60F2E700BFA43C040050B10268B5
:10BA1000137A13B9002353727047013BDBB21372E0
:10BA2000002BF7D0704738B5044648B10025E068D0
:10BA300000F0E3FBA4680544002CF8D1284638BD8B
:10BA40000546FBE7002100B970470269137A13B974
:10BA500051728068F7E7013BDBB21372002BF8D11B
:10BA6000F6E7B0FBF1F301FB13030BB10844C01A76
:10BA70007047000038B50421FFF7F3FF054601F0D9
:10BA800005FA044638B1054A13682B4413600021B7
:10BA90002A4601F0F3FA204638BD00BF24410020B9
:10BAA000F8B506460D4611B3F8B14C6A5CB1226890
:10BAB000234642B11F465B68002BFBD10820FFF7ED
:10BAC000D9FF04467860306A98B1026852B10746DF
:10BAD00080680028FBD11C20FFF7CCFFB86040B184
:10BAE0007A6942616A6A206002603046F8BD0E469B
:10BAF000FBE700236A6A23601A60FFDE0EB477B5A5
:10BB0000079E044620B108AB01930025B54205DB32
:10BB1000204603B0BDE8704003B07047019B20464B
:10BB20001A1D196801920135FFF7BAFFEEE71346B7
:10BB30000A460221FFF7E2BF10B5044690B98820FB
:10BB4000FFF798FF0123044684F88530084BA36073
:10BB5000084BE360084B2361084B6361084BA3610A
:10BB6000204610BD8822002101F088FA0023EBE76F
:10BB7000DDB90200A1BA02002FBB0200FDBA02002B
:10BB800045B9020030B10023406801330028FBD1E1
:10BB9000184670470346FBE72DE9F04F2DED028B69
:10BBA00085B01646012280460C4603921F4603B913
:10BBB00003AFDFF850B3002C00F0A980256A2B6892
:10BBC000002B35D12B69CBB93046FFF7BFFE037A86
:10BBD000013303728146E86800F00FFB0421FFF790
:10BBE00040FFD9F8043083422CBFC9F80430C9F8AB
:10BBF00004000123C5F8109089F80930236A63B165
:10BC00009A6852B11A69002A00F04A81527A012AD0
:10BC100040F046819B68002BF4D1A36820469847EA
:10BC200044450ED043461A461B6843B9146008E0E9
:10BC30002B681B692B61AD68002DF9D1DEE79442BA
:10BC4000F1D125699DB13046FFF780FE286020695B
:10BC50000268137A0133137201235372406804217E
:10BC6000FFF7FFFE536883422CBF53605060396872
:10BC7000206A01914B1C3B60FFF7D5FE08EE100ACD
:10BC8000606AFFF7D0FE2369A56A019908EE900A61
:10BC9000002B42D0D3F80490237F0B2B3FD0824A55
:10BCA0000C2000FB0322814801F08EF96369002B10
:10BCB00042D0197A7E4B7F4803EBC10101F084F931
:10BCC0007D4801F081F94FF0000A626AD268517C28
:10BCD000514535DD5268794832F81A1001F074F98F
:10BCE0000AF1010ABAF1030FEFD1754801F06CF9BE
:10BCF00055BB744801F068F918EE902A18EE101A36
:10BD000071484B4601F060F9656A002D47D100206B
:10BD100005B0BDEC028BBDE8F08F9946BCE76B4ADD
:10BD20006B4801F051F9236B6A48197D6A4B03EBAC
:10BD3000C10101F049F9B9E7684801F045F9BFE7E9
:10BD4000674801F041F9CBE742F20F739D4204D8F6
:10BD50006448294601F038F9CEE7634B9D4205D887
:10BD60004FF47A716148B5FBF1F1F3E7604B9D4206
:10BD70000CD8604A6048B5FBF2F142F2107302FB46
:10BD80001152B2FBF3F201F01FF9B5E75B4AB5FBC4
:10BD9000FBF15B480BFB1155B5FBF2F2F3E7236AAD
:10BDA000A9681A7E002933D16968002930D10AB107
:10BDB0002A7E6AB91B692B613046FFF7D7FD2069DF
:10BDC000FFF724FE636A1B68002BA0D05C69F2E6D3
:10BDD0003046FFF7BBFD054610B96FF0060097E748
:10BDE00040F201130381636AD86800F006FA042167
:10BDF000FFF737FE6B6883422CBF6B606860636A35
:10BE000030461D61FFF7B2FD206AFFF71BFED6E743
:10BE10000AB32A7EFAB14FF001092B682BB33046E2
:10BE2000FFF794FD28610028D7D0E86800F0E5F915
:10BE30000421FFF716FE2A69536883422CBF536022
:10BE400050602846FFF79EFE107282F80990AD6898
:10BE5000002DE2D109E01A692A612846FFF792FE17
:10BE6000137A18440123107253723046FFF77EFD97
:10BE7000206AFFF7E7FD2069FFF7C8FD646A002C20
:10BE80003FF445AF2546296841B149693B463246F2
:10BE90004046FFF781FE6D68002DF4D1A468EEE7FF
:10BEA0006FF0070034E700BFF5400400E93C0400F0
:10BEB000954004000C3D0400203D0400223D040098
:10BEC000273D04002B3D0400553D0400794104004A
:10BED000F83C0400043D0400D5400400143D040077
:10BEE0002E3D0400343D04003F420F00393D040064
:10BEF000FFC99A3B40420F003F3D040080969800E6
:10BF00004A3D040000CA9A3B2DE9F04106460D481F
:10BF10000D4F01F059F80024254624364FF00C0847
:10BF200008FB05F32946F25838460135144401F060
:10BF30004BF8082DF4D12146044801F045F820467D
:10BF4000BDE8F081633D0400803D04008C3D0400A9
:10BF500030B5002300F16004426A2AB1CD180562B1
:10BF60000C3084421344F7D1002030BD006800B982
:10BF70007047036A43B9436A002BF7D0D3E9032122
:10BF800009689B681160F7E7D3E9032109689B689A
:10BF90001160EFE708B528B9084801F015F84FF02F
:10BFA000FF3008BD00680028F6D0436913B1426A2B
:10BFB000D2685A6000680028F7D1F2E7B83D040063
:10BFC00030B585B0012315460393044630B9334894
:10BFD00000F0FAFF4FF0FF3005B030BD0029F6D079
:10BFE000C0E900121AB90846FFF7F0FC60600323AD
:10BFF000042200212A4800F0E7FF2A4800F0E4FF6D
:10C00000294800F0E1FF294800F0DEFF284800F051
:10C01000DBFF284800F0D8FF224603AB52F8201B74
:10C020000846FFF7B9FD234800F0CEFF2B7F032B16
:10C0300006D0214A21480C2101FB032100F0C4FF56
:10C040002046FFF761FF0190FFF714FD01990546B7
:10C0500028B91B4800F0B8FF6FF00600BCE7194B89
:10C060001948196800F0B0FF29462046FFF770FF15
:10C070002046FFF77BFF2046FFF78CFF2368002058
:10C08000002133B19A6A1B68801841F10001002B2E
:10C09000F7D1C4F8800000209EE700BFB83D04003F
:10C0A000CD3D0400E43D04002E3E04004F3E04005C
:10C0B000693E0400CC3E0400F54004002F3F04001C
:10C0C0007E3F040024410020BD3F040038B50446F3
:10C0D00030B9084800F078FF4FF0FF35284638BDEA
:10C0E000436898470546606908B10368984700238C
:10C0F000E362F3E7B83D04002DE9F84389460646BC
:10C1000038B91C4800F060FF4FF0FF352846BDE805
:10C11000F8830468002CF4D04FF001082046FFF7A4
:10C12000D5FF054650B1227F134903460C2000FB82
:10C1300002124146114800F047FFE7E7F36983B177
:10C14000214630469847074658B1237F0A4A0C21BA
:10C1500001FB032301464246094800F035FF3D46F6
:10C16000D4E7A145D2D02468002CCFD008F1010833
:10C17000D4E700BFB83D0400F5400400DF3F0400F1
:10C18000094004000021FFF7B7BF000010B5642488
:10C19000B0FBF4F3B3FBF4F204FB123204FB130321
:10C1A00040F29314A04242F21071B0FBF1F104D0BE
:10C1B000044800F009FF012010BD034800F004FF0F
:10C1C0000020F9E73F4004007C40040010B50180E6
:10C1D0004280838010BD42800122018082807047AE
:10C1E00042800122018082807047428001220180CA
:10C1F0008280704748610846704710B560B1416859
:10C20000407C0B880122904201DC184610BD31F8B9
:10C21000124001326343F6E70346F6E7437C426887
:10C2200003F10043013B32F81300704701282DE968
:10C23000F84306468846174608D030B1154800F046
:10C24000C3FE00242046BDE8F88301270421142002
:10C25000FFF707FC4FEA4809044604214846FFF768
:10C2600000FC204400EBC700FFF704FC0446002854
:10C27000E8D000F11405456004214846FFF7F1FBC2
:10C280000544A56005EB8705E56084F811802674F8
:10C29000D8E700BF8142040008B100F03FBE7047FC
:10C2A00070B51546049A427404460E46520019466B
:10C2B000406800F0BAFE9DF81430A374A3681E60B5
:10C2C000E36820461D6070BD73B51546069A42743A
:10C2D00004460E4640681946520000F0A6FE237C34
:10C2E000012B13D12046FFF799FF82009DF81C30E7
:10C2F000A3743146A068019200F097FE019AE068AD
:10C30000294600F092FE204602B070BD0422EDE7FF
:10C3100037B50A8A038A9A4204460D461ED10B7C21
:10C32000012B19D10846FFF779FF8200AB7CA3747B
:10C33000A968A068019200F078FE019AE968E068B7
:10C3400000F073FE6A7C627469686068520000F0F5
:10C350006CFE204603B030BD0422E7E70024F8E776
:10C3600010B54068837C0468102B07D1FFF745FFA8
:10C3700001462046FFF7D8FA002010BDFFF73DFF29
:10C3800001462046FFF796F9F6E7000008B50C20B5
:10C39000FFF770FB18B1024B03600123037208BD65
:10C3A00061C30200043803288CBF08460720704789
:10C3B000036A37B51A680446D068D860417C019199
:10C3C000FFF72CFF0199656A02460020FFF72EFF58
:10C3D000D4E90823E860D868D168FFF799FF63695A
:10C3E0003BB1626A187AD26894682168FFF7DAFF75
:10C3F0002060002003B030BD2DE9F04F04469DB011
:10C40000036AD4F850A0678EDAF80060DD681697EA
:10C41000278E15961797666AE78F1897D5E9000358
:10C42000A78FD6F80C901997278F1A97E78ED9F80F
:10C43000046059881A881B979B88676DB6F804803A
:10C44000B4F844C0B4F842E03F6807EE903AD4E94B
:10C450001643AD7CB6F802B09AF810A0D9F8009057
:10C460003688CDF820C0CDE90B341B9B07931A9B6F
:10C470000693199B0593189B0493179B0393169B94
:10C48000102DCDE901834FF00005159B0093CDE9F8
:10C490001155CDE90FB6CDE90DA9CDE909E717EEA4
:10C4A000903A05D1FFF712F900201DB0BDE8F08FDA
:10C4B000FEF775FEF8E7836910B504462BB9006DE9
:10C4C000FFF7EAFE606DFFF7E7FE002010BD0000F9
:10C4D0002DE9F7430546A420FFF7CCFA04460028CF
:10C4E0006FD004230126037700F1600180F87860A3
:10C4F00080F8946080F8A060FFF77CFE04F17C0176
:10C5000020622046FFF776FE3F4B63603F4BA360FF
:10C510003F4BE360AB686062A5615B7C95F91C10E2
:10C52000032B04F1300904F1360804F142074CD121
:10C530000A4668463146FFF74EFE00982063BDF874
:10C540000430A9F8043095F91E2031466846FFF7FB
:10C5500047FE009BC4F83630BDF80430A8F804301C
:10C5600095F9222031466846FFF73FFE009BC4F84C
:10C570004230BDF80430BB80AB69E36495F82430E9
:10C5800084F84830AA682265EA6862652A69A2656B
:10C59000012B6A69E26514D1238E5A1EB4F8423029
:10C5A000534303EBD3735B10A387638E5A1EB4F817
:10C5B0004430534303EBD3735B10E3870023A4F8A9
:10C5C0004030204603B0BDE8F08395F91D20684651
:10C5D000FFF701FE00982063BDF80430A9F804308D
:10C5E00095F91F2095F91E106846FFF7F9FD009B8D
:10C5F000C4F83630BDF80430A8F8043095F923208B
:10C6000095F92210AFE700BFF9C302002FC6020060
:10C61000B7C4020050B1012A1EBF009A01F1FF31D8
:10C6200002FB11005A1E1044B0FBF3F07047F7B53F
:10C63000026A456A1368DB68D3600446C26C597CA1
:10C640000020FFF7F3FDD4E90823E860D168D8683B
:10C65000FFF75EFE636ADB689D68236ADB689A68A1
:10C66000236D11689B681B681944A36D1B68C91A68
:10C67000636929601BB1187AFFF794FE2860236A6A
:10C6800094F84820DB68218E5D68B4F84230288831
:10C690000093E38EFFF7BEFF636ADE687768388039
:10C6A000B4F844306888618E94F848200093238F52
:10C6B000FFF7B0FFE36C7880BB8094F84830218EA0
:10C6C000608E012B12D1B4F84420431E534303EB78
:10C6D000D3735B10B4F84220E3874B1E534303EB44
:10C6E000D3735B10A3870023A4F840304143A8888C
:10C6F00000FB01F53046FFF780FD6843A062002093
:10C7000003B0F0BD036A30B51A680446D068D8603B
:10C71000437C032B85B042D1002201211046656A7B
:10C72000FFF784FD0123E860ADF80C30236BADF812
:10C730000E30616B606A0823019302230093D1E9F4
:10C74000021203ABC068FFF7BFFD636ADB689D6838
:10C75000236ADB689A68636B11689B681B681944DD
:10C76000E36B1B68C91A636929601BB1187AFFF76C
:10C7700019FE2860236AD868FFF73FFD236940004F
:10C780005860236AD868FFF738FD636A0546D868A1
:10C79000FFF733FD6843A062002005B030BDFFF70E
:10C7A0003DFD012102460020656AFFF73FFD236B36
:10C7B000E860ADF80C3008230193616B606A0123D7
:10C7C000BCE7036CF0B51D68C36B04461E68036AC2
:10C7D000D868636B0768196889B0B6B20791FFF72C
:10C7E0000CFD636ADA68537C516803F10043013B36
:10C7F000ADB231F813302169D1F800C0DCF8001077
:10C80000049112680392A26B079912680292019632
:10C8100082B200953846FEF7CBFD002009B0F0BD8E
:10C82000836910B504462BB9406BFFF735FDA06B4B
:10C83000FFF732FD002010BD38B505468820FFF710
:10C8400019F9044648B308230377012380F85C30C4
:10C8500080F8783080F8843000F14401FFF7CAFC9A
:10C8600004F1600120622046FFF7C4FC04F17C0360
:10C8700023610B4B63600B4BA3600B4B6062E36067
:10C88000A868FFF7CBFCEB68A363AB6863632B6915
:10C89000E3636B6920632364A561204638BD00BF54
:10C8A000C3C7020005C7020021C80200002070476C
:10C8B00030B5036A1A680446D068D86087B0417CF6
:10C8C0000391FFF7ABFC0399656A02460020FFF76E
:10C8D000ADFC236AE860D868FFF78FFC236AADF8E7
:10C8E0001400D968606A01230822CDE9003205AB43
:10C8F000D1E90212C068FFF7E7FC002007B030BDA5
:10C9000010B56820FFF7B6F80446B0B11A230377D4
:10C910000B4B43600B4B8360012380F848300023AE
:10C9200080F8643000F13001FFF764FC04F14C0141
:10C9300020622046FFF75EFC6062204610BD00BF0B
:10C94000ADC80200B1C8020010B50446FFF7D8FF19
:10C9500000B1846110BD37B5036A0446D868417CD4
:10C960000191FFF75BFC0199656A02460020FFF721
:10C970005DFCD4E90823E860D168D868FFF7C8FCFB
:10C98000002003B030BD13B5036AC16BDB680191B1
:10C9900018461C68FFF731FC01990246204600F05A
:10C9A00044FB002002B010BDF0B5054687B07820EA
:10C9B000FFF760F80446002847D002230377294B8D
:10C9C0004360294B83600127002380F8743000F115
:10C9D000400180F85870FFF70DFC04F15C01206203
:10C9E0002046FFF707FC6B686062587C5B68B842C2
:10C9F00004F130062CD11B880246014602A8FFF73D
:10CA0000E5FB029820636868BDF80C30B3800368CA
:10CA1000E3638368226B1B68A363A38EADF81430B5
:10CA20000492FFF7FBFB032102460020256AFFF773
:10CA3000FDFB03230822E860206ACDE9003204AB45
:10CA4000A16BC0680022FFF72BFC204607B0F0BDA9
:10CA500019885A88022809BF13469B880A46394616
:10CA6000CCE700BF87C9020057C90200036A37B587
:10CA70001A680446D068D860417C0191FFF7CEFB6C
:10CA80000199656A02460020FFF7D0FBD4E908232C
:10CA9000E860D868D168FFF73BFC63693BB1626A24
:10CAA000187AD26895682968FFF77CFC2860236AA9
:10CAB000626ADB6894F842505968D2680B88E08E4D
:10CAC0005268012D10D10344013B93FBF0F3138016
:10CAD000208F4B880344013B93FBF0F353808B88FA
