:020000022000DC
:1070000000000420757302005D7302005F730200CC
:1070100061730200637302006573020000000000E8
:107020000000000000000000000000006773020084
:1070300069730200000000006B7302006D730200B0
:10704000E58902006F7302001D8C02006F7302005D
:107050006F7302006F7302009D8A02006F7302005B
:107060006F7302006F7302006F7302006F73020090
:107070006F7302006F7302006F7302006F73020080
:107080006F730200DD7E02006F7302006F730200F7
:107090006F7302006F7302000D9402006F730200A1
:1070A0006F7302006F7302006F7302006F73020050
:1070B0006F7302006F730200000000000000000008
:1070C0006F7302006F7302006F7302006F73020030
:1070D0006F7302006F7302006F7302006F73020020
:1070E0006F7302006F7302006F73020000000000F4
:1070F000000000006F730200000000006F730200C8
:10710000000000000000000000000000000000007F
:10711000000000000000000000000000000000006F
:10712000000000000000000000000000000000005F
:10713000000000000000000000000000000000004F
:10714000000000000000000000000000000000003F
:10715000000000000000000000000000000000002F
:10716000000000000000000000000000000000001F
:10717000000000000000000000000000000000000F
:1071800000000000000000000000000000000000FF
:1071900000000000000000000000000000000000EF
:1071A00000000000000000000000000000000000DF
:1071B00000000000000000000000000000000000CF
:1071C00000000000000000000000000000000000BF
:1071D00000000000000000000000000000000000AF
:1071E000000000000000000000000000000000009F
:1071F000000000000000000000000000000000008F
:10720000354936480A1A02D0072291438D4634493F
:1072100034480A1A06D00722914381F309880222D2
:1072200082F3148830483149314A00F044F831483B
:107230003149324A00F03FF831483249324A00F0D1
:107240003AF832483249334A00F035F83248334987
:10725000334A00F030F833483349344A00F02BF811
:1072600033483449344A00F026F83448344900227F
:1072700000F02CF833483449002200F027F8334856
:107280003349091A082902DB002202604160314AB1
:1072900090471F481F49884205D00268043003B454
:1072A000904703BCF7E700208646EC46002000210B
:1072B000294A9047FEE7884207D0521A05D0037842
:1072C00001300B700131013AF9D17047884202D088
:1072D00002700130FAE770470000042000E003204C
:1072E000000004200000042060A50200E82A00201D
:1072F00050980220D0730200D073020018A0020040
:1073000060A50200E82A0020E82A0020F4A002007C
:10731000F4A00200F4A00200F4A00200F4A0020015
:10732000F4A00200F4A00200F4A002005FA5020095
:10733000C812050050980220509802205098022050
:1073400000A0022000A0022000A0022000A0022035
:1073500000C002209D730200B98E0200FEE7FEE726
:10736000FEE7FEE7FEE7FEE7FEE7FEE7FEE7FEE7F5
:1073700000F002B8FFF7FCBF0F484FF00701884349
:1073800085460E4880470E48016841F4700101604F
:10739000BFF34F8FBFF36F8FFFF732BF09480A4922
:1073A0000A4A884207D0521A05D0037801300B7080
:1073B0000131013AF9D170470000042049860200EA
:1073C00088ED00E0F4A00200E82A0020E82A00206E
:1073D0007047000007B5044B0093044A402300F0B7
:1073E00030F803B05DF804FBF173020051980220FD
:1073F0002DE9F84388461446B2B10F4B0F4E0325D2
:10740000002743F00109224608EB0701002001F0A4
:107410004DFE0744241A48B933782BB14FF47A4013
:10742000C847013D02D13570BDE8F88301233370B0
:10743000002CE8D1F8E700BF00A10200509802201C
:107440007047F0B595B01D46164608460C4601F04B
:1074500091F81A9B0D93CDE9086500252B4608226B
:1074600005A920460A958DF82C500C9501F09FF83F
:10747000079B0293069B03939DF814308DF81150DF
:1074800003F00302012A1DD1BDF81420059DC3F3AA
:10749000C203C2F383168DF81030B20008230EA980
:1074A000204601F084F8C5F3952508AB00933246D9
:1074B00002AB0EA9284600F0D1FA204601F05EF892
:1074C00015B0F0BD022AF8D1BDF81650C3F3C203BF
:1074D000C5F389158DF810300827082D2E4628BFD2
:1074E00008263B4632460EA9204601F060F8AD1B47
:1074F00008AB02AA31460EA8374400F013FB002D5A
:10750000EBD1DAE7037813F0040216D003F003039B
:10751000012B03D0022B09D0012070470A68008894
:107520000232C0F3831002440A60F5E70B68428818
:10753000023303EB92130B60EEE710467047000036
:107540002DE9F04F87B000230446861C0DF107009B
:107550000F4615468DF8073000F070FC404A516820
:107560003960936803F580735B1A924602F21C47F8
:1075700002F5836902F21448B3421AD30020002DA9
:1075800069D004F00F039B0143F0050363F30F0080
:10759000DAF80430DAB203321E444AF822009DF8C9
:1075A0000700CAF8046000F06DFC012007B0BDE8D8
:1075B000F08F0121384600F020FD484600F035FDEF
:1075C000404600F032FDDAF808000290C0B2033005
:1075D0000AEB800002A9FFF795FF029B30BBDAB2ED
:1075E0000AEB8202D16803919A1C0133DBB20AEBE9
:1075F00083030292D3F80CB001F00303012B22D0D5
:10760000022B15D08346404600F012FD10B1029BBC
:10761000CAF808305946384600F0EFFCDAF808306E
:10762000DAF8042003F580739B1AA5E7D8B2CEE7F9
:10763000BDF80E30C3F3891303334FEA1B4B02EB43
:1076400093030293DFE7BDF80C30C3F383134FEAD3
:107650001B4B1344F5E7A40544F0060098E700BF70
:107660006499022030B50A4C71B10A4A0A49121BCA
:10767000D20800239A4201D1002030BD31F82350B6
:10768000854202D00133F5E7034654F83300F4E7AE
:1076900064A00200E4A00200E82A0020094B01399E
:1076A00003EBC000032909D8DFE801F00A02040651
:1076B0000420704700797047407970470020704778
:1076C0000220704764A0020070470000034BD3E91A
:1076D0000130C31A58425841704700BF64990220D4
:1076E0002DE9F04186B0FFF7F1FF0546002840F094
:1076F000E680744CC4F81804BFF34F8FA36802935C
:10770000DBB2033304EB830002A9FFF7FBFE029B0D
:1077100018B1D4F81824002A55D0DAB2991C0133D4
:1077200004EB8202DBB204EB8303D268DB680493D0
:1077300002F00303022B039202914FD1BDF80E30E9
:107740006148C3F38917502F3E4628BF502666F381
:107750008F1306F10801ADF80E3000F0DCFE05468F
:10776000002800F0978000F005FF002303A90822FD
:10777000284600F012FF0299CB43DBB20133C9B2B5
:107780000331B6EB830F4FEA830804EB810122D962
:1077900008234246A6EB0806284600F0FEFEF6B295
:1077A0004A4908F108033246284600F0F6FE029BDB
:1077B000033703EB97070297D4F81834002B41D115
:1077C000D4F8106451E062689A4299D8A2602846C1
:1077D00006B0BDE8F08108233246E5E7012B59D118
:1077E000BDF80C303848C3F38311062928BF0621A1
:1077F00061F3891302318900ADF80C3000F08BFE83
:107800000546002846D000F0B5FE0023082203A953
:10781000284600F0C2FE0026BDF80C20C2F38312F9
:10782000B300964203F10803C6D202994A1CC9B2BA
:107830000331029204EB81010422284600F0ADFEE0
:107840000136E9E7284600F099FEFFF73FFF80F098
:107850000100C5B2BBE7F3685B7923B13368294601
:107860001B6830469847F3681E68002EF3D12846FF
:1078700000F084FE0DF107008DF8076000F0DEFADD
:10788000D4F818340BB9029BA3609DF8070000F0F0
:10789000F9FADAE7D4F8104454B90D4B0D480E4903
:1078A000C01AC008000440F0020000F05FF8CCE706
:1078B000236820469B689847E3681C68ECE700252E
:1078C00085E700BF6499022050A002007099022051
:1078D00064A002008CA0020024A102002DE9F3475D
:1078E00004460E46924601A9012218469946FFF722
:1078F00027FE1C4F10B3019D4FF00008AA1CC8457D
:1079000008EB020125D11848002100F047FB80F365
:107910001000000440EA1440E4006B1C04F038043A
:10792000DBB2EDB244F0010407EB8303033544EA14
:10793000881444EA8624D86047F825403B781BB178
:10794000FFF7CEFE0028FBD1FFF7BEFE02B0BDE878
:10795000F087C9B207EB81015AF82830CB6008F1F3
:107960000108CCE764990220809D022000231A467A
:10797000FFF7B4BF084A38B50123D2F8104413709A
:107980001D4604B938BDE3685D71236820465B6815
:107990009847E3681C68F4E76499022007B503463A
:1079A0000846197A052911D05B7A2BB1094A0A4990
:1079B000019000F089FB01980849019000F084FBD8
:1079C000019803B05DF804EB00F073BB002AF8D017
:1079D000F2E700BF39A102003EA102005EA1020051
:1079E00030B5C38885B004460D4633B1144A0092C1
:1079F0001449154A284600F067FB217A05291DD055
:107A0000637A4BB1A088FFF749FE104B104953F839
:107A10002020284600F058FB227A0E4BA08853F80D
:107A2000222003920021FFF71DFE039A0A49034614
:107A3000284605B0BDE8304000F046BB05B030BD7B
:107A400039A1020049A1020041A10200C8A102001F
:107A50003EA10200ECA1020061A102002DE9F04369
:107A600085B01F460C9D002395F80C902B7306469D
:107A70000C46904629463846FFF7B2FFB8F1060F8C
:107A800009D8DFE808F00412181F283340003146F7
:107A9000284600F019FB002229463846FFF77EFFF2
:107AA00085F80C9005B0BDE8F08322683146284681
:107AB00000F00AFBEFE7D4E900233146284600F046
:107AC00003FBE8E7A36800933146D4E90023284686
:107AD00000F0FAFADFE7E3680193A3680093314608
:107AE000D4E90023284600F0EFFAD4E72369029393
:107AF000E3680193A36800933146D4E90023284644
:107B000000F0E2FAC7E76369039323690293E3682D
:107B10000193A36800933146D4E90023284600F07E
:107B2000D3FAB8E708292DE9F74F80460E461746E5
:107B30001C463CD8002593F80C901D73194610463E
:107B4000FFF74EFFDFF888A0DFF888B0AE4231D9EA
:107B500018F805205946204600F0B6FA0135082DE0
:107B6000F4D11949194DDFF870A0204600F0ACFAA5
:107B70004FF0000B5E4522D918F80B207E2A05D85D
:107B80001046019201F068FE019A00B92E2251467A
:107B9000204600F099FA0BF1010BBBF1080FE9D177
:107BA000012221463846FFF7F9FE84F80C9003B015
:107BB000BDE8F08F5146204600F086FACEE7294610
:107BC000204600F081FAE6E775A1020073A10200E9
:107BD00071A102006BA1020077A102001FB5002174
:107BE000039001AA44F20100CDE9011100F004F86C
:107BF00005B05DF804FB000010B572B6FFF7BAFEE1
:107C0000FFF76EFD0028FBD1104B114C1149E41A0F
:107C1000E408240444F00100FFF7A8FE0E4B1B68A3
:107C2000DB0700D500BE0D4944F00200FFF79EFEC1
:107C3000BFF34F8F0A490B4BCA6802F4E06213434B
:107C4000CB60BFF34F8F00BFFDE700BF64A0020011
:107C50008CA002000BA20200F0ED00E017A20200CF
:107C600000ED00E00400FA0510B58468C26883885E
:107C7000121B934208D3C26813400268D154C368F0
:107C80000133C360002010BD0420FCE78268C36894
:107C90009A420AD08268838813400268D35C0B70D2
:107CA000836801338360002070470520704700001F
:107CB00008B50B4800F0FCF80A4B0B49D3E9002348
:107CC0001218D1E9000143F100038B4208BF824240
:107CD00003D212F1807243F100031046194608BD29
:107CE000F02A0020889D0220A09D022037B505467D
:107CF0000C460A4801A900F0FBF860B10570446029
:107D000001A9064800F01EF918B1054800F0D4F8A2
:107D1000002003B030BD0420FBE700BF909D02208F
:107D2000F02A0020F7B5054600240DF1070017469C
:107D30000E468DF8074000F081F8D5E902230133A3
:107D400008BFB2F1FF3F07D1FFF7B2FF801941F141
:107D50000001C5E9020101249DF8070000F092F836
:107D60004CB12B69AF6103B12E6129460020FFF7AA
:107D7000BDFF03B0F0BD2046FBE737B50546002444
:107D80000DF107008DF8074000F058F8D5E90223FF
:107D900001330FBFB2F1FF3F4FF0FF324FF0FF331F
:107DA000C5E9022318BF01249DF8070000F06AF816
:107DB0002CB129460120FFF799FF03B030BD2046C2
:107DC000FBE700000648074A03780749D35C012215
:107DD00013B1043000F09ABF0C3000F03DBF00BF7B
:107DE000F82A0020E89D0220B89D022010B5014627
:107DF0000E48FFF739FF0446A8B90D480D4A03782D
:107E0000D35C63B1043000F0C9FF60B90A49074888
:107E1000FFF73CFF38B9BDE81040FFF7D3BF0C3087
:107E200000F060FFF1E7204610BD00BFA89D0220D2
:107E3000F82A0020E89D0220B89D022070B5EFF3DB
:107E4000108672B60C4A946801239CB993600B4B60
:107E50000B4DD3F8801029401160C3F88050D3F83F
:107E6000841051604FF0FF32C3F88420047006B9CB
:107E700062B670BD0370FAE7BC9D022000E100E02D
:107E8000FC06FFBD084B9A6810B55AB150B9EFF324
:107E9000108172B6054A1C6814605C685460986072
:107EA00001B962B610BD00BFBC9D022000E100E038
:107EB0000368D3F80405704790F90430002B09DB00
:107EC0005A09012103F01F0301FA03F3403202496A
:107ED00041F82230704700BF00E100E0024B034A46
:107EE0001B681068184700BFD09D0220C89D022063
:107EF00037B550E8013F9DB2C48925448489A54225
:107F000028BF2D1B0489A54202BFBFF32F8F00227B
:107F100007E0C5EA030540E80154002CE9D14FF021
:107F200001028DF803200193019B9DF803200B6053
:107F300002F0FF0322B10B880068184403B030BD83
:107F40001846FBE70A884B889A4209D150E8012F6E
:107F5000C2EA024240E80123002BF7D1012070471A
:107F60000020704701F01F024B090121914000EBF6
:107F7000830000F01EB801F01F0301229A404B0954
:107F800000EB8300D14300F02CB84B0901F01F0136
:107F900050F82300C84000F00100704710B50346B8
:107FA00053E8000F0A4643E8002494F0000FF7D18D
:107FB00010BD10B5034653E8002F42EA010043E824
:107FC000000494F0000FF6D110BD10B5034653E83D
:107FD000000F00EA010243E8002494F0000FF6D1FC
:107FE00010BD10B5034653E8002F02EA010043E834
:107FF000000494F0000FF6D110BD10B5034653E80D
:10800000002F02EB010043E8000494F0000FF6D1CA
:1080100010BD10B5034653E8002FA2EB010043E862
:10802000000494F0000FF6D110BD0121FFF7C1BF8D
:108030000021FFF7CABF37B5054600240DF1070040
:108040008DF80740FFF7FAFE2A686B6811689942BD
:108050000ED9481E106011F8014CEB68298A01FB0B
:108060000434AB6811791B1ADBB2994238BF137123
:108070009DF80700FFF706FF204603B030BD37B577
:10808000054600230DF107000C468DF80730FFF779
:10809000D5FE2A681368591C1160E968641A298A98
:1080A000B4FBF1F41C709DF80700FFF7EBFE03B082
:1080B00030BD826810B504462AB143690168006981
:1080C00098470023A36010BD0EB403B5039921B1F6
:1080D00004AB01AA019300F077F802B05DF804EB5D
:1080E00003B070470A2938B504460D4602D10D2168
:1080F000FFF7F8FFA3682268591CA160D554D4E9A2
:1081000001329A4204D32046BDE83840FFF7D1BF80
:1081100038BD00002DE9F84F9846DDE90A431546C1
:1081200082460F460A464FF00109AA420FD2C145C6
:1081300038BFC14613F0010B01D16CB900240126F0
:10814000B8F1010F1BD908F1FF386E43F8E709F1C8
:108150000109B2FBF5F2E8E79B070ED5B8F1000F75
:108160000CBF30262026A145E9D2013C31465046BD
:10817000FFF7B8FF002CF6D1E0E72026F3E7B7FBC6
:10818000F6F39D42E1D9DFF83C80B7FBF6F35046A9
:1081900018F8031006FB1377FFF7A4FF3346AB4232
:1081A000B6FBF5F6F1D2BBF1000F02D00CB1A14540
:1081B00001D3BDE8F88F20215046013CFFF792FF24
:1081C000F4E700BF2EA202002DE9F74F054617463F
:1081D0008846002900F0428118F8011B49B92B7B21
:1081E000002B00F03B81284603B0BDE8F04FFFF7BD
:1081F00060BF252940F0B780002698F800302D2B6D
:10820000424608F1010823D0302B24D02B2B25D057
:1082100000242A2B02F1010123D13B681A1D1B689F
:108220003A601C440A4613782E2B26D101324FF0B7
:10823000000A104610F8011BA1F1300CBCF1090F27
:108240001DD80A2303FB0A13A3F1300A0246F0E704
:1082500046F00106D1E746F00206CEE746F00406F6
:10826000CBE711F8013CA3F130000928DBD80A2242
:1082700002FB0434303C0A46CBE74FF0000A12F808
:10828000011B01F0FB0068289046F8D0782909D836
:108290006F290CD8632962D022D8252963D05829A8
:1082A00000F0888098F80030002B95D197E770395E
:1082B0000829F7D801A353F821F000BF3784020042
:1082C000A5820200A5820200C5830200A5820200E9
:1082D000A3830200A5820200A5820200B5830200EA
:1082E000642901D06929DDD13A68D2F80090111DC6
:1082F00089EAE9723960A2EBE9724FF0010B092AB1
:1083000035DCD34538BFD3462CB1B9F1000F01DBC2
:10831000720700D5013CB30702D5BAF1000F03D0B4
:10832000F00701D44CBB0024B9F1000F2DDAC9F1DC
:1083300000092D212846FFF7D5FE06F00302022A88
:1083400004D1BAF1000F01D11CBB0024CDE90046D5
:1083500053460A2249462846FFF7DCFEA2E73B685F
:108360001A1D19783A602846FFF7BCFE9AE70A23DF
:108370000BF1010BB2FBF3F2C1E7A345D4D22021EC
:108380002846013CFFF7AEFECCE77107D5D52B217F
:10839000D0E7A345DAD230212846013CFFF7A2FE00
:1083A000D2E73968CDE900460A1D3A6053460A22F1
:1083B0000968D0E739680A1D3A60CDE9004653469E
:1083C0001022F5E73B681A1D3A6016F00106D3F853
:1083D000009028D1B9F1000F03D0484601F0CFFA40
:1083E0000646B44200D904BB09F1FF3919F8011F50
:1083F00000293FF457AF2846FFF774FEF6E72846FA
:108400000136FFF76FFE19F806100029F7D1A642D2
:10841000BFF448AF002C3FF445AF20212846013C73
:10842000FFF760FEF3E70026EDE720212846013C38
:10843000FFF758FED5E73B681A1D3A603021284601
:108440001C68FFF74FFE78212846FFF74BFE0022FD
:108450000823CDE90032214610227CE703B0BDE8B5
:10846000F08F00BF2DE9F84FB0F806A04579D2F89B
:1084700000B09DF828900AFB05F5043D88460BEBFB
:108480000301A94203F1040488BFA5EB030BB4FB6D
:10849000FAF607460AFB1644C2F800B04EB9AAEB3A
:1084A00004055D4528BF5D46BBF1000F04D1BDE862
:1084B000F88F3F68013EF1E7043408EB06003C44C6
:1084C0002A46B9F1000F0DD02146ABEB050B01F0A8
:1084D000FAF9DA452E443F6855464FF0000428BFAC
:1084E0005D46E1E701462046EFE7F8B546790146EB
:1084F000721E0546002393422D6803D30024A64232
:1085000002D8F8BD0133F6E70F682846FFF7B7FD3C
:1085100001343946F3E72DE9F843068ACD1C0746B6
:10852000FFF789FD043E35440446B5FBF6F5F0B18E
:108530004FF48073EDB28380C680013D07608146B1
:108540004FF00008A84512D23846FFF774FD0646E2
:1085500048B163790133637108F10108C9F800007B
:1085600007608146EEE72046FFF7BFFF344620460E
:10857000BDE8F88301210430FFF73FBD10B50121AC
:1085800004460430FFF745FD10F0FF0F04D12046EC
:10859000BDE81040FFF7A9BF10BD1FB50392002230
:1085A000009203AAFFF75EFF05B05DF804FB1FB55C
:1085B00003920122009203AAFFF754FF05B05DF871
:1085C00004FB0B684A684360934208BF00230160C4
:1085D00008BF43607047436843B1026891685268BE
:1085E0000B449342436004BF00234360704710B5BF
:1085F0000446C0B2FFF7FAFB204610BD034B1868D3
:10860000A0F1080358425841704700BF30010010E4
:10861000064B1B68082B06D1054B1B68052B02D89F
:10862000044AD05C70470020704700BF3001001042
:108630003401001056A20200024AD2F80034002B86
:10864000FBD0704700E0014010B5FFF7D7FF40B105
:108650004FF080430022C3F80C21C3F81021C3F867
:108660003825FFF7CBFF002846D04FF08052614BF2
:10867000D2F80414C3F82015D2F80814C3F824154E
:10868000D2F80C14C3F82815D2F81014C3F82C151E
:10869000D2F81414C3F83015D2F81814C3F83415EE
:1086A000D2F81C14C3F84015D2F82014C3F84415AE
:1086B000D2F82414C3F84815D2F82814C3F84C157E
:1086C000D2F82C14C3F85015D2F83014C3F854154E
:1086D000D2F83414C3F86015D2F83814C3F864150E
:1086E000D2F83C14C3F86815D2F84014C3F86C15DE
:1086F000D2F84424C3F87025FFF78AFF10B13E4B2F
:108700003E4A1A60FFF784FF18B13D4BFB22C3F8C5
:108710001825FFF77DFF48B13A493B4B0A681B68B3
:1087200022F00F0203F00F0313430B60FFF770FFFB
:1087300018B1364B4FF400721A60FFF75FFF48B173
:108740004FF08043D3F80024D20744BF6FF00102FA
:10875000C3F800242E4AD2F8883043F47003C2F8DC
:108760008830BFF34F8FBFF36F8F2A4B1B68082BE6
:108770000ED1294B1B68052B02D8284AD35C3BB18C
:108780004FF01023D3F808224FF08043C3F8582548
:108790004FF01023D3F80022002A03DBD3F8043271
:1087A000002B22DA1E490123C1F80435FFF744FFEC
:1087B0004FF010201224C0F80042FFF73DFFC0F830
:1087C0000442FFF739FF0023C1F80435FFF734FFF7
:1087D000BFF34F8F0E49134BCA6802F4E062134394
:1087E000CB60BFF34F8F00BFFDE70F4B0F4A1A60FE
:1087F00010BD00BF00C000408C56004048810300FF
:1088000000F00040E40E0040580200104096024084
:1088100000ED00E0300100103401001050A2020011
:1088200000E001400400FA050C2B00200090D0036A
:1088300038B5074C051E04F1080318BF1C46236811
:108840002BB11A6822605B6828469847F7E738BD65
:10885000DC9D022020B9054B01225A70FFF7E8BFCA
:10886000012802D1014A9070F8E77047D49D022098
:1088700020B9034B01225A70FFF7DABF704700BFDF
:10888000D49D022038B50E4C2378B3B90D486360EF
:10889000A3602361E36000F073F8054600F09CFDDF
:1088A00008B900F079F801232370074BD3F800349E
:1088B0000BB10123A370284638BD8525F5E700BF1D
:1088C000D49D0220558802000000014037B50D4CB0
:1088D00000230DF107008DF80730FFF7AFFAE368CA
:1088E000013BE360E36833B9074BD3F8005415B993
:1088F00000F064F8A5709DF80700FFF7C3FA03B015
:1089000030BD00BFD49D022000000140012813B5F6
:108910000CD0032820D038B9124B0122C3F8802094
:10892000BFF34F8FBFF36F8F02B010BD0E4C00230B
:108930000DF107008DF80730FFF780FA23780BB9A7
:10894000FFF7A0FFE3689DF807000133E360012310
:10895000A370FFF797FAE7E700F01EF8FFF7B6FFFE
:10896000E2E700BF00E100E0D49D022000F180407A
:10897000002382B0036003680193019B02B070473B
:10898000044A137923B90121106091801846704779
:1089900085207047EC9D0220074B1A68D20704D44B
:1089A000C02283F8002301221A604FF08043012285
:1089B000C3F81825704700BF00E100E04FF0804287
:1089C00008B50223C2F808334FF48270FFF7CEFFD8
:1089D000034B01211960D2F81834DB03FBD408BD26
:1089E0000C000040124B1B6810B573B14FF480703F
:1089F000FFF7BCFF4FF080430122C3F808230D4B63
:108A0000587910B95A711B6898470B4B1B6873B1A2
:108A10004FF48270FFF7AAFF4FF080430222C3F8A1
:108A20000823044BBDE810401B680120184710BD07
:108A300000010040EC9D02200401004000F1804054
:108A400000F5C040002382B0036003680193019BDE
:108A500002B0704703681F2B83BF03F01F0303603E
:108A600001484FF0A04070470003005007B5019047
:108A700001A8FFF7EFFF019B00EB8300D0F8003760
:108A800023F44033C0F80037D0F8003743EA0141FF
:108A9000C0F8001703B05DF804FB00002DE9FF47A4
:108AA0000024CDE90244584D4FF48072012102F1B7
:108AB000804303F5C04390B21B68012B06D1D5F863
:108AC00004330B4202D0FFF7B9FF0C430432B2F576
:108AD000907F4FEA4101EAD14C4B1B68012B11D129
:108AE0004FF4BE70FFF7AAFF4FF0A04344F00044DC
:108AF000D3F820250292C3F82025D3F8202803922A
:108B0000C3F8202814F0FF0F1AD0414F002501268A
:108B1000344210D0AB0003F1804303F5C043D3F8D7
:108B20001005D3F8101557F8253023B1C1F30141D2
:108B3000C0F3052098470135082D4FEA4606E7D1D6
:108B4000002C59DA324D334C334E4FF000080127D8
:108B500016F9013B5A1C3CD0C3F3C20104A80144DE
:108B60005FFA83F911F8081C03F03F0203F00703D2
:108B700007FA03F319422CD001A80192FFF76AFF0C
:108B8000019B03F5E07350F82330C3F3014ABAF1B7
:108B9000020F10460CBF03210221FFF767FF01A857
:108BA0000192FFF757FF019B07FA03F3C0F8203546
:108BB000AB1893F9303055F8233053B14FEA99117F
:108BC000032904D0BAF1020F19D1012901D11046AD
:108BD000984708F10108B8F1040FB9D14FF0A0434C
:108BE000D3F820250292C3F82025D4F8203503932A
:108BF000C4F820351343A7D104B0BDE8F087BAF11B
:108C0000030FE6D10229E1E7006000407C610040EB
:108C1000F49D022000030050549E0220014B1B686B
:108C2000184700BF609E02200023435082B0435883
:108C30000193019B02B070470A4610B54FF48E7144
:108C4000FFF7F2FF136A9168C95C136A013313627C
:108C5000C0F81C1510BD00002DE9F047204F90F81A
:108C600004904FF02C0808FB097405466669002E35
:108C700034D162610068A16026624FF48E7184F87D
:108C80002860FFF7D1FF2868012383602146FFF7A2
:108C9000D3FF6368A0468BB92868D4F814A0236A70
:108CA0009A4511D82A68D2F81C31002BFBD0012339
:108CB000D3602C2303FB097300225A613046BDE8C0
:108CC000F08794F828303BB9D0F81C31002BF8D04D
:108CD0004146FFF7B1FFE2E70F26EAE71126EDE78D
:108CE000689E02200379044A2C2101FB0323586962
:108CF000003818BF01207047689E022000234350AF
:108D000082B043580193019B02B0704701F0604369
:108D1000B3F1005F2DE9F041064638D11E4B0779CB
:108D2000242505FB073598466C69002C31D16A6112
:108D30000068A9604FF49071FFF7E0FF4FF4AC7149
:108D40003068FFF7DBFF33686A69A968C3F8441528
:108D5000C3F8482501229A606A68AAB9D3F820218D
:108D6000D3F858411AB9002CF8D00F2407E0002C92
:108D7000FBD10122DA60D3F85821002AFBD024234A
:108D800003FB078700237B612046BDE8F0811024A8
:108D9000FAE71124F8E700BF949E02200379044A01
:108DA000242101FB03235869003818BF01207047B4
:108DB000949E0220032811D8012A0AD101290FD13B
:108DC00000F10E02D2B20D4B00EB40001A5400200D
:108DD00070470129F7D0022904D049B10720704714
:108DE0000022F8E7054B00EB400018444270EEE724
:108DF000024B00EB400018448270E8E7B89E022066
:108E000008B5012202210020FFF7D4FF08B107288E
:108E100010D1072202210120FFF7CCFF08B107285B
:108E200008D100210A220846FFF7C4FF10B1072825
:108E300008BF002008BD00000388102B10B502D029
:108E4000112B1ED010BD1A4C2168B1B90122084661
:108E5000FFF7B0FF08B1072824D107220221012023
:108E6000FFF7A8FF08B107281CD104220221002027
:108E7000FFF7A0FF08B1072814D12368013323604E
:108E8000E0E70B4A1368013B1360002BDAD1FFF7D0
:108E9000B7FF0028D6D0074B1B68002BD2D0BDE807
:108EA00010401847034B1B68002BE6D09847E4E7B7
:108EB000C89E0220C49E022070B5ADF5812DB8B0C9
:108EC0004FF4C46200210DF5986000F025FD802369
:108ED0004FF08012ADF85636CDF85826ADF89636DC
:108EE000ADF8C436CDF8CC26ADF8D236ADF8DC36C8
:108EF000ADF80637CDF80C27CDF81027ADF81437AC
:108F0000CDF84C27ADF85037CDF88427ADF8883729
:108F1000ADF8BA37CDF8F027ADF82838CDF82C28C1
:108F2000ADF85E38ADF86038CDF8CC28ADF8D23861
:108F3000ADF80239ADF80439CDF83829ADF83E392D
:108F4000ADF84039ADF87639ADF8A639CDF8AC2991
:108F5000ADF8DE39ADF8143AADF84C3AADF8523A06
:108F6000ADF8843AADF8883A204B0BAA03F110050E
:108F700018685968144603C40833AB422246F7D137
:108F80001868206010AB0493194B02930DF52E6402
:108F900007231422CDE900321649039464234FF4C9
:108FA00044720DF5986000F0B2FA2046642100F09A
:108FB0007FFA10AB049306AB03930F4B02930F2180
:108FC0000223CDE9003120460C490D4E0A236422CC
:108FD00000F09DFA0BAC002534F9021B3046013538
:108FE00000F040FC0A2DF7D1FEE700BF88A2020086
:108FF000102B0020D82B0020589002206C900220CB
:109000007EA202000369C1688B429DBF8268D218AC
:1090100002F1FF3203F1FF3394BF501A581A704720
:109020002DE9F843D0E902940546A9EB040840680D
:10903000904520440F46144404D900F044FCEC60F1
:10904000BDE8F8834246A4EB090400F03CFC6868E4
:10905000224607EB0801F0E72DE9F843C56806460C
:10906000894617464FF000083469B3687068A54216
:1090700028BFE418013C621B5C1BBC4228BF3C4675
:10908000944228BF144649462844224600F01BFC5F
:10909000B3682544AB4208BF00253F1BA044A14450
:1090A000F560E1D14046BDE8F8830000F8B5184C02
:1090B000182300FB033503FB00402544C46A012C40
:1090C0000F4616460FD0022C1AD0F4B92846FFF7E7
:1090D00099FF864205D8324639462846FFF7A0FF59
:1090E00034462046F8BD2846FFF78CFF86423446BA
:1090F00028BF0446224639462846FFF791FFF0E78D
:109100002846BDE8F840FFF7A7BF0024E9E700BF05
:10911000CC9E0220034B1A8882420CBF18460020C6
:10912000704700BF609F0220024B9B6903B1184744
:10913000704700BF449F022037B50B46497A0F4A5B
:1091400071B9D2E901141D7A0246002D18BF2146DB
:109150005868FEF7E7FD08B1FFF7E6FF03B030BD42
:10916000002119725369002BF8D00122ADF80600D6
:109170008DF8042001A89847F0E700BF449F022023
:109180004B8802889A4213D842889A4210D380882A
:109190008A8840F2F313984294BF031AC31A934289
:1091A00006D800F2F310904234BF0020012070472F
:1091B000002070470388122B70B5014659D004D89F
:1091C000102B1ED0112B44D070BD502BFCD12F4B37
:1091D000C288DB899A42F7D1038A022BF4D18688B0
:1091E0003046FFF797FF05460028EDD001F1120049
:1091F00000F0EEF838BB6868FEF7BFFD0028E3D04A
:1092000009E0C37B012BDFD14FF6FF70FFF782FF30
:10921000054620B90420BDE87040FFF785BF1C4A11
:109220008E880680002303721368C0F80A305368E2
:10923000C0F80E3010310A30FFF7A2FF134B6872EE
:10924000DB89002BC0D129463046BDE87040FFF7CE
:1092500073BF8088FFF75EFF04460028B4D04068E3
:10926000FEF78BFD08B1FFF75FFF4FF6FF7323801A
:10927000AAE786883046FFF74DFF05460028A3D0B1
:1092800008310A30FFF77CFF6872DCE7449F022058
:10929000749F02200AB1FEF765BEFEF76CBE73B57F
:1092A0000191019C06466CB100252C46294601A877
:1092B000FEF76BFE18B106EB440301349D800135C7
:1092C000142DF3D13046346002B070BD2DE9F04763
:1092D00003888488103B8CB005460A2B1FD8DFE832
:1092E00003F0063F1E1E1E1E1E1E1E604400314E51
:1092F000B368DB43009371686846FEF772FE00991D
:1093000001A8FFF7CCFF0DF108094FF00008019B01
:10931000984507D3132C13D90420FEF75FFC0CB03B
:10932000BDE8F08739F802AB00270137514606EB5C
:109330008700FEF720FE1E2FF7D108F10108E6E7AF
:109340001D482146FEF70EFE1C482146FEF70AFE88
:10935000EB7B022BE3D11A482146FEF703FEDEE742
:1093600015482146FEF707FED9E7027A15483F2A3D
:109370004FEA1215214694BF00220122FFF78AFF0F
:10938000022D94BF002201220F482146FFF782FFE1
:10939000012D0E4894BF002201222146FFF77AFFDB
:1093A000BDE7037A002BBAD1427A0648C2F3C00265
:1093B0002146F3E77C9F0220849F0220809F0220A9
:1093C000889F0220949F0220909F02208C9F022061
:1093D000007800F001007047014B1878704700BF1B
:1093E000F89F022007B508496846FFF7EAF8019B95
:1093F00013B903B05DF804FBD3E900209047684639
:10940000FFF7E9F8F3E700BFBCA20200FFF7EABFED
:1094100061DF704730B5114DADF5017D4FF4FA7441
:109420000DF1020103A8ADF80240FFF7F1FF70B99A
:10943000294601A8FFF7C5F8029B002BF0D003A82E
:10944000D3E90021904701A8FFF7C5F8F4E7052804
:1094500001D0FEF7C3FB0DF5017D30BDD4A20200A3
:10946000024B1B780BB1FFF7D5BF7047F99F022065
:109470004BDF70471FB50D4C01A8FFF7F9FF70B91E
:10948000214602A8FFF79DF8039B002BF4D001981A
:10949000D3E90021904702A8FFF79DF8F4E70528DB
:1094A00001D0FEF79BFB04B010BD00BFECA2020090
:1094B0002DE9F3414E0804460D4600EB86060027D1
:1094C000B4420AD1EB0705D5B4F90030002BBCBF7C
:1094D0000023238002B0BDE8F08104220DEB0200DE
:1094E000214600F0F0F9019A02F0802304F104080B
:1094F0004FEAF333D7FA13F322EA03030422204698
:109500000DEB02010193444600F0DDF9D8E72DE9A7
:10951000F04F8FB00D460993BDF860300393BDF84E
:1095200064300093099B02929B08009A07930123E1
:1095300093405B0801931A9B059003F108081B9B5D
:1095400003F10809029B5B0800EB83021B010A93ED
:10955000079B08920693069B23BB079A1B9B03EB72
:10956000C2081A9B03EBC2030493029B9E084FEAB6
:10957000430B099B03F0030308EB43030693059B8E
:1095800005EBC60903EBC606029B03F0030206EBDC
:1095900042030293069B984540F08B8000200FB059
:1095A000BDE8F08F039A38F9083C38F9067C38F9A1
:1095B000046C38F9024C9340019A03EB020B039BB5
:1095C0009F40039B9E40039B9C40059B1744164471
:1095D0001444AA46089A934235D10A9B1D44029B23
:1095E000DB0710D5B2F900302A4632F8081B13FB0E
:1095F00001BB698813FB0177A98813FB0166E98821
:10960000154613FB0144009B4BFA03F303F30F03CE
:1096100029F8083C009B1F411E411C41069B07F393
:109620000F07013B9BB229F8067C06F30F0604F3F3
:109630000F0429F8046C29F8024C069308F1080875
:1096400009F1080987E7194604220DA8049300F0E0
:109650003AF9049B04330B9304220D9B0493514667
:109660000DA800F030F90D9A049B23FB02BB0422E5
:109670000AEB02010DA800F026F90D9A049B23FBCA
:10968000027704220AF108010DA800F01CF90D9AD6
:10969000049B23FB026604220AF10C010DA800F0D2
:1096A00012F90AF1100A0D9A049B23FB02440B9B4A
:1096B00090E7049BDDF814A033F9024B0493039B5D
:1096C0009C40019B2F461C444F454A460CD13346D3
:1096D000029999422DD1009B5D441C41D94404F369
:1096E0000F0428F8024B55E7394604220DA800F074
:1096F000EAF80D9B0793042251460DA800F0E3F809
:109700000D9A079B22FB03440422B9180DA800F010
:10971000DAF804220D9B07930AEB02010DA800F072
:10972000D2F808370D9A079B0AF1080A22FB034476
:10973000CAE733F8020B32F8021B10FB0144C7E7FB
:109740007F2805D8034B185C034B5B5C18407047BF
:109750000020704704A3020084A30200A0F161036B
:10976000192B98BF20387047A0F14103192B98BFDF
:10977000203070477F2805D8034B185C034B5B5C97
:10978000184070470020704704A3020084A3020021
:10979000A0F16103192B98BF20387047A0F1410355
:1097A000192B98BF203070477F299ABF0170012084
:1097B0006FF02E0070475AB10A787F2A0AD800B19C
:1097C0000260002119605960501A18BF01207047CB
:1097D000002070476FF02E00704738B504460846E9
:1097E000A26842B1236861685D1C8D4208BF0020F9
:1097F0008B4208D2D054E3682BB121686268914251
:1098000001D22146984723680133236038BD70B5E3
:109810004C1E09D41646C5B229463046FFF7DDFF77
:10982000013CB4F1FF3FF7D170BD10F0100F08D12B
:1098300008B510F4007F14BF30202020FFF7E7FFA9
:1098400008BD704708B5034B5B689B681B68984769
:1098500008BD00BF3C98022008B50921FFF7F2FFC0
:1098600008BD00000FB410B586B008AB53F8044B28
:109870000593002303936FF000430293084B049376
:1098800000F0C8FB059A214601A800F0A9F804469B
:1098900000F0C1FB204606B0BDE8104004B07047A0
:1098A000EF850200037853B159B10144034613F820
:1098B000012F12B18B42FAD10B46181A704703469A
:1098C000FBE70346F9E7844640EA010313F0030F80
:1098D00018D18446202A0BD32DE9F007B1E8F80708
:1098E000A0E8F807A2F12002202AF7D2BDE8F0078D
:1098F000042A07D351F8043B40F8043BA2F10402C8
:10990000042AF7D2002A05D011F8013B00F8013BE8
:10991000013AF9D1604670478446002A2DD010F0F4
:10992000030F04D000F8011B013A26D0F7E7C9B2B3
:1099300041EA012141EA0141202A12D3A2F1200289
:109940002DE9F0030B460C460D460E460F468846A1
:109950008946A0E8FA03203AFBD2BDE8F0032032A2
:109960000BD0042A05D340F8041B043A05D0042A7E
:10997000F9D200F8011B013AFBD16046704700F1B3
:10998000010110F0030F11D010F8012B002A23D091
:1099900010F0030F0AD010F8012B002A1CD010F091
:1099A000030F03D010F8012B002A15D02DE9700009
:1099B0004FF001324FF0803350F8044BA4EB020516
:1099C00025EA04051D4000D1F6E7A0F1040070BCB3
:1099D00010F8012B002AFBD1A0EB0100704700001A
:1099E0002DE9F04F89B007460392002303600C462F
:1099F00014F8011B002900F0FA82DFF814B5E9E23F
:109A0000002507E05E2868D145F4805501E045F067
:109A100040051C46234613F8010B3028F2D81F28B6
:109A200037D9A0F12002102A33D801A151F822F031
:109A30000F9A0200939A0200939A0200759A02000C
:109A4000939A0200939A0200939A02007B9A020072
:109A5000939A0200939A0200939A0200819A02005C
:109A6000939A0200879A0200939A0200939A020046
:109A70008D9A020045F08005CBE745F40045C8E724
:109A800045F02005C5E745F01005C2E745F400752F
:109A9000BFE72A2821D1039A111D0391D2F800A013
:109AA000BAF1000FBCBFCAF1000A45F010051878E2
:109AB000A31C2AEAEA7A2E2826D00021742847D04F
:109AC0007A2845D06C2800F0A8804C2800F0AB80A4
:109AD000682800F0B8801C463DE0A0F13002D2B208
:109AE000092A88BF4FF0000AE3D84FF0000A0AEBBA
:109AF0008A0A303800EB4A0A13F8010BA0F1300251
:109B0000D2B2092AF3D9D4E718782A280AD1039ABD
:109B1000111D03911168587802330029CEDB45F4FA
:109B20008075CBE70133A0F13002D2B2092A88BF99
:109B30000021F4D8002101EB8101303800EB410114
:109B400013F8010BA0F13002D2B2092AF3D9E4E7ED
:109B50001C4614F8010B002800F05582A0F12503E3
:109B6000DBB2532B62D8A0F12503532B5ED8DFE87C
:109B700013F076005D005D005D005D005D005D003E
:109B80005D005D005D005D005D005D005D005D00ED
:109B90005D005D005D005D005D005D005D005D00DD
:109BA0005D005D005D005D005D005D005D005D00CD
:109BB0005D005D005D005D005D005D005D005D00BD
:109BC0005D005D005D005D005D005D005D005D00AD
:109BD0005D005D005D005D00EB005D005D005D000F
:109BE0005D005D005D005D005D005D005D007B006F
:109BF00020015D005D005D005D0020015D005D00F5
:109C00005D005D0095000E01D1005D005D00A600C5
:109C10005D0019015D005D00ED001C4614F8010BAC
:109C200045F0010597E745F001051C46B44B1E6859
:109C3000002E00F0CC8103AB0193009153462A46DD
:109C40003946B047C3E11878682803D05C1C45F05A
:109C5000040580E745F008059C1C58787BE7252122
:109C60003846FFF7BAFDB2E1039B1A1D03921E7836
:109C70000AF1FF3A3A4651462846FFF7D6FD3146EB
:109C80003846FFF7AAFDA94619F0100F00F09F8192
:109C90003A4651462020FFF7BAFD98E115F0080F2B
:109CA00006D03A68039B191D03911B681A708EE158
:109CB000039B1A1D03921B683A681A6087E1039B95
:109CC0001A1D0392D3F800808E4BB8F1000F08BF25
:109CD0009846464625F4007915F4807F15D0404615
:109CE000FFF7E0FD0546AAEB050A3A46514648460D
:109CF000FFF79BFD002DC7D0454416F8011B3846E1
:109D0000FFF76BFDB542F8D1BEE74046FFF737FEDF
:109D10000546E8E7039B1A1D03921B6815F0800FA8
:109D20000CBF0026232645F4807508211A46002B17
:109D300000F0298105AB4FF0000805F4005CA64651
:109D400060468C460146D1E045F4005515F0800F81
:109D50001BD043F2780643F25803782818BF1E46FA
:109D600015F4807F01D025F4007515F4804F32D0B2
:109D7000039B1A1D03921B6815F0040F1FD01BB222
:109D8000002B20DA5B422D262DE00026E8E715F0B7
:109D9000800F0CBF0026302615F4807FE5D025F417
:109DA0000075E2E715F4807F07D025F400750026E2
:109DB000DBE745F480450026D7E70026D5E715F018
:109DC000080FDDD0DBB215F0200F60D115F0400F89
:109DD00018BF202607E0039B1A1D03921B6815F08D
:109DE000040F4FD09BB215F4807F14BF25F400758B
:109DF00001215838202800F2AE8001A252F820F04C
:109E00002D9D0200579F0200579F0200579F02009E
:109E1000579F0200579F0200579F0200579F020062
:109E2000579F0200579F0200579F0200579F020052
:109E3000BB9E0200579F0200579F0200579F0200DF
:109E4000579F0200BB9E0200579F0200579F0200CF
:109E5000579F0200579F0200579F0200939E0200E7
:109E60002D9D0200579F0200579F0200579F02003E
:109E7000579F0200BB9E0200579F0200579F02009F
:109E80002D9D020015F0080FADD0DBB2ABE72B26FD
:109E9000A9E71A464FF00008002B5ED005A84FF046
:109EA000000803F00703303300F8013B08F1010814
:109EB000D2081346002AF4D14FE018464FF00008AC
:109EC000002B4AD04FF0000805F4004E4FF02C094B
:109ED00073468E4619462FE002F00F000A4C205CB4
:109EE00003F8010B08F10108120906D00029F3D08C
:109EF00002F00F00054C205CF2E7744661462CE04E
:109F0000FC9F022058A5020038A5020048A50200C7
:109F1000CDCCCCCC08AB03EB080CABFB0032D208A9
:109F200002EB8203A0EB430330330CF80C3C08F146
:109F3000010809280DD910460029EBD008F00303C9
:109F4000032BE7D108AB434403F80C9C08F101084C
:109F5000E0E7714601E04FF00008A1EB080121EABB
:109F6000E179AAEB090AAAEB080AFF2E0ED9AAF199
:109F7000020AC6F307213846FFF72FFCF1B2384634
:109F8000FFF72BFC04E04FF00008E6E7002E3DD180
:109F90003A4651462846FFF748FC3A4649463020A3
:109FA000FFF735FCB8F1000F0EDD0DF1140908F1D3
:109FB000FF38C84498F8001046463846FFF70DFCB5
:109FC000C14508F1FF38F5D115F0100F09D114F88B
:109FD000011B61B125293FF413AD3846FFF7FDFBA6
:109FE000F5E73A4651462020FFF711FCEFE7BB6842
:109FF0002BB13A6879688A423CBF0021995438688D
:10A0000009B0BDE8F08F4FF0FF30F9E70AF1FF3AF1
:08A01000B4E700BF7047704780
:08A01800718802000000000045
:10A02000CD92020000000000398E02000000000006
:08A03000B591020000000000E0
:08A038000D8902000000000088
:10A04000619402000000000075940200000000000E
:10A05000949802205C990220649902209C98022026
:04A0600018000000E4
:10A0640062A202000000000068A2020000000000DA
:10A074006FA202000000000073A2020000000000B2
:10A0840078A202000000000035A1020000000303D2
:10A0940000A202000000000024A202000000000050
:10A0A400A9A20200000000005CA20200000000005F
:10A0B4009CA2020000000303B1A2020000000303FB
:10A0C400C8A2020000000303E0A202000000030390
:10A0D4003EA202000000000047A2020000000000AF
:10A0E40008A102000000000014A10200E82A0020D8
:10A0F4000000000000000000000000000338FDD84C
:10A1040070470000D573020041740200D17302004D
:10A114007274745F6C6F675F6261636B656E640019
:10A124004261636B656E647320666C757368656405
:10A1340000617070001B5B306D002573001B5B3188
:10A144003B33316D0025734C6F67732064726F70FD
:10A15400706564202825642925730D0A003C257345
:10A164003E2025733A20002025303278002020201C
:10A17400007C002563001B5B313B33306D001B5BAF
:10A18400313B33326D001B5B313B33336D001B5B62
:10A19400313B33346D001B5B313B33356D001B5B4E
:10A1A400313B33366D001B5B313B33376D007761D8
:10A1B400726E696E6700696E666F006465627567CA
:10A1C4000000000039A102007AA1020041A10200AE
:10A1D40082A102008AA1020092A102009AA10200B7
:10A1E400A2A10200AAA102000000000011A2020024
:10A1F400B2A10200BAA10200BFA102006170705FA7
:10A20400627574746F6E00466174616C206572725D
:10A214006F720053797374656D2072657365740091
:10A224006170705F74696D6572003031323334353A
:10A23400363738394142434445467077725F6D671B
:10A244006D7400736F72746C6973740000000000A5
:10A254000101010000000000636C6F636B00434C5C
:10A264004F434B004750494F5445005052530055FB
:10A274004152540055415254450025642D2D2D253D
:10A28400640A0D00F3FFFAFF03000500F7FFECFF7B
:10A29400E6FF1700F6FF05006E72665F626C655F8D
:10A2A4006761747400626C655F6E7573006E7266CC
:10A2B4005F7364680000000040A0020050A0020028
:10A2C400080000006E72665F7364685F626C65000C
:10A2D40020A0020038A00200080000006E72665F31
:10A2E4007364685F736F630018A0020020A002000B
:10A2F4000800000043000000504F5349580000007C
:10A3040020202020202020202068282828282020E1
:10A314002020202020202020202020202020202039
:10A3240048101010101010101010101010101010F1
:10A334008484848484848484848410101010101091
:10A3440010818181818181010101010101010101EA
:10A35400010101010101010101010110101010109E
:10A3640010828282828282020202020202020202BB
:10A374000202020202020202020202101010102063
:10A384000007032004170201085710408000000052
:10A39400F8A20200FCA3020010A5020053756E008F
:10A3A4004D6F6E0054756500576564005468750000
:10A3B4004672690053617400000000004A616E0037
:10A3C400466562004D617200417072004D61790012
:10A3D4004A756E004A756C004175670053657000DC
:10A3E4004F6374004E6F7600446563000000000004
:10A3F400414D00504D00000034A5020030A502007C
:10A4040030A5020030A5020030A5020030A50200EC
:10A4140030A5020030A5020030A5020030A50200DC
:10A42400FFFFFFFFFFFFFFFFFFFFFFFFFFFF000036
:10A4340070A40200A0A30200ACA40200C0A3020006
:10A44400F4A3020054A4020004A5020060A40200C4
:10A45400256D2F25642F2579000000002561202516
:10A4640062202565202554202559000053756E640B
:10A474006179004D6F6E6461790054756573646130
:10A4840079005765646E6573646179005468757208
:10A49400736461790046726964617900536174750B
:10A4A40072646179000000004A616E75617279001E
:10A4B4004665627275617279004D6172636800412C
:10A4C4007072696C004D6179004A756E65004A7559
:10A4D4006C79004175677573740053657074656DAC
:10A4E400626572004F63746F626572004E6F7665C9
:10A4F4006D62657200446563656D6265720000009B
:10A5040025483A254D3A25530000000041970200A2
:10A514005D97020069970200759702009197020007
:10A524009D970200A9970200B7970200000000005F
:10A534002E00000030313233343536373839616219
:10A5440063646566303132333435363738394142E5
:0BA5540043444546286E756C6C2900DE
:10A5600000000000FF000000001001401100040086
:10A57000000000000020004000000000002000401B
:10A58000000000000090D00307014EFAF405DE0F32
:10A590000EFBC5F91B0D8702A103B31BB10352FECD
:10A5A0004DFF0E0D18046F04BB048D01EFFB8A03F1
:10A5B00080F88615F00A580572019513D5094500F3
:10A5C00093FC86FE670151FC6EFF6B0E65FCF30980
:10A5D0005FFE23027B0B75F7CB09A90C650DE80F15
:10A5E00066FFD912560082F55C0A590431FD5D06FA
:10A5F00043FE4B0F380F4CFEE701B4FB71FB7E06A8
:10A600005A0550F6DC040B013A04EEF9A612EB01F0
:10A610000F099E109DFB89FD9A0CA60323FC820363
:10A6200098F9AB037F066FFA15FE58089DFCE80603
:10A630007FFC73064E08CFFDB9FC370CFDFEBB0650
:10A6400015067AF230FD390BE7F62AFB5BFECCFDEE
:10A65000EF088B043A00D8F9DA0668FD72F8CEF5F7
:10A660002103EE02E0F584059A01F003F1FD9A0959
:10A670007306D6044C032203B3F7E308B5F7D509F4
:10A68000EDF984F7E5FFCBF84CF76303FB072C0AE1
:10A6900042037AFBFCF628FCB7F16CF6C6F392F99C
:10A6A000FBEA5CF52B09ACFF35F73EFA1BF6ADF77C
:10A6B0006CF9E8F302F69CF978040F03B9F6ADF5EE
:10A6C000F504630A83F59CFECCFFE105A7EDB1F626
:10A6D0004AEE3600A7032FFEB8E264F6FBF608F850
:10A6E0008BFC3E03AC01FC04BBFE90EEBFEDC9F554
:10A6F00078009A08AF06C9013303F807E3F96BF74E
:10A70000D3016F0821010E033801BFF82FF5930F15
:10A710007EF6AA048B10EA101D044617A00D89FBD3
:10A7200071FD2BFA2DFEEDEF830C0603470562FF4A
:10A730003907D7F996065D06ADFC58FADE021C080B
:10A7400077FB6BFC8D0968090503BAEF7FF33B01CA
:10A75000A5FB4A05DC089E0B5301D1058203180DA9
:10A7600011116409ECF94D06BAFDE9FCD5068AFC25
:10A77000370486F978F625ECA4EC46F517FC31127F
:10A78000C20B6B037DFF1A0043FE0EFDC5033DFFA8
:10A790003F0DAEFFBDFCDCFB52FF480539066E08DD
:10A7A00010084EF29A1014FE72FEAFE97DFBEC0A1F
:10A7B00091069D0F9D0279018704E8022E04CA04C8
:10A7C000670821130B0A30025901FEFBE6F437F249
:10A7D000EAF0150C120265FE240557F4D9FEB0F616
:10A7E000FDFE6B0FD6FE0E00DD0A92034208CA067C
:10A7F00069F9390592FACC0948FC57FE1A02E5FDC1
:10A80000010579F60B03A4F33A010707A7F970FBDA
:10A8100008FD63F2E90E38FAD6FD930478091101B8
:10A82000A507CB04A0FA5FFB9CFE4105940A53F8F0
:10A8300056F894FBFAF507F74CFF37FD59FD44FD38
:10A8400094F9C318C10AC7062BF68CF22C0C5906D2
:10A850007DFF350DC6040F059400E6FB6BFD8AF9FC
:10A86000E200CCFCD7066BF715FFAEF164F8A2FE50
:10A870002FF9A301460DAA0DCEF1D6056AFA86FA84
:10A8800026FEE8F2ECFE440D93FBBD01BD1246032B
:10A89000B2FB6F03E2F24EF9A5FC59E34DEBB2F3C4
:10A8A0003AF1FDFF1DF8F1FFAC052C00BFFF2011B0
:10A8B000D7FF0AF901FAA5EC86F436F59AF570F699
:10A8C00094FD7C043504AE02E70E700638FFB5F443
:10A8D00011EC35DF61EDC0F099FF370789FB860B7E
:10A8E000D1069C09200D9E0C1E166112441127EB07
:10A8F0005D027AFDA2FD78ED36FAAA0AB70781FB60
:10A90000980BF40524060D061703FFFCEBFB510D15
:10A91000DD04AE02B210750B030F1A0ABC0501FF6D
:10A92000A8076BFB93F68BEC9CFAAAFC7FF5D2F49C
:10A93000BA0826013E0461FF610EACFDA811BA0EF3
:10A94000D31C5A24530B170E3607AB0CC4FE6D12E2
:10A9500067FB14FE38F9E6F7B5FA1AF32D02AD01DC
:10A9600047FE700794F2550445FA2700210CF10BBD
:10A97000290DE2109C13741BAC10F11A011F811BEE
:10A980000A0A5B13900696FC52FD56053505A9F69A
:10A990002E028008F11BB60DE7FDFF0438F14D03D0
:10A9A00016F646030D0CEBFBF708A8FFD915821924
:10A9B000850FF50BCB14EE1551123D06A9057BFF53
:10A9C000BCFA5202F4FEF1F761FEC40B03196802EF
:10A9D000BAF56105BF03970793F41EF7E606A7F7DC
:10A9E0000CF9BB012FFD7C1939170A0CCB00DE08CE
:10A9F0008500360FB70CB0F565FEA9FA450A52F688
:10AA0000BE0A2E1A8D10820D2EFB63FB6809EA1A0E
:10AA10007B0300FF71FD45066DF4E1EC17F29D0428
:10AA20007AFD41101EF044F8FDF8B6FD1504FA0356
:10AA30001DFA0B06F4F864F546F4B6FEDBF9B90B23
:10AA4000F6F50F024AF5B422AE05DE0939171DFDF1
:10AA500011EBB0E52FEBC8EFDBEC98F70CFE03F33E
:10AA6000FFFD03F709FCED01BD0B4A0B7302580E05
:10AA70009B02FEFD9BF7C9FD5EFECFF0EAFE44128D
:10AA8000E90D4E13F0083904A3F87AF11DEE5DEFDD
:10AA900071EADAF7A1EC9AF1500284057EFC020219
:10AAA000FB0AB915B808AF0E6602AB053818690283
:10AAB000CCFD56059B089712CF05070F8E042DFC81
:10AAC00074F356F0F9EAECEF76E842FF13F764F31B
:10AAD000E3F53FF78005DD07B6FFA917AA0BE112E2
:10AAE000E502A7018A08BBF7310545FF14064A09AC
:10AAF000C70C46FFB1F4E0F0C103D8F3A70252FD42
:10AB0000DB02F8F68CFC9AF5A4F186EE9BF795F043
:10AB1000E7F9A8FC9805001421FFA3FC04FA65FEE0
:10AB2000DDF80BFA92FA4903D90F6EF79CEFBAEDF4
:10AB30000D05DC045D01E70260068901420674FD33
:10AB40008FFC2DF088FB1DF80B028A09380C560784
:10AB5000441138FC06F135F71D0212F7480DED09D6
:10AB600003F5ABE281EF510425FF9103D1004608C4
:10AB7000D6F2E8F94A0678F660F2FCFC46F766F190
:10AB80002EFD8D0F96117C1BD70E67053CF19109A8
:10AB9000B2FFF30821034A1063153B05A90149FCE4
:10ABA0001D032A040508890AB00011F9E2FFADF778
:10ABB000940A830110FC7B0BDC0BD012E00C842682
:10ABC0005E10F5090CF58BFDC906500A2C0601F242
:10ABD0008BFF2A13FB0925057B0B7E08620B2106E0
:10ABE0001809BB0C76057605EB058E11EE0CBCFA48
:10ABF0008F1136045CF71DF8A1F413FAA5FE69F86D
:10AC0000A200580341062EFCE41331180615CD139B
:10AC1000EC02B514B50BD60C560A5D05951AB2FFB9
:10AC200097019312590526EF07115503E0F7CD065A
:10AC3000A71190FC88F9EB09FEFA5C01BF06F4F756
:10AC400066048BFA97FD000A8209990360FBD00421
:10AC50008B0B45F5940D7DFCABF7ADF6E10D661061
:10AC6000AB05A5FE74F61FF3EE089704DAF98D071D
:10AC7000F8F90F0059F83B03A8060FFFACF6840A59
:10AC80007D0319FF1309D704890AF901940984FB8C
:10AC9000FBFE82FC260299FFEDFBFC092204A400C6
:10ACA000B803B4FF13F862FD7EFA6202CAF99D0090
:10ACB00027076A01FCFF2200A309C3F9A9F59DF249
:10ACC000E6FA8204ED0B8D019DF2D8E7E7F6D40792
:10ACD000DB04C401440956FBC0F77EFE5A06E206B7
:10ACE000CE0319048509F5072D0096FD13014AFFCF
:10ACF000FD00D3FECBE783F218E70A0E6612D405F7
:10AD000021F302F6140D5012811002032BFD78EE90
:10AD100052EEDC0301033C017DFF410689015E0A1E
:10AD2000E6012DF68CEBB8F76CE7C3F4C1F6EBE85F
:10AD30005AFEB902F8FB08F57DFF630C2C0D8BF36E
:10AD40009604840ABFF14CE323FA6D0953106D0396
:10AD5000E6F773FBA100DCFA98EF4C0258E995E99D
:10AD6000A8E09ADDBAECF009DFF87D005105E0FFBC
:10AD7000CAF3A4EEB6F045E844EB19E7EFEF47FB62
:10AD8000C00820098A060C0CBDF5570617F944FEC9
:10AD900029F106087BF476FC37FE9D026307370B2A
:10ADA000F303A105CAF5C7F3B803D8FF26FC57077C
:10ADB0004A06EFF890F704FDF10B66177A0D65FF70
:10ADC0007AFBEB09840EDA0002FB11FFDEF92EFBA1
:10ADD000BD00C8089F031CFA270AC00C8F1AF41480
:10ADE000DE133612FC2719258A278D24030D8D1AB0
:10ADF000081B541EBF074CF2F0F9DCFC0EF835F7C7
:10AE0000A9EF6AF2D0F92DFCBBF92604B7FA63F278
:10AE10003B12FD0A2B271D237D2D0020682D2124A8
:10AE2000DC2D661BD40E79032EFA68056D0B4110DC
:10AE300096012507C6F88D0467F620F96EFDE2F647
:10AE4000E4EF2BF705F6FE05D40D810972183E17C5
:10AE50009A2B2F213F14221A840C1E063207F9EE7A
:10AE6000F0F5C8FE600A1C0DC1F7C1FCC50B410717
:10AE7000D8F2E1F1B2FF32E150F43204E90308FE06
:10AE8000FEFE00015AFE49F9D7FCDBFB2CF4C2F8A8
:10AE900070EEFAFF7707FFF446EF6AEDF1E857FF2F
:10AEA00039F680051107BB05C1E7BB0E66EED0F38E
:10AEB000DC0587FFC4EF3BF8CBEB2CF73CE3E5D791
:10AEC000CAE0F6DB60EB1FE57EF12DFA8BF228F489
:10AED000D9EC0EF24EFFC705C6F65BF1C20BD1EB03
:10AEE0007FE80AEE4CEB73E9810144FB69F2C1ECA7
:10AEF000C9EE04DFADED65DD45DB5CE0DFEE9EF124
:10AF000060F1450173F8F9FD31FCC0F904168CF8C5
:10AF1000C9F7C7F2E90F81F609EF45EFB0E861ED37
:10AF20007EF6FCFC26F47AE895DC45E8C7F92DFAB4
:10AF300078FA5FF635029CFCBCF5D2FD7BF611F386
:10AF4000C7EA4E00130970086FFF19FC27FC5FFE6B
:10AF50006BF688DEB6F28405C1FA7CFD14F209F1C5
:10AF60000DF1FC1292188A11A2FBBAF9AC032FF66C
:10AF70001DF80DF84FDDD7D8A0F0CA054F03C70F55
:10AF8000E80F37FF8000A9EB26F627E9B2FA18FC94
:10AF9000ECF189FACFFC71FBA6042F11A115A40EC8
:10AFA00042FC370002FB38F4F8F68BEEC7E3F5EE0F
:10AFB000AEF64CFFBE023509680BD4FB02EF4AEB3C
:10AFC00035EE28F6B109910B36088D03A2F5730012
:10AFD0007B066806B90AE5FCB9FA57F8CAFB65F9B9
:10AFE000E4EAC1CE52D35EE9D401D9042B01CBF2FD
:10AFF0000AF6A00AFFFCE5F809088DFC3602841168
:10B000002B064107090461025EFF090C5CFBE6099F
:10B01000E8FF0B0AD7F7A5F649D796C34ED58CECB7
:10B020009CF491ED1EFA53F217F79B0D8E027D0FE3
:10B030007CF9D2EDDC00E30E320F4FFBB00A6BFD62
:10B040000A04E40DBF06E60E6914BD09B60F62F5E9
:10B050005EE21EC5A7CFB6E0A6FB18F48604B4F6E0
:10B0600073090E0471F6F0E7FAFC470156028E07E9
:10B070003C0140FE4C007A02A7F955F5200E9B06D4
:10B080003E0E5813741429097FF607D310DE16DB21
:10B09000D0EF04016D06EBFA13065507E4FD19EF36
:10B0A000CDE75BFED30569FB7FFC66F80CFA92E8FE
:10B0B00039FABEF5BCFCA40051038C0FE21ADD077F
:10B0C0009BF3E5DD82E39FD801F50FFDC207FCEE9F
:10B0D000BF05B0FF91F8C7EB36EE020053FC3CFF12
:10B0E0006CFA6BEE13ED30F3C3F5E801B001D50156
:10B0F000BA0CB213B706251025F6F8DDB3E9BCE9A2
:10B10000F8EA38FC810812059A059AF858F3D9F83C
:10B1100003EF6BF6B1FED40294F8FE029801ADF491
:10B1200017026604C30CD6FEE105840DB4FD690563
:10B1300059F8D6F6E8E05EED1DEB40EF1DFDB806D0
:10B140006A05ABF85AE8B7FE7CFA72E79AFB7A0216
:10B15000D3FD0000EE05DA0BDE07EEFF38FD23EF2E
:10B16000B4FAAEF615EA20FA6CFAC80167F516FAD9
:10B1700014F77CF169E4F4FAE908EEFCB7F8081377
:10B18000C00E4A08BA032908AFFD840A580332FDED
:10B19000640148039AFD20FFCBF20DEA1FF0A7EFF0
:10B1A0001902E3F927FBE7035FFC21E5AFE449FE61
:10B1B0009504C9FEF706B811DA0FE1111319451A03
:10B1C00064051413CF00330B9B033F078F01A800C6
:10B1D0007BFA46FAF1EEE0EE4DF79AF510FE45F5F2
:10B1E000C0F887F9A6EE01FB01FCCEF5A401FD0134
:10B1F000AC063D167E14C814D6155923570ED91027
:10B200002E1902043CF7AAFFFA031011600A070A7C
:10B210001AF22E02461B2D224914E0F86DF5290979
:10B22000620062FA6A042BF964FE5606E5FB6B10B5
:10B23000B61BC82A0D3BEF308029232CF41BFB10D2
:10B24000FE34CF206C1EB115371971139F0F6A0A97
:10B250006CF8AF03B3FDE8FACB04BF043106B3F7D3
:10B260008E01D8F42E007EFAE7FE2608B40AAD104F
:10B270001B08A20A4B1D750B9005A8EDEAFBDC012B
:10B2800033F9C2043D0396FDE805C1F950044303B8
:10B29000FC08D802730A84FAA2025EFA8C093E0402
:10B2A00065FCCB0968F89AF8CA049705AC0552F614
:10B2B0009B07C8FF54FD6301400AE3FA89FB4BFE7C
:10B2C000BB09E30631F7F1FF230835F8FFF55C020F
:10B2D0003BFEBD0AD80C5B044A12BA1636052B0C8D
:10B2E0001B0E8D288516D21041183516EF0DEA0D6C
:10B2F000C71A2E177215C800430742030409070A2C
:10B300009DF5C5F9A6064B001A0BE5022913B314E7
:10B310009C0D7FF5B401CFFD7F04A1F9B20EA315FA
:10B32000FF0DAE10261ECB1FA50E140D7114C619ED
:10B330001D0190074904F3FC49FBD7FEC5F90E092E
:10B34000EE03BFFDD803230D840583F515015CFED4
:10B3500087FE650A5C135E0F3C0C7907F6140E2419
:10B360005619851F120F9108F5051A07A50D73F6DA
:10B37000C3FFF0F79AEED9F777001AF0BAEC00FDA8
:10B38000EDEFA1F70DFC4D019B0046FAA2FDB50EB5
:10B39000F718040EA81393183C1D20163E116E12C8
:10B3A000690C641CEA090AF660FD9F0037028F00F1
:10B3B0000DEF75F8BDF384FA48F87AFE890708089E
:10B3C000EFF10FFBED05C80DF50E28259E140620A4
:10B3D0006825031C21146613601E300E6210B5FC34
:10B3E00023FB5A073DFB4DE30EFD60F5F300AFFE76
:10B3F000BB065BF784FE45F9C300B001CF0EF31B1B
:10B400001820211CC225581FE929FD163317CF0F1C
:10B41000A41A621D701D7AF7E10467F047FAEBDEAB
:10B42000DAEFE2F533F3A2FDA6FF6404E4040104BD
:10B4300038020606DC14C0091510EF126F1A211528
:10B440006D0C6401CBFE78EF4DEDD6F85C194CFF26
:10B450004103E20A2F0528F8E6DFEEF4E000DEF80B
:10B460004E03F1FDC7F8D305A1FEFDF911F6DEF09C
:10B4700004F7CBE9A9DF56DE72EF13E430CF80DBAF
:10B48000BEDC43EC7305B3FCD3076AFF2CF96EE90D
:10B49000300422F655F8B703DA07BE02F0FF77F959
:10B4A000F602A7EBBADD63CF27B29BA674A3EF9A8F
:10B4B00023B10BACF0B64FC1D6DA4CF138006A00BC
:10B4C000550AC906F9F4D5FD8805CD050FFFDD0342
:10B4D0004E0AAE0273F4B404BEFAEFF3A6E10CD642
:10B4E000C7C208C428C66DBBBCB6FAB0A9AFE7C1D5
:10B4F000DED48DE15D07F802ECFF4B08BB017AEE6C
:10B500002801CD07720BE7F908FABA052400D8F82C
:10B5100013FDD90113F061EEC701CE07130039EC1A
:10B520004CEBC6E84BD60CD1AFDEE6EC7405EE076B
:10B53000990429060113AF090D008D02C10EA5FC67
:10B54000A00541013100EE0E64060CF79AFAA10243
:10B5500074124B190523A71A5E10E804B6F3D1F054
:10B560005AF4FBF7950AECFA3DFC45024910A11D7F
:10B5700041142EF5B7FFF60EE5F918002F05030864
:10B58000CFFD640A6D03C60FBA0B6F0F9417721DBF
:10B59000A20C440C2B075A0EA6FCA2E396FB1EF845
:10B5A0002F0427FB95FF940ED00101E96606740273
:10B5B000DAF757F6E70B6709A6FA09F9EEFCA906D0
:10B5C000EE14E001AA0AF418561CDA072603CC0C84
:10B5D000D90CC9FBE4F362F7B602F40C58FFDFF2B2
:10B5E00043E5320195FB9306D6FCE5F57F00EAF3CF
:10B5F000A9F71C06BF06DCFC8AFFF901E80C6F0DF9
:10B600004B0CFA0D41087808D013FA07B7F8BF01C0
:10B61000BDF9F4FFC4017A0227EFF7066FEF68F473
:10B62000D0EC51F041F2ACFF74FF4C0B300CABFF8F
:10B630007F0193FE3D03430D57068E01F50E2F0843
:10B640004D108B06CBE915FA7201E4F82DEDF10EE1
:10B65000B9F971FE40FABFF4C0026A0052FA0FFD58
:10B6600066030BFBDAF976F70A04EE00D10BDF086C
:10B67000960A2506CE0B5000750399FBB0F079F8B9
:10B68000370832F232EE900C5109670F6F013EF924
:10B690009801D8F804FFE5017F0834031C0349072B
:10B6A00080FC5204660332FAE1057D093BFB260764
:10B6B000080E0406C2F53FEE79F8C6F95707C31124
:10B6C000571EEA0377FC8BFAEC00E7F449F95B07B5
:10B6D0004D0467F4CEFB7DFE39FDF30500F820F93B
:10B6E0001A0A57FBA4F6AB02A1196E0DCCEE1DEEA3
:10B6F00001031BF3D9FF360B0E159005830097F756
:10B700002EFF900A39072806D000F80255FE6A0479
:10B7100098FB05FA320497FDB2034A01D70AF807ED
:10B72000E80DFB113CF0A00C2BFAF1F6CAE511076D
:10B730002C0E020B72053C01F7F0AE01BE03590856
:10B7400088092110760635095E0C9AF8D0FE5E0253
:10B7500008018BFE7605D403E5F3590F8F044EF9EB
:10B760005F01ACFB75E854FE31055CF547ED80FAEE
:10B77000F0F9AE05DFFE79FD3A019C03C4092A0207
:10B78000C7FD4E025FFB82FB0D02C8F32900F802E1
:10B79000CCF3C307D806A3045AFCEBFB610609F5FA
:10B7A000F2F6EB09B9FFB6F07802A9FE320D0608F1
:10B7B0005FFFBCFCD5015101D004FAFEC8F20BFDBD
:10B7C000440521F29FF98E001E045FFDF50EC6F8B8
:10B7D00053F8C5F770F2510D880A800E48084A03E5
:10B7E0006E0B6B10AF0350F7BB0CDEFF5F076403FB
:10B7F0006DF60CF6BEFD61FA0D026AE71EECDBE1A8
:10B80000C7F0A0F048023FF680F5A5FE6FF9300FB3
:10B81000D60998F95C0C4C030B14A825A215CF0B84
:10B820002D15150C4B1191131E0ABD0449104E190C
:10B8300075115007E503900AE30D8D02A4FEB0F7E1
:10B840002707E805D60202010705ECFD06025E0A9D
:10B85000A90187FC93F79607A0FE3E0F520E3C17F6
:10B86000ABFC460C1001C20B910BE90AAC0D41096F
:10B870002B00EEF5B5F8EE0657FF19FFCF00EBF8F9
:10B88000FCF8A8058DF762012EF8A00CAB02050CA0
:10B89000060EFD0762F92D02ED00D10AD7F98102EB
:10B8A000A1FBF3FCE1F75402E6FB75F5CF03F9FFCA
:10B8B000D4FCEBFD73FE4AFE15F94AFEAF072C03DC
:10B8C000290604F7BBFEEAFE1FF670F412099AF689
:10B8D0003705CD04AF017BFF7A079AFCFC0020F905
:10B8E000BDF8A3F8EDF7C5FC74FE41FC9E03BDF75F
:10B8F0000A0085F63CFBA7F5BAF779006E000B004D
:10B9000064E8C9D819FEE4007600E204A3FC1A003A
:10B91000CD04B3F981EF80EDD2037E0AFE02560911
:10B92000BC006D09510815FF6FFB44F3D7EFB7E971
:10B930006BE6BFEF3FEBE7E286E5D8E098EB7DF6FC
:10B9400060096D0DDE02F30416FB6E039BF486F6B0
:10B9500086001EFF5F02430929081F0058F9DA0A12
:10B960003BFAD9FC05EF4BEB75E59EE7E4D45CE6CA
:10B97000A8F22AE421EF29FDF2FE58044B145909DC
:10B9800056111F00B1FB71EDDFFCEF03B9FA4E0554
:10B99000F30066043AFB8A0C88F361F393EA51F1F1
:10B9A000B4E83DE2D6F840FE57E3A7F2EBF2FD041F
:10B9B0000AFC600185075107C400DC06250E6323DD
:10B9C0008218CB0BB6FF55F2DEF7E2F9BEF9680438
:10B9D000A1E92AE627F582FF32065F0615F4C7F7CC
:10B9E000FEF7BDFA9AE932EBDDF390F89102B5F774
:10B9F000B002960009120B04551B57089CFD9309D1
:10BA000021FC5503331663069CF484FAAAF2ACFABF
:10BA1000F0FECC0BA3FC69033BED43FBB60268F2DE
:10BA2000F6F382F2AAF4E4FB6CFF5F0FBA0331F580
:10BA30007C0A1B0CDD047A0A900597FC8B0EF6F548
:10BA400007F3B9F94C0A1DFA22010E0E6602ACFE8C
:10BA5000890865FD93012906ECFC3F0DD80BB5FC68
:10BA6000D313880156F71DEE9B07B5F922FD960CFE
:10BA70006408A8037EF580FCB0F8A703CEFE060498
:10BA8000E4026B0A7C0CD405210BCEFBFD03500FA6
:10BA9000670547044B0C69022B06210666058CF7E7
:10BAA000BD068AFF58F75B0EF3F814FC590151F6F6
:10BAB0008F0BC5F7A900E302CE0D8C0D5A0CE514CF
:10BAC000460AF507680220FF70FE9B0843FF3AFC18
:10BAD0009703F0F541F623FAB1F422FE1DF2FC13B0
:10BAE000D4FF2FFBADF315033006AEFC72039407B1
:10BAF00098FC9C07A7097D0D9B14CE05EEF7EFF28D
:10BB0000C4EAAFF631FB2CF8F5F6B1FC57F562F953
:10BB1000FAF2C00C5BF9000BAAF508F5AEF7A8F332
:10BB200044FB0D0A5402C2028205690278FB79FBCC
:10BB300050FA2BF7FBF6EEFE7FFC84F9B3F07AF1B6
:10BB4000AAF651F285FB4200AFF3C4034EF81D087C
:10BB50004BF47EF264FD8AFC1B0AAAFF1A0C9AFDC4
:10BB6000F4FA60FF73077FF7D0E74EEBC9055BF986
:10BB70008FF975FAB1035BFF5DFF04F84005CE1243
:10BB800054F44DFE1FEB10F4B2FCAF0826F0B3FAEC
:10BB90008A10140CD9002FF5DBF43AF572F01BF77C
:10BBA0001DF088024D0914FC4D03B7F979FCB80764
:10BBB0001FFD6F02BF023804710B11F570E7F3F639
:10BBC0003A098AFD65042505CC187FFEE208740356
:10BBD00030F9F0FBDE0B80EE69025A03A4122F024B
:10BBE0003311980AE107F107070C630C0607B80147
:10BBF0003007B7CBFCD744FA83FC6E0251ECA6F6B3
:10BC0000DA037A164E11BC12F611AD18BE213E05AC
:10BC1000AF004A086F0EC00D0804CC094BFF2A077D
:10BC2000C1092212A50D890025F20DDF9A014EE807
:10BC3000F8F2E7F8A7FD01E7EC01E81264126311DE
:10BC4000E72DE32A19242728B31DE807C601F8FFCA
:10BC500028F933FEFE10C0056404FA08B406960203
:10BC600070FBD3E3DCEBD8E86002FAFDF2045DE49C
:10BC7000DFF1D7F92815EA21131B5E173720141BB3
:10BC8000C917D8134600580EAEFB01140A141B0046
:10BC900095F682FB03FE3CF968F18AEEC6E2E2F11A
:10BCA0004601F2006A0416E926F254F193FE29FCDB
:10BCB00000EFE9F17B02DF05E0F214EDCEFD3BFE83
:10BCC000F910C2032C0157078308430041FCF3011C
:10BCD0004CF2DAE7FEE557F9EBFDDFF45912B6E373
:10BCE00067E5A5E55CE3FDDD54E0CCDC66C844E037
:10BCF0000BD309D7BBF15FF7E60545FAA7F7A4FF19
:10BD0000DE003BFF44EBB7EA4BF10E04A9F8E10873
:10BD10001CFEE7FC17067FF72AE3CBEE2AE68BD75B
:10BD200011D7B7D091BEDDC29ECDA9DBACE98FF4AF
:10BD30003902C4FC4405C70210FD13FEF4FC45F7AC
:10BD4000C6FC9C2417EA550A1EF8360021111DF482
:10BD5000E7F946FF0EFA8DE43AD7E6D7E8EACFE0F6
:10BD600017F6FDF8E0FAA708D00071F454F63DF498
:10BD7000F0FD28F5E8F9F0034819E41076FD2902F2
:10BD80001EFCA8000800F8FBF6083BEEB5F7A3E898
:10BD90001BFAC3EA37FDCE0625FC14FF710995FB9B
:10BDA000DE025CF591F8C8FC0EF8E0FF2EF66200AA
:10BDB000D2184A081B1264020C093BFF430AA7046D
:10BDC000B204D4FB28F7640351FD52FFED092A04A5
:10BDD000780B480C1011C9FADEFEEFF094F5DDF196
:10BDE000CDFA95FB740289091821560AB40930016D
:10BDF000D3F719031AFD920F1C0331047115C20009
:10BE000070F45608E4026C06A606290CE507D60471
:10BE10007BFE9906CF00F203B1087517AD0CC1097E
:10BE2000571A0B02440139F963FD39FE3803EB0957
:10BE30001B0F7719351CC716B60A1106C80DA8FCCA
:10BE40009B12880C2F0DD0FE26054A088613E91B8D
:10BE5000742029158025F31496284EFB6EFA8AFF6C
:10BE600087096EFD30FA98FB300E5A250B294616CD
:10BE70008B0D630B16238A1EE517991F6723722DFE
:10BE800043260F2422114013E630AF20D7119A0524
:10BE900028FABEFAC8083900E1F811F8E2F9DC0620
:10BEA00032FD2FFE3513C111280B0E0A6F19EB0C52
:10BEB0008511A1129B16AB0C9B11DD0E8A0E6D0233
:10BEC000790400001E0B5CF6CF0676F6BC028A01F0
:10BED000C20141074F02FDF785F67409B409D5F98F
:10BEE000B9FE370822093101180495FBAE0CEE01AA
:10BEF0001AF66305C5FEB2FE48F6E10060F723F9C5
:10BF000086FFAA0285044002C3F76AFD2F064CF89B
:10BF10005EF57AFA2CFBEFF8E0FE02FD94F7E500FF
:10BF20002AFCC1F877099A0C190A7C020CFE26FE3D
:10BF300085F1EAF4B5F74F032CFF49FD6E02D5F801
:10BF4000EF060CF96EF8CF09590B1901FCFCC3F68A
:10BF50009AF73BF8FDF6AC069E0D9211C30EA313A3
:10BF6000E10B0BF60FF687F4F7F61E08D603A7F4DD
:10BF700013F617F7060837FBA20584068C08E1FFC5
:10BF80001CEF97EDA7FBC8F1C50550FC8E04DA0A3B
:10BF9000E0139214E9148D144A14E6FF0EFD81ECAF
:10BFA00082F671F2A1F98AFC9203060490ECB1F6D4
:10BFB0005204AB08BF021004F0FA66EF3901EA112F
:10BFC0007E0F020578092A0A7519231F17174E14C8
:10BFD0005E16880AE30A9502100315F5BDEF26EAFE
:10BFE00049E67FE003FBAEF857032000A607A7F45D
:10BFF00090EC23F850F25FF264F392FC71F09CEA4B
:10C0000043FD6E09EB09CD18F316F70FDA0F690936
:10C0100012F90B0452FE95FB78F1E6DC9EF151EC2F
:10C0200004FA02F642E547046EFA93F493FA8AEAB8
:10C03000BFF074EA19FCD5FA35EC75FDEF08470A34
:10C04000E9105A18DE14AC0B95FCD20CFB0318EF68
:10C05000E7D77ED79AF139F67AF8CAFAF2EDC8F640
:10C06000CCFAB4E8B3F99CFD63EDD0FC9AED6CEE2C
:10C0700079E598EB91F797040E16F910D2219414F4
:10C0800032134814B21042FFE5E986E7F1EB620B88
:10C090000C11E10291EF38FB59F46DF18BF16BF665
:10C0A0001DFC43F4D8F231F02EF1F0ED1508D70A5B
:10C0B0003D099A16D31C3D10B709140CD60888F513
:10C0C000A9F2ABD924FDCCF5DCF4C80148F0450257
:10C0D00053F2B7EA56FBCCFD2BF1B5F4A0EF2FF0ED
:10C0E00095E7EDF78DF65B06C6094601E213BA1730
:10C0F0006E02CE0E620D2705ADFC4AE296E405FF06
:10C10000FAF725FBEDFC2F0063F14EEFABEC83EF6C
:10C1100033FCD8FD6DFE70FA3C019CEA5500C6FB6D
:10C1200031FD64FF1CF6D90D6309A00F091C6114D1
:10C1300042F17AEB5BF4F50CDFFE56110206CA04FD
:10C1400061ED37EF24F2BFF5980175F926FA900AF0
:10C1500057EB05EEDAF13BF85FFBEEF42602ED0358
:10C16000A01D710A3A1E7C0C94FDB3F0EBF5A9FCFE
:10C17000BFF7970019F818F9130B8FF2D0F731F0C9
:10C180008DF912032DFB9E0028F709ECF0FEC40385
:10C1900070063B0040079A09660B3905C20667FD29
:10C1A000A20254E2A8EA12FA3D11DE0083FD46091C
:10C1B000280A40018406B1FCAB069AFF62F7F5FE3F
:10C1C000E3EA9DF4F00B650DA8057FF4FB01F40B89
:10C1D0008903A3038EFE14F7A1F6E3E912F2050327
:10C1E0008DF85FF5C5FFF4014B0ABA0265F96E0ED2
:10C1F000B5FF80019101E9FF73FCB30E040E4BFE05
:10C2000016FD6BF86BFEF4FED90739101B095DFAB9
:10C21000CBFD47F0F51F23FC19F69DFBBDF0470051
:10C220004E122B1636FFC101C0081E063FF862FAF7
:10C230007EF6BDFDD00012FBF304D3018CF91CF295
:10C2400036FE3AFDA6F77DFFFBFFEEE9FB13321148
:10C25000DD09D9002F0FDAF09706CC065A03E9F969
:10C2600096F9FF0D9CF8CA05E1FEF803B902D90161
:10C27000B4F979F930EEC9EE69F0FBEE0AFE47F643
:10C2800080FE2CEEC7158110E9F649F847FA77FED3
:10C29000690C3B01EA021AFA5E0255FB1FFD68F7C2
:10C2A00088F68F037AF3D4F996F9A6F4EDF282FAC0
:10C2B0001CF186ED49F3FEFAB1FE130E9C148702C1
:10C2C000AA07FB0E5C000400E1F5BAF8A7F0A1F69E
:10C2D000EC0890FA04FEF5FD50F5ED01E9FFDAF502
:10C2E000C4F9A9F547F66FF47EF93DFE43FEECFB79
:10C2F000090B3D0AEB0C27156102BD130101BB02BE
:10C3000027F757F62CF5E002BFFB1C0CE4F9BDF84B
:10C31000A1FF640AA0058E0219FCDB01B904E5F453
:10C32000F8F9E1FDFE158E1386F80F118909AEFFAD
:10C330003E061C098AFE2003D110AAFE9C0601FCC1
:10C34000BB065200FC070DFCB20BE4016F105A064D
:10C35000B60C2B07B10FC70E0E02390CF80AC60D2A
:10C360003F168A183D12280176FF69152711DF2C28
:10C37000741456008E0F6301BBFDB209630A58F7AF
:10C380001EFCCF09390DBF03BAFEFBF82CFCE906F1
:10C3900008FCBA002B00A4034709F011711DDFFE51
:10C3A00044071C0B6D173025E3090B0B5D1C4F0C6C
:10C3B000D107A20B8703DE05D2FC590FCC00FD008C
:10C3C000A402DCFE5204C0F336F755024D021D08EC
:10C3D0003C000B0729FF420663FB9AFA7F024303E6
:10C3E0006BEA04013FFD310412054809050B6C0896
:10C3F000C40F9A11830A5BFA070509FB9D0050FEE2
:10C400001CF482F7B6065CF5780181FEDF1079F73F
:10C4100025FCB2F6EFF4DBF453F24CEF2BEAB6FF57
:10C42000D5FC5809B5FFA2FBF500F3F822F29C09F0
:10C430009AFA9410F9F930F7BEEB29F8F802D00215
:10C4400073FE470ADF029E015005AB05880FEFFB24
:10C45000B5EA3DF8A7F6BEF21E08870184E37BF437
:10C460002AFE5AF032FD2AEEEE02C4F327EDFAFE60
:10C470007B0BA2FD28FE2C0222FDF5F922FADD0538
:10C4800063024CFFB5F8DE0DF40D4B059406900ADF
:10C49000BBFF0AFBECFCCFF507F700015A0ABD13FE
:10C4A000CF1155F340FB9F05DB08710C15F98C0388
:10C4B00013F59BF484025603ADF8C7FFE0FFAB020F
:10C4C00060ED51E514FACC0AAC01EE0A4AFED1FF48
:10C4D00032FE7E0AA4FA3C0617FD690D7E0D9F030D
:10C4E0002C08D306EEFF80F837FD4207DF0685F7FC
:10C4F0005C06D20357FFAD09B0FF07001C08E3FD3F
:10C50000980609FA90FF0DF6590470FB56006EFB71
:10C51000910841F99CFFD5F8B9FA76008AF592099D
:10C520003708EC0274FD7F0A9CF5BC03A800650582
:10C53000CFF7D5F98A007DFE8FF85BFB83FA0901FE
:10C54000A9FBC0EDFF084B0DEF00DAF3C10098F432
:10C550003205FEFCF304FFF7C3FCACFAF00063FF06
:10C5600082028AF83BFFA0FC0EF617FA04039BF93F
:10C5700036F971F9E20305EFB3F7D70651F7260351
:10C5800067088400C00ED0116F084005A1F35C0F4E
:10C5900000F7D7FCFDF7F7F608FBBFFF8E0E82060B
:10C5A000D2FF28F8F30ADE0517189E0D1312C9FCF6
:10C5B000A70D17FC9BFEE90516FB10F841F1C2F12F
:10C5C00089FE41EF07FAAC01350BECF9E2F296FC7B
:10C5D000E2FE6D09320D330534116CFEBF1579147E
:10C5E000DC18DC0E5D1A4F11BD13AE10D41A6D1A93
:10C5F0007806E406DDFF200764FE7DFA90F741022D
:10C600004B02A700E2059A08EB020B010C11FCFE9D
:10C61000F503D20F300FAEFF04F618FC4D065B1683
:10C620006B1A8F08B703790D410EC3063F008DFECC
:10C630001A03C9FEBDF39F0319027E0CDE134D02DF
:10C640002904A2FE7B081E053F018FFBFDFA460A66
:10C65000770FD807E20E3916420F7B0A200AF90A33
:10C6600088FF6D07A503600304FD25FC72FC0C0721
:10C67000970B8511D304560294F993FF50F30CF0F5
:10C68000F2F7FEF4C2FFAD052511A8FDC30386FC39
:10C690007304EBFAB80B680BABF47DF885F713FC69
:10C6A00011069AF7A6F79B0778F5021020071B00E2
:10C6B000D20577F07CEC59F4B8F53E025B14001318
:10C6C0009B0701087B020A06E9FC9708BFFD4800AA
:10C6D0002DFD23EF4FF1EAF604EF16013F0601FDB1
:10C6E0002DF95D045C076B04A9ED6AEFE0F68306A3
:10C6F00001F89E0F900AAE05BE179205510101FD8B
:10C7000088FF22FCDCFC83FAE30229F033FF0AFDF8
:10C71000E0F9C5FA0B053701F808F111D80D2A0820
:10C7200093EF3AF43DE363F88BF883016A062A0B32
:10C73000BD06A0F7350A79F94604AB09C410480BC9
:10C740009F004002E1FCAC0A77FF49FDE1F26DF188
:10C75000BBEF12FE201701023DF172EA40D823FD23
:10C76000D110E00A6602B3F6C4FB50EDE6F6BD0A4E
:10C77000F90FB3150C1C770E430E5305F70C42F955
:10C780004DF809F24ADBE4EB3EFC4904890EC20C89
:10C790009F0518EBACEB03F9DCF94F07DDFAAC00B1
:10C7A00021F9BEFC59F54909C80B4B17E71A650E6C
:10C7B000430CB003F3FADBFBFAF618F7EFE714F0DB
:10C7C000B1E22300700975F849FDD4F585F16DEFEC
:10C7D00012EDABF88DEB390064F276F34FF52E0EC7
:10C7E00037098515C0094D11B10CD3FEA105C6FE50
:10C7F00014FEA8EABCF689F174F395F412FEA407BE
:10C800004B058F018BEDC7F38DE842D863F0B9E794
:10C8100075FAD2F511EE3AEEB50221101317120790
:10C82000E10BAC044EF25DFAB1F67AFE21F123FA87
:10C83000EDF42DF070FACDF237FB2D0B9FFFBEEB20
:10C840009CE602E0A3E7BEDF9BEA5AF822ED2CF05B
:10C850006AF5AF007B160CF746FB79EE42F708F855
:10C8600048F901F5ABF74CFB9A00840332F999FDC6
:10C8700078EEBC09C2085FFA3FE950EBBEDB34EA50
:10C880002AE0A9EC74E63ADB26E9A104BBFB62FBD3
:10C8900030F445FD3209BAFC08F873F60FF80CFEC7
:10C8A000C9F99C02FAFA8F0077F8B903C60C6B112C
:10C8B000850055FC70FA2CEDDBE63EE359DD03DE26
:10C8C000BBE238F3EE0165F49DF546FE06FEE70196
:10C8D000D4FB1D004B0062F45EFEFDE963EF7D15A5
:10C8E000B4F81709D302CC16330D7D16D30846F7DA
:10C8F0006AF385EA1CEECEEE38EBA3FBE404A00954
:10C90000D703E9044CFF00116E033C0741051209EF
:10C91000C40BEB09A2FBF40091F9AFFB7CF8D20742
:10C920006C1131109A05F1FE6EFAC0F569F9C1F883
:10C93000BEF41DFFACF8F607C8170F050D01A30DD7
:10C940001607C6FE7D0DA6FD050EC40B32FDA10522
:10C950004402D7FA92080407B018920FA714200BCC
:10C96000D30831F9AB017C0109F9A50525F648FC8E
:10C97000E0069518EC155315D3141D0A0407B308E7
:10C9800002FE5C0ADFF96A0BED0A9BF8C70EBA10CB
:10C990005C143316D112821ACB0BC30943123EFF2B
:10C9A0005A0B190B87FE970B7CFEA70A77105210C3
:10C9B0009F0F0B0CE60CB7FD06FADE0C6FF33C077D
:10C9C0001E01FD08A905C309870FF40FE216CA0767
:10C9D0008F06B10A620E880E7BFD52F68DFC44FE76
:10C9E00027F83C02DCFD6B059D0E5917490F6AFEC6
:10C9F000E4FCB7F3DFFC7106A800E1F6B9FFED1522
:10CA0000C50C7CFAFB02F0F4790BA107810ECE0174
:10CA100014007FFEDDFB75F40BFF910057109802A8
:10CA2000AE0DA8096B01B01253FA1DFBD601D5F863
:10CA30000D0670FC02000304F9EEBAF214FCBEFA13
:10CA400089027DFA5FFC9008FF0568F148EE260137
:10CA5000C3FD47FF980CD7002C09D1F93C086E1193
:10CA600007EF29F3EDFC00FDAAF813F956065EFC6A
:10CA7000EBEF73FD670057FDB0F99DFE7BFFA5F658
:10CA800083FD8D0F3D1280FF60104107170919FBD0
:10CA9000D705F7FCCF00CA0ADC05D908BF010DFF96
:10CAA000BD06A1FA2B0439FAC0024EEDEDF1F301F7
:10CAB0000DFB91040B0ABE00E1F8A9F874FE3202E6
:10CAC000B60AF206C40389E42E015D1A891254FFE6
