:020000022000DC
:1070000000000420757302005D7302005F730200CC
:1070100061730200637302006573020000000000E8
:107020000000000000000000000000006773020084
:1070300069730200000000006B7302006D730200B0
:10704000399402006F730200719602006F730200A0
:107050006F7302006F730200F19402006F730200FD
:107060006F7302006F7302006F7302006F73020090
:107070006F7302006F7302006F7302006F73020080
:107080006F7302007D8602006F7302006F7302004F
:107090006F7302006F730200B9AD02006F730200DC
:1070A0006F7302006F7302006F7302006F73020050
:1070B0006F7302006F730200000000000000000008
:1070C0006F7302006F7302006F7302006F73020030
:1070D0006F7302006F7302006F7302006F73020020
:1070E0006F7302006F7302006F73020000000000F4
:1070F000000000006F730200000000006F730200C8
:10710000000000000000000000000000000000007F
:10711000000000000000000000000000000000006F
:10712000000000000000000000000000000000005F
:10713000000000000000000000000000000000004F
:10714000000000000000000000000000000000003F
:10715000000000000000000000000000000000002F
:10716000000000000000000000000000000000001F
:10717000000000000000000000000000000000000F
:1071800000000000000000000000000000000000FF
:1071900000000000000000000000000000000000EF
:1071A00000000000000000000000000000000000DF
:1071B00000000000000000000000000000000000CF
:1071C00000000000000000000000000000000000BF
:1071D00000000000000000000000000000000000AF
:1071E000000000000000000000000000000000009F
:1071F000000000000000000000000000000000008F
:10720000354936480A1A02D0072291438D4634493F
:1072100034480A1A06D00722914381F309880222D2
:1072200082F3148830483149314A00F044F831483B
:107230003149324A00F03FF831483249324A00F0D1
:107240003AF832483249334A00F035F83248334987
:10725000334A00F030F833483349344A00F02BF811
:1072600033483449344A00F026F83448344900227F
:1072700000F02CF833483449002200F027F8334856
:107280003349091A082902DB002202604160314AB1
:1072900090471F481F49884205D00268043003B454
:1072A000904703BCF7E700208646EC46002000210B
:1072B000294A9047FEE7884207D0521A05D0037842
:1072C00001300B700131013AF9D17047884202D088
:1072D00002700130FAE770470000042000E003204C
:1072E0000000042000000420CCC70200E82A00208F
:1072F000AC9E0220D0730200D07302007CBB02005F
:10730000CCC70200E82A0020E82A002078BC02004E
:1073100078BC020078BC020078BC020078BC020095
:1073200078BC020078BC020078BC0200CBC7020027
:10733000903B0500AC9E0220AC9E0220AC9E022039
:1073400048BC022048BC022048BC022048BC0220A5
:1073500048DC02209D73020051B10200FEE7FEE707
:10736000FEE7FEE7FEE7FEE7FEE7FEE7FEE7FEE7F5
:1073700000F002B8FFF7FCBF0F484FF00701884349
:1073800085460E4880470E48016841F4700101604F
:10739000BFF34F8FBFF36F8FFFF732BF09480A4922
:1073A0000A4A884207D0521A05D0037801300B7080
:1073B0000131013AF9D1704700000420B98F020071
:1073C00088ED00E078BC0200E82A0020E82A0020CE
:1073D0007047000007B5044B0093044A402300F0B7
:1073E00032F803B05DF804FBF1730200AD9E022099
:1073F0002DE9F84388461446B2B10F4B0F4E0325D2
:10740000002743F00109224608EB0701002002F0A3
:1074100027FF0744241A48B933782BB14FF47A4038
:10742000C847013D02D13570BDE8F88301233370B0
:10743000002CE8D1F8E700BF80BC0200AC9E02201F
:10744000704702F041BFF0B595B01D46164608469C
:107450000C4601F0C5FC1A9B0D93CDE9086500258B
:107460002B46082205A920460A958DF82C500C952C
:1074700001F0D3FC079B0293069B03939DF8143005
:107480008DF8115003F00302012A1DD1BDF814201C
:10749000059DC3F3C203C2F383168DF81030B2000A
:1074A00008230EA9204601F0B8FCC5F3952508ABCA
:1074B0000093324602AB0EA9284600F02BFB204673
:1074C00001F092FC15B0F0BD022AF8D1BDF81650BB
:1074D000C3F3C203C5F389158DF810300827082DB2
:1074E0002E4628BF08263B4632460EA9204601F00C
:1074F00094FCAD1B08AB02AA31460EA8374400F03D
:107500006DFB002DEBD1DAE708B5FFF79AFF0448D1
:10751000042100F069FA034B01225A7108BD00BF33
:1075200068BC0200E82A0020037813F0040216D099
:1075300003F00303012B03D0022B09D00120704775
:107540000A6800880232C0F3831002440A60F5E73B
:107550000B684288023303EB92130B60EEE7104690
:10756000704700002DE9F04F87B000230446861CC9
:107570000DF107000F4615468DF8073000F010FF9B
:10758000404A51683960936803F580735B1A9246EC
:1075900002F21C4702F5836902F21448B3421AD37F
:1075A0000020002D69D004F00F039B0143F0050378
:1075B00063F30F00DAF80430DAB203321E444AF8FB
:1075C00022009DF80700CAF8046000F00DFF0120BA
:1075D00007B0BDE8F08F0121384601F02CF948468C
:1075E00001F041F9404601F03EF9DAF80800029056
:1075F000C0B203300AEB800002A9FFF795FF029B9F
:1076000030BBDAB20AEB8202D16803919A1C0133D3
:10761000DBB20AEB83030292D3F80CB001F0030350
:10762000012B22D0022B15D08346404601F01EF9D3
:1076300010B1029BCAF808305946384601F0FBF8F1
:10764000DAF80830DAF8042003F580739B1AA5E70E
:10765000D8B2CEE7BDF80E30C3F3891303334FEA37
:107660001B4B02EB93030293DFE7BDF80C30C3F32F
:1076700083134FEA1B4B1344F5E7A40544F00600BF
:1076800098E700BFC09F0220064B074810B50022B4
:107690001A7001F05EFB044610B9044801F0F0FBDB
:1076A000204610BDC09F0220D4BB0200BCBC02001B
:1076B00030B50A4C71B10A4A0A49121BD20800239C
:1076C0009A4201D1002030BD31F82350854202D0CA
:1076D0000133F5E7034654F83300F4E7E8BB020052
:1076E00068BC0200E82A0020094B013903EBC00006
:1076F000032909D8DFE801F00A02040604207047D4
:107700000079704740797047002070470220704729
:10771000E8BB020070470000034BD3E90130C31AF5
:1077200058425841704700BFC09F02202DE9F041E8
:1077300086B0FFF7F1FF0546002840F0E680744C64
:10774000C4F81804BFF34F8FA3680293DBB203336E
:1077500004EB830002A9FFF7E7FE029B18B1D4F8FF
:107760001824002A55D0DAB2991C013304EB8202A6
:10777000DBB204EB8303D268DB68049302F00303FB
:10778000022B039202914FD1BDF80E306148C3F332
:107790008917502F3E4628BF502666F38F1306F1F7
:1077A0000801ADF80E3001F0ECFA0546002800F0B3
:1077B000978001F015FB002303A90822284601F059
:1077C00022FB0299CB43DBB20133C9B20331B6EBE2
:1077D000830F4FEA830804EB810122D90823424634
:1077E000A6EB0806284601F00EFBF6B24A4908F15E
:1077F00008033246284601F006FB029B033703EBE1
:1078000097070297D4F81834002B41D1D4F81064AC
:1078100051E062689A4299D8A260284606B0BDE855
:10782000F08108233246E5E7012B59D1BDF80C3031
:107830003848C3F38311062928BF062161F3891351
:1078400002318900ADF80C3001F09BFA05460028A2
:1078500046D001F0C5FA0023082203A9284601F00A
:10786000D2FA0026BDF80C20C2F38312B300964270
:1078700003F10803C6D202994A1CC9B2033102922D
:1078800004EB81010422284601F0BDFA0136E9E744
:10789000284601F0A9FAFFF73FFF80F00100C5B2CA
:1078A000BBE7F3685B7923B1336829461B68304630
:1078B0009847F3681E68002EF3D1284601F094FA29
:1078C0000DF107008DF8076000F06AFDD4F8183458
:1078D0000BB9029BA3609DF8070000F085FDDAE775
:1078E000D4F8104454B90D4B0D480E49C01AC008C5
:1078F000000440F0020000F05FF8CCE72368204667
:107900009B689847E3681C68ECE7002585E700BFA3
:10791000C09F0220D4BB0200CC9F0220E8BB020023
:1079200010BC0200A4BC02002DE9F34704460E4639
:10793000924601A9012218469946FFF713FE1C4FF3
:1079400010B3019D4FF00008AA1CC84508EB0201C6
:1079500025D11848002100F03FFF80F310000004FB
:1079600040EA1440E4006B1C04F03804DBB2EDB2D2
:1079700044F0010407EB8303033544EA881444EA26
:107980008624D86047F825403B781BB1FFF7CEFE30
:107990000028FBD1FFF7BEFE02B0BDE8F087C9B2F8
:1079A00007EB81015AF82830CB6008F10108CCE7D9
:1079B000C09F0220DCA3022000231A46FFF7B4BFB9
:1079C00007B50123019201AAFFF7AEFF03B05DF8EE
:1079D00004FB07B5CDE9002302236A46FFF7A4FFA5
:1079E00003B05DF804FB000030B50F49D1F8102456
:1079F00003460020144634B9DC6820714AB9C1F846
:107A00001034226030BDE4682579854206D02468B0
:107A1000F1E7D268116821601360F3E701300A28AA
:107A2000E8D14FF0FF30EDE7C09F0220084A38B59B
:107A30000123D2F8104413701D4604B938BDE36821
:107A40005D71236820465B689847E3681C68F4E72B
:107A5000C09F022007B503460846197A052911D0B0
:107A60005B7A2BB1094A0A49019000F062FF019844
:107A70000849019000F05DFF019803B05DF804EB48
:107A800000F04CBF002AF8D0F2E700BFC8BC0200EB
:107A9000CDBC020032C5020030B5C38885B00446B3
:107AA0000D4633B1144A00921449154A284600F095
:107AB00040FF217A05291DD0637A4BB1A088FFF7DA
:107AC00013FE104B104953F82020284600F031FFD8
:107AD000227A0E4BA08853F8222003920021FFF750
:107AE000E7FD039A0A490346284605B0BDE8304041
:107AF00000F01FBF05B030BDC8BC0200D8BC0200FA
:107B0000D0BC020054BD0200CDBC020078BD020012
:107B1000F0BC02002DE9F04385B01F460C9D002308
:107B200095F80C902B7306460C469046294638462D
:107B3000FFF7B2FFB8F1060F09D8DFE808F004122A
:107B4000181F283340003146284600F0F2FE00227C
:107B500029463846FFF77EFF85F80C9005B0BDE852
:107B6000F08322683146284600F0E3FEEFE7D4E9CF
:107B700000233146284600F0DCFEE8E7A3680093C6
:107B80003146D4E90023284600F0D3FEDFE7E3685E
:107B90000193A36800933146D4E90023284600F0FE
:107BA000C8FED4E723690293E3680193A3680093B6
:107BB0003146D4E90023284600F0BBFEC7E76369DD
:107BC000039323690293E3680193A368009331460A
:107BD000D4E90023284600F0ACFEB8E708292DE9D7
:107BE000F74F80460E4617461C463CD8002593F8B2
:107BF0000C901D7319461046FFF74EFFDFF888A062
:107C0000DFF888B0AE4231D918F805205946204631
:107C100000F08FFE0135082DF4D11949194DDFF818
:107C200070A0204600F085FE4FF0000B5E4522D983
:107C300018F80B207E2A05D81046019203F09CFB11
:107C4000019A00B92E225146204600F072FE0BF137
:107C5000010BBBF1080FE9D1012221463846FFF79D
:107C6000F9FE84F80C9003B0BDE8F08F5146204631
:107C700000F05FFECEE72946204600F05AFEE6E718
:107C800004BD020002BD020000BD0200FABC0200F9
:107C900006BD02001FB50021039001AA44F20100B5
:107CA000CDE9011100F004F805B05DF804FB000017
:107CB00010B572B6FFF7BAFEFFF738FD0028FBD10A
:107CC000104B114C1149E41AE408240444F001005B
:107CD000FFF772FE0E4B1B68DB0700D500BE0D4997
:107CE00044F00200FFF768FEBFF34F8F0A490B4BC9
:107CF000CA6802F4E0621343CB60BFF34F8F00BF4A
:107D0000FDE700BFE8BB020010BC020097BD020007
:107D1000F0ED00E0A3BD020000ED00E00400FA0574
:107D200049B152B1531E1A4007D18260016083806D
:107D3000C260104670470E2070470920704710B58A
:107D40008468C2688388121B934208D3C2681340B8
:107D50000268D154C3680133C360002010BD042001
:107D6000FCE78268C3689A420AD08268838813401D
:107D70000268D35C0B708368013383600020704716
:107D800005207047D0E90223D1E90201994208BFDA
:107D900090422CBF012000207047000008B50B481E
:107DA00000F055FC0A4B0B49D3E900231218D1E926
:107DB000000143F100038B4208BF824203D212F15B
:107DC000807243F100031046194608BDF02A0020D6
:107DD00080A40220F8A4022037B505460C460A48C4
:107DE00001A900F068FC60B10570446001A9064873
:107DF00000F08BFC18B1054800F02EFC002003B009
:107E000030BD0420FBE700BFE4A40220F02A0020DC
:107E1000284B73B51E7804461EB90026304602B0C2
:107E200070BD0028F9D0FFF7B9FFD4E902239942C9
:107E300008BF904238D300230DF107008DF80730BA
:107E400000F0AEFA23692BB94FF0FF324FF0FF3349
:107E5000C4E902239DF8070000F0C6FAD4E9053012
:107E6000984700250DF107008DF8075000F098FAAB
:107E70002169B9B1D4E90223581C08BFB2F1FF3F10
:107E800005D0521843F10003C4E9022335469DF89A
:107E9000070000F0A9FA002DBFD00748214601F0E5
:107EA0000EF8BBE70D46F2E7013308BFB2F1FF3F22
:107EB000B3D0F2E788A40220C0BD020013B5114B75
:107EC00011491868019008231048582200F0E0FB7F
:107ED000044698B90E4A0F4801A900F0A9FA0446D1
:107EE00060B90C48012100F095FB01230A4A0948BA
:107EF000194600F0F7FA094B01221A70204602B029
:107F000010BD00BFBABD02008CA40220E4A4022070
:107F1000CD7F0200F02A0020FFFF7F0088A402200E
:107F2000F7B5054600240DF1070017460E468DF8FB
:107F3000074000F035FAD5E90223013308BFB2F15A
:107F4000FF3F07D1FFF72AFF801941F10001C5E982
:107F5000020101249DF8070000F046FA4CB12B699C
:107F6000AF6103B12E6129460020FFF735FF03B052
:107F7000F0BD2046FBE737B5054600240DF10700AC
:107F80008DF8074000F00CFAD5E9022301330FBF4A
:107F9000B2F1FF3F4FF0FF324FF0FF33C5E902234C
:107FA00018BF01249DF8070000F01EFA2CB12946E5
:107FB0000120FFF711FF03B030BD2046FBE70000B2
:107FC000014800F044BB00BFF02A00202DE9F74F24
:107FD000804600F027FB40B1634AD2E9003113F13B
:107FE000807341F10001C2E900310021404600F0F8
:107FF00028FB38B15D4E336823B13068FFF708FFC6
:10800000002333600121404600F01BFB20B1FFF745
:10801000C5FE574BC3E900015648DFF8509101A94E
:1080200000F083FB4FF0FF364FF0FF3798B9DFF8D1
:1080300048A14E4F504600F058FF002800F08780BE
:10804000D0E90223591C08BFB2F1FF3F34D150469A
:1080500000F045FFEEE70378012B20D0022B09D179
:10806000DFF814A1504600F03AFF002877D0C0E9AD
:108070000267F7E753B94168D1E90223013308BF2A
:10808000B2F1FF3F02D03C4800F019FF01A9394886
:1080900000F076FB01A9374800F047FBC6E74168CE
:1080A000D9F80030994203D10023C9F80030EDE738
:1080B000314800F01DFFE9E7396891B13968D1E92D
:1080C00002018B4208BF82422FD23B68D3E90223D0
:1080D000013308BFB2F1FF3F03D03968504600F0CA
:1080E000EEFE504600F0FBFED0E9026B8146FFF742
:1080F00055FE341A6BEB0105012C75F1000319DBF9
:10810000B4F5350F14D3FFF75BFF1C4A02441C483B
:108110004FF49603002100F005FA98B93B6813B9B3
:10812000404600F0D7F9C7F8009003B0BDE8F08FE3
:108130003246ECE71248002100F079FA4846FFF792
:1081400067FE01E00D28F9D000233B6072E7074B82
:108150001B68002BE9D1404600F0C0F9E5E7094B68
:1081600001221A7092E700BF80A4022000A502201D
:10817000F8A40220E4A40220C0BD0200FFFFB40066
:10818000F02A002088A402200648074A03780749FD
:10819000D35C012213B1043001F0F0BE0C3001F0C9
:1081A0009FBC00BFF82A00206CA502202CA502204D
:1081B0000648074A03780749D35C012213B104300B
:1081C00001F088BE0C3001F039BC00BFF82A002055
:1081D0006CA502202DA5022037B50578012D0BD006
:1081E000022D2ED065B91E491E48FFF7BAFD0028A2
:1081F00032D1FFF7DDFF03E0037A1BB9FFF7C4FFBD
:1082000003B030BD4368184C19782046FFF797FD3E
:1082100080B18DF800500190144B68461B68984758
:10822000A168E368A2885B1A9A42E7D2104B012248
:108230001A70E5E7A268E3689A42F1D08DF8000071
:10824000EAE7C3688DF800500193FFF79DFF074BE5
:1082500068461B689847D3E703238DF80030F6E79C
:108260002DA502201CA5022008A5022004A502209D
:1082700018A50220F0B51F46234B89B004461A60AA
:108280000D4600293DD08A8820480968FFF748FD3F
:10829000002834D1AA89A9681D48FFF741FD0028AC
:1082A0002DD11C4E0FCE6D460FC596E80F0085E808
:1082B0000F0063690693237C174A18488DF81C70D9
:1082C000003B18BF01238DF81430637C002B14BFD2
:1082D0000E2300238DF81530E3680293A3680393FF
:1082E0002368019369466368009301F02BF830B965
:1082F0000B4B18702368013301D0FFF745FF09B01D
:10830000F0BD0720FBE700BF04A5022008A502205E
:108310001CA50220CCBD0200D9810200F82A002051
:1083200018A5022070B5084D014608482E78FFF7C1
:1083300018FD044636B100232B70FFF725FF08B166
:10834000FFF7A8FC204670BD18A5022008A5022052
:1083500010B501460E48FFF7F2FC0446A8B90D48D7
:108360000D4A0378D35C63B1043001F0FBFD60B9C2
:108370000A490748FFF7F5FC38B9BDE81040FFF798
:1083800017BF0C3001F0A0FBF1E7204610BD00BF85
:108390001CA50220F82A00206CA502202DA5022091
:1083A00070B5EFF3108672B60C4A946801239CB93D
:1083B00093600B4B0B4DD3F8801029401160C3F82C
:1083C0008050D3F8841051604FF0FF32C3F88420FE
:1083D000047006B962B670BD0370FAE730A50220DA
:1083E00000E100E0FC06FFBD084B9A6810B55AB1E9
:1083F00050B9EFF3108172B6054A1C6814605C68CE
:108400005460986001B962B610BD00BF30A502206B
:1084100000E100E0435882B03BB100234350435891
:108420000193019B012002B070471846FBE7000052
:10843000F8B5204B4479204D43F824201F4A204BA7
:1084400005EBC4049B1A2279DB081B0432B143F00C
:1084500002001C49FFF7B0FA0820F8BD02680C883A
:10846000C2F8084590F904608A7804795201002E18
:10847000D2B219DB14498F1987F80023012276093B
:1084800004F01F0402FA04F441F82640427905EB97
:10849000C201012445F832000C7143F003000B497E
:1084A000FFF78AFA0020D8E7094904F00F040A55BB
:1084B000ECE700BF44A502203CA50220E8BB020077
:1084C00020BC0200ECBD020000E100E00EBE020094
:1084D00014ED00E0036801221A607047036801226E
:1084E0005A60704773B501F15005AD000068ADB238
:1084F0004FF480348C400026C0F80843C0F848434D
:10850000465101F5A8714559019522F07F42019D20
:1085100040F82120C0F844430BB1C0F8044302B036
:1085200070BD00002DE9F74F0D4622F07F44026830
:108530004FF4803705F150068F408046B60002EBBD
:108540008500C2F84873B6B2C2F80873D2F80415B1
:1085500099464FF0000BD0F84035C0F8401542F86E
:1085600006B05B1A9259009223F07F43012B009AC8
:108570004FEA850A0CD1264B4FF4806043F001038B
:108580009847D8F8003043F806B09B590193019BF7
:10859000D8F80010D1F80465C1F84473A31B23F088
:1085A0007F43012B1CD11A4B05F5A875013443F00C
:1085B000010341F825404FF480609847D8F8003017
:1085C000D3F804359E4209D1D8F800300020C3F812
:1085D0004473C3F8047303B0BDE8F08F0D20FAE7CD
:1085E0008A44C9F1FF13CAF84045D1F80405221A9C
:1085F000013A22F07F4203F57F439342EED3002AF3
:10860000E2D10134CAF84045D1F804359842DAE79E
:1086100020BE020003680222C3F8442309B1C3F854
:108620000423704700684FF48271FFF7F3BE4FF4E4
:10863000803303FA01F10368C3F84813C3F8081341
:10864000704750318900006889B2FFF7E3BE0368C4
:10865000D3F804057047000090F90430002B09DBC3
:108660005A09012103F01F0301FA03F340320249C2
:1086700041F82230704700BF00E100E0024B034A9E
:108680001B681068184700BF44A502203CA50220C3
:1086900010B561B1B2FBF3F403FB1424A4B244B9E6
:1086A000C0E9001484608281C381204610BD0E2081
:1086B000FCE70920FAE737B550E8013F9DB2C489CD
:1086C00025448489A54228BF2D1B0489A54202BFE9
:1086D000BFF32F8F002207E0C5EA030540E80154ED
:1086E000002CE9D14FF001028DF803200193019B8A
:1086F0009DF803200B6002F0FF0322B10B88006895
:10870000184403B030BD1846FBE70A884B889A42EC
:1087100009D150E8012FC2EA024240E80123002BB0
:10872000F7D1012070470020704737B550E8023F6D
:108730001FFAA3F5C488A54202BFBFF32F8F002202
:108740000DE0C48925448489A54228BF2D1BC3EAB6
:10875000054540E80254002CE8D14FF001028DF8A5
:1087600003200193019B9DF803200B6002F0FF039F
:1087700022B14B880068184403B030BD1846FBE7AF
:108780000A884B889A4209D150E8022FC2EA224255
:1087900040E80223002BF7D10120704700207047EA
:1087A00001F01F024B090121914000EB830000F012
:1087B0001EB801F01F0301229A404B0900EB830011
:1087C000D14300F02CB84B0901F01F0150F82300F1
:1087D000C84000F00100704710B5034653E8000F91
:1087E0000A4643E8002494F0000FF7D110BD10B5FD
:1087F000034653E8002F42EA010043E8000494F0E6
:10880000000FF6D110BD10B5034653E8000F00EA83
:10881000010243E8002494F0000FF6D110BD10B51A
:10882000034653E8002F02EA010043E8000494F0F5
:10883000000FF6D110BD10B5034653E8002F02EB30
:10884000010043E8000494F0000FF6D110BD10B50C
:10885000034653E8002FA2EB010043E8000494F024
:10886000000FF6D110BD0121FFF7C1BF0021FFF7B6
:10887000CABF10B590B1D0E9012301689B1ADBB2E1
:108880000A60013BDBB2FF2B026802D100201071AD
:1088900010BD11684C1C14600B70F2E70E20F7E756
:1088A00037B5054600240DF107008DF80740FFF7A6
:1088B00077FD2A686B68116899420ED9481E1060CE
:1088C00011F8014CEB68298A01FB0434AB6811797B
:1088D0001B1ADBB2994238BF13719DF80700FFF7EE
:1088E00083FD204603B030BD37B5054600230DF1AA
:1088F00007000C468DF80730FFF752FD2A68136811
:10890000591C1160E968641A298AB4FBF1F41C70DF
:108910009DF80700FFF768FD03B030BD826810B511
:1089200004462AB143690168006998470023A3609F
:1089300010BD0EB403B5039921B104AB01AA019394
:1089400000F076F802B05DF804EB03B070470A2936
:1089500038B504460D4602D10D21FFF7F8FFA36894
:108960002268591CA160D554D4E901329A4204D33B
:108970002046BDE83840FFF7D1BF38BD2DE9F84F9C
:108980009846DDE90A43154682460F460A464FF0EF
:108990000109AA420FD2C14538BFC14613F0010BED
:1089A00001D16CB900240126B8F1010F1BD908F1DF
:1089B000FF386E43F8E709F10109B2FBF5F2E8E789
:1089C0009B070ED5B8F1000F0CBF30262026A1451D
:1089D000E9D2013C31465046FFF7B9FF002CF6D1F1
:1089E000E0E72026F3E7B7FBF6F39D42E1D9DFF895
:1089F0003C80B7FBF6F3504618F8031006FB1377DC
:108A0000FFF7A5FF3346AB42B6FBF5F6F1D2BBF15B
:108A1000000F02D00CB1A14501D3BDE8F88F202191
:108A20005046013CFFF793FFF4E700BF26BE02006B
:108A30002DE9F74F054617468846002900F0428188
:108A400018F8011B49B92B7B002B00F03B8128460D
:108A500003B0BDE8F04FFFF761BF252940F0B780B4
:108A6000002698F800302D2B424608F1010823D04B
:108A7000302B24D02B2B25D000242A2B02F10101EE
:108A800023D13B681A1D1B683A601C440A461378C0
:108A90002E2B26D101324FF0000A104610F8011B90
:108AA000A1F1300CBCF1090F1DD80A2303FB0A13F6
:108AB000A3F1300A0246F0E746F00106D1E746F09E
:108AC0000206CEE746F00406CBE711F8013CA3F11D
:108AD00030000928DBD80A2202FB0434303C0A4665
:108AE000CBE74FF0000A12F8011B01F0FB006828E9
:108AF0009046F8D0782909D86F290CD8632962D01C
:108B000022D8252963D0582900F0888098F80030B1
:108B1000002B95D197E770390829F7D801A353F8AE
:108B200021F000BF9F8C02000D8B02000D8B020014
:108B30002D8C02000D8B02000B8C02000D8B0200AD
:108B40000D8B02001D8C0200642901D06929DDD142
:108B50003A68D2F80090111D89EAE9723960A2EBF7
:108B6000E9724FF0010B092A35DCD34538BFD346F3
:108B70002CB1B9F1000F01DB720700D5013CB3073E
:108B800002D5BAF1000F03D0F00701D44CBB00248A
:108B9000B9F1000F2DDAC9F100092D212846FFF7A0
:108BA000D6FE06F00302022A04D1BAF1000F01D169
:108BB0001CBB0024CDE9004653460A2249462846FC
:108BC000FFF7DCFEA2E73B681A1D19783A602846D9
:108BD000FFF7BDFE9AE70A230BF1010BB2FBF3F29C
:108BE000C1E7A345D4D220212846013CFFF7AFFEC0
:108BF000CCE77107D5D52B21D0E7A345DAD23021B8
:108C00002846013CFFF7A3FED2E73968CDE90046CC
:108C10000A1D3A6053460A220968D0E739680A1DDE
:108C20003A60CDE9004653461022F5E73B681A1D2D
:108C30003A6016F00106D3F8009028D1B9F1000F80
:108C400003D0484602F04DFC0646B44200D904BBAE
:108C500009F1FF3919F8011F00293FF457AF2846E1
:108C6000FFF775FEF6E728460136FFF770FE19F8A4
:108C700006100029F7D1A642BFF448AF002C3FF4FC
:108C800045AF20212846013CFFF761FEF3E70026AF
:108C9000EDE720212846013CFFF759FED5E73B6868
:108CA0001A1D3A60302128461C68FFF750FE7821D3
:108CB0002846FFF74CFE00220823CDE9003221466A
:108CC00010227CE703B0BDE8F08F00BF2DE9F84F1C
:108CD000B0F806A04579D2F800B09DF828900AFBBC
:108CE00005F5043D88460BEB0301A94203F104049A
:108CF00088BFA5EB030BB4FBFAF607460AFB164444
:108D0000C2F800B04EB9AAEB04055D4528BF5D4628
:108D1000BBF1000F04D1BDE8F88F3F68013EF1E7D9
:108D2000043408EB06003C442A46B9F1000F0DD08C
:108D30002146ABEB050B02F056FBDA452E443F68AB
:108D400055464FF0000428BF5D46E1E70146204646
:108D5000EFE7FFF78EBDF8B546790146721E05466E
:108D6000002393422D6803D30024A64202D8F8BD05
:108D70000133F6E70F682846FFF7B6FD01343946A0
:108D8000F3E72DE9F843068ACD1C0746FFF788FD77
:108D9000043E35440446B5FBF6F5F0B14FF480735C
:108DA000EDB28380C680013D076081464FF0000828
:108DB000A84512D23846FFF773FD064648B16379DD
:108DC0000133637108F10108C9F8000007608146AA
:108DD000EEE72046FFF7BFFF34462046BDE8F883A4
:108DE00001210430FFF727BD10B5012104460430EE
:108DF000FFF72DFD10F0FF0F04D12046BDE8104015
:108E0000FFF7A9BF10BD1FB503920022009203AA6D
:108E1000FFF75CFF05B05DF804FB1FB5039201226C
:108E2000009203AAFFF752FF05B05DF804FB41DF93
:108E30007047000007B500230DF107008DF80730DB
:108E4000FFF7AEFAF1EE103A23F09F03E1EE103A8D
:108E5000BFF35F8F094B4022C3F884219DF80700C0
:108E6000FFF7C2FA01F08EFF20B1FFF7E0FF03B079
:108E70005DF804FB20BF40BF20BFF8E700E100E041
:108E8000836800225A60C3E904229A60DA601A609B
:108E900070470B684A684360934208BF0023016033
:108EA00008BF43607047436843B1026891685268E5
:108EB0000B449342436004BF00234360704770B586
:108EC000446806460D46206818B1B368294698479D
:108ED00018B923682B60256070BD2468F3E74368E8
:108EE000186808B102681A607047436818687047CC
:108EF0004368186800B97047884203D102681A6055
:108F00000120704703460068F4E7000010B50D49E2
:108F1000A1F59472914201D800200FE08C1AE30F62
:108F200003EBE4035B1002EBC30452F833308342DB
:108F300005D802D204F10802ECE7606810BD2146B2
:108F4000E8E700BF40C3020008B5FFF7DFFF024BB0
:108F5000002808BF184608BD02C2020010B504462A
:108F6000C0B2FFF7F5F9204610BD0000034B1868AA
:108F7000A0F1080358425841704700BF300100106B
:108F8000064B1B68082B06D1054B1B68052B02D826
:108F9000044AD05C70470020704700BF30010010C9
:108FA0003401001046C30200024AD2F80034002BFC
:108FB000FBD0704700E0014010B5FFF7D7FF40B18C
:108FC0004FF080430022C3F80C21C3F81021C3F8EE
:108FD0003825FFF7CBFF002846D04FF08052614B79
:108FE000D2F80414C3F82015D2F80814C3F82415D5
:108FF000D2F80C14C3F82815D2F81014C3F82C15A5
:10900000D2F81414C3F83015D2F81814C3F8341574
:10901000D2F81C14C3F84015D2F82014C3F8441534
:10902000D2F82414C3F84815D2F82814C3F84C1504
:10903000D2F82C14C3F85015D2F83014C3F85415D4
:10904000D2F83414C3F86015D2F83814C3F8641594
:10905000D2F83C14C3F86815D2F84014C3F86C1564
:10906000D2F84424C3F87025FFF78AFF10B13E4BB5
:109070003E4A1A60FFF784FF18B13D4BFB22C3F84C
:109080001825FFF77DFF48B13A493B4B0A681B683A
:1090900022F00F0203F00F0313430B60FFF770FF82
:1090A00018B1364B4FF400721A60FFF75FFF48B1FA
:1090B0004FF08043D3F80024D20744BF6FF0010281
:1090C000C3F800242E4AD2F8883043F47003C2F863
:1090D0008830BFF34F8FBFF36F8F2A4B1B68082B6D
:1090E0000ED1294B1B68052B02D8284AD35C3BB113
:1090F0004FF01023D3F808224FF08043C3F85825CF
:109100004FF01023D3F80022002A03DBD3F80432F7
:10911000002B22DA1E490123C1F80435FFF744FF72
:109120004FF010201224C0F80042FFF73DFFC0F8B6
:109130000442FFF739FF0023C1F80435FFF734FF7D
:10914000BFF34F8F0E49134BCA6802F4E06213431A
:10915000CB60BFF34F8F00BFFDE70F4B0F4A1A6084
:1091600010BD00BF00C000408C5600404881030085
:1091700000F00040E40E004058020010409602400B
:1091800000ED00E0300100103401001040C3020087
:1091900000E001400400FA050C2B00200090D003F1
:1091A00038B5074C051E04F1080318BF1C46236898
:1091B0002BB11A6822605B6828469847F7E738BDEC
:1091C00050A5022020B9054B01225A70FFF7E8BFD5
:1091D000012802D1014A9070F8E7704748A50220A3
:1091E00020B9034B01225A70FFF7DABF704700BF66
:1091F00048A5022038B50E4C2378B3B90D486360FA
:10920000A3602361E36000F0E5F8054601F0BAFDD4
:1092100008B900F0EBF801232370074BD3F80034B2
:109220000BB10123A370284638BD8525F5E700BFA3
:1092300048A50220C59102000000014037B50D4C41
:1092400000230DF107008DF80730FFF7A9F8E36858
:10925000013BE360E36833B9074BD3F8005415B919
:1092600000F0D6F8A5709DF80700FFF7BDF803B031
:1092700030BD00BF48A5022000000140012813B501
:109280000CD0032820D038B9124B0122C3F880201B
:10929000BFF34F8FBFF36F8F02B010BD0E4C002392
:1092A0000DF107008DF80730FFF77AF823780BB936
:1092B000FFF7A0FFE3689DF807000133E360012397
:1092C000A370FFF791F8E7E700F090F8FFF7B6FF1B
:1092D000E2E700BF00E100E048A502201FB50378E7
:1092E0008DF800304368019383688DF80830C368B7
:1092F000054A0393054B684653F8213052F8211074
:10930000984705B05DF804FB5CA5022064A5022027
:109310001FB503788DF800304368019383688DF89A
:109320000830C368054A0393054B684653F821305B
:1093300052F82110984705B05DF804FB5CA50220A7
:1093400064A50220F0B5194B90F800C0DFF86CE07E
:1093500043F82C20164B16460A6943F82C204B7F05
:109360000EF80C300C4607460FCC89B06D460FC581
:1093700094E80F0085E80F001EF80C30CDF810C0FF
:109380004BB1002E0B4A694608BF3246381D00F02B
:10939000C3FC09B0F0BD002E074A694608BF32463B
:1093A00007F10C0000F078FAF3E700BF64A5022093
:1093B0005CA50220DD920200119302006CA5022040
:1093C00000F18040002382B0036003680193019B99
:1093D00002B07047044A137923B9012110609180CB
:1093E000184670478520704770A50220074B1A6801
:1093F000D20704D4C02283F8002301221A604FF060
:1094000080430122C3F81825704700BF00E100E047
:109410004FF0804208B50223C2F808334FF482703F
:10942000FFF7CEFF034B01211960D2F81834DB039C
:10943000FBD408BD0C000040124B1B6810B573B183
:109440004FF48070FFF7BCFF4FF080430122C3F858
:1094500008230D4B587910B95A711B6898470B4B6C
:109460001B6873B14FF48270FFF7AAFF4FF080437F
:109470000222C3F80823044BBDE810401B680120FA
:10948000184710BD0001004070A5022004010040F3
:1094900000F1804000F5C040002382B00360036803
:1094A0000193019B02B0704703681F2B83BF03F039
:1094B0001F03036001484FF0A040704700030050B5
:1094C00007B5019001A8FFF7EFFF019B00EB8300B8
:1094D000D0F8003723F44033C0F80037D0F8003715
:1094E00043EA0141C0F8001703B05DF804FB000037
:1094F0002DE9FF470024CDE90244584D4FF4807216
:10950000012102F1804303F5C04390B21B68012B97
:1095100006D1D5F804330B4202D0FFF7B9FF0C4354
:109520000432B2F5907F4FEA4101EAD14C4B1B68FF
:10953000012B11D14FF4BE70FFF7AAFF4FF0A043EB
:1095400044F00044D3F820250292C3F82025D3F834
:1095500020280392C3F8202814F0FF0F1AD0414F9F
:1095600000250126344210D0AB0003F1804303F5FF
:10957000C043D3F81005D3F8101557F8253023B1A0
:10958000C1F30141C0F3052098470135082D4FEA8A
:109590004606E7D1002C59DA324D334C334E4FF0AA
:1095A0000008012716F9013B5A1C3CD0C3F3C20145
:1095B00004A801445FFA83F911F8081C03F03F0284
:1095C00003F0070307FA03F319422CD001A8019214
:1095D000FFF76AFF019B03F5E07350F82330C3F3F4
:1095E000014ABAF1020F10460CBF03210221FFF716
:1095F00067FF01A80192FFF757FF019B07FA03F3EA
:10960000C0F82035AB1893F9303055F8233053B1FA
:109610004FEA9911032904D0BAF1020F19D1012997
:1096200001D11046984708F10108B8F1040FB9D1EB
:109630004FF0A043D3F820250292C3F82025D4F898
:1096400020350393C4F820351343A7D104B0BDE8F7
:10965000F087BAF1030FE6D10229E1E7006000408C
:109660007C61004078A5022000030050D8A50220AC
:10967000014B1B68184700BFE4A502200E4B98421F
:1096800037B50C4602D0002003B030BD00230DF1E9
:1096900007008DF80730FEF783FE084B1D7915B9DA
:1096A00001221C601A719DF80700FEF79DFE002D37
:1096B000E9D01120E8E700BF00200040E4A5022027
:1096C0000023435082B043580193019B02B070477E
:1096D0000A4610B54FF48E71FFF7F2FF136A9168D6
:1096E000C95C136A01331362C0F81C1510BD024631
:1096F00008B500684FF49271FFF7E2FF4FF48471F0
:109700001068FFF7DDFF136801221A6008BD8B693E
:109710000A4610B54FF4847123B9FFF7D1FFD0F892
:10972000183510BDFFF7CCFF536AD168D0F8180583
:10973000C854536A01335362F3E700001FB5012395
:109740008DF80030044BCDE90110D3E900126846D2
:10975000904705B05DF804FBECA5022030B54C48FD
:10976000D0F8043313F4007F85B005464DD0D0F80F
:109770002431002B49D04FF49271FFF7A1FF4FF431
:109780000173C0F80833434B93F829200AB901222A
:1097900042603F4902228DF80020D1F88024C1F8B0
:1097A000802403929A690292DA6801920022C3E946
:1097B00006226846D3E9001290473548D0F81C319C
:1097C0005BB134494A690B6A9A420A464AD991F810
:1097D0002830002B46D1FFF77BFF2D48D0F84431CD
:1097E0008BB14FF4A271FFF76BFF2A4B93F829203E
:1097F0000AB1012202609A692AB10022586AD96826
:109800009A61FFF79BFF05B030BDD5F804335B07C5
:10981000D3D5D5F80831002BCFD01E4C1C4821469B
:10982000FFF775FF636AA2699A422346C5D1E269D0
:10983000E1684AB12369E3600023606AA261E361E1
:109840006362FFF77BFFB8E794F829200AB9012289
:109850006A600F4A4FF40170C2F808030022586A88
:109860009A61EEE70A484FF48E71FFF729FF5369BA
:10987000002BB2D051690291002391688DF800301D
:10988000019153616846D2E900139847A5E700BFEC
:1098900000200040ECA502202DE9F843614B05793A
:1098A00091462C2202FB0532064692F82A200C46ED
:1098B0009846002A40F0B1805B490068FFF7DEFE61
:1098C0000746002840F0AB8021684A1C10D01F29B1
:1098D00087BF564A01F01F030B464FF0A0420120FC
:1098E000984003F5E073C2F80805032042F823000E
:1098F0006068431C0DD01F288BBF00F01F03034678
:109900004A4A4FF0A04203F5E0734FF0000C42F8D2
:1099100023C03368A269C3F8242594F814C0627D7B
:10992000BCF1010F4CEA0202C3F86C25C3F8140520
:10993000C3F80C152BD1A168481C0DD01F298BBF73
:1099400001F01F020A4639484FF0A04002F5E072CC
:109950004FF0000C40F822C0E068421C13D01F28D2
:1099600087BF324A00F01F0C84464FF0A0424FF0F0
:10997000010E0EFA0CFE0CF5E07CC2F808E54FF083
:10998000030E42F82CE0C3F80805C3F810152C2389
:109990006B4308EB0302C2F80490226948F80320E5
:1099A000B9F1000F21D03068247F4FF48E71FFF79A
:1099B00087FE4FF4A2713068FFF782FE32681C4BBD
:1099C000C2F80433110B42F307326301002ADBB201
:1099D0001EDB1848841884F800330123520901F073
:1099E0001F0103FA01F140F8221033680422C3F882
:1099F00000252C2303FB05830022C3E9062283F8FC
:109A000029205A61012283F82A203846BDE8F883CC
:109A1000094A01F00F015354E7E70827F5E711273A
:109A2000F3E700BFECA502205D97020000030050A1
:109A30008000020000E100E014ED00E02DE9F047B5
:109A4000204F90F804904FF02C0808FB097405464D
:109A50006669002E34D162610068A16026624FF40D
:109A60008E7184F82860FFF72BFE2868012383603D
:109A70002146FFF72DFE6368A0468BB92868D4F80D
:109A800014A0236A9A4511D82A68D2F81C31002BF9
:109A9000FBD00123D3602C2303FB097300225A61FE
:109AA0003046BDE8F08794F828303BB9D0F81C3137
:109AB000002BF8D04146FFF70BFEE2E70F26EAE75E
:109AC0001126EDE7ECA502200379044A2C2101FBC5
:109AD00003235869003818BF01207047ECA5022005
:109AE0002DE9F843394F05792C2303FB057306460E
:109AF0005C6824B103684FF40170C3F808032C2399
:109B000003FB0573986950B1D86900283ED024B191
:109B100033684FF40172C3F80423112433E09A61CF
:109B2000D9605862D8612C2303FB057393F8293060
:109B30001BB910B93046FFF7DAFD4FF02C0909FBCD
:109B400005783068D8F80430002B34D14FF4A27176
:109B5000C146FFF7B5FD3068D0F82431D0F80821B0
:109B6000D0F84441B2B90CB9002BF4D02C2202FB3E
:109B700005750022AA6123BB2CBB95F82910336818
:109B80000122B1B11A602046BDE8F8831961DA619B
:109B90000120C8E7002BE9D1002CE7D14946FFF7A7
:109BA000B6FDD8F82430D8F818209A42D3D82346E6
:109BB000DCE75A60E7E74FF40173C0F80433002490
:109BC000E1E70324DFE70F24DDE700BFECA5022077
:109BD0000023435082B043580193019B02B0704769
:109BE0001FB501238DF80030044BCDE90110D3E9F6
:109BF00000126846904705B05DF804FB18A60220E5
:109C00007FB5434AD2F82461002E60D010464FF44D
:109C10009271FFF7DDFF02238DF80030D2F8803417
:109C2000C2F880340393D2F83C350293394BDA689A
:109C300001920022C3E906226846D3E90012904748
:109C40003348D0F8443173B14FF4A271FFF7C0FF2D
:109C5000304B9A693AB10022C3E90622D968D0F89C
:109C60003C05FFF7BDFF2A48D0F82031ABB14FF4D7
:109C70009071FFF7ADFF0123C360264B5A6962B1B3
:109C8000D0F84C150291002299688DF800200191BE
:109C90005A616846D3E9001290471D48D0F8583100
:109CA0009BB14FF4AC71FFF793FF1A4B5A6962B145
:109CB000D0F84C150291002299688DF8002001918E
:109CC0005A616846D3E90012904704B070BDD2F8DB
:109CD0001031002BB4D04FF488711046FFF778FF95
:109CE0000C4BD2F83C0599698842A9D1DC69D96846
:109CF00064B1D2F8005225F02005C2F800521A696A
:109D00009C61DA60DE61FFF76BFF99E79C61FAE71F
:109D10000020004018A602202DE9F843674B067981
:109D20009146242202FB0632044692F820200D467A
:109D30009846002A40F0BE8061490068FFF79EFC0B
:109D40000746002840F0B8802868421C10D01F2821
:109D500087BF5C4A00F01F0303464FF0A042012179
:109D6000994003F5E073C2F80815032142F8231067
:109D700069684B1C0DD01F298BBF01F01F030B46D8
:109D8000504A4FF0A04203F5E0734FF0000C42F848
:109D900023C02368AA69C3F8242595F814C06A7DF6
:109DA000BCF1010F4CEA0202C3F86C25C3F80C05A4
:109DB000C3F814152BD1A968481C0DD01F298BBFDF
:109DC00001F01F020A463F484FF0A04002F5E07242
:109DD0004FF0000C40F822C0E868421C13D01F2846
:109DE00087BF384A00F01F0C84464FF0A0424FF066
:109DF000010E0EFA0CFE0CF5E07CC2F808E54FF0FF
:109E0000030E42F82CE0C3F80805C3F8101524230C
:109E1000734308EB0302C2F804902A6948F8032050
:109E2000B9F1000F30D020682A7F4FF48871FFF716
:109E3000CFFE20684FF49071FFF7CAFE20684FF400
:109E40009271FFF7C5FE20684FF4A271FFF7C0FEC4
:109E50004FF4AC712068FFF7BBFE23681A49C3F8C2
:109E60000413190B43F307335201002BD2B21CDB4E
:109E70001648C51885F8002301225B0901F01F016F
:109E800002FA01F140F8231023680822C3F80025E4
:109E9000242303FB06830022C3E906225A61012220
:109EA00083F820203846BDE8F883094B01F00F0104
:109EB0005A54E9E70827F5E71127F3E718A6022027
:109EC000019C0200000300501003420000E100E08A
:109ED00014ED00E001F06043B3F1005F2DE9F041C3
:109EE000064638D11E4B0779242505FB07359846D1
:109EF0006C69002C31D16A610068A9604FF49071DF
:109F0000FFF766FE4FF4AC713068FFF761FE33680F
:109F10006A69A968C3F84415C3F8482501229A6004
:109F20006A68AAB9D3F82021D3F858411AB9002C8D
:109F3000F8D00F2407E0002CFBD10122DA60D3F81F
:109F40005821002AFBD0242303FB078700237B61D1
:109F50002046BDE8F0811024FAE71124F8E700BF9D
:109F600018A602200379044A242101FB032358691F
:109F7000003818BF0120704718A60220F8B501F07C
:109F80006043B3F1005F04460F465ED10379304D64
:109F9000242101FB0351496821B100684FF4047684
:109FA000C0F80863242000FB03539E6956B1D869AA
:109FB000002839D021B123684FF40472C3F8042378
:109FC000112030E09A61DF60DE6120684FF4887113
:109FD000FFF7FEFD20684FF4A271FFF7F9FD23683B
:109FE000C3F83475C3F8382516BB01221A602179ED
:109FF000242202FB015252680ABBD3F81041D3F865
:10A000004421D3F82401144302D10028F5D022467C
:10A01000242303FB01550023984218BF03209A42D2
:10A02000AB6118BF0F20F8BD1F61DA610126CCE7D4
:10A03000D3F8002242F02002C3F80022D7E74FF401
:10A040000472C3F804230020EDE71020EBE700BF03
:10A0500018A60220032811D8012A0AD101290FD1FC
:10A0600000F10E02D2B20D4B00EB40001A5400205A
:10A0700070470129F7D0022904D049B10720704761
:10A080000022F8E7054B00EB400018444270EEE771
:10A09000024B00EB400018448270E8E73CA6022027
:10A0A00008B5012202210020FFF7D4FF08B10728DC
:10A0B00010D1072202210120FFF7CCFF08B10728A9
:10A0C00008D100210A220846FFF7C4FF10B1072873
:10A0D00008BF002008BD00000388102B10B502D077
:10A0E000112B1ED010BD1A4C2168B1B901220846AF
:10A0F000FFF7B0FF08B1072824D107220221012071
:10A10000FFF7A8FF08B107281CD104220221002074
:10A11000FFF7A0FF08B1072814D12368013323609B
:10A12000E0E70B4A1368013B1360002BDAD1FFF71D
:10A13000B7FF0028D6D0074B1B68002BD2D0BDE854
:10A1400010401847034B1B68002BE6D09847E4E704
:10A150004CA6022048A602200369C1688B429DBF1D
:10A160008268D21802F1FF3203F1FF3394BF501A14
:10A17000581A70472DE9F843D0E902940546A9EB37
:10A1800004084068904520440F46144404D901F067
:10A190002AF9EC60BDE8F8834246A4EB090401F01B
:10A1A00022F96868224607EB0801F0E72DE9F84339
:10A1B000C5680646894617464FF000083469B368FB
:10A1C0007068A54228BFE418013C621B5C1BBC42BE
:10A1D00028BF3C46944228BF14464946284422469C
:10A1E00001F001F9B3682544AB4208BF00253F1BCD
:10A1F000A044A144F560E1D14046BDE8F8830000E9
:10A2000010B5114C114AA2610223C4E90433104B6A
:10A21000E361A2644FF400730E4A0F492362E264C3
:10A2200000231022E01DA3626362E362A3656365FD
:10A23000E365226501F033F90849204601F02FF962
:10A240002023A37110BD00BF50A602206EC30200E0
:10A25000D8A60220C8A6022077C302007BC3020052
:10A26000F8B5184C182300FB033503FB00402544C8
:10A27000C46A012C0F4616460FD0022C1AD0F4B92E
:10A280002846FFF769FF864205D8324639462846F8
:10A29000FFF770FF34462046F8BD2846FFF75CFF05
:10A2A0008642344628BF0446224639462846FFF7F0
:10A2B00061FFF0E72846BDE8F840FFF777BF0024CC
:10A2C000E9E700BF50A60220FFF79ABF30B5C8B13A
:10A2D000F2B10024651C8D4206DA1588A54212D819
:10A2E00005196D789D420ED1A14211D9005D48B18A
:10A2F000013880B230B10234A3B210FA84F4A14222
:10A3000006DB138030BD055D01352C44A4B2E1E7C6
:10A310000020F7E713B513460022ADF806200DF133
:10A3200006020446FFF7D2FF10B1BDF80630E01870
:10A3300002B010BD72DF704773DF704738B501227D
:10A3400004460D46B0F81414D0F81004FFF7E2FFED
:10A3500000B1057004F13C0204F5826104F154007F
:10A36000BDE83840FFF7E6BFF8B5077804460D466C
:10A37000002F00F0098100F226468170072200219B
:10A38000304601F059F8E38813B1A378012B04D0CB
:10A39000E3794BB1A378022B06D1636BA3B1012201
:10A3A00084F82D2408209847334604F22C4113F8F2
:10A3B000012F12B99942FAD117466B1E032B57D8B9
:10A3C000DFE803F0050B0F1284F82D34ECE7A379D6
:10A3D0001BB194F8243003B95FB9E3790BB1002FB6
:10A3E00048D1237A002B47D1637A002B0CBF00257C
:10A3F0000425636BA570002B40D0033D012D3DD893
:10A400006279002A3AD094F82E24002A36D184F8B2
:10A410003024012284F82F240720984704F13C05BA
:10A4200018220021284601F007F8E26A0123511E94
:10A43000994284F83C3001D9042A00D1D3B294F86F
:10A44000242084F8513042B1A36A591E012902D94F
:10A45000042B18BF012384F85230A178002384F81C
:10A46000503004291BD8DFE801F0770D2235590060
:10A470000025BEE70225BCE70325BAE7002384F8E0
:10A480002F34CBE7C4E91063C4F82034022301223F
:10A4900084F83C30802384F83120A4F84830A37835
:10A4A000002B5CD1636B002B6AD1002067E0022394
:10A4B000002A84F8313014BF0723032384F83C308A
:10A4C0002369A4F848300023C4F82034E3682664E4
:10A4D0006364E4E763696364A369A4F8483012B174
:10A4E000062384F83C306379B3B194F82E349BB9D9
:10A4F00094F8303483B1022384F85030042120468C
:10A50000FFF71CFF0028CAD1052384F8313004F579
:10A510008263C4F82034C2E70323F6E7E369636487
:10A52000236AA4F8483012B1062384F83C306379DA
:10A5300083B194F82E346BB994F8303453B10223BC
:10A5400084F8503004212046FFF7F8FE0028A6D1F9
:10A550000623DAE70423D8E784F831309FE7D4F8FC
:10A5600020142A4604F15400FFF7E4FE38B994F8A9
:10A57000301094F85400FFF7DFFE002892D0F8BDA9
:10A5800094F83100984790E70820F8E70388112BEA
:10A5900010B50C460AD0262B1FD0102B05D1C37B3B
:10A5A000012B02D18388A1F8243410BD00228388B6
:10A5B00081F82E24B1F824249A42F6D10B79002B8D
:10A5C000F3D101212046FFF7CFFE0028EDD0A36B89
:10A5D000002BEAD0BDE810401847037A013B012B5D
:10A5E000E3D8897805230131B1FBF3F303EB83034F
:10A5F000C91AC9B2E6E70000034B1A8882420CBFB1
:10A6000018460020704700BFF4A80220024B9B6947
:10A6100003B11847704700BFD8A8022037B50B46D2
:10A62000497A0F4A71B9D2E901141D7A0246002D08
:10A6300018BF21465868FDF773FC08B1FFF7E6FF25
:10A6400003B030BD002119725369002BF8D00122EC
:10A65000ADF806008DF8042001A89847F0E700BF88
:10A66000D8A802204B8802889A4213D842889A427E
:10A6700010D380888A8840F2F313984294BF031A5B
:10A68000C31A934206D800F2F310904234BF002060
:10A6900001207047002070470388122B70B50146D7
:10A6A00059D004D8102B1ED0112B44D070BD502B84
:10A6B000FCD12F4BC288DB899A42F7D1038A022B47
:10A6C000F4D186883046FFF797FF05460028EDD085
:10A6D00001F1120000F028F938BB6868FDF74BFC67
:10A6E0000028E3D009E0C37B012BDFD14FF6FF70D8
:10A6F000FFF782FF054620B90420BDE87040FFF750
:10A7000085BF1C4A8E880680002303721368C0F838
:10A710000A305368C0F80E3010310A30FFF7A2FF3C
:10A72000134B6872DB89002BC0D129463046BDE847
:10A730007040FFF773BF8088FFF75EFF0446002874
:10A74000B4D04068FDF717FC08B1FFF75FFF4FF684
:10A75000FF732380AAE786883046FFF74DFF054642
:10A760000028A3D008310A30FFF77CFF6872DCE7CD
:10A77000D8A8022008A902200AB1FEF711B8FEF7F6
:10A7800018B873B50191019C06466CB100252C46A2
:10A79000294601A8FEF717F818B106EB4403013467
:10A7A0009D800135142DF3D13046346002B070BD68
:10A7B0002DE9F04703888488103B8CB005460A2BAE
:10A7C0001FD8DFE803F0063F1E1E1E1E1E1E1E6061
:10A7D0004400314EB368DB43009371686846FEF76E
:10A7E0001EF8009901A8FFF7CCFF0DF108094FF002
:10A7F0000008019B984507D3132C13D90420FDF7BB
:10A8000049FA0CB0BDE8F08739F802AB00270137F0
:10A81000514606EB8700FDF7CCFF1E2FF7D108F15C
:10A820000108E6E71D482146FDF7BAFF1C4821460E
:10A83000FDF7B6FFEB7B022BE3D11A482146FDF76B
:10A84000AFFFDEE715482146FDF7B3FFD9E7027AEF
:10A8500015483F2A4FEA1215214694BF00220122D3
:10A86000FFF78AFF022D94BF002201220F482146E4
:10A87000FFF782FF012D0E4894BF002201222146DE
:10A88000FFF77AFFBDE7037A002BBAD1427A064878
:10A89000C2F3C0022146F3E710A9022018A9022042
:10A8A00014A902201CA9022028A9022024A9022000
:10A8B00020A902201328014602D80248FDF783BFD1
:10A8C0000020704714A9022010B50446FFF7F2FFDC
:10A8D000002814BF2046142010BD70B5054616464A
:10A8E00008460AB90E2070BD00231360002DF9D070
:10A8F0002B68002BF6D0EB8813F003040ED1FFF782
:10A90000E3FFC0B214280BD02B7983420AD9EB881D
:10A910002A6800FB032030602046E4E70720E2E7D6
:10A920000520E0E70420DEE7007800F00100704732
:10A9300090DF7047A5DF7047B5DF70477FB5002314
:10A94000ADF80810ADF80A106A4602A9064603934E
:10A950000093ADF80430FFF7EBFF054600B3124B50
:10A96000124CE41AE408FEF7EFFA240444F0010460
:10A9700003460F4932462046FDF72BF8BDF800206C
:10A98000BDF8023052EA030103D00A492046FDF720
:10A9900020F8BDF804201AB107492046FDF710F849
:10A9A000284604B070BD00BFE8BB020038BC0200FE
:10A9B00082C30200CCC302000BC4020013B50346DD
:10A9C00080880C46A0B91A88242A75D012D8112A7A
:10A9D00051D0232A7DD0102A3AD0A37A43B1E188FE
:10A9E0000020FFF7A7FF002879D14FF4807363811F
:10A9F00002B010BD3A2A47D0552AEED1DB88C9886B
:10AA0000A072172B38BF17238B4228BF0B46238118
:10AA1000FFF792FF60B1FEF797FA394B39490246CA
:10AA200039481B1ADB081B0443F00100FCF7C8FF80
:10AA3000E37A002BD1D12369002BCED040F67722C8
:10AA400000922289ADF80420694620469847C4E761
:10AA5000DB7B09792173012B08D0022B09D0637BA2
:10AA60008B42BAD20020FFF769FFB6E72388E38064
:10AA7000F5E76388FBE7F723CB8017230B8141F6CB
:10AA8000FB3348818B81A8E75B89CA88934228BF42
:10AA90001346172B0A6938BF17230B814AB1C97AAD
:10AAA00039B140F677210091ADF80430694620466F
:10AAB00090470023638190E71A7A0B694A73002B51
:10AAC0008BD04DF67A218DF8050000918DF8042089
:10AAD000BAE7197A237B994228BF1946C3E71128A0
:10AAE00086D0FEF731FA064B0849024606481B1A83
:10AAF000DB081B0443F00100FCF762FF78E700BFAE
:10AB000038BC020061C40200E8BB020090C402002D
:10AB1000B0DF704766DF704710B5002104464088FB
:10AB2000FFF7F8FF034608B9237210BD112801D1C1
:10AB30000123F9E76368BDE810401847F0B5054602
:10AB400085B00C46F1B1E8B10B78DE2B1AD18288C2
:10AB50004B889A4204D10B7A13B10846FFF7DCFF09
:10AB60002B88112B32D0512B0ED0012B0AD12B7AEE
:10AB7000012B07D1A9886288914203D12372204614
:10AB8000FFF7CAFF05B0F0BDAE886388B342F9D1C4
:10AB9000AF79022FF6D1AD7B2B1F022BF2D800210B
:10ABA0001022684600F048FC052D14BF4FF4C07316
:10ABB0000023694630468DF80070ADF80430FFF789
:10ABC000A7FF0028DED063689847DBE76388AA8880
:10ABD0009A4204BF4FF6FF736380D3E7ADDF70473F
:10ABE000AEDF704770B505468AB00C46002962D0CA
:10ABF000002860D00388502B37D0572B72D0102BF1
:10AC000059D181886069002601AA0196FFF765FE87
:10AC1000082231460DEB020000F00EFC02232189D0
:10AC2000A888CDF80CD002AA0293FFF7D7FF00281E
:10AC300041D1A369002B3ED00398FFF775FE002891
:10AC400039D0019B0BB101221A701822002104A8EF
:10AC500000F0F2FB02238DF81030AB88ADF818300D
:10AC6000019B05940793A36923E08188606902AA88
:10AC7000FFF733FE1822002104A800F0DDFBAB88AB
:10AC80002189ADF81830EB88029A05949942079211
:10AC900018D12E8A022E15D16AB105F11200FFF7E4
:10ACA00043FE029B48B101221A708DF81060A3691F
:10ACB0000BB104A898470AB070BD187003238DF833
:10ACC0001030F4E7A2899A42F5D1A369002BF2D0A3
:10ACD00000228DF8102005F1120208922A8AADF8A0
:10ACE0002420E6E78188606902AAFFF7F6FD0146A5
:10ACF0000028E0D1029B1B78002BDCD0A369002B3D
:10AD0000D9D0182204A800F097FB01238DF8103049
:10AD1000AB88ADF818300594029BA3E7F0B50F4659
:10AD200087B016461C46054618B3406901AA194665
:10AD3000FFF7D3FDD8B94FF6FF739C421BD0019BA0
:10AD4000CBB11B78CBB13388F42B18D80146102235
:10AD500002A800F071FBAB88ADF8083002A901230E
:10AD60002046CDE904678DF80A30FFF739FF07B0B8
:10AD7000F0BD0E20FBE70520F9E70820F7E70720E4
:10AD8000F5E70000014B1878704700BF8CA902203E
:10AD900007B508496846FEF77CF8019B13B903B074
:10ADA0005DF804FBD3E9002090476846FEF77BF886
:10ADB000F3E700BFE0C40200FFF7EABF61DF7047BE
:10ADC00030B5114DADF5017D4FF4FA740DF102016E
:10ADD00003A8ADF80240FFF7F1FF70B9294601A8BA
:10ADE000FEF757F8029B002BF0D003A8D3E900210F
:10ADF000904701A8FEF757F8F4E7052801D0FCF7C3
:10AE000049FF0DF5017D30BDF8C40200024B1B78EF
:10AE10000BB1FFF7D5BF70478DA902204BDF7047FC
:10AE20001FB50D4C01A8FFF7F9FF70B9214602A824
:10AE3000FEF72FF8039B002BF4D00198D3E90021F3
:10AE4000904702A8FEF72FF8F4E7052801D0FCF799
:10AE500021FF04B010BD00BF10C502002DE9F34171
:10AE60004E0804460D4600EB86060027B4420AD180
:10AE7000EB0705D5B4F90030002BBCBF00232380BD
:10AE800002B0BDE8F08104220DEB0200214600F083
:10AE9000AAFA019A02F0802304F104084FEAF3337E
:10AEA000D7FA13F322EA0303042220460DEB020132
:10AEB0000193444600F097FAD8E72DE9F04F93B09C
:10AEC000CDE905010B93BDF870300793BDF87430E0
:10AED00001930198069F01218140490802911E9922
:10AEE00001F1040B1F99043196080091910004911F
:10AEF000F10053000D91069908930B9B01EBC609D5
:10AF000002F0030205990A925B08520001EBC606A3
:10AF10000C920393039A62BB1F9A0499069802EB62
:10AF200083041E9A01FB030502EB83020C9B33444E
:10AF30001F460B9BDB0718D5079BB2F90080DDF895
:10AF4000149008FA03F8029BAA469844B14540F0D1
:10AF50008F800D9B2B44B94540F0AF80019B48FA90
:10AF600003F808F30F08A4F80080002013B0BDE830
:10AF7000F08F079A3BF9045C3BF9024CDDF8148032
:10AF80000E979540029A1544079A9440029A1444E9
:10AF9000089A02EB070AB04523D1089A02EB090090
:10AFA00000220A99914257D1019A04991541009AB9
:10AFB00005F30F0522F8045C019A1441009A04F38A
:10AFC0000F0422F8024C0E9A0A441746039A013ADB
:10AFD00092B20392009A04320BF1040B009289445E
:10AFE00098E74146042211A80F9300F0FCF9119B49
:10AFF00009930422394611A800F0F5F9119A099B2A
:10B0000023FB02550422514611A800F0ECF9119AD5
:10B01000099B23FB0243042208EB020111A80993B8
:10B0200000F0E1F90422B91811A8119C08F10808F0
:10B0300000F0D9F90837119A24FB025504220AEBD3
:10B04000020111A800F0CFF90AF1080A119A099B30
:10B0500024FB02340F9B9EE736F9121039F8127068
:10B0600011FB075530F81270013211FB074498E7C5
:10B070004946042211A800F0B6F90422514611A84D
:10B08000DDF844B000F0AFF9119B2BFB03880422DC
:10B0900009EB020111A800F0A6F904220AEB020153
:10B0A00011A8DDF844B009F1080900F09CF90AF193
:10B0B000080A119B2BFB038848E739F8021B33F879
:10B0C000022B11FB028846E773B50378012B33D0BE
:10B0D000022B31D073BB1A4C1A4D20782844FDF74F
:10B0E00021F923780133DBB21D44237015F8012CBC
:10B0F0000A2A05D00D2A03D0134A12889A4219D879
:10B10000012B15D90F4D114E2378ADF806300DF1F6
:10B1100006024FF6FF7329463046FFF7FFFD082869
:10B1200006D01328F0D0052802D008B1FCF7B2FDF4
:10B130000023237002B070BD4068FCF7ABFDF9E757
:10B1400002AF02200EAE02205C9E0220609E022012
:10B15000F0B5334D0FCD91B00AAC0FC495E80300A4
:10B16000304B314A06934FF4807384E80300CDE9F5
:10B17000082307932D4A072306A90AA8FDF77AF8A2
:10B1800008B1FCF787FD4FF480410020FCF77CFA02
:10B1900008B1FCF77FFDFCF7B7F9FCF78FFE08B1AB
:10B1A000FCF778FD2248234D234C244E244F00F019
:10B1B000E9F8244B029314220723CDE900322249F7
:10B1C000049464234FF4447203952048FFF775FEFE
:10B1D00064212846FFF742FE1D4800F0D3F81D4BBE
:10B1E000049402930F2102231B4C0394CDE90031F8
:10B1F00028461A490A236422FFF75FFE002536F924
:10B20000022B34F9021B3846013500F0BBF80A2D39
:10B21000F5D1FCF78BFA0028FBD1FDF70BFEF8E720
:10B220004CC502007CB9022044BB0220C9B0020018
:10B230001CC502007CBA02208EA90220849E022036
:10B2400042C50200102B0020D82B00203C98022081
:10B2500035C50200589002205CB302206C90022099
:10B260007F2805D8034B185C034B5B5C1840704784
:10B270000020704770C50200F0C50200A0F1610314
:10B28000192B98BF20387047A0F14103192B98BFA4
:10B29000203070477F2805D8034B185C034B5B5C5C
:10B2A000184070470020704770C50200F0C50200CA
:10B2B000A0F16103192B98BF20387047A0F141031A
:10B2C000192B98BF203070477F299ABF0170012049
:10B2D0006FF02E0070475AB10A787F2A0AD800B161
:10B2E0000260002119605960501A18BF0120704790
:10B2F000002070476FF02E00704738B504460846AE
:10B30000A26842B1236861685D1C8D4208BF0020BD
:10B310008B4208D2D054E3682BB121686268914215
:10B3200001D22146984723680133236038BD70B5A8
:10B330004C1E09D41646C5B229463046FFF7DDFF3C
:10B34000013CB4F1FF3FF7D170BD10F0100F08D1F0
:10B3500008B510F4007F14BF30202020FFF7E7FF6E
:10B3600008BD704708B5034B5B689B681B6898472E
:10B3700008BD00BF989E022008B50921FFF7F2FF23
:10B3800008BD00000FB410B586B008AB53F8044BED
:10B390000593002303936FF000430293084B04933B
:10B3A00000F0EAFB059A214601A800F0CBF804461C
:10B3B00000F0E3FB204606B0BDE8104004B0704743
:10B3C0005D8F0200037853B159B10144034613F86D
:10B3D000012F12B18B42FAD10B46181A704703465F
:10B3E000FBE70346F9E7844640EA010313F0030F45
:10B3F00018D18446202A0BD32DE9F007B1E8F807CD
:10B40000A0E8F807A2F12002202AF7D2BDE8F00751
:10B41000042A07D351F8043B40F8043BA2F104028C
:10B42000042AF7D2002A05D011F8013B00F8013BAD
:10B43000013AF9D1604670478446002A2DD010F0B9
:10B44000030F04D000F8011B013A26D0F7E7C9B278
:10B4500041EA012141EA0141202A12D3A2F120024E
:10B460002DE9F0030B460C460D460E460F46884666
:10B470008946A0E8FA03203AFBD2BDE8F003203267
:10B480000BD0042A05D340F8041B043A05D0042A43
:10B49000F9D200F8011B013AFBD160467047024621
:10B4A00010F0030F16D111F0030F13D12DE9F000A6
:10B4B0004FF001374FF0803351F8044BA4EB0705F0
:10B4C00025EA04051D4002D142F8044BF4E7A1F13E
:10B4D0000401F0BC11F8013B02F8013B002BF9D14B
:10B4E000704700F1010110F0030F11D010F8012B8B
:10B4F000002A23D010F0030F0AD010F8012B002AE5
:10B500001CD010F0030F03D010F8012B002A15D027
:10B510002DE970004FF001324FF0803350F8044BAA
:10B52000A4EB020525EA04051D4000D1F6E7A0F1D1
:10B53000040070BC10F8012B002AFBD1A0EB010025
:10B54000704700002DE9F04F89B0074603920023B1
:10B5500003600C4614F8011B002900F0FA82DFF8A2
:10B5600014B5E9E2002507E05E2868D145F480556E
:10B5700001E045F040051C46234613F8010B302836
:10B58000F2D81F2837D9A0F12002102A33D801A100
:10B5900051F822F073B50200F7B50200F7B50200CA
:10B5A000D9B50200F7B50200F7B50200F7B5020001
:10B5B000DFB50200F7B50200F7B50200F7B50200EB
:10B5C000E5B50200F7B50200EBB50200F7B50200E1
:10B5D000F7B50200F1B5020045F08005CBE745F470
:10B5E0000045C8E745F02005C5E745F01005C2E76E
:10B5F00045F40075BFE72A2821D1039A111D039154
:10B60000D2F800A0BAF1000FBCBFCAF1000A45F0A1
:10B6100010051878A31C2AEAEA7A2E2826D00021E1
:10B62000742847D07A2845D06C2800F0A8804C2890
:10B6300000F0AB80682800F0B8801C463DE0A0F127
:10B640003002D2B2092A88BF4FF0000AE3D84FF087
:10B65000000A0AEB8A0A303800EB4A0A13F8010B99
:10B66000A0F13002D2B2092AF3D9D4E718782A28F7
:10B670000AD1039A111D03911168587802330029E9
:10B68000CEDB45F48075CBE70133A0F13002D2B2B6
:10B69000092A88BF0021F4D8002101EB810130384C
:10B6A00000EB410113F8010BA0F13002D2B2092ADC
:10B6B000F3D9E4E71C4614F8010B002800F055828A
:10B6C000A0F12503DBB2532B62D8A0F12503532B45
:10B6D0005ED8DFE813F076005D005D005D005D0080
:10B6E0005D005D005D005D005D005D005D005D0072
:10B6F0005D005D005D005D005D005D005D005D0062
:10B700005D005D005D005D005D005D005D005D0051
:10B710005D005D005D005D005D005D005D005D0041
:10B720005D005D005D005D005D005D005D005D0031
:10B730005D005D005D005D005D005D00EB005D0093
:10B740005D005D005D005D005D005D005D005D0011
:10B750005D007B0020015D005D005D005D0020015B
:10B760005D005D005D005D0095000E01D1005D0093
:10B770005D00A6005D0019015D005D00ED001C4646
:10B7800014F8010B45F0010597E745F001051C464B
:10B79000B44B1E68002E00F0CC8103AB01930091E6
:10B7A00053462A463946B047C3E11878682803D083
:10B7B0005C1C45F0040580E745F008059C1C5878A2
:10B7C0007BE725213846FFF798FDB2E1039B1A1D60
:10B7D00003921E780AF1FF3A3A4651462846FFF78F
:10B7E000B4FD31463846FFF788FDA94619F0100F21
:10B7F00000F09F813A4651462020FFF798FD98E1DE
:10B8000015F0080F06D03A68039B191D03911B68B9
:10B810001A708EE1039B1A1D03921B683A681A6026
:10B8200087E1039B1A1D0392D3F800808E4BB8F179
:10B83000000F08BF9846464625F4007915F4807F2E
:10B8400015D04046FFF7BEFD0546AAEB050A3A466D
:10B8500051464846FFF779FD002DC7D0454416F8FC
:10B86000011B3846FFF749FDB542F8D1BEE7404617
:10B87000FFF737FE0546E8E7039B1A1D03921B6896
:10B8800015F0800F0CBF0026232645F48075082193
:10B890001A46002B00F0298105AB4FF0000805F493
:10B8A000005CA64660468C460146D1E045F4005552
:10B8B00015F0800F1BD043F2780643F25803782826
:10B8C00018BF1E4615F4807F01D025F4007515F4CD
:10B8D000804F32D0039B1A1D03921B6815F0040F92
:10B8E0001FD01BB2002B20DA5B422D262DE0002654
:10B8F000E8E715F0800F0CBF0026302615F4807F96
:10B90000E5D025F40075E2E715F4807F07D025F433
:10B9100000750026DBE745F480450026D7E70026C2
:10B92000D5E715F0080FDDD0DBB215F0200F60D1A0
:10B9300015F0400F18BF202607E0039B1A1D039245
:10B940001B6815F0040F4FD09BB215F4807F14BF15
:10B9500025F4007501215838202800F2AE8001A29C
:10B9600052F820F091B80200BBBA0200BBBA020044
:10B97000BBBA0200BBBA0200BBBA0200BBBA0200EB
:10B98000BBBA0200BBBA0200BBBA0200BBBA0200DB
:10B99000BBBA02001FBA0200BBBA0200BBBA020067
:10B9A000BBBA0200BBBA02001FBA0200BBBA020057
:10B9B000BBBA0200BBBA0200BBBA0200BBBA0200AB
:10B9C000F7B9020091B80200BBBA0200BBBA02008C
:10B9D000BBBA0200BBBA02001FBA0200BBBA020027
:10B9E000BBBA020091B8020015F0080FADD0DBB26F
:10B9F000ABE72B26A9E71A464FF00008002B5ED0D4
:10BA000005A84FF0000803F00703303300F8013BAE
:10BA100008F10108D2081346002AF4D14FE0184675
:10BA20004FF00008002B4AD04FF0000805F4004EFC
:10BA30004FF02C0973468E4619462FE002F00F0096
:10BA40000A4C205C03F8010B08F10108120906D02A
:10BA50000029F3D002F00F00054C205CF2E7744699
:10BA600061462CE044BC0220C4C70200A4C7020007
:10BA7000B4C70200CDCCCCCC08AB03EB080CABFBBD
:10BA80000032D20802EB8203A0EB430330330CF800
:10BA90000C3C08F1010809280DD910460029EBD00B
:10BAA00008F00303032BE7D108AB434403F80C9CD5
:10BAB00008F10108E0E7714601E04FF00008A1EB52
:10BAC000080121EAE179AAEB090AAAEB080AFF2E8C
:10BAD0000ED9AAF1020AC6F307213846FFF70DFC7A
:10BAE000F1B23846FFF709FC04E04FF00008E6E742
:10BAF000002E3DD13A4651462846FFF726FC3A46ED
:10BB000049463020FFF713FCB8F1000F0EDD0DF1B0
:10BB1000140908F1FF38C84498F800104646384622
:10BB2000FFF7EBFBC14508F1FF38F5D115F0100F19
:10BB300009D114F8011B61B125293FF413AD384632
:10BB4000FFF7DBFBF5E73A4651462020FFF7EFFB16
:10BB5000EFE7BB682BB13A6879688A423CBF0021A5
:10BB60009954386809B0BDE8F08F4FF0FF30F9E71D
:0CBB70000AF1FF3AB4E700BF70477047CD
:08BB7C00E1910200000000004D
:10BB8400B1A7020000000000D9A0020000000000DC
:10BB940099A60200000000008DA5020004AF022057
:10BBA400BDA9020038B302203DAB020050B302200D
:08BBB400E5AB0200609E0220D7
:08BBBC007D9202000000000070
:10BBC4000DAE02000000000021AE020000000000E3
:10BBD400F09E0220B89F0220C09F0220F89E0220FF
:04BBE4001800000045
:10BBE80052C302000000000058C302000000000019
:10BBF8005FC302000000000063C3020000000000F1
:10BC080068C3020000000000B5BC02000000030386
:10BC18008CBD020000000000B0BD02000000000062
:10BC2800CEC40200000000004CC302000000000067
:10BC3800C1C4020000000303D6C4020000000303CD
:10BC4800ECC402000000030304C502000000030363
:10BC580036BE0200000000003FBE020000000000E7
:10BC680088BC02000000000094BC0200E82A002002
:10BC780000000000000000000338FDD870470000F5
:10BC8800D573020041740200D17302007274745FAC
:10BC98006C6F675F6261636B656E64004261636BC2
:10BCA800656E647320666C75736865640061707096
:10BCB80000000000E0A302207F00000060A4022032
:10BCC8001B5B306D002573001B5B313B33316D000E
:10BCD80025734C6F67732064726F707065642028D9
:10BCE80025642925730D0A003C25733E2025733AE7
:10BCF8002000202530327800202020007C00256399
:10BD0800001B5B313B33306D001B5B313B33326DC5
:10BD1800001B5B313B33336D001B5B313B33346DB0
:10BD2800001B5B313B33356D001B5B313B33366D9C
:10BD3800001B5B313B33376D007761726E696E674C
:10BD480000696E666F00646562756700C8BC0200B2
:10BD580009BD0200D0BC020011BD020019BD0200DD
:10BD680021BD020029BD020031BD020039BD02001B
:10BD7800000000009DBD020041BD020049BD020057
:10BD88004EBD02006170705F627574746F6E00461C
:10BD98006174616C206572726F7200537973746597
:10BDA8006D207265736574006170705F74696D658C
:10BDB80072000100060000000000000078A40220C4
:10BDC800857D0200FFFFFFFFFFFFFFFFFFFFFFFF73
:10BDD800FFFFFFFF00000000000000000000D60188
:10BDE8000601000052544320696E7374616E6365E6
:10BDF80020616C726561647920696E697469616C2F
:10BE0800697A65642E005254433A20696E697469F0
:10BE1800616C697A65642E000338FDD8704730314B
:10BE280032333435363738394142434445467077E2
:10BE3800725F6D676D7400736F72746C69737400F0
:10BE48004E52465F53554343455353004E52465F47
:10BE58004552524F525F5356435F48414E444C45FA
:10BE6800525F4D495353494E47004E52465F455223
:10BE7800524F525F534F46544445564943455F4ECF
:10BE88004F545F454E41424C4544004E52465F4533
:10BE980052524F525F494E5445524E414C004E52F9
:10BEA800465F4552524F525F4E4F5F4D454D004ED3
:10BEB80052465F4552524F525F4E4F545F464F5560
:10BEC8004E44004E52465F4552524F525F4E4F54B9
:10BED8005F535550504F52544544004E52465F45AB
:10BEE80052524F525F494E56414C49445F5041525D
:10BEF800414D004E52465F4552524F525F494E5691
:10BF0800414C49445F5354415445004E52465F45A5
:10BF180052524F525F494E56414C49445F4C454E30
:10BF2800475448004E52465F4552524F525F494E61
:10BF380056414C49445F464C414753004E52465F78
:10BF48004552524F525F494E56414C49445F444115
:10BF58005441004E52465F4552524F525F4441543D
:10BF6800415F53495A45004E52465F4552524F521F
:10BF78005F54494D454F5554004E52465F45525205
:10BF88004F525F4E554C4C004E52465F4552524FF1
:10BF9800525F464F5242494444454E004E52465F16
:10BFA8004552524F525F494E56414C49445F4144B5
:10BFB8004452004E52465F4552524F525F425553CB
:10BFC80059004E52465F4552524F525F434F4E4EB4
:10BFD8005F434F554E54004E52465F4552524F52A2
:10BFE8005F5245534F5552434553004E52465F45A5
:10BFF80052524F525F4D4F44554C455F4E4F545F20
:10C00800494E495449414C495A4544004E52465FAD
:10C018004552524F525F4D555445585F494E495409
:10C028005F4641494C4544004E52465F4552524F87
:10C03800525F4D555445585F4C4F434B5F464149FD
:10C048004C4544004E52465F4552524F525F4D5543
:10C058005445585F554E4C4F434B5F4641494C45FC
:10C0680044004E52465F4552524F525F4D5554451B
:10C07800585F434F4E445F494E49545F4641494CCF
:10C088004544004E52465F4552524F525F4D4F4411
:10C09800554C455F414C52454144595F494E4954BE
:10C0A80049414C495A4544004E52465F4552524F09
:10C0B800525F53544F524147455F46554C4C004ED2
:10C0C80052465F4552524F525F4150495F4E4F545E
:10C0D8005F494D504C454D454E544544004E5246DF
:10C0E8005F4552524F525F464541545552455F4E47
:10C0F8004F545F454E41424C4544004E52465F45C1
:10C1080052524F525F494F5F50454E44494E470087
:10C118004E52465F4552524F525F4452565F5457F3
:10C12800495F4552525F4F56455252554E004E5246
:10C13800465F4552524F525F4452565F5457495FCB
:10C148004552525F414E41434B004E52465F455265
:10C15800524F525F4452565F5457495F4552525F9F
:10C16800444E41434B004E52465F4552524F525F38
:10C17800424C455F495053505F52585F504B545F93
:10C188005452554E4341544544004E52465F455221
:10C19800524F525F424C455F495053505F434841AC
:10C1A8004E4E454C5F414C52454144595F455849B4
:10C1B800535453004E52465F4552524F525F424CC1
:10C1C800455F495053505F4C494E4B5F4449534378
:10C1D8004F4E4E4543544544004E52465F455252D9
:10C1E8004F525F424C455F495053505F504545524E
:10C1F8005F52454A454354454400556E6B6E6F7710
:10C208006E206572726F7220636F646500000000B3
:10C218000000000048BE02000100000054BE0200F9
:10C228000200000072BE02000300000093BE02007C
:10C2380004000000A6BE020005000000B7BE020010
:10C2480006000000CBBE020007000000E3BE0200AB
:10C2580008000000FBBE02000900000013BF020036
:10C268000A0000002CBF02000B00000044BF0200BF
:10C278000C0000005BBF02000D0000006FBF020051
:10C288000E00000081BF02000F00000090BF0200F6
:10C2980010000000A4BF020011000000BBBF020094
:10C2A80012000000CABF020013000000DFBF020036
:10C2B80080000000F3BF02008100000014C00200EB
:10C2C8008200000030C00200830000004CC0020061
:10C2D800840000006AC00200850000008BC00200D4
:10C2E80086000000B0C0020090000000C7C0020035
:10C2F80091000000E5C002009200000003C10200A6
:10C308000082000018C102000182000036C102004C
:10C318000282000052C10200008400006EC10200C7
:10C328000184000092C1020002840000BCC1020026
:10C3380003840000E1C102000000000001010100C7
:10C3480000000000636C6F636B00434C4F434B006D
:10C358004750494F544500505253005541525400DC
:10C368005541525445005465726D696E616C0052B6
:10C378005454005345474745520073645F626C65E7
:10C388005F6761705F646174615F6C656E67746834
:10C398005F757064617465282920287265717565F8
:10C3A800737429206F6E20636F6E6E656374696F96
:10C3B8006E20307825782072657475726E656420F9
:10C3C80025732E00546865207265717565737465F0
:10C3D800642054582F5258207061636B6574206C28
:10C3E800656E67746820697320746F6F206C6F6E58
:10C3F800672062792025752F2575206F6374657411
:10C40800732E005468652072657175657374656470
:10C4180020636F6D62696E6174696F6E206F66204C
:10C42800545820616E64205258207061636B6574A3
:10C43800206C656E6774687320697320746F6F2051
:10C448006C6F6E67206279202575206D6963726F45
:10C458007365636F6E64732E0073645F626C655FEF
:10C4680067617474735F65786368616E67655F6D33
:10C4780074755F7265706C7928292072657475729D
:10C488006E65642025732E0073645F626C655F6758
:10C49800617474635F65786368616E67655F6D7406
:10C4A800755F726571756573742829207265747576
:10C4B800726E65642025732E006E72665F626C650D
:10C4C8005F6761747400626C655F6E7573006E728D
:10C4D800665F736468000000C4BB0200D4BB02003E
:10C4E800080000006E72665F7364685F626C6500C6
:10C4F80084BB0200BCBB0200080000006E72665FCD
:10C508007364685F736F63007CBB020084BB0200C6
:10C51800080000000D0A4170706C69636174696FEE
:10C528006E20737461727465642E0D0A006663323E
:10C53800206F75747075740D0A0025643A3A3A25AF
:10C54800640D0A0008000000060000000500000055
:10C55800070000000000000000E0D70143000000D1
:10C56800504F534958000000202020202020202030
:10C57800206828282828202020202020202020204B
:10C5880020202020202020204810101010101010EB
:10C5980010101010101010108484848484848484F3
:10C5A8008484101010101010108181818181810104
:10C5B8000101010101010101010101010101010163
:10C5C80001010110101010101082828282828202F2
:10C5D8000202020202020202020202020202020233
:10C5E8000202021010101020000703200417020195
:10C5F800085710408000000064C5020068C60200A9
:10C608007CC7020053756E004D6F6E00547565004F
:10C618005765640054687500467269005361740078
:10C62800000000004A616E00466562004D617200BC
:10C63800417072004D6179004A756E004A756C0050
:10C6480041756700536570004F6374004E6F760044
:10C658004465630000000000414D00504D0000009B
:10C66800A0C702009CC702009CC702009CC702002A
:10C678009CC702009CC702009CC702009CC702001E
:10C688009CC702009CC70200FFFFFFFFFFFFFFFFE0
:10C69800FFFFFFFFFFFF0000DCC602000CC6020020
:10C6A80018C702002CC6020060C60200C0C60200FD
:10C6B80070C70200CCC60200256D2F25642F25798E
:10C6C80000000000256120256220256520255420D2
:10C6D8002559000053756E646179004D6F6E646171
:10C6E800790054756573646179005765646E657384
:10C6F800646179005468757273646179004672697F
:10C708006461790053617475726461790000000096
:10C718004A616E75617279004665627275617279F7
:10C72800004D6172636800417072696C004D6179F7
:10C73800004A756E65004A756C79004175677573B6
:10C74800740053657074656D626572004F63746F31
:10C75800626572004E6F76656D626572004465634E
:10C76800656D62657200000025483A254D3A2553EB
:10C778000000000061B202007DB2020089B202002E
:10C7880095B20200B1B20200BDB20200C9B2020005
:10C79800D7B20200000000002E0000003031323312
:10C7A800343536373839616263646566303132331F
:10C7B800343536373839414243444546286E756C1E
:03C7C8006C2900D9
:10C7CC0000000000FF0000000010014011000400F8
:10C7DC00000000000020004000000000002000408D
:10C7EC00000000000090D00307014EFAF405DE0FA4
:10C7FC000EFBC5F91B0D8702A103B31BB10352FE3F
:10C80C004DFF0E0D18046F04BB048D01EFFB8A0362
:10C81C0080F88615F00A580572019513D509450064
:10C82C0093FC86FE670151FC6EFF6B0E65FCF309F1
:10C83C005FFE23027B0B75F7CB09A90C650DE80F86
:10C84C0066FFD912560082F55C0A590431FD5D066B
:10C85C0043FE4B0F380F4CFEE701B4FB71FB7E0619
:10C86C005A0550F6DC040B013A04EEF9A612EB0162
:10C87C000F099E109DFB89FD9A0CA60323FC8203D5
:10C88C0098F9AB037F066FFA15FE58089DFCE80675
:10C89C007FFC73064E08CFFDB9FC370CFDFEBB06C2
:10C8AC0015067AF230FD390BE7F62AFB5BFECCFD60
:10C8BC00EF088B043A00D8F9DA0668FD72F8CEF569
:10C8CC002103EE02E0F584059A01F003F1FD9A09CB
:10C8DC007306D6044C032203B3F7E308B5F7D50966
:10C8EC00EDF984F7E5FFCBF84CF76303FB072C0A53
:10C8FC0042037AFBFCF628FCB7F16CF6C6F392F90E
:10C90C00FBEA5CF52B09ACFF35F73EFA1BF6ADF7ED
:10C91C006CF9E8F302F69CF978040F03B9F6ADF55F
:10C92C00F504630A83F59CFECCFFE105A7EDB1F697
:10C93C004AEE3600A7032FFEB8E264F6FBF608F8C1
:10C94C008BFC3E03AC01FC04BBFE90EEBFEDC9F5C5
:10C95C0078009A08AF06C9013303F807E3F96BF7BF
:10C96C00D3016F0821010E033801BFF82FF5930F87
:10C97C007EF6AA048B10EA101D044617A00D89FB45
:10C98C0071FD2BFA2DFEEDEF830C0603470562FFBC
:10C99C003907D7F996065D06ADFC58FADE021C087D
:10C9AC0077FB6BFC8D0968090503BAEF7FF33B013C
:10C9BC00A5FB4A05DC089E0B5301D1058203180D1B
:10C9CC0011116409ECF94D06BAFDE9FCD5068AFC97
:10C9DC00370486F978F625ECA4EC46F517FC3112F1
:10C9EC00C20B6B037DFF1A0043FE0EFDC5033DFF1A
:10C9FC003F0DAEFFBDFCDCFB52FF480539066E084F
:10CA0C0010084EF29A1014FE72FEAFE97DFBEC0A90
:10CA1C0091069D0F9D0279018704E8022E04CA0439
:10CA2C00670821130B0A30025901FEFBE6F437F2BA
:10CA3C00EAF0150C120265FE240557F4D9FEB0F687
:10CA4C00FDFE6B0FD6FE0E00DD0A92034208CA06ED
:10CA5C0069F9390592FACC0948FC57FE1A02E5FD32
:10CA6C00010579F60B03A4F33A010707A7F970FB4C
:10CA7C0008FD63F2E90E38FAD6FD9304780911012A
:10CA8C00A507CB04A0FA5FFB9CFE4105940A53F862
:10CA9C0056F894FBFAF507F74CFF37FD59FD44FDAA
:10CAAC0094F9C318C10AC7062BF68CF22C0C590644
:10CABC007DFF350DC6040F059400E6FB6BFD8AF96E
