:020000022000DC
:1070000000000420757302005D7302005F730200CC
:1070100061730200637302006573020000000000E8
:107020000000000000000000000000006773020084
:1070300069730200000000006B7302006D730200B0
:10704000E19802006F7302007D9D02006F730200E1
:107050006F7302006F730200FD9B02006F730200EA
:107060006F7302006F7302006F7302006F73020090
:107070006F7302006F7302006F7302006F73020080
:107080006F730200798902006F7302006F73020050
:107090006F7302006F730200E1C302006F7302009E
:1070A0006F7302006F7302006F7302006F73020050
:1070B0006F7302006F730200000000000000000008
:1070C0006F7302006F7302006F7302006F73020030
:1070D0006F7302006F7302006F7302006F73020020
:1070E0006F7302006F7302006F73020000000000F4
:1070F000000000006F730200000000006F730200C8
:10710000000000000000000000000000000000007F
:10711000000000000000000000000000000000006F
:10712000000000000000000000000000000000005F
:10713000000000000000000000000000000000004F
:10714000000000000000000000000000000000003F
:10715000000000000000000000000000000000002F
:10716000000000000000000000000000000000001F
:10717000000000000000000000000000000000000F
:1071800000000000000000000000000000000000FF
:1071900000000000000000000000000000000000EF
:1071A00000000000000000000000000000000000DF
:1071B00000000000000000000000000000000000CF
:1071C00000000000000000000000000000000000BF
:1071D00000000000000000000000000000000000AF
:1071E000000000000000000000000000000000009F
:1071F000000000000000000000000000000000008F
:10720000354936480A1A02D0072291438D4634493F
:1072100034480A1A06D00722914381F309880222D2
:1072200082F3148830483149314A00F044F831483B
:107230003149324A00F03FF831483249324A00F0D1
:107240003AF832483249334A00F035F83248334987
:10725000334A00F030F833483349344A00F02BF811
:1072600033483449344A00F026F83448344900227F
:1072700000F02CF833483449002200F027F8334856
:107280003349091A082902DB002202604160314AB1
:1072900090471F481F49884205D00268043003B454
:1072A000904703BCF7E700208646EC46002000210B
:1072B000294A9047FEE7884207D0521A05D0037842
:1072C00001300B700131013AF9D17047884202D088
:1072D00002700130FAE770470000042000E003204C
:1072E000000004200000042084E80200E82A0020B6
:1072F000309F0220D0730200D0730200D0D8020069
:1073000084E80200E82A0020E82A0020D4D90200FC
:10731000D4D90200D4D90200D4D90200D4D90200B1
:10732000D4D90200D4D90200D4D9020083E80200E3
:10733000CC5C0500309F0220309F0220309F02204D
:10734000A4C20220A4C20220A4C20220A4C202201D
:10735000A4E202209D73020055CC0200FEE7FEE786
:10736000FEE7FEE7FEE7FEE7FEE7FEE7FEE7FEE7F5
:1073700000F002B8FFF7FCBF0F484FF00701884349
:1073800085460E4880470E48016841F4700101604F
:10739000BFF34F8FBFF36F8FFFF732BF09480A4922
:1073A0000A4A884207D0521A05D0037801300B7080
:1073B0000131013AF9D1704700000420E192020046
:1073C00088ED00E0D4D90200E82A0020E82A002055
:1073D0007047000007B5044B0093044A402300F0B7
:1073E00032F803B05DF804FBF1730200319F022014
:1073F0002DE9F84388461446B2B10F4B0F4E0325D2
:10740000002743F00109224608EB0701002003F0A2
:10741000DFFC0744241A48B933782BB14FF47A4083
:10742000C847013D02D13570BDE8F88301233370B0
:10743000002CE8D1F8E700BFE0D90200309F02201D
:10744000704703F0F9BCF0B595B01D4616460846E6
:107450000C4601F043FE1A9B0D93CDE9086500250B
:107460002B46082205A920460A958DF82C500C952C
:1074700001F051FE079B0293069B03939DF8143085
:107480008DF8115003F00302012A1DD1BDF814201C
:10749000059DC3F3C203C2F383168DF81030B2000A
:1074A00008230EA9204601F036FEC5F3952508AB4A
:1074B0000093324602AB0EA9284600F02BFB204673
:1074C00001F010FE15B0F0BD022AF8D1BDF816503B
:1074D000C3F3C203C5F389158DF810300827082DB2
:1074E0002E4628BF08263B4632460EA9204601F00C
:1074F00012FEAD1B08AB02AA31460EA8374400F0BD
:107500006DFB002DEBD1DAE708B5FFF79AFF0448D1
:10751000042100F069FA034B01225A7108BD00BF33
:10752000C4D90200E82A0020037813F0040216D020
:1075300003F00303012B03D0022B09D00120704775
:107540000A6800880232C0F3831002440A60F5E73B
:107550000B684288023303EB92130B60EEE7104690
:10756000704700002DE9F04F87B000230446861CC9
:107570000DF107000F4615468DF8073001F08EF823
:10758000404A51683960936803F580735B1A9246EC
:1075900002F21C4702F5836902F21448B3421AD37F
:1075A0000020002D69D004F00F039B0143F0050378
:1075B00063F30F00DAF80430DAB203321E444AF8FB
:1075C00022009DF80700CAF8046001F08BF8012042
:1075D00007B0BDE8F08F0121384601F0AAFA48460D
:1075E00001F0BFFA404601F0BCFADAF80800029058
:1075F000C0B203300AEB800002A9FFF795FF029B9F
:1076000030BBDAB20AEB8202D16803919A1C0133D3
:10761000DBB20AEB83030292D3F80CB001F0030350
:10762000012B22D0022B15D08346404601F09CFA54
:1076300010B1029BCAF808305946384601F079FA71
:10764000DAF80830DAF8042003F580739B1AA5E70E
:10765000D8B2CEE7BDF80E30C3F3891303334FEA37
:107660001B4B02EB93030293DFE7BDF80C30C3F32F
:1076700083134FEA1B4B1344F5E7A40544F00600BF
:1076800098E700BF44A00220064B074810B500222F
:107690001A7001F0DCFC044610B9044801F084FDC6
:1076A000204610BD44A0022030D902001CDA02009E
:1076B00030B50A4C71B10A4A0A49121BD20800239C
:1076C0009A4201D1002030BD31F82350854202D0CA
:1076D0000133F5E7034654F83300F4E744D90200D8
:1076E000C4D90200E82A0020094B013903EBC0008D
:1076F000032909D8DFE801F00A02040604207047D4
:107700000079704740797047002070470220704729
:1077100044D9020070470000034BD3E90130C31A7B
:1077200058425841704700BF44A002202DE9F04163
:1077300086B0FFF7F1FF0546002840F0E680744C64
:10774000C4F81804BFF34F8FA3680293DBB203336E
:1077500004EB830002A9FFF7E7FE029B18B1D4F8FF
:107760001824002A55D0DAB2991C013304EB8202A6
:10777000DBB204EB8303D268DB68049302F00303FB
:10778000022B039202914FD1BDF80E306148C3F332
:107790008917502F3E4628BF502666F38F1306F1F7
:1077A0000801ADF80E3001F06AFC0546002800F033
:1077B000978001F093FC002303A90822284601F0DA
:1077C000A0FC0299CB43DBB20133C9B20331B6EB63
:1077D000830F4FEA830804EB810122D90823424634
:1077E000A6EB0806284601F08CFCF6B24A4908F1DF
:1077F00008033246284601F084FC029B033703EB62
:1078000097070297D4F81834002B41D1D4F81064AC
:1078100051E062689A4299D8A260284606B0BDE855
:10782000F08108233246E5E7012B59D1BDF80C3031
:107830003848C3F38311062928BF062161F3891351
:1078400002318900ADF80C3001F019FC0546002822
:1078500046D001F043FC0023082203A9284601F08A
:1078600050FC0026BDF80C20C2F38312B3009642F0
:1078700003F10803C6D202994A1CC9B2033102922D
:1078800004EB81010422284601F03BFC0136E9E7C4
:10789000284601F027FCFFF73FFF80F00100C5B24A
:1078A000BBE7F3685B7923B1336829461B68304630
:1078B0009847F3681E68002EF3D1284601F012FCA9
:1078C0000DF107008DF8076000F0E8FED4F81834D9
:1078D0000BB9029BA3609DF8070000F003FFDAE7F5
:1078E000D4F8104454B90D4B0D480E49C01AC008C5
:1078F000000440F0020000F05FF8CCE72368204667
:107900009B689847E3681C68ECE7002585E700BFA3
:1079100044A0022030D9020050A0022044D9020025
:107920006CD9020004DA02002DE9F34704460E4642
:10793000924601A9012218469946FFF713FE1C4FF3
:1079400010B3019D4FF00008AA1CC84508EB0201C6
:1079500025D11848002101F0BDF880F31000000483
:1079600040EA1440E4006B1C04F03804DBB2EDB2D2
:1079700044F0010407EB8303033544EA881444EA26
:107980008624D86047F825403B781BB1FFF7CEFE30
:107990000028FBD1FFF7BEFE02B0BDE8F087C9B2F8
:1079A00007EB81015AF82830CB6008F10108CCE7D9
:1079B00044A0022060A4022000231A46FFF7B4BFAF
:1079C00007B50123019201AAFFF7AEFF03B05DF8EE
:1079D00004FB07B5CDE9002302236A46FFF7A4FFA5
:1079E00003B05DF804FB000030B50F49D1F8102456
:1079F00003460020144634B9DC6820714AB9C1F846
:107A00001034226030BDE4682579854206D02468B0
:107A1000F1E7D268116821601360F3E701300A28AA
:107A2000E8D14FF0FF30EDE744A00220084A38B516
:107A30000123D2F8104413701D4604B938BDE36821
:107A40005D71236820465B689847E3681C68F4E72B
:107A500044A0022007B503460846197A052911D02B
:107A60005B7A2BB1094A0A49019001F0E0F80198CC
:107A70000849019001F0DBF8019803B05DF804EBD0
:107A800001F0CAB8002AF8D0F2E700BF28DA0200F5
:107A90002DDA0200E7E5020030B5C38885B0044660
:107AA0000D4633B1144A00921449154A284601F094
:107AB000BEF8217A05291DD0637A4BB1A088FFF763
:107AC00013FE104B104953F82020284601F0AFF860
:107AD000227A0E4BA08853F8222003920021FFF750
:107AE000E7FD039A0A490346284605B0BDE8304041
:107AF00001F09DB805B030BD28DA020038DA020086
:107B000030DA0200B4DA02002DDA0200D8DA02001C
:107B100050DA02002DE9F04385B01F460C9D00238A
:107B200095F80C902B7306460C469046294638462D
:107B3000FFF7B2FFB8F1060F09D8DFE808F004122A
:107B4000181F283340003146284601F070F8002203
:107B500029463846FFF77EFF85F80C9005B0BDE852
:107B6000F08322683146284601F061F8EFE7D4E956
:107B700000233146284601F05AF8E8E7A36800934D
:107B80003146D4E90023284601F051F8DFE7E368E5
:107B90000193A36800933146D4E90023284601F0FD
:107BA00046F8D4E723690293E3680193A36800933E
:107BB0003146D4E90023284601F039F8C7E7636964
:107BC000039323690293E3680193A368009331460A
:107BD000D4E90023284601F02AF8B8E708292DE95E
:107BE000F74F80460E4617461C463CD8002593F8B2
:107BF0000C901D7319461046FFF74EFFDFF888A062
:107C0000DFF888B0AE4231D918F805205946204631
:107C100001F00DF80135082DF4D11949194DDFF89F
:107C200070A0204601F003F84FF0000B5E4522D90A
:107C300018F80B207E2A05D81046019205F046FA66
:107C4000019A00B92E225146204600F0F0FF0BF1B8
:107C5000010BBBF1080FE9D1012221463846FFF79D
:107C6000F9FE84F80C9003B0BDE8F08F5146204631
:107C700000F0DDFFCEE72946204600F0D8FFE6E71A
:107C800064DA020062DA020060DA02005ADA020004
:107C900066DA0200C30710B507D4F023054A40088E
:107CA000145C23401943115410BD0901C9B20F23BC
:107CB000F4E700BF10A5022030B5094B1C78094B32
:107CC000196800239C4202DC0022104630BD11F8E6
:107CD0003350854201EBC302F7D00133F2E700BF16
:107CE000FCA4022030A5022013B504460191FFF741
:107CF000E3FF38B143682BB10199204602B0BDE8DB
:107D00001040184702B010BD034B04481968002208
:107D1000490800F083BA00BF00A50220F02A002025
:107D200010B5C0B2FFF7C8FF0446007801F058FF55
:107D300063785A1E53425341834208D1044BD3E91E
:107D40000023134303D1BDE81040FFF7DDBF10BD92
:107D500008A5022037B54308354AD35CC2074CBF9B
:107D60001B0903F00F0304460D46042B35D8DFE84A
:107D700003F003252C383C0079B30121FFF78AFF7B
:107D800000230DF107008DF8073000F087FC01207B
:107D9000A4F12003C4F12001264A20FA01F100FADF
:107DA00003F30B43A040D2E9004120430B43C2E957
:107DB00000039DF8070000F095FC0EE0002918BFB5
:107DC00002212046FFF766FF07E041B10321FFF7DC
:107DD00061FF01212046FFF787FF03B030BD01217D
:107DE000EFE70029F9D10421EBE709B10321E8E726
:107DF000FFF750FF29462046FFF776FF0DF10700F9
:107E00008DF8075000F04AFC0120A4F12003C4F1D2
:107E10002001084A20FA01F100FA03F30B43A040C5
:107E2000D2E9004124EA000021EA0303BFE700BFD2
:107E300010A5022008A502202DE9F041124E134F93
:107E400000243378A34208DC114BD3E90023134309
:107E500018D0BDE8F041FFF757BF3D6805EBC408F7
:107E600015F8340001F0BCFE98F801305A1E534258
:107E70005341181A4142414115F83400FFF76AFF97
:107E80000134DEE7BDE8F081FCA4022030A5022029
:107E900008A50220092AF7B505460C4616463CD926
:107EA00001F0CEFDD8B11E4B1E481D601E4B1F4F6A
:107EB0001C701F4B002120221E6005F067F91D4B2E
:107EC00000200021C3E90001013CE4B20326FF2C9D
:107ED0000BD1194A1948002100F08EF903E001F096
:107EE00069FD0028DFD003B0F0BD9DF8063015F81D
:107EF00034008DF8046005EBC40223F007038DF80D
:107F0000063001A993788DF805303A4601F0A2FDBC
:107F1000013CE4B20028DAD0E5E70720E3E700BF40
:107F200030A5022010A50220FCA40220217D020021
:107F300000A5022008A50220397E0200F8DA02001E
:107F400070B5084D084E00242B789C4201D30020C8
:107F500070BD3368012113F8340001F0F7FD0134DE
:107F6000F2E700BFFCA4022030A502201FB50021CB
:107F7000039001AA44F20100CDE9011100F004F8D8
:107F800005B05DF804FB000010B572B6FFF74EFDBA
:107F9000FFF7CCFB0028FBD1104B114C1149E41A20
:107FA000E408240444F00100FFF706FD0E4B1B68B3
:107FB000DB0700D500BE0D4944F00200FFF7FCFCD2
:107FC000BFF34F8F0A490B4BCA6802F4E0621343B8
:107FD000CB60BFF34F8F00BFFDE700BF44D9020065
:107FE0006CD90200FCDA0200F0ED00E008DB0200D0
:107FF00000ED00E00400FA0549B152B1531E1A40E9
:1080000007D1826001608380C260104670470E20F5
:1080100070470920704710B58468C2688388121BB6
:10802000934208D3C26813400268D154C368013335
:10803000C360002010BD0420FCE78268C3689A4238
:108040000AD08268838813400268D35C0B7083680F
:10805000013383600020704705207047D0E9022378
:10806000D1E90201994208BF90422CBF01200020B3
:108070007047000008B50B4800F067FC0A4B0B493D
:10808000D3E900231218D1E9000143F100038B4228
:1080900008BF824203D212F1807243F100031046FE
:1080A000194608BD102B002038A50220B0A50220DB
:1080B00037B505460C460A4801A900F07AFC60B1C4
:1080C0000570446001A9064800F09DFC18B1054800
:1080D00000F040FC002003B030BD0420FBE700BFEF
:1080E0009CA50220102B0020284B73B51E78044657
:1080F0001EB90026304602B070BD0028F9D0FFF747
:10810000B9FFD4E90223994208BF904238D3002333
:108110000DF107008DF8073000F0C0FA23692BB984
:108120004FF0FF324FF0FF33C4E902239DF8070000
:1081300000F0D8FAD4E90530984700250DF1070082
:108140008DF8075000F0AAFA2169B9B1D4E90223E9
:10815000581C08BFB2F1FF3F05D0521843F100038D
:10816000C4E9022335469DF8070000F0BBFA002D54
:10817000BFD00748214601F036F8BBE70D46F2E7CD
:10818000013308BFB2F1FF3FB3D0F2E740A50220B0
:1081900024DB020013B5114B114918680190082324
:1081A0001048582200F0F2FB044698B90E4A0F48D6
:1081B00001A900F0BBFA044660B90C48012100F0A7
:1081C000A7FB01230A4A0948194600F009FB094B9D
:1081D00001221A70204602B010BD00BF20DB020051
:1081E00044A502209CA50220C9820200102B002079
:1081F000FFFF7F0040A5022030B56AB103684FF051
:10820000FF344FF0FF355A614A1E5142C3E902451F
:1082100051411961002030BD0720FCE7F7B5054644
:1082200000240DF1070017460E468DF8074000F0B8
:1082300035FAD5E90223013308BFB2F1FF3F07D178
:10824000FFF718FF801941F10001C5E9020101247F
:108250009DF8070000F046FA4CB12B69AF6103B1FD
:108260002E6129460020FFF723FF03B0F0BD204612
:10827000FBE737B5054600240DF107008DF80740F0
:1082800000F00CFAD5E9022301330FBFB2F1FF3F32
:108290004FF0FF324FF0FF33C5E9022318BF01242E
:1082A0009DF8070000F01EFA2CB129460120FFF7C7
:1082B000FFFE03B030BD2046FBE70000014800F0A0
:1082C00044BB00BF102B00202DE9F74F804600F083
:1082D00027FB40B1634AD2E9003113F1807341F1C9
:1082E0000001C2E900310021404600F028FB38B10E
:1082F0005D4E336823B13068FFF7F6FE002333602C
:108300000121404600F01BFB20B1FFF7B3FE574BA5
:10831000C3E900015648DFF8509101A900F083FB42
:108320004FF0FF364FF0FF3798B9DFF848A14E4FB6
:10833000504600F06EFF002800F08780D0E902234D
:10834000591C08BFB2F1FF3F34D1504600F05BFF2B
:10835000EEE70378012B20D0022B09D1DFF814A11E
:10836000504600F050FF002877D0C0E90267F7E7D9
:1083700053B94168D1E90223013308BFB2F1FF3F8D
:1083800002D03C4800F02FFF01A9394800F076FBED
:1083900001A9374800F047FBC6E74168D9F800302B
:1083A000994203D10023C9F80030EDE7314800F0CD
:1083B00033FFE9E7396891B13968D1E902018B42AD
:1083C00008BF82422FD23B68D3E90223013308BFA2
:1083D000B2F1FF3F03D03968504600F004FF504629
:1083E00000F011FFD0E9026B8146FFF743FE341A1B
:1083F0006BEB0105012C75F1000319DBB4F5350FAA
:1084000014D3FFF75BFF1C4A02441C484FF4960349
:10841000002100F005FA98B93B6813B9404600F016
:10842000D7F9C7F8009003B0BDE8F08F3246ECE70B
:108430001248002100F079FA4846FFF755FE01E0A6
:108440000D28F9D000233B6072E7074B1B68002B17
:10845000E9D1404600F0C0F9E5E7094B01221A7066
:1084600092E700BF38A50220B8A50220B0A50220DF
:108470009CA5022024DB0200FFFFB400102B00208B
:1084800040A502200648074A03780749D35C012229
:1084900013B1043002F0F8B80C3001F0A7BE00BFF1
:1084A000182B002034A60220E4A502200648074A23
:1084B00003780749D35C012213B1043002F090B86D
:1084C0000C3001F041BE00BF182B002034A6022062
:1084D000E5A5022037B50578012D0BD0022D2ED051
:1084E00065B91E491E48FFF7A8FD002832D1FFF7E5
:1084F000DDFF03E0037A1BB9FFF7C4FF03B030BD13
:108500004368184C19782046FFF785FD80B18DF837
:1085100000500190144B68461B689847A168E368B7
:10852000A2885B1A9A42E7D2104B01221A70E5E743
:10853000A268E3689A42F1D08DF80000EAE7C368C8
:108540008DF800500193FFF79DFF074B68461B68AD
:108550009847D3E703238DF80030F6E7E5A502201E
:10856000D4A50220C0A50220BCA50220D0A50220CF
:10857000F0B51F46234B89B004461A600D4600290A
:108580003DD08A8820480968FFF736FD002834D19D
:10859000AA89A9681D48FFF72FFD00282DD11C4E80
:1085A0000FCE6D460FC596E80F0085E80F00636992
:1085B0000693237C174A18488DF81C70003B18BF9F
:1085C00001238DF81430637C002B14BF0E2300238D
:1085D0008DF81530E3680293A36803932368019331
:1085E00069466368009301F001F930B90B4B1870CC
:1085F0002368013301D0FFF745FF09B0F0BD072024
:10860000FBE700BFBCA50220C0A50220D4A5022024
:1086100030DB0200D5840200182B0020D0A50220F8
:1086200070B5084D014608482E78FFF706FD044650
:1086300036B100232B70FFF725FF08B1FFF796FC3A
:10864000204670BDD0A50220C0A5022010B501466D
:108650000E48FFF7E0FC0446A8B90D480D4A037820
:10866000D35C63B1043002F003F860B90A490748EB
:10867000FFF7E3FC38B9BDE81040FFF717BF0C3037
:1086800001F0A8FDF1E7204610BD00BFD4A50220EF
:10869000182B002034A60220E5A5022070B5EFF3C8
:1086A000108672B60C4A946801239CB993600B4BF8
:1086B0000B4DD3F8801029401160C3F88050D3F8D7
:1086C000841051604FF0FF32C3F88420047006B963
:1086D00062B670BD0370FAE7E8A5022000E100E091
:1086E000FC06FFBD084B9A6810B55AB150B9EFF3BC
:1086F000108172B6054A1C6814605C68546098600A
:1087000001B962B610BD00BFE8A5022000E100E09B
:10871000435882B03BB10023435043580193019B1F
:10872000012002B070471846FBE70000F8B5204B67
:108730004479204D43F824201F4A204B05EBC40404
:108740009B1A2279DB081B0432B143F002001C495A
:10875000FFF732F90820F8BD02680C88C2F8084516
:1087600090F904608A7804795201002ED2B219DBA4
:1087700014498F1987F800230122760904F01F0499
:1087800002FA04F441F82640427905EBC2010124C3
:1087900045F832000C7143F003000B49FFF70CF968
:1087A0000020D8E7094904F00F040A55ECE700BFA0
:1087B000FCA50220F4A5022044D902007CD90200C5
:1087C00050DB020000E100E072DB020014ED00E08B
:1087D000036801221A607047036801225A607047DB
:1087E00073B501F15005AD000068ADB24FF48034AF
:1087F0008C400026C0F80843C0F84843465101F5B4
:10880000A8714559019522F07F42019D40F8212031
:10881000C0F844430BB1C0F8044302B070BD00007F
:108820002DE9F74F0D4622F07F4402684FF4803760
:1088300005F150068F408046B60002EB8500C2F875
:108840004873B6B2C2F80873D2F8041599464FF0CF
:10885000000BD0F84035C0F8401542F806B05B1A5E
:108860009259009223F07F43012B009A4FEA850A28
:108870000CD1264B4FF4806043F001039847D8F8A1
:10888000003043F806B09B590193019BD8F80010C3
:10889000D1F80465C1F84473A31B23F07F43012B77
:1088A0001CD11A4B05F5A875013443F0010341F8BA
:1088B00025404FF480609847D8F80030D3F804354D
:1088C0009E4209D1D8F800300020C3F84473C3F8A1
:1088D000047303B0BDE8F08F0D20FAE78A44C9F1B4
:1088E000FF13CAF84045D1F80405221A013A22F0D4
:1088F0007F4203F57F439342EED3002AE2D1013455
:10890000CAF84045D1F804359842DAE790DB020016
:1089100003680222C3F8442309B1C3F80423704753
:1089200000684FF48271FFF7F3BE4FF4803303FA0F
:1089300001F10368C3F84813C3F8081370475031B6
:108940008900006889B2FFF7E3BE0368D3F8040525
:108950007047000090F90430002B09DB5A0901210F
:1089600003F01F0301FA03F34032024941F82230B9
:10897000704700BF00E100E0024B034A1B6810682B
:10898000184700BFFCA50220F4A5022010B561B174
:10899000B2FBF3F403FB1424A4B244B9C0E90014FD
:1089A00084608281C381204610BD0E20FCE709202F
:1089B000FAE737B550E8013F9DB2C4892544848960
:1089C000A54228BF2D1B0489A54202BFBFF32F8FEC
:1089D000002207E0C5EA030540E80154002CE9D174
:1089E0004FF001028DF803200193019B9DF80320B5
:1089F0000B6002F0FF0322B10B880068184403B03B
:108A000030BD1846FBE70A884B889A4209D150E8E6
:108A1000012FC2EA024240E80123002BF7D10120D6
:108A200070470020704737B550E8023F1FFAA3F5A2
:108A3000C488A54202BFBFF32F8F00220DE0C48976
:108A400025448489A54228BF2D1BC3EA054540E87B
:108A50000254002CE8D14FF001028DF8032001935D
:108A6000019B9DF803200B6002F0FF0322B14B88AD
:108A70000068184403B030BD1846FBE70A884B88ED
:108A80009A4209D150E8022FC2EA224240E802236A
:108A9000002BF7D1012070470020704701F01F0222
:108AA0004B090121914000EB830000F01EB801F05A
:108AB0001F0301229A404B0900EB8300D14300F0D1
:108AC0002CB84B0901F01F0150F82300C84000F0FA
:108AD0000100704710B5034653E8000F0A4643E80B
:108AE000002494F0000FF7D110BD10B5034653E8F1
:108AF000002F42EA010043E8000494F0000FF6D191
:108B000010BD10B5034653E8000F00EA010243E828
:108B1000002494F0000FF6D110BD10B5034653E8C1
:108B2000002F02EA010043E8000494F0000FF6D1A0
:108B300010BD10B5034653E8002F02EB010043E8D7
:108B4000000494F0000FF6D110BD10B5034653E8B1
:108B5000002FA2EB010043E8000494F0000FF6D1CF
:108B600010BD0121FFF7C1BF0021FFF7CABF10B53B
:108B700090B1D0E9012301689B1ADBB20A60013B86
:108B8000DBB2FF2B026802D10020107110BD11680A
:108B90004C1C14600B70F2E70E20F7E737B5054662
:108BA00000240DF107008DF80740FFF777FD2A68D4
:108BB0006B68116899420ED9481E106011F8014C7B
:108BC000EB68298A01FB0434AB6811791B1ADBB20C
:108BD000994238BF13719DF80700FFF783FD2046C7
:108BE00003B030BD37B5054600230DF107000C4634
:108BF0008DF80730FFF752FD2A681368591C116081
:108C0000E968641A298AB4FBF1F41C709DF8070026
:108C1000FFF768FD03B030BD826810B504462AB185
:108C200043690168006998470023A36010BD0EB432
:108C300003B5039921B104AB01AA019300F076F8C2
:108C400002B05DF804EB03B070470A2938B504465A
:108C50000D4602D10D21FFF7F8FFA3682268591CC9
:108C6000A160D554D4E901329A4204D32046BDE82C
:108C70003840FFF7D1BF38BD2DE9F84F9846DDE900
:108C80000A43154682460F460A464FF00109AA429A
:108C90000FD2C14538BFC14613F0010B01D16CB9E9
:108CA00000240126B8F1010F1BD908F1FF386E43EB
:108CB000F8E709F10109B2FBF5F2E8E79B070ED5E9
:108CC000B8F1000F0CBF30262026A145E9D2013CA7
:108CD00031465046FFF7B9FF002CF6D1E0E72026D9
:108CE000F3E7B7FBF6F39D42E1D9DFF83C80B7FB31
:108CF000F6F3504618F8031006FB1377FFF7A5FFAD
:108D00003346AB42B6FBF5F6F1D2BBF1000F02D011
:108D10000CB1A14501D3BDE8F88F20215046013C9C
:108D2000FFF793FFF4E700BF96DB02002DE9F74F52
:108D3000054617468846002900F0428118F8011BB5
:108D400049B92B7B002B00F03B81284603B0BDE8DE
:108D5000F04FFFF761BF252940F0B780002698F853
:108D600000302D2B424608F1010823D0302B24D0AF
:108D70002B2B25D000242A2B02F1010123D13B68A3
:108D80001A1D1B683A601C440A4613782E2B26D104
:108D900001324FF0000A104610F8011BA1F1300C0F
:108DA000BCF1090F1DD80A2303FB0A13A3F1300AF3
:108DB0000246F0E746F00106D1E746F00206CEE7AC
:108DC00046F00406CBE711F8013CA3F13000092876
:108DD000DBD80A2202FB0434303C0A46CBE74FF0D2
:108DE000000A12F8011B01F0FB0068289046F8D039
:108DF000782909D86F290CD8632962D022D825296F
:108E000063D0582900F0888098F80030002B95D165
:108E100097E770390829F7D801A353F821F000BF6C
:108E20009B8F0200098E0200098E0200298F02002A
:108E3000098E0200078F0200098E0200098E0200CF
:108E4000198F0200642901D06929DDD13A68D2F86E
:108E50000090111D89EAE9723960A2EBE9724FF0C6
:108E6000010B092A35DCD34538BFD3462CB1B9F103
:108E7000000F01DB720700D5013CB30702D5BAF140
:108E8000000F03D0F00701D44CBB0024B9F1000F50
:108E90002DDAC9F100092D212846FFF7D6FE06F08C
:108EA0000302022A04D1BAF1000F01D11CBB002435
:108EB000CDE9004653460A2249462846FFF7DCFE24
:108EC000A2E73B681A1D19783A602846FFF7BDFEF5
:108ED0009AE70A230BF1010BB2FBF3F2C1E7A345BA
:108EE000D4D220212846013CFFF7AFFECCE7710722
:108EF000D5D52B21D0E7A345DAD230212846013C35
:108F0000FFF7A3FED2E73968CDE900460A1D3A60B3
:108F100053460A220968D0E739680A1D3A60CDE94C
:108F2000004653461022F5E73B681A1D3A6016F0DA
:108F30000106D3F8009028D1B9F1000F03D04846BC
:108F400004F079F90646B44200D904BB09F1FF39AF
:108F500019F8011F00293FF457AF2846FFF775FEA7
:108F6000F6E728460136FFF770FE19F806100029CB
:108F7000F7D1A642BFF448AF002C3FF445AF202103
:108F80002846013CFFF761FEF3E70026EDE72021CC
:108F90002846013CFFF759FED5E73B681A1D3A60A9
:108FA000302128461C68FFF750FE78212846FFF73D
:108FB0004CFE00220823CDE90032214610227CE736
:108FC00003B0BDE8F08F00BF2DE9F84FB0F806A060
:108FD0004579D2F800B09DF828900AFB05F5043DCC
:108FE00088460BEB0301A94203F1040488BFA5EBFB
:108FF000030BB4FBFAF607460AFB1644C2F800B0AE
:109000004EB9AAEB04055D4528BF5D46BBF1000FD4
:1090100004D1BDE8F88F3F68013EF1E7043408EB66
:1090200006003C442A46B9F1000F0DD02146ABEBB7
:10903000050B04F082F8DA452E443F6855464FF0A0
:10904000000428BF5D46E1E701462046EFE7FFF751
:109050008EBDF8B546790146721E0546002393423F
:109060002D6803D30024A64202D8F8BD0133F6E7E9
:109070000F682846FFF7B6FD01343946F3E72DE9BE
:10908000F843068ACD1C0746FFF788FD043E3544A9
:109090000446B5FBF6F5F0B14FF48073EDB2838072
:1090A000C680013D076081464FF00008A84512D2F6
:1090B0003846FFF773FD064648B1637901336371A3
:1090C00008F10108C9F8000007608146EEE7204674
:1090D000FFF7BFFF34462046BDE8F8830121043086
:1090E000FFF727BD10B5012104460430FFF72DFD21
:1090F00010F0FF0F04D12046BDE81040FFF7A9BFD4
:1091000010BD1FB503920022009203AAFFF75CFF77
:1091100005B05DF804FB1FB503920122009203AA7B
:10912000FFF752FF05B05DF804FB41DF7047000018
:10913000064B10B500241C70054B1C60BFF35F8FFD
:109140000449054800F039F8204610BD08A6022061
:109150000CA60220B0DB020000A6022007B5002307
:109160000DF107008DF80730FFF798FAF1EE103A8D
:1091700023F09F03E1EE103ABFF35F8F094B4022CB
:10918000C3F884219DF80700FFF7ACFA03F00EF94D
:1091900020B1FFF7CAFF03B05DF804FB20BF40BF5A
:1091A00020BFF8E700E100E0836800225A60C3E9CD
:1091B00004229A60DA601A6070470B684A6843605C
:1091C000934208BF0023016008BF436070474368B3
:1091D00043B10268916852680B449342436004BFF4
:1091E00000234360704770B5446806460D4620680A
:1091F00018B1B3682946984718B923682B602560D1
:1092000070BD2468F3E74368186808B102681A6003
:1092100070474368186870474368186800B970471A
:10922000884203D102681A60012070470346006833
:10923000F4E7000010B50D49A1F59472914201D8F0
:1092400000200FE08C1AE30F03EBE4035B1002EB4A
:10925000C30452F83330834205D802D204F1080225
:10926000ECE7606810BD2146E8E700BFBCE0020003
:1092700008B5FFF7DFFF024B002808BF184608BDFE
:109280007FDF020010B50446C0B2FFF7DFF92046C9
:1092900010BD0000034B1868A0F108035842584164
:1092A000704700BF30010010064B1B68082B06D129
:1092B000054B1B68052B02D8044AD05C7047002080
:1092C000704700BF3001001034010010C2E00200FE
:1092D000024AD2F80034002BFBD0704700E0014076
:1092E00010B5FFF7D7FF40B14FF080430022C3F81D
:1092F0000C21C3F81021C3F83825FFF7CBFF002855
:1093000046D04FF08052614BD2F80414C3F82015B8
:10931000D2F80814C3F82415D2F80C14C3F8281591
:10932000D2F81014C3F82C15D2F81414C3F8301561
:10933000D2F81814C3F83415D2F81C14C3F8401529
:10934000D2F82014C3F84415D2F82414C3F84815F1
:10935000D2F82814C3F84C15D2F82C14C3F85015C1
:10936000D2F83014C3F85415D2F83414C3F8601589
:10937000D2F83814C3F86415D2F83C14C3F8681551
:10938000D2F84014C3F86C15D2F84424C3F8702501
:10939000FFF78AFF10B13E4B3E4A1A60FFF784FF89
:1093A00018B13D4BFB22C3F81825FFF77DFF48B1EC
:1093B0003A493B4B0A681B6822F00F0203F00F0387
:1093C00013430B60FFF770FF18B1364B4FF4007278
:1093D0001A60FFF75FFF48B14FF08043D3F80024D5
:1093E000D20744BF6FF00102C3F800242E4AD2F81E
:1093F000883043F47003C2F88830BFF34F8FBFF357
:109400006F8F2A4B1B68082B0ED1294B1B68052B2D
:1094100002D8284AD35C3BB14FF01023D3F808227E
:109420004FF08043C3F858254FF01023D3F80022A3
:10943000002A03DBD3F80432002B22DA1E49012371
:10944000C1F80435FFF744FF4FF010201224C0F894
:109450000042FFF73DFFC0F80442FFF739FF002349
:10946000C1F80435FFF734FFBFF34F8F0E49134B9C
:10947000CA6802F4E0621343CB60BFF34F8F00BFB2
:10948000FDE70F4B0F4A1A6010BD00BF00C000403F
:109490008C5600404881030000F00040E40E00407C
:1094A000580200104096024000ED00E0300100102C
:1094B00034010010BCE0020000E001400400FA05A5
:1094C0002C2B00200090D003074B1B5C1F2B8ABF66
:1094D000064A4FF0A04203F01F03D2F80405D8401B
:1094E000C04300F001007047CCE0020000030050D0
:1094F000074B1B5C1F2B86BF064903F01F034FF071
:10950000A041012202FA03F3C1F80C35704700BFF5
:10951000CCE0020000030050074B1B5C1F2B86BFF2
:10952000064903F01F034FF0A041012202FA03F3A2
:10953000C1F80835704700BFCCE0020000030050BE
:1095400008B50020FFF7E8FF0120FFF7E5FF022044
:10955000FFF7E2FFBDE808400320FFF7DDBF08B5D5
:109560000020FFF7C5FF0120FFF7C2FF0220FFF731
:10957000BFFFBDE808400320FFF7BABF0A4B185CE5
:109580001F288ABF094B4FF0A04300F01F00D3F8FB
:1095900004250121814021EA02000A40C3F80805A0
:1095A000C3F80C25704700BFCCE002000003005058
:1095B000074B1B5C1F2B8ABF064A4FF0A04203F0EB
:1095C0001F03D2F81005D840C04300F001007047D7
:1095D000C8E00200000300500B2809D00C2809D075
:1095E000182809D019280CBF03204FF0FF3070470E
:1095F000002070470120704702207047014B185C23
:10960000704700BFC8E00200C20710B504460CD581
:109610004FF0A0430322C3F83427C3F83827C3F818
:109620003C27C3F84027FFF78BFFA3070AD54FF06D
:10963000A0430C22C3F82C27C3F83027C3F86027B7
:10964000C3F8642710BD000038B5074C051E04F1AF
:10965000080318BF1C4623682BB11A6822605B6898
:1096600028469847F7E738BD18A6022020B9054BD1
:1096700001225A70FFF7E8BF012802D1014A907019
:10968000F8E7704710A6022020B9034B01225A7058
:10969000FFF7DABF704700BF10A6022038B50E4CA6
:1096A0002378B3B90D486360A3602361E36000F0E1
:1096B000E5F8054602F07AFE08B900F0EBF8012360
:1096C0002370074BD3F800340BB10123A370284655
:1096D00038BD8525F5E700BF10A602206D96020073
:1096E0000000014037B50D4C00230DF107008DF847
:1096F0000730FEF7D3FFE368013BE360E36833B96B
:10970000074BD3F8005415B900F0D6F8A5709DF8B2
:109710000700FEF7E7FF03B030BD00BF10A6022030
:1097200000000140012813B50CD0032820D038B91F
:10973000124B0122C3F88020BFF34F8FBFF36F8F0E
:1097400002B010BD0E4C00230DF107008DF807305C
:10975000FEF7A4FF23780BB9FFF7A0FFE3689DF89D
:1097600007000133E3600123A370FEF7BBFFE7E7C7
:1097700000F090F8FFF7B6FFE2E700BF00E100E07D
:1097800010A602201FB503788DF8003043680193BE
:1097900083688DF80830C368054A0393054B684613
:1097A00053F8213052F82110984705B05DF804FBBA
:1097B00024A602202CA602201FB503788DF80030C5
:1097C0004368019383688DF80830C368054A0393A2
:1097D000054B684653F8213052F82110984705B0E0
:1097E0005DF804FB24A602202CA60220F0B5194B3C
:1097F00090F800C0DFF86CE043F82C20164B1646BA
:109800000A6943F82C204B7F0EF80C300C460746B3
:109810000FCC89B06D460FC594E80F0085E80F00A6
:109820001EF80C30CDF810C04BB1002E0B4A694623
:1098300008BF3246381D00F0F5FD09B0F0BD002E1E
:10984000074A694608BF324607F10C0000F0AAFB40
:10985000F3E700BF2CA6022024A602208597020071
:10986000B997020034A6022000F18040002382B0A4
:10987000036003680193019B02B07047044A1379A7
:1098800023B90121106091801846704785207047E8
:1098900038A60220074B1A68D20704D4C02283F8E6
:1098A000002301221A604FF080430122C3F81825DB
:1098B000704700BF00E100E04FF0804208B502238E
:1098C000C2F808334FF48270FFF7CEFF034B01213B
:1098D0001960D2F81834DB03FBD408BD0C0000403B
:1098E000124B1B6810B573B14FF48070FFF7BCFFCB
:1098F0004FF080430122C3F808230D4B587910B96B
:109900005A711B6898470B4B1B6873B14FF48270F8
:10991000FFF7AAFF4FF080430222C3F80823044B4D
:10992000BDE810401B680120184710BD0001004031
:1099300038A602200401004000F1804000F5C0403C
:10994000002382B0036003680193019B02B070475B
:1099500003681F2B83BF03F01F03036001484FF010
:10996000A04070470003005007B5019001A8FFF721
:10997000EFFF019B00EB8300D0F8003723F4403366
:10998000C0F80037D0F8003743EA0141C0F80017AB
:1099900003B05DF804FB0000054B4FF0FF320728D1
:1099A00043F8202084BFC01880F85820704700BFBB
:1099B00040A6022038B51E4C94F86A30ABBB4FF677
:1099C000FF71FF205A09012A14BF4FF0FF320A46E7
:1099D00003F01F05EA40D20748BFE21803F1010374
:1099E00048BF82F83000302BECD10021C8B2FFF71D
:1099F000D3FF01310C29F9D1062200210D4803F0D3
:109A0000C5FB0D4BC02283F8062340221A604FF499
:109A1000BE70FFF791FF094B4FF00042C3F80423DB
:109A2000012384F86A30002038BD0820FCE700BF1D
:109A300040A60220A4A6022000E100E00060004051
:109A4000034B93F86A00003818BF0120704700BF2D
:109A500040A60220F7B53B4E3318054693F9303047
:109A6000002B6CDA8B78C3F34003002B0BBF082468
:109A700000240C200820844202D1042003B0F0BD51
:109A800056F82470013743D1701946F8242080F825
:109A9000304013B9331983F858508B785A0717D4CC
:109AA000D80737D501A80195FFF752FF019B00EBBE
:109AB0008300D0F8003723F00203C0F800372248B3
:109AC000EA0805F007070123BB40875C3B4383544A
:109AD0008B780A7813F0020328D0A40004F18044A4
:109AE00004F5C0442D02D4F8103523F44F3323F489
:109AF0004073C4F810351204D4F8103505F47C55C1
:109B000002F4403215431D43C4F810550020B5E758
:109B10000134B0E701A84A780195FFF719FF019BCE
:109B200003F5E073920040F82320C8E7083C344472
:109B300094F8605045EA821284F86020E6E7082035
:109B40009CE700BF40A60220A4A6022073B5224CC9
:109B50002618054696F93020072A1ADD224492F885
:109B600058309B09032B0FD1019001A8FFF7F0FE9D
:109B7000019BD0F81015D94001F0010102312846AF
:109B8000FFF7F2FE02B070BD012B0CBF02210321D2
:109B9000F5E7D3B2072BF5D8930003F1804303F523
:109BA000C043D3F8100540F00100C3F8100502F1DE
:109BB0004000800080B2FFF7BFFE0029E2D096F996
:109BC000303054F82330002BDCD0012303FA02F2AA
:109BD000024BC3F80423D5E740A6022000600040F2
:109BE00007B5019001A8FFF7B3FE019BD0F810055F
:109BF000D84000F0010003B05DF804FB2DE9FF47F9
:109C00000024CDE90244584D4FF48072012102F145
:109C1000804303F5C04390B21B68012B06D1D5F8F1
:109C200004330B4202D0FFF787FE0C430432B2F537
:109C3000907F4FEA4101EAD14C4B1B68012B11D1B7
:109C40004FF4BE70FFF778FE4FF0A04344F000449D
:109C5000D3F820250292C3F82025D3F820280392B8
:109C6000C3F8202814F0FF0F1AD0414F0025012619
:109C7000344210D0AB0003F1804303F5C043D3F866
:109C80001005D3F8101557F8253023B1C1F3014161
:109C9000C0F3052098470135082D4FEA4606E7D165
:109CA000002C59DA324D334C334E4FF00008012767
:109CB00016F9013B5A1C3CD0C3F3C20104A801446D
:109CC0005FFA83F911F8081C03F03F0203F0070361
:109CD00007FA03F319422CD001A80192FFF738FECE
:109CE000019B03F5E07350F82330C3F3014ABAF146
:109CF000020F10460CBF03210221FFF735FE01A819
:109D00000192FFF725FE019B07FA03F3C0F8203507
:109D1000AB1893F9303055F8233053B14FEA99110D
:109D2000032904D0BAF1020F19D1012901D110463B
:109D3000984708F10108B8F1040FB9D14FF0A043DA
:109D4000D3F820250292C3F82025D4F820350393B8
:109D5000C4F820351343A7D104B0BDE8F087BAF1A9
:109D6000030FE6D10229E1E7006000407C6100407A
:109D700040A6022000030050A0A60220014B1B6851
:109D8000184700BFACA602200E4B984237B50C46D0
:109D900002D0002003B030BD00230DF107008DF884
:109DA0000730FEF77BFC084B1D7915B901221C60BA
:109DB0001A719DF80700FEF795FC002DE9D01120DF
:109DC000E8E700BF00200040ACA60220002343507B
:109DD00082B043580193019B02B070470A4610B508
:109DE0004FF48E71FFF7F2FF136A9168C95C136A32
:109DF00001331362C0F81C1510BD024608B5006897
:109E00004FF49271FFF7E2FF4FF484711068FFF78F
:109E1000DDFF136801221A6008BD8B690A4610B580
:109E20004FF4847123B9FFF7D1FFD0F8183510BD76
:109E3000FFF7CCFF536AD168D0F81805C854536AAD
:109E400001335362F3E700001FB501238DF80030A2
:109E5000044BCDE90110D3E900126846904705B0E4
:109E60005DF804FBB4A6022030B54C48D0F80433AA
:109E700013F4007F85B005464DD0D0F82431002B77
:109E800049D04FF49271FFF7A1FF4FF40173C0F86E
:109E90000833434B93F829200AB9012242603F4915
:109EA00002228DF80020D1F88024C1F8802403928A
:109EB0009A690292DA6801920022C3E90622684692
:109EC000D3E9001290473548D0F81C315BB13449D2
:109ED0004A690B6A9A420A464AD991F82830002BFF
:109EE00046D1FFF77BFF2D48D0F844318BB14FF4BA
:109EF000A271FFF76BFF2A4B93F829200AB10122C8
:109F000002609A692AB10022586AD9689A61FFF7FB
:109F10009BFF05B030BDD5F804335B07D3D5D5F82A
:109F20000831002BCFD01E4C1C482146FFF775FF8F
:109F3000636AA2699A422346C5D1E269E1684AB1DF
:109F40002369E3600023606AA261E3616362FFF753
:109F50007BFFB8E794F829200AB901226A600F4A0A
:109F60004FF40170C2F808030022586A9A61EEE7C4
:109F70000A484FF48E71FFF729FF5369002BB2D0C6
:109F800051690291002391688DF80030019153616D
:109F90006846D2E900139847A5E700BF00200040BB
:109FA000B4A602202DE9F843614B057991462C2295
:109FB00002FB0532064692F82A200C469846002AF3
:109FC00040F0B1805B490068FFF7DEFE07460028DD
:109FD00040F0AB8021684A1C10D01F2987BF564A29
:109FE00001F01F030B464FF0A0420120984003F5FB
:109FF000E073C2F80805032042F823006068431CA0
:10A000000DD01F288BBF00F01F0303464A4A4FF0B4
:10A01000A04203F5E0734FF0000C42F823C0336810
:10A02000A269C3F8242594F814C0627DBCF1010F25
:10A030004CEA0202C3F86C25C3F81405C3F80C15EA
:10A040002BD1A168481C0DD01F298BBF01F01F0226
:10A050000A4639484FF0A04002F5E0724FF0000C7C
:10A0600040F822C0E068421C13D01F2887BF324A44
:10A0700000F01F0C84464FF0A0424FF0010E0EFA84
:10A080000CFE0CF5E07CC2F808E54FF0030E42F838
:10A090002CE0C3F80805C3F810152C236B4308EB1C
:10A0A0000302C2F80490226948F80320B9F1000FB6
:10A0B00021D03068247F4FF48E71FFF787FE4FF474
:10A0C000A2713068FFF782FE32681C4BC2F804337D
:10A0D000110B42F307326301002ADBB21EDB184882
:10A0E000841884F800330123520901F01F0103FA98
:10A0F00001F140F8221033680422C3F800252C2314
:10A1000003FB05830022C3E9062283F829205A6154
:10A11000012283F82A203846BDE8F883094A01F075
:10A120000F015354E7E70827F5E71127F3E700BFCE
:10A13000B4A60220699E02000003005080000200C5
:10A1400000E100E014ED00E02DE9F047204F90F829
:10A1500004904FF02C0808FB097405466669002E30
:10A1600034D162610068A16026624FF48E7184F878
:10A170002860FFF72BFE2868012383602146FFF744
:10A180002DFE6368A0468BB92868D4F814A0236A12
:10A190009A4511D82A68D2F81C31002BFBD0012334
:10A1A000D3602C2303FB097300225A613046BDE8BB
:10A1B000F08794F828303BB9D0F81C31002BF8D048
:10A1C0004146FFF70BFEE2E70F26EAE71126EDE72F
:10A1D000B4A602200379044A2C2101FB0323586909
:10A1E000003818BF01207047B4A602202DE9F843BB
:10A1F000394F05792C2303FB057306465C6824B1AF
:10A2000003684FF40170C3F808032C2303FB0573A4
:10A21000986950B1D86900283ED024B133684FF412
:10A220000172C3F80423112433E09A61D9605862A3
:10A23000D8612C2303FB057393F829301BB910B99F
:10A240003046FFF7DAFD4FF02C0909FB057830683E
:10A25000D8F80430002B34D14FF4A271C146FFF777
:10A26000B5FD3068D0F82431D0F80821D0F8444149
:10A27000B2B90CB9002BF4D02C2202FB05750022D8
:10A28000AA6123BB2CBB95F8291033680122B1B118
:10A290001A602046BDE8F8831961DA610120C8E739
:10A2A000002BE9D1002CE7D14946FFF7B6FDD8F8DD
:10A2B0002430D8F818209A42D3D82346DCE75A60D5
:10A2C000E7E74FF40173C0F804330024E1E7032407
:10A2D000DFE70F24DDE700BFB4A6022000234350D0
:10A2E00082B043580193019B02B070471FB5012310
:10A2F0008DF80030044BCDE90110D3E90012684617
:10A30000904705B05DF804FBE0A602207FB5434A04
:10A31000D2F82461002E60D010464FF49271FFF7FE
:10A32000DDFF02238DF80030D2F88034C2F880348B
:10A330000393D2F83C350293394BDA68019200223C
:10A34000C3E906226846D3E9001290473348D0F8A3
:10A35000443173B14FF4A271FFF7C0FF304B9A69DB
:10A360003AB10022C3E90622D968D0F83C05FFF7CC
:10A37000BDFF2A48D0F82031ABB14FF49071FFF700
:10A38000ADFF0123C360264B5A6962B1D0F84C156A
:10A390000291002299688DF8002001915A61684667
:10A3A000D3E9001290471D48D0F858319BB14FF4C3
:10A3B000AC71FFF793FF1A4B5A6962B1D0F84C1594
:10A3C0000291002299688DF8002001915A61684637
:10A3D000D3E90012904704B070BDD2F81031002BC1
:10A3E000B4D04FF488711046FFF778FF0C4BD2F8C9
:10A3F0003C0599698842A9D1DC69D96864B1D2F871
:10A40000005225F02005C2F800521A699C61DA60FA
:10A41000DE61FFF76BFF99E79C61FAE700200040DF
:10A42000E0A602202DE9F843674B067991462422E5
:10A4300002FB0632044692F820200D469846002A78
:10A4400040F0BE8061490068FFF79EFC0746002887
:10A4500040F0B8802868421C10D01F2887BF5C4A93
:10A4600000F01F0303464FF0A0420121994003F57D
:10A47000E073C2F80815032142F8231069684B1CE9
:10A480000DD01F298BBF01F01F030B46504A4FF020
:10A49000A04203F5E0734FF0000C42F823C023689C
:10A4A000AA69C3F8242595F814C06A7DBCF1010F90
:10A4B0004CEA0202C3F86C25C3F80C05C3F8141566
:10A4C0002BD1A968481C0DD01F298BBF01F01F029A
:10A4D0000A463F484FF0A04002F5E0724FF0000CF2
:10A4E00040F822C0E868421C13D01F2887BF384AB2
:10A4F00000F01F0C84464FF0A0424FF0010E0EFA00
:10A500000CFE0CF5E07CC2F808E54FF0030E42F8B3
:10A510002CE0C3F80805C3F810152423734308EB97
:10A520000302C2F804902A6948F80320B9F1000F29
:10A5300030D020682A7F4FF48871FFF7CFFE206863
:10A540004FF49071FFF7CAFE20684FF49271FFF745
:10A55000C5FE20684FF4A271FFF7C0FE4FF4AC7146
:10A560002068FFF7BBFE23681A49C3F80413190BD0
:10A5700043F307335201002BD2B21CDB1648C51837
:10A5800085F8002301225B0901F01F0102FA01F1A5
:10A5900040F8231023680822C3F80025242303FB76
:10A5A00006830022C3E906225A61012283F8202093
:10A5B0003846BDE8F883094B01F00F015A54E9E72A
:10A5C0000827F5E71127F3E7E0A602200DA3020014
:10A5D000000300501003420000E100E014ED00E031
:10A5E00001F06043B3F1005F2DE9F041064638D138
:10A5F0001E4B0779242505FB073598466C69002C0E
:10A6000031D16A610068A9604FF49071FFF766FE6E
:10A610004FF4AC713068FFF761FE33686A69A9686E
:10A62000C3F84415C3F8482501229A606A68AAB99C
:10A63000D3F82021D3F858411AB9002CF8D00F24B0
:10A6400007E0002CFBD10122DA60D3F85821002A60
:10A65000FBD0242303FB078700237B612046BDE852
:10A66000F0811024FAE71124F8E700BFE0A60220E9
:10A670000379044A242101FB03235869003818BFD9
:10A6800001207047E0A60220F8B501F06043B3F165
:10A69000005F04460F465ED10379304D242101FB53
:10A6A0000351496821B100684FF40476C0F808638B
:10A6B000242000FB03539E6956B1D869002839D085
:10A6C00021B123684FF40472C3F80423112030E051
:10A6D0009A61DF60DE6120684FF48871FFF7FEFD4C
:10A6E00020684FF4A271FFF7F9FD2368C3F83475B1
:10A6F000C3F8382516BB01221A602179242202FBF7
:10A70000015252680ABBD3F81041D3F84421D3F860
:10A710002401144302D10028F5D02246242303FB50
:10A7200001550023984218BF03209A42AB6118BF1D
:10A730000F20F8BD1F61DA610126CCE7D3F80022B3
:10A7400042F02002C3F80022D7E74FF40472C3F8A6
:10A7500004230020EDE71020EBE700BFE0A6022075
:10A760000220FEF70BBF00002DE9F04780460D46A2
:10A77000FEF732FF0328044610D8012D10D0022D19
:10A7800030D05DB91A48FDF774FD1A4B04EB440252
:10A7900013449E78184B1B5DB34219D0BDE8F08777
:10A7A000144D00EB4002A918AE5C4A78470052B144
:10A7B000DFF84C900E484A464FF48041FDF72EFDDD
:10A7C00008B989F800803B192B449A780A4B1A552E
:10A7D000002EE3D0094B1B68002BDFD03046BDE8CC
:10A7E000F047184700EB4004024804446678EFE75E
:10A7F000502B002006A7022021A702201CA7022020
:10A8000004A7022000780221FFF7AEBF08B5094B6C
:10A810001B7853B10020FEF77FFE0120FEF77CFE7F
:10A82000BDE808400320FEF777BEBDE80840FEF70C
:10A8300087BE00BF05A70220F8B57B4C23780546EC
:10A840001BB100232370FFF7E1FF172D00F2888072
:10A85000DFE805F00C17174354657680888D888DE6
:10A86000959A9A9A9A9AC4C9D1D9E4E4FFF7CEFF8F
:10A870006E48FDF7FEFC6E4B002204461A7020461F
:10A88000F8BD0020FEF720FEF8B10020FEF744FEE0
:10A89000022D0CBF4FF4E1614FF47A61644B1D70DF
:10A8A0004FF400404FF47A740025E0FB01454FF46B
:10A8B000FA6200232046294602F014FB00220146DA
:10A8C000BDE8F8405948FDF7A9BCFEF711FE022D7E
:10A8D0000CBFC8214FF4C871E0E70020FEF7F4FD7B
:10A8E00040B10020FEF718FE4FF44871504B032290
:10A8F0001A70D5E7FEF7FCFDC821F7E70020FEF748
:10A90000E3FD38B10020FEF707FE4FF47A61484BB3
:10A910000422EDE7FEF7ECFD4FF4C871F7E70020E5
:10A92000FEF7D2FD48B10020FEF7F6FD404B0522B0
:10A930001A7040F6CD410022C2E7FEF7D9FDF5E7D7
:10A940000020FEF71BFE3A4B06221A70002240F24E
:10A950006661B5E70020FEF7CBFD354B07221A7084
:10A9600000248CE701202070FEF708FEEEE70120AE
:10A970002070FEF703FE00224FF40051A0E7FEF71F
:10A98000EEFD2B4B0C22EAE72A482B4EFDF771FC1B
:10A99000D5F1110504461CD0D8B9012D13D0C82318
:10A9A0005D434FF400474FF47A7000214FF4FA6290
:10A9B0000023C7FB050102F095FA224601461D4817
:10A9C000FDF72CFC04460220FEF792FD01233370B4
:10A9D00055E70220FEF7A0FD0023F8E7FFF716FF7A
:10A9E000134B1222BBE7FFF711FF0020FEF780FD9B
:10A9F0000F4B1322B3E7FFF709FF0120FEF778FDA5
:10AA00000B4B1422ABE7FFF701FF0020FEF770FDB0
:10AA10000120FEF76DFD064B1522A0E7FEF79FFD16
:10AA2000034B1D709CE700BF18A70220702B00206D
:10AA300020A70220302B002005A70220044B1B6812
:10AA4000DB0703D5034B1878FFF7F6BE704700BF4E
:10AA500014A7022020A70220002910B514BF032448
:10AA60000024FEF7CBFD1F288ABF0A4B4FF0A043FE
:10AA700000F01F0003EB8000D0F8002722F44032E2
:10AA8000C0F80027D0F8003743EA0443C0F8003785
:10AA9000002010BD00030050032801D8FEF788BD38
:10AAA00000207047044B1B6813F0010301D0FFF72F
:10AAB000C3BE1846704700BF14A7022038B51C4B10
:10AAC00018601C4B10F00204054619601AD01A4B8E
:10AAD0001A480E221A700F22DA7010229A7111226F
:10AAE0005A72042140F23332FDF7D4F9044648B9D2
:10AAF000FDF726FA044628B90146114A1148FDF728
:10AB00007BFB0446EB0711D50120FEF77DFD6CB9F8
:10AB100021460D4A0D48FDF76FFB044630B9BDE8EC
:10AB200038400B4A0B480121FDF766BB204638BD73
:10AB300014A702201CA7022006A70220F4E00200AE
:10AB400005A8020018E102003DAA02001CE1020073
:10AB500061A7020014E10200032811D8012A0AD1DA
:10AB600001290FD100F10E02D2B20D4B00EB4000D3
:10AB70001A54002070470129F7D0022904D049B1A6
:10AB8000072070470022F8E7054B00EB400018440F
:10AB90004270EEE7024B00EB400018448270E8E799
:10ABA00006A70220032802D80121FFF755BF06207F
:10ABB000704708B5012202210020FFF7CDFF08B140
:10ABC000072810D1072202210120FFF7C5FF08B195
:10ABD000072808D100210A220846FFF7BDFF10B15F
:10ABE000072808BF002008BD0388102B10B502D02D
:10ABF000112B1ED010BD1A4C2168B1B90122084694
:10AC0000FFF7AAFF08B1072824D10722022101205B
:10AC1000FFF7A2FF08B107281CD10422022100205F
:10AC2000FFF79AFF08B1072814D123680133236086
:10AC3000E0E70B4A1368013B1360002BDAD1FFF702
:10AC4000B8FF0028D6D0074B1B68002BD2D0BDE838
:10AC500010401847034B1B68002BE6D09847E4E7E9
:10AC60002CA7022028A7022008B50020FFF79AFF92
:10AC700008B1062806D10120FFF794FF10B106287D
:10AC800008BF002008BD00000D4B10B518600C4631
:10AC900029B10120FFF700FF40B102232370094BC7
:10ACA0001B6853B9BDE81040FFF783BFFFF7F4FE00
:10ACB00008B10B23F2E72070F1E7002010BD00BFC0
:10ACC00028A702202CA702200369C1688B429DBFE0
:10ACD0008268D21802F1FF3203F1FF3394BF501A99
:10ACE000581A70472DE9F843D0E902940546A9EBBC
:10ACF00004084068904520440F46144404D902F0EB
:10AD00001CFAEC60BDE8F8834246A4EB090402F0AB
:10AD100014FA6868224607EB0801F0E72DE9F843CA
:10AD2000C5680646894617464FF000083469B3687F
:10AD30007068A54228BFE418013C621B5C1BBC4242
:10AD400028BF3C46944228BF144649462844224620
:10AD500002F0F3F9B3682544AB4208BF00253F1B5E
:10AD6000A044A144F560E1D14046BDE8F88300006D
:10AD700010B5114C114AA2610223C4E90433104BEF
:10AD8000E361A2644FF400730E4A0F492362E26448
:10AD900000231022E01DA3626362E362A365636582
:10ADA000E365226502F025FA0849204602F021FAFF
:10ADB0002023A37110BD00BF30A7022020E10200B4
:10ADC000B8A70220A8A7022029E102002DE1020075
:10ADD000F8B5184C182300FB033503FB004025444D
:10ADE000C46A012C0F4616460FD0022C1AD0F4B9B3
:10ADF0002846FFF769FF864205D83246394628467D
:10AE0000FFF770FF34462046F8BD2846FFF75CFF89
:10AE10008642344628BF0446224639462846FFF774
:10AE200061FFF0E72846BDE8F840FFF777BF002450
:10AE3000E9E700BF30A70220FFF79ABF6DDF704738
:10AE400079DF70477DDF704764DF70472DE9F04F91
:10AE500085B000250E9CBDF83CB0B4F800A001916F
:10AE6000074690461E46A9463A884A450DDC45B13C
:10AE70002388013BA3EB0A039BB2FF2B3AD806F8C9
:10AE80000A30002005B0BDE8F08F7A6852F829003A
:10AE9000039000220DF10B0103A8FFF7D5FF002856
:10AEA000F0D19DF80B20424521D12288002D14BFFE
:10AEB0000020022002EB0801014459451ADC3DB98B
:10AEC000013292B2019B2280B35422880132228047
:10AED00022880DF10B01324403A8FFF7B5FF0028CB
:10AEE000D0D121889DF80B200A442280012509F148
:10AEF0000109B9E70C20C5E72DE9F341089FBDF82A
:10AF000024801546CDE90078022204461E46FFF74C
:10AF10009DFF50B93346102229462046CDE90878D6
:10AF200002B0BDE8F041FFF791BF02B0BDE8F0818B
:10AF30002DE9F04F00231788138090F82D3085B04D
:10AF400006460D46144653B3082F01D80C2027E1BE
:10AF500002A8FFF773FF002840F02281238808220F
:10AF6000EA54238801339BB21B222380EA542088B1
:10AF7000013080B2208006220DF10901284402F040
:10AF8000DCF823889DF8082006339BB212F0FE02FD
:10AF900018BF01222380EA54238801332380B37829
:10AFA000FBB123880433BB42D0D802A8FFF748FF87
:10AFB000002840F0F58023880322EA5423880133D7
:10AFC0009BB219222380EA542388BDF8082001335C
:10AFD0009BB2E9182380EA54120A4A70238802338C
:10AFE0002380F2789AB12388D91CB942AED80221C5
:10AFF000E954238801339BB201212380E95423883B
:10B000000B449BB22380EA5423880B44238072684C
:10B01000AAB12388D91CB94298D8022192F90020FC
:10B02000E954238801339BB20A212380E954238801
:10B0300001339BB22380EA54238801332380338970
:10B04000002B40F0A180338A5BB1CDE900472B464D
:10B050000722032106F11000FFF74EFF002840F001
:10B060009F80338B5BB1CDE900472B46152214211D
:10B0700006F11800FFF740FF002840F09180326A87
:10B08000002A40F09080D6F82480B8F1000F30D02C
:10B09000B8F804302188981C8A1C0244BA423FF652
:10B0A00055AFFE283FF652AF03336B54238801336C
:10B0B0009BB2FF222380EA54238801339BB2238072
:10B0C000B8F80020EA54E918120A4A7020880230C1
:10B0D00080B22080B8F804205AB1D8F808100029AE
:10B0E0006BD0284402F029F82388B8F804201344D0
:10B0F000238096F82C30002B40F09A80307800287E
:10B100004ED03388012B58D0228802F1020CBC4566
:10B110003FF61CAF012805D17378023313449F42D8
:10B12000FFF414AF023FBF1ABFB202A905EB0C0037
:10B13000ADF80870FFF786FE90BB3178BDF8083097
:10B14000022900F0BA8072789A4202D3BB4240F2E0
:10B15000B280012940F0B380974293B2C0F0AF8033
:10B16000ADF808300821BDF80830FE2B3FF6EEAEF2
:10B1700022880133AB542288013292B22280A95432
:10B180002288134423800BE0CDE900472B4606229A
:10B19000022106F10800FFF7AFFE00283FF453AF8D
:10B1A00005B0BDE8F08FB4F800C00CF10603BB4257
:10B1B0003FF6CCAE1188052901D80720F0E76FF4DF
:10B1C000486E01EB0E039BB24FF27D3E7345F4D9FE
:10B1D0005388052BF1D96FF44860181880B2704578
:10B1E000EBD94FF6FF70814203D0834201D09942E0
:10B1F000E3D8052305F80C30238801339BB21221D4
:10B200002380E954238801339BB223801188E954B9
:10B21000E818090A4170238802339BB223805288C0
:10B22000EA54E918120A4A702388023323802AE775
:10B23000B36A002BC1D04FF000094FF00C0A4FF059
:10B24000160B96F82C305FFA89F293427FF656AFD0
:10B25000B16A0AFB02F201EB0208B8F80430981C4C
:10B26000FE283FF673AE208803332B542388013326
:10B270009BB2238005F803B0238801339BB223805F
:10B280008A5AEA54E918120A4A702088023080B2B9
:10B290002080B8F804205AB1D8F8081000298CD0C2
:10B2A000284401F04AFF2388B8F80420134423807F
:10B2B00009F10109C5E7092155E7BB42FBD9ADF802
:10B2C00008704FE730B5C8B1F2B10024651C8D425B
:10B2D00006DA1588A54212D805196D789D420ED15F
:10B2E000A14211D9005D48B1013880B230B10234B9
:10B2F000A3B210FA84F4A14206DB138030BD055DD1
:10B3000001352C44A4B2E1E70020F7E713B513465A
:10B310000022ADF806200DF106020446FFF7D2FF29
:10B3200010B1BDF80630E01802B010BD72DF7047F2
:10B3300073DF704774DF704738B5012204460D464D
:10B34000B0F81414D0F81004FFF7E0FF00B1057056
:10B3500004F13C0204F5826104F15400BDE8384078
:10B36000FFF7E4BF80F830107047F8B504460F4689
:10B3700000296DD000286BD091F87A301BB191F87C
:10B380009830002B66D14FF0000C84F802C007F112
:10B3900078060FCE251D0FC50FCE0FC596E8070006
:10B3A00085E8070084F830C0D7F8A4306363D7F885
:10B3B000A830A3634FF6FF7504F58263C4F8203408
:10B3C000A4F824540722614604F2264001F0DEFE70
:10B3D00023780BB984F8545094F82430002B14BF10
:10B3E000EE231F2304F15501C4F81014A4F81434FB
:10B3F00004F214423846FFF79BFD40BB94F824301A
:10B40000002B14BFEE231F2304F23121C4F81814BB
:10B41000A4F81C3404F21C4207F13C00FFF788FD3D
:10B42000A8B9A369A4F848304FF480730125A4F8A3
:10B43000503063692064014684F83C50636404F131
:10B440003C0204F15400FFF771FF00B92570F8BD0C
:10B450000E20FCE70720FAE7F8B5077804460D460A
:10B46000002F00F0098100F226468170072200219A
:10B47000304601F08BFEE38813B1A378012B04D092
:10B48000E3794BB1A378022B06D1636BA3B1012200
:10B4900084F82D2408209847334604F22C4113F8F1
:10B4A000012F12B99942FAD117466B1E032B57D8B8
:10B4B000DFE803F0050B0F1284F82D34ECE7A379D5
:10B4C0001BB194F8243003B95FB9E3790BB1002FB5
:10B4D00048D1237A002B47D1637A002B0CBF00257B
:10B4E0000425636BA570002B40D0033D012D3DD892
:10B4F0006279002A3AD094F82E24002A36D184F8B2
:10B500003024012284F82F240720984704F13C05B9
:10B5100018220021284601F039FEE26A0123511E5B
:10B52000994284F83C3001D9042A00D1D3B294F86E
:10B53000242084F8513042B1A36A591E012902D94E
:10B54000042B18BF012384F85230A178002384F81B
:10B55000503004291BD8DFE801F0770D223559005F
:10B560000025BEE70225BCE70325BAE7002384F8DF
:10B570002F34CBE7C4E91063C4F82034022301223E
:10B5800084F83C30802384F83120A4F84830A37834
:10B59000002B5CD1636B002B6AD1002067E0022393
:10B5A000002A84F8313014BF0723032384F83C3089
:10B5B0002369A4F848300023C4F82034E3682664E3
:10B5C0006364E4E763696364A369A4F8483012B173
:10B5D000062384F83C306379B3B194F82E349BB9D8
:10B5E00094F8303483B1022384F85030042120468B
:10B5F000FFF7A2FE0028CAD1052384F8313004F5F4
:10B600008263C4F82034C2E70323F6E7E369636486
:10B61000236AA4F8483012B1062384F83C306379D9
:10B6200083B194F82E346BB994F8303453B10223BB
:10B6300084F8503004212046FFF77EFE0028A6D172
:10B640000623DAE70423D8E784F831309FE7D4F8FB
:10B6500020142A4604F15400FFF768FE38B994F824
:10B66000301094F85400FFF763FE002892D0F8BD24
:10B6700094F83100984790E70820F8E70388112BE9
:10B6800010B50C460AD0262B1FD0102B05D1C37B3A
:10B69000012B02D18388A1F8243410BD00228388B5
:10B6A00081F82E24B1F824249A42F6D10B79002B8C
:10B6B000F3D101212046FFF7CFFE0028EDD0A36B88
:10B6C000002BEAD0BDE810401847037A013B012B5C
:10B6D000E3D8897805230131B1FBF3F303EB83034E
:10B6E000C91AC9B2E6E738B5044690F85400FFF726
:10B6F00021FE012384F82E34002384F8303484F8AA
:10B70000503006212046FFF717FE054638B9A178CC
:10B710002046FFF7A1FE10B1A36B03B1984728465E
:10B7200038BD75DF704776DF70477ADF70477BDFA3
:10B7300070470000034B1A8882420CBF1846002055
:10B74000704700BFD4A90220024B9B6903B1184780
:10B75000704700BFB8A9022073B585B22846FFF72D
:10B76000E9FF044670B1164E027A337B9A420BD23F
:10B7700000F10A012846FFF7D4FFE8B1112801D0F3
:10B78000FFF7E2FF02B070BD00230372337C43B1C8
:10B790003B212846FFF7C7FF30F0080301D0FFF731
:10B7A000D3FF7369002BEDD000228DF80420ADF893
:10B7B000065001A89847E5E7237A01332372E1E7B1
:10B7C000B8A9022037B50B46497A0F4A71B9D2E9B8
:10B7D00001141D7A0246002D18BF21465868FCF757
:10B7E0001DFD08B1FFF7B0FF03B030BD0021197295
:10B7F0005369002BF8D00122ADF806008DF8042023
:10B8000001A89847F0E700BFB8A902204B8802883A
:10B810009A4213D842889A4210D380888A8840F28C
:10B82000F313984294BF031AC31A934206D800F246
:10B83000F310904234BF0020012070470020704771
:10B840000388122B70B5014659D004D8102B1ED096
:10B85000112B44D070BD502BFCD12F4BC288DB89FB
:10B860009A42F7D1038A022BF4D186883046FFF73B
:10B8700061FF05460028EDD001F1120000F079F9D2
:10B8800038BB6868FCF7F5FC0028E3D009E0C37B0F
:10B89000012BDFD14FF6FF70FFF74CFF054620B9B3
:10B8A0000420BDE87040FFF74FBF1C4A8E88068019
:10B8B000002303721368C0F80A305368C0F80E30D2
:10B8C00010310A30FFF7A2FF134B6872DB89002B9F
:10B8D000C0D129463046BDE87040FFF773BF80886D
:10B8E000FFF728FF04460028B4D04068FCF7C1FCED
:10B8F00008B1FFF729FF4FF6FF732380AAE7868878
:10B900003046FFF717FF05460028A3D008310A305C
:10B91000FFF77CFF6872DCE7B8A90220E8A90220E3
:10B92000F8B5064648B305460FCD154F3C460FC443
:10B9300095E8070084E807003068124C3C60B0B11D
:10B94000FFF7F3FEC0B93268136823605368636081
:10B950000D480E4A4FF6FF7303800D4B40F8043F2D
:10B960000021FCF749FC002818BF032004E0204612
:10B97000FFF7DDFE0028EBD0F8BD0E20FCE700BF8E
:10B98000B8A90220E8A90220D4A9022059B70200D0
:10B99000F0A902200AB1FDF781B8FDF788B873B5A8
:10B9A0000191019C06466CB100252C46294601A850
:10B9B000FDF787F818B106EB440301349D8001358B
:10B9C000142DF3D13046346002B070BD2DE9F0473C
:10B9D00003888488103B8CB005460A2B1FD8DFE80B
:10B9E00003F0063F1E1E1E1E1E1E1E604400314E2A
:10B9F000B368DB43009371686846FDF78EF80099E1
:10BA000001A8FFF7CCFF0DF108094FF00008019BDA
:10BA1000984507D3132C13D90420FCF7A7FA0CB0D0
:10BA2000BDE8F08739F802AB00270137514606EB35
:10BA30008700FDF73CF81E2FF7D108F10108E6E773
:10BA40001D482146FDF72AF81C482146FDF726F837
:10BA5000EB7B022BE3D11A482146FDF71FF8DEE706
:10BA600015482146FDF723F8D9E7027A15483F2A01
:10BA70004FEA1215214694BF00220122FFF78AFFE8
:10BA8000022D94BF002201220F482146FFF782FFBA
:10BA9000012D0E4894BF002201222146FFF77AFFB4
:10BAA000BDE7037A002BBAD1427A0648C2F3C0023E
:10BAB0002146F3E710AA022018AA022014AA0220A5
:10BAC0001CAA022028AA022024AA022020AA0220BE
:10BAD0001328014602D80248FCF7F3BF0020704744
:10BAE00014AA022010B50446FFF7F2FF002814BF85
:10BAF0002046142010BD70B50546164608460AB902
:10BB00000E2070BD00231360002DF9D02B68002B90
:10BB1000F6D0EB8813F003040ED1FFF7E3FFC0B2B9
:10BB200014280BD02B7983420AD9EB882A6800FBB2
:10BB3000032030602046E4E70720E2E70520E0E745
:10BB40000420DEE7AADF7047002301380B700428C9
:10BB500006D8DFE800F00306080A0C0011230B707A
:10BB600070472123FBE73123F9E71223F7E722236C
:10BB7000F5E7007800F001007047F0B58B7891B0E0
:10BB8000012B0C4638BF01238DF80E3005460B887B
:10BB9000ADF80C30002116466846032201F0F6FA93
:10BBA000607C6946FFF7D0FFA07C0DF10101FFF733
:10BBB000CBFFE27B237B217D43EAC203227C43EA65
:10BBC00002139DF80220002922F0190203F0190344
:10BBD00014BF02210121134361F342031C220021FF
:10BBE00009A88DF8023001F0D1FA637B13F0300F11
:10BBF00015D002AF03220021384601F0C7FAE07CDD
:10BC00000DF10901FFF7A0FF11238DF808309DF811
:10BC10000A300E97012262F342038DF80A30637BEB
:10BC20008DF824301422A37B8DF82530002104A840
:10BC300001F0ACFA03AB0493A388ADF81C30A36801
:10BC4000CDF814D01BB1E288ADF818200893A36991
:10BC5000002B31D001AF03220021384601F096FAC3
:10BC6000A3691A88ADF82C205A88ADF82E205A689E
:10BC70000D97187B0A923946FFF766FFA3690DF10D
:10BC80000501587BFFF760FFA269917A137A43EAB6
:10BC9000C103D17A927B43EA01139DF80610002A72
:10BCA00003F0190321F0190114BF022201220B43F2
:10BCB00062F342038DF80630E36903B10C93334617
:10BCC00004AA09A92846FFF73DFF11B0F0BD90DF97
:10BCD0007047A5DF7047B5DF704700007FB50023D0
:10BCE000ADF80810ADF80A106A4602A9064603939B
:10BCF0000093ADF80430FFF7EAFF054600B3124B9E
:10BD0000124CE41AE408FDF7B3FA240444F00104E9
:10BD100003460F4932462046FBF75BFEBDF8002084
:10BD2000BDF8023052EA030103D00A492046FBF76E
:10BD300050FEBDF804201AB107492046FBF740FE2B
:10BD4000284604B070BD00BF44D9020094D9020057
:10BD500034E102007EE10200BDE1020080B14FF05B
:10BD6000F7130360FB230371F723C38017230381B9
:10BD700041F6FB32002301614381828118467047FE
:10BD80000E20704730B1A1F11703E02B04D80180D9
:10BD9000002070470E2070470720704713B50346F8
:10BDA00080880C46A0B91A88242A75D012D8112A86
:10BDB00051D0232A7DD0102A3AD0A37A43B1E1880A
:10BDC0000020FFF786FF002879D14FF4807363814C
:10BDD00002B010BD3A2A47D0552AEED1DB88C98877
:10BDE000A072172B38BF17238B4228BF0B46238125
:10BDF000FFF771FF60B1FDF73BFA394B3949024655
:10BE000039481B1ADB081B0443F00100FBF7D8FD7F
:10BE1000E37A002BD1D12369002BCED040F67722D4
:10BE200000922289ADF80420694620469847C4E76D
:10BE3000DB7B09792173012B08D0022B09D0637BAE
:10BE40008B42BAD20020FFF749FFB6E72388E38090
:10BE5000F5E76388FBE7F723CB8017230B8141F6D7
:10BE6000FB3348818B81A8E75B89CA88934228BF4E
:10BE70001346172B0A6938BF17230B814AB1C97AB9
:10BE800039B140F677210091ADF80430694620467B
:10BE900090470023638190E71A7A0B694A73002B5D
:10BEA0008BD04DF67A218DF8050000918DF8042095
:10BEB000BAE7197A237B994228BF1946C3E71128AC
:10BEC00086D0FDF7D5F9064B0849024606481B1AED
:10BED000DB081B0443F00100FBF772FD78E700BFAD
:10BEE00094D9020013E2020044D9020042E20200A7
:10BEF000B0DF704766DF704710B500210446408808
:10BF0000FFF7F8FF034608B9237210BD112801D1CD
:10BF10000123F9E76368BDE81040184760B159B1E3
:10BF20000378DE2B0AD00B684360DE2303704FF6E4
:10BF3000FF734380002070470E2070470820704731
:10BF400028B10378DE2B04D14180002070470E20F9
:10BF5000704708207047F0B5054685B00C46F1B132
:10BF6000E8B10B78DE2B1AD182884B889A4204D133
:10BF70000B7A13B10846FFF7BFFF2B88112B32D085
:10BF8000512B0ED0012B0AD12B7A012B07D1A98876
:10BF90006288914203D123722046FFF7ADFF05B0BE
:10BFA000F0BDAE886388B342F9D1AF79022FF6D1E4
:10BFB000AD7B2B1F022BF2D800211022684601F026
:10BFC000E5F8052D14BF4FF4C073002369463046D1
:10BFD0008DF80070ADF80430FFF78AFF0028DED03E
:10BFE00063689847DBE76388AA889A4204BF4FF6E4
:10BFF000FF736380D3E7A8DF7047ADDF7047AEDF24
:10C00000704762DF704770B505468AB00C4600295C
:10C0100062D0002860D00388502B37D0572B72D0C5
:10C02000102B59D181886069002601AA0196FFF77B
:10C0300062FD082231460DEB020001F0A7F8022351
:10C040002189A888CDF80CD002AA0293FFF7D5FF6A
:10C05000002841D1A369002B3ED00398FFF789FD4A
:10C06000002839D0019B0BB101221A70182200213F
:10C0700004A801F08BF802238DF81030AB88ADF8DE
:10C080001830019B05940793A36923E081886069B8
:10C0900002AAFFF730FD1822002104A801F076F86B
:10C0A000AB882189ADF81830EB88029A0594994243
:10C0B000079218D12E8A022E15D16AB105F112000D
:10C0C000FFF757FD029B48B101221A708DF81060EE
:10C0D000A3690BB104A898470AB070BD1870032378
:10C0E0008DF81030F4E7A2899A42F5D1A369002BAC
:10C0F000F2D000228DF8102005F1120208922A8A4F
:10C10000ADF82420E6E78188606902AAFFF7F3FC16
:10C1100001460028E0D1029B1B78002BDCD0A369EC
:10C12000002BD9D0182204A801F030F801238DF893
:10C130001030AB88ADF818300594029BA3E70000DF
:10C14000F0B53A4B8FB002AD04460A4603F1100C2D
:10C150002F46186859682E4603C60833634535468E
:10C16000F7D1002C5FD0002A5DD01368A36121466F
:10C170003846FFF746FF002853D12246012512F822
:10C18000023B8DF8063001A92846ADF80450FFF7B0
:10C1900032FF002845D10146202206A800F0F6FF14
:10C1A00022460223ADF8183012F80C3B8DF81A30F5
:10C1B000BDF824301E4E6088079623F44F6323F0A9
:10C1C0000F0343F440632B4306A9ADF824308DF8E8
:10C1D00029508DF82A50FFF7D0FC10BB01462022D1
:10C1E00006A800F0D3FF22460323ADF8183012F85A
:10C1F000043B8DF81A30BDF824306088079623F48C
:10C20000875323F01F0343F480532B43ADF82430AE
:10C2100006A940F201138DF82950ADF82A30FFF736
:10C22000ACFC0FB0F0BD0E20FBE700BF88E20200BF
:10C23000F4000100F0B50F4687B016461C460546CF
:10C2400018B3406901AA1946FFF755FCD8B94FF653
:10C25000FF739C421BD0019BCBB11B78CBB13388C1
:10C26000F42B18D80146102202A800F08FFFAB88EB
:10C27000ADF8083002A901232046CDE904678DF806
:10C280000A30FFF7BCFE07B0F0BD0E20FBE705202B
:10C29000F9E70820F7E70720F5E710DF704700000F
:10C2A00013B5044609496846FCF787FF019808B9A9
:10C2B00002B010BDD0E900212046904718B1684671
:10C2C000FCF785FFF2E71120F2E700BFA4E20200CD
:10C2D00013B5044607496846FCF76FFF019B0BB98D
:10C2E00002B010BD2046D3E9002190476846FCF714
:10C2F0006EFFF3E7BCE202000B4991F816335A09CE
:10C30000EC231341DB0706D5084B9A683AB94FF482
:10C3100080030B60704742F20200FBF727BE1A68E9
:10C3200042F480021A60704700E100E0E8A50220B4
:10C33000F7B5194F3C7864BB184E0125204635707F
:10C34000FFF7AEFF112821D02046FFF7C1FF144BA5
:10C350008DF80340186801900DF10300FCF79EF979
:10C36000104901A8FFF799FF0446B0FA80F0400990
:10C3700038709DF80300FCF7B5F93CB90A4B3470EE
:10C380001C70FFF7B9FF2846FFF7A2FF204603B055
:10C39000F0BD0824FAE700BF8DAA02208CAA022073
:10C3A000A0E20200897F02008EAA0220014B1878C9
:10C3B000704700BF8DAA022007B508496846FCF700
:10C3C000FCFE019B13B903B05DF804FBD3E9002028
:10C3D00090476846FCF7FBFEF3E700BFB0E20200BF
:10C3E000FFF7EABF60DF704769DF704761DF7047C2
:10C3F00030B5114DADF5017D4FF4FA740DF1020128
:10C4000003A8ADF80240FFF7F1FF70B9294601A873
:10C41000FCF7D3FE029B002BF0D003A8D3E9002148
:10C42000904701A8FCF7D3FEF4E7052801D0FBF7FD
:10C430009DFD0DF5017D30BD44E50200024B1B78EA
:10C440000BB1FFF7D5BF70478FAA022030B5054664
:10C4500085B00C46002900F0B5805B4B0B600C22C8
:10C46000002101A800F092FE01238DF80630226819
:10C470008DF80450062301A92020ADF80830FFF7FD
:10C48000B3FF60B1FCF7F4FE504B514902465148EE
:10C490001B1ADB081B0443F00100FBF791FA0C2286
:10C4A000002101A800F072FE01238DF805302268FA
:10C4B000002301A94020ADF80630FFF795FF60B1D9
:10C4C000FCF7D6FE414B4449024642481B1ADB08A2
:10C4D0001B0443F00100FBF773FA0C22002101A8B2
:10C4E00000F054FEF72322688DF8045001A92320A0
:10C4F000ADF80630FFF778FF60B1FCF7B9FE334BBB
:10C500003649024633481B1ADB081B0443F001007E
:10C51000FBF756FA0C22002101A800F037FE01209B
:10C5200022688DF8040001A9FFF75EFF60B1FCF7F7
:10C530009FFE264B2A49024626481B1ADB081B048D
:10C5400043F00100FBF73CFA0C22002101A800F0A7
:10C550001DFE4FF4B0632268019301A9A120FFF7EB
:10C5600043FF60B1FCF784FE184B1E490246194890
:10C570001B1ADB081B0443F00100FBF721FA0C2215
:10C58000002101A800F002FE9DF8043022686FF33C
:10C59000000301A9A0208DF80430FFF725FF034612
:10C5A00068B1FCF765FE094B0F49024609481B1AA2
:10C5B000DB081B0443F00100FBF702FA00231846D6
:10C5C00005B030BD0E23FAE7E82A0020A4D9020006
:10C5D000C8E2020044D902000EE302005AE302005E
:10C5E000A1E30200EDE302003EE4020073B505465C
:10C5F0000668FFF7F7FE2B68B34204461DD91A48B8
:10C600001A4B1B491B1ADB081B0443F00200019064
:10C61000FBF7D2F92B68174901983246FBF7D9F995
:10C620004FF080532A68D3F80C31134901989B02CC
:10C6300003F100539A1AFBF7C3F92CB90F4B0122EF
:10C640001A70204602B070BD2046FCF711FE074B61
:10C650000B49024604481B1ADB081B0443F0010087
:10C66000FBF7AEF9EDE700BF44D90200A4D9020000
:10C6700091E40200C0E40200F1E402008FAA02206B
:10C680001BE502004BDF70471FB50D4C01A8FFF7FB
:10C69000F9FF70B9214602A8FCF78FFD039B002B20
:10C6A000F4D00198D3E90021904702A8FCF78FFD50
:10C6B000F4E7052801D0FBF759FC04B010BD00BF1A
:10C6C0005CE502002DE9F3414E0804460D4600EBFF
:10C6D00086060027B4420AD1EB0705D5B4F900302D
:10C6E000002BBCBF0023238002B0BDE8F0810422F0
:10C6F0000DEB0200214600F020FD019A02F080239C
:10C7000004F104084FEAF333D7FA13F322EA0303E0
:10C71000042220460DEB02010193444600F00DFD7A
:10C72000D8E72DE9F04F8FB015460993BDF860307A
:10C730000293BDF864300393099B05909B0807930F
:10C740001A9B03F108081B9B03F10809530800EB2F
:10C7500083021B010A93079B08920C460693069BD3
:10C7600013BB1B9B079A03EBC2081A9B03EBC20384
:10C770000193099B03F0030308EB43030693059B16
:10C78000AE084FEA450B04EBC60905F0030503EBC1
:10C79000C60606EB45030493069B984540F0878048
:10C7A00000200FB0BDE8F08F029A38F9083C38F944
:10C7B000047C38F9026C9340019338F9063C03FA83
:10C7C00002FB059B97409640A246089A934236D1B9
:10C7D0000A9B1C44EB0712D5B2F90030019822469F
:10C7E00032F8081B13FB01010191618813FB01BBA7
:10C7F000A18813FB0177E188144613FB0166039AB5
:10C80000019B134103F30F0329F8083C4BFA02F391
:10C8100003F30F0329F8063C069B013B9BB217412B
:10C82000164107F30F0706F30F0629F8047C29F8D1
:10C83000026C069308F1080809F108098FE7194608
:10C8400004220DA8049300F078FC049B04330B939E
:10C8500051460D9B049304220DA800F06EFC0D9A26
:10C86000049B019923FB021304220AEB02010DA889
:10C87000019300F062FC0D9A049B23FB02BB04228F
:10C880000AF108010DA800F058FC0D9A049B23FB47
:10C89000027704220AF10C010DA800F04EFC0AF107
:10C8A000100A0D9A049B23FB02660B9B8DE7019BEC
:10C8B000DDF814A033F9025B0193029B27469D40EB
:10C8C0004F454A460CD13346049999422DD1039BDA
:10C8D0005C441D41D94405F30F0528F8025B5BE772
:10C8E000394604220DA800F028FC0D9B0793042272
:10C8F00051460DA800F021FC0D9A079B22FB035521
:10C900000422B9180DA800F018FC04220D9B07930F
:10C910000AEB02010DA800F010FC08370D9A079BE6
:10C920000AF1080A22FB0355CAE733F8020B32F872
:10C93000021B10FB0155C7E776DF70477ADF7047AF
:10C940007CDF70477FDF70478FDF7047B1DF704754
:10C9500033DF7047FBF70ABB08B50020FEF7A2F8EB
:10C9600008B1FBF703FBFEF77FF908B1FBF7FEFA0E
:10C97000FFF7EEFF18B1BDE80840FBF7F7BA08BDB6
:10C980000388212B13B504463DD007D8112B2BD09B
:10C99000132B40D0102B0CD002B010BD522B42D024
:10C9A000562B01D03B2BF7D1A0881321FFF7C4FFF2
:10C9B00015E0214B21482249C01AC008000440F06C
:10C9C0000300FAF7F9FF0720FEF76CF808B1FBF750
:10C9D000CDFA1C4BA1881C481980FFF7B1FA00283A
:10C9E000DAD0FBF7C3FAD7E7134B14481749C01A3C
:10C9F000C008000440F00300FAF7DEFF114B4FF6C9
:10CA0000FF721A80C8E7002301A98088ADF80430BE
:10CA1000FFF79AFFE3E70B4800231A4685210088B9
:10CA2000FFF790FFDBE7074800231A461946008806
:10CA3000FFF78CFFD3E700BF44D902006CD9020096
:10CA400068E50200E29E022054B4022072E5020072
:10CA50000D4B4A881B889A4214D10A8840F67723E6
:10CA60009A420FD18B88094A09480A49033B9BB275
:10CA70001380094A801AC00800041A4640F00300D7
:10CA8000FAF7A7BF704700BFE29E0220E09E022097
:10CA90006CD902007FE5020044D9020008B5037892
:10CAA0004BB9054B3B211888FFF746FF18B1BDE88D
:10CAB0000840FBF75BBA08BDE29E0220072808B5D4
:10CAC00013D00A280DD0042819D10D4B1321188832
:10CAD000FFF732FF30F0080311D0BDE80840FBF744
