:020000022000DC
:1070000000000420757302005D7302005F730200CC
:1070100061730200637302006573020000000000E8
:107020000000000000000000000000006773020084
:1070300069730200000000006B7302006D730200B0
:10704000B98E02006F730200F19002006F730200AC
:107050006F7302006F730200718F0200B99B020010
:107060006F7302006F7302006F7302006F73020090
:107070006F7302006F7302006F7302006F73020080
:107080006F730200518102006F7302006F73020080
:107090006F7302006F730200A9AF02006F730200EA
:1070A0006F7302006F7302004D9B02006F7302004A
:1070B0006F7302006F730200000000000000000008
:1070C0006F7302006F7302006F7302006F73020030
:1070D0006F7302006F7302006F7302006F73020020
:1070E0006F7302006F7302006F73020000000000F4
:1070F000000000006F730200000000006F730200C8
:10710000000000000000000000000000000000007F
:10711000000000000000000000000000000000006F
:10712000000000000000000000000000000000005F
:10713000000000000000000000000000000000004F
:10714000000000000000000000000000000000003F
:10715000000000000000000000000000000000002F
:10716000000000000000000000000000000000001F
:10717000000000000000000000000000000000000F
:1071800000000000000000000000000000000000FF
:1071900000000000000000000000000000000000EF
:1071A00000000000000000000000000000000000DF
:1071B00000000000000000000000000000000000CF
:1071C00000000000000000000000000000000000BF
:1071D00000000000000000000000000000000000AF
:1071E000000000000000000000000000000000009F
:1071F000000000000000000000000000000000008F
:10720000354936480A1A02D0072291438D4634493F
:1072100034480A1A06D00722914381F309880222D2
:1072200082F3148830483149314A00F044F831483B
:107230003149324A00F03FF831483249324A00F0D1
:107240003AF832483249334A00F035F83248334987
:10725000334A00F030F833483349344A00F02BF811
:1072600033483449344A00F026F83448344900227F
:1072700000F02CF833483449002200F027F8334856
:107280003349091A082902DB002202604160314AB1
:1072900090471F481F49884205D00268043003B454
:1072A000904703BCF7E700208646EC46002000210B
:1072B000294A9047FEE7884207D0521A05D0037842
:1072C00001300B700131013AF9D17047884202D088
:1072D00002700130FAE770470000042000E003204C
:1072E0000000042000000420D8CE0200E82A00207C
:1072F000109F0220D0730200D0730200F0C1020080
:10730000D8CE0200E82A0020E82A00202CC3020080
:107310002CC302002CC302002CC302002CC30200A9
:107320002CC302002CC302002CC30200D7CE0200E3
:1073300000430500109F0220109F0220109F022092
:107340007CC602207CC602207CC602207CC60220AD
:107350007CE602209D730200F1B20200FEE7FEE728
:10736000FEE7FEE7FEE7FEE7FEE7FEE7FEE7FEE7F5
:1073700000F002B8FFF7FCBF0F484FF00701884349
:1073800085460E4880470E48016841F4700101604F
:10739000BFF34F8FBFF36F8FFFF732BF09480A4922
:1073A0000A4A884207D0521A05D0037801300B7080
:1073B0000131013AF9D170470000042051890200DF
:1073C00088ED00E02CC30200E82A0020E82A002013
:1073D0007047000007B5044B0093044A402300F0B7
:1073E00032F803B05DF804FBF1730200119F022034
:1073F0002DE9F84388461446B2B10F4B0F4E0325D2
:10740000002743F00109224608EB0701002003F0A2
:1074100015F80744241A48B933782BB14FF47A4051
:10742000C847013D02D13570BDE8F88301233370B0
:10743000002CE8D1F8E700BF30C30200109F022003
:10744000704703F02FB8F0B595B01D4616460846B4
:107450000C4601F0E1F91A9B0D93CDE90865002572
:107460002B46082205A920460A958DF82C500C952C
:1074700001F0EFF9079B0293069B03939DF81430EC
:107480008DF8115003F00302012A1DD1BDF814201C
:10749000059DC3F3C203C2F383168DF81030B2000A
:1074A00008230EA9204601F0D4F9C5F3952508ABB1
:1074B0000093324602AB0EA9284600F02BFB204673
:1074C00001F0AEF915B0F0BD022AF8D1BDF81650A2
:1074D000C3F3C203C5F389158DF810300827082DB2
:1074E0002E4628BF08263B4632460EA9204601F00C
:1074F000B0F9AD1B08AB02AA31460EA8374400F024
:107500006DFB002DEBD1DAE708B5FFF79AFF0448D1
:10751000042100F069FA034B01225A7108BD00BF33
:107520001CC30200E82A0020037813F0040216D0DE
:1075300003F00303012B03D0022B09D00120704775
:107540000A6800880232C0F3831002440A60F5E73B
:107550000B684288023303EB92130B60EEE7104690
:10756000704700002DE9F04F87B000230446861CC9
:107570000DF107000F4615468DF8073000F098FD15
:10758000404A51683960936803F580735B1A9246EC
:1075900002F21C4702F5836902F21448B3421AD37F
:1075A0000020002D69D004F00F039B0143F0050378
:1075B00063F30F00DAF80430DAB203321E444AF8FB
:1075C00022009DF80700CAF8046000F095FD012034
:1075D00007B0BDE8F08F0121384600F048FE48466C
:1075E00000F05DFE404600F05AFEDAF80800029016
:1075F000C0B203300AEB800002A9FFF795FF029B9F
:1076000030BBDAB20AEB8202D16803919A1C0133D3
:10761000DBB20AEB83030292D3F80CB001F0030350
:10762000012B22D0022B15D08346404600F03AFEB3
:1076300010B1029BCAF808305946384600F017FED0
:10764000DAF80830DAF8042003F580739B1AA5E70E
:10765000D8B2CEE7BDF80E30C3F3891303334FEA37
:107660001B4B02EB93030293DFE7BDF80C30C3F32F
:1076700083134FEA1B4B1344F5E7A40544F00600BF
:1076800098E700BF24A00220064B074810B500224F
:107690001A7001F07AF8044610B9044801F0E3F8D2
:1076A000204610BD24A0022070C202006CC302005C
:1076B00030B50A4C71B10A4A0A49121BD20800239C
:1076C0009A4201D1002030BD31F82350854202D0CA
:1076D0000133F5E7034654F83300F4E784C20200AF
:1076E0001CC30200E82A0020094B013903EBC0004B
:1076F000032909D8DFE801F00A02040604207047D4
:107700000079704740797047002070470220704729
:1077100084C2020070470000034BD3E90130C31A52
:1077200058425841704700BF24A002202DE9F04183
:1077300086B0FFF7F1FF0546002840F0E680744C64
:10774000C4F81804BFF34F8FA3680293DBB203336E
:1077500004EB830002A9FFF7E7FE029B18B1D4F8FF
:107760001824002A55D0DAB2991C013304EB8202A6
:10777000DBB204EB8303D268DB68049302F00303FB
:10778000022B039202914FD1BDF80E306148C3F332
:107790008917502F3E4628BF502666F38F1306F1F7
:1077A0000801ADF80E3001F008F80546002800F099
:1077B000978001F031F8002303A90822284601F040
:1077C0003EF80299CB43DBB20133C9B20331B6EBC9
:1077D000830F4FEA830804EB810122D90823424634
:1077E000A6EB0806284601F02AF8F6B24A4908F145
:1077F00008033246284601F022F8029B033703EBC8
:1078000097070297D4F81834002B41D1D4F81064AC
:1078100051E062689A4299D8A260284606B0BDE855
:10782000F08108233246E5E7012B59D1BDF80C3031
:107830003848C3F38311062928BF062161F3891351
:1078400002318900ADF80C3000F0B7FF0546002882
:1078500046D000F0E1FF0023082203A9284600F0EB
:10786000EEFF0026BDF80C20C2F38312B30096424F
:1078700003F10803C6D202994A1CC9B2033102922D
:1078800004EB81010422284600F0D9FF0136E9E724
:10789000284600F0C5FFFFF73FFF80F00100C5B2AA
:1078A000BBE7F3685B7923B1336829461B68304630
:1078B0009847F3681E68002EF3D1284600F0B0FF09
:1078C0000DF107008DF8076000F0F2FBD4F81834D2
:1078D0000BB9029BA3609DF8070000F00DFCDAE7EE
:1078E000D4F8104454B90D4B0D480E49C01AC008C5
:1078F000000440F0020000F05FF8CCE72368204667
:107900009B689847E3681C68ECE7002585E700BFA3
:1079100024A0022070C2020030A0022084C2020013
:10792000C4C2020054C302002DE9F34704460E46C8
:10793000924601A9012218469946FFF713FE1C4FF3
:1079400010B3019D4FF00008AA1CC84508EB0201C6
:1079500025D11848002100F05BFC80F310000004E2
:1079600040EA1440E4006B1C04F03804DBB2EDB2D2
:1079700044F0010407EB8303033544EA881444EA26
:107980008624D86047F825403B781BB1FFF7CEFE30
:107990000028FBD1FFF7BEFE02B0BDE8F087C9B2F8
:1079A00007EB81015AF82830CB6008F10108CCE7D9
:1079B00024A0022040A4022000231A46FFF7B4BFEF
:1079C00007B50123019201AAFFF7AEFF03B05DF8EE
:1079D00004FB07B5CDE9002302236A46FFF7A4FFA5
:1079E00003B05DF804FB000030B50F49D1F8102456
:1079F00003460020144634B9DC6820714AB9C1F846
:107A00001034226030BDE4682579854206D02468B0
:107A1000F1E7D268116821601360F3E701300A28AA
:107A2000E8D14FF0FF30EDE724A00220084A38B536
:107A30000123D2F8104413701D4604B938BDE36821
:107A40005D71236820465B689847E3681C68F4E72B
:107A500024A0022007B503460846197A052911D04B
:107A60005B7A2BB1094A0A49019000F07EFC01982B
:107A70000849019000F079FC019803B05DF804EB2F
:107A800000F068BC002AF8D0F2E700BF78C302001B
:107A90007DC30200AACB020030B5C38885B004467E
:107AA0000D4633B1144A00921449154A284600F095
:107AB0005CFC217A05291DD0637A4BB1A088FFF7C1
:107AC00013FE104B104953F82020284600F04DFCBF
:107AD000227A0E4BA08853F8222003920021FFF750
:107AE000E7FD039A0A490346284605B0BDE8304041
:107AF00000F03BBC05B030BD78C3020088C3020073
:107B000080C3020004C402007DC3020028C4020036
:107B1000A0C302002DE9F04385B01F460C9D002351
:107B200095F80C902B7306460C469046294638462D
:107B3000FFF7B2FFB8F1060F09D8DFE808F004122A
:107B4000181F283340003146284600F00EFC002262
:107B500029463846FFF77EFF85F80C9005B0BDE852
:107B6000F08322683146284600F0FFFBEFE7D4E9B6
:107B700000233146284600F0F8FBE8E7A3680093AD
:107B80003146D4E90023284600F0EFFBDFE7E36845
:107B90000193A36800933146D4E90023284600F0FE
:107BA000E4FBD4E723690293E3680193A36800939D
:107BB0003146D4E90023284600F0D7FBC7E76369C4
:107BC000039323690293E3680193A368009331460A
:107BD000D4E90023284600F0C8FBB8E708292DE9BE
:107BE000F74F80460E4617461C463CD8002593F8B2
:107BF0000C901D7319461046FFF74EFFDFF888A062
:107C0000DFF888B0AE4231D918F805205946204631
:107C100000F0ABFB0135082DF4D11949194DDFF8FF
:107C200070A0204600F0A1FB4FF0000B5E4522D96A
:107C300018F80B207E2A05D81046019203F0C2FEE8
:107C4000019A00B92E225146204600F08EFB0BF11E
:107C5000010BBBF1080FE9D1012221463846FFF79D
:107C6000F9FE84F80C9003B0BDE8F08F5146204631
:107C700000F07BFBCEE72946204600F076FBE6E7E6
:107C8000B4C30200B2C30200B0C30200AAC3020020
:107C9000B6C302001FB50021039001AA44F20100FF
:107CA000CDE9011100F004F805B05DF804FB000017
:107CB00010B572B6FFF7BAFEFFF738FD0028FBD10A
:107CC000104B114C1149E41AE408240444F001005B
:107CD000FFF772FE0E4B1B68DB0700D500BE0D4997
:107CE00044F00200FFF768FEBFF34F8F0A490B4BC9
:107CF000CA6802F4E0621343CB60BFF34F8F00BF4A
:107D0000FDE700BF84C20200C4C2020047C40200F3
:107D1000F0ED00E053C4020000ED00E00400FA05BD
:107D200049B152B1531E1A4007D18260016083806D
:107D3000C260104670470E2070470920704710B58A
:107D40008468C2688388121B934208D3C2681340B8
:107D50000268D154C3680133C360002010BD042001
:107D6000FCE78268C3689A420AD08268838813401D
:107D70000268D35C0B708368013383600020704716
:107D80000520704708B50B4800F0CCF90A4B0B49A9
:107D9000D3E900231218D1E9000143F100038B421B
:107DA00008BF824203D212F1807243F100031046F1
:107DB000194608BDF02A0020E0A40220F8A4022001
:107DC00037B505460C460A4801A900F0CBF960B169
:107DD0000570446001A9064800F0EEF918B10548A5
:107DE00000F0A4F9002003B030BD0420FBE700BF81
:107DF000E8A40220F02A0020F7B5054600240DF182
:107E0000070017460E468DF8074000F051F9D5E9F6
:107E10000223013308BFB2F1FF3F07D1FFF7B2FFE2
:107E2000801941F10001C5E9020101249DF8070014
:107E300000F062F94CB12B69AF6103B12E612946A4
:107E40000020FFF7BDFF03B0F0BD2046FBE737B5CC
:107E5000054600240DF107008DF8074000F028F9D1
:107E6000D5E9022301330FBFB2F1FF3F4FF0FF32DC
:107E70004FF0FF33C5E9022318BF01249DF8070026
:107E800000F03AF92CB129460120FFF799FF03B021
:107E900030BD2046FBE700000648074A0378074943
:107EA000D35C012213B1043001F0A8BD0C3001F005
:107EB00057BB00BFF82A002068A5022028A5022091
:107EC0000648074A03780749D35C012213B10430FE
:107ED00001F040BD0C3001F0F1BA00BFF82A0020DB
:107EE00068A5022029A5022037B50578012D0BD001
:107EF000022D2ED065B91E491E48FFF732FF00281B
:107F000032D1FFF7DDFF03E0037A1BB9FFF7C4FFAF
:107F100003B030BD4368184C19782046FFF70FFFB7
:107F200080B18DF800500190144B68461B6898474B
:107F3000A168E368A2885B1A9A42E7D2104B01223B
:107F40001A70E5E7A268E3689A42F1D08DF8000064
:107F5000EAE7C3688DF800500193FFF79DFF074BD8
:107F600068461B689847D3E703238DF80030F6E78F
:107F700029A5022018A5022004A5022000A50220A0
:107F800014A50220F0B51F46234B89B004461A60A1
:107F90000D4600293DD08A8820480968FFF7C0FEB9
:107FA000002834D1AA89A9681D48FFF7B9FE002826
:107FB0002DD11C4E0FCE6D460FC596E80F0085E8FB
:107FC0000F0063690693237C174A18488DF81C70CC
:107FD000003B18BF01238DF81430637C002B14BFC5
:107FE0000E2300238DF81530E3680293A3680393F2
:107FF0002368019369466368009300F0E3FE30B99B
:108000000B4B18702368013301D0FFF745FF09B00F
:10801000F0BD0720FBE700BF00A5022004A5022059
:1080200018A502206CC40200E97E0200F82A002094
:1080300014A5022070B5084D014608482E78FFF7B8
:1080400090FE044636B100232B70FFF725FF08B1E0
:10805000FFF720FE204670BD14A5022004A50220D3
:1080600010B501460E48FFF76AFE0446A8B90D4850
:108070000D4A0378D35C63B1043001F0B3FC60B9FE
:108080000A490748FFF76DFE38B9BDE81040FFF711
:1080900017BF0C3001F058FAF1E7204610BD00BFC1
:1080A00018A50220F82A002068A5022029A5022090
:1080B00070B5EFF3108672B60C4A946801239CB930
:1080C00093600B4B0B4DD3F8801029401160C3F81F
:1080D0008050D3F8841051604FF0FF32C3F88420F1
:1080E000047006B962B670BD0370FAE72CA50220D1
:1080F00000E100E0FC06FFBD084B9A6810B55AB1DC
:1081000050B9EFF3108172B6054A1C6814605C68C0
:108110005460986001B962B610BD00BF2CA5022062
:1081200000E100E00368D3F80405704790F90430DB
:10813000002B09DB5A09012103F01F0301FA03F3A5
:108140004032024941F82230704700BF00E100E0B0
:10815000024B034A1B681068184700BF40A5022065
:1081600038A5022037B550E8013F9DB2C4892544A7
:108170008489A54228BF2D1B0489A54202BFBFF3F5
:108180002F8F002207E0C5EA030540E80154002CC8
:10819000E9D14FF001028DF803200193019B9DF876
:1081A00003200B6002F0FF0322B10B880068184423
:1081B00003B030BD1846FBE70A884B889A4209D1C4
:1081C00050E8012FC2EA024240E80123002BF7D118
:1081D000012070470020704701F01F024B09012168
:1081E000914000EB830000F01EB801F01F03012254
:1081F0009A404B0900EB8300D14300F02CB84B09A7
:1082000001F01F0150F82300C84000F00100704742
:1082100010B5034653E8000F0A4643E8002494F0E3
:10822000000FF7D110BD10B5034653E8002F42EA06
:10823000010043E8000494F0000FF6D110BD10B522
:10824000034653E8000F00EA010243E8002494F0DB
:10825000000FF6D110BD10B5034653E8002F02EA17
:10826000010043E8000494F0000FF6D110BD10B5F2
:10827000034653E8002F02EB010043E8000494F0AA
:10828000000FF6D110BD10B5034653E8002FA2EB46
:10829000010043E8000494F0000FF6D110BD012165
:1082A000FFF7C1BF0021FFF7CABF10B590B1D0E9F9
:1082B000012301689B1ADBB20A60013BDBB2FF2B92
:1082C000026802D10020107110BD11684C1C1460AE
:1082D0000B70F2E70E20F7E737B5054600240DF1E5
:1082E00007008DF80740FFF7E3FE2A686B68116806
:1082F00099420ED9481E106011F8014CEB68298A8A
:1083000001FB0434AB6811791B1ADBB2994238BF08
:1083100013719DF80700FFF7EFFE204603B030BD54
:1083200037B5054600230DF107000C468DF80730E0
:10833000FFF7BEFE2A681368591C1160E968641AC9
:10834000298AB4FBF1F41C709DF80700FFF7D4FEF6
:1083500003B030BD826810B504462AB14369016894
:10836000006998470023A36010BD0EB403B50399BC
:1083700021B104AB01AA019300F076F802B05DF8D8
:1083800004EB03B070470A2938B504460D4602D104
:108390000D21FFF7F8FFA3682268591CA160D5548E
:1083A000D4E901329A4204D32046BDE83840FFF7B1
:1083B000D1BF38BD2DE9F84F9846DDE90A4315468F
:1083C00082460F460A464FF00109AA420FD2C14524
:1083D00038BFC14613F0010B01D16CB9002401264E
:1083E000B8F1010F1BD908F1FF386E43F8E709F126
:1083F0000109B2FBF5F2E8E79B070ED5B8F1000FD3
:108400000CBF30262026A145E9D2013C314650461A
:10841000FFF7B9FF002CF6D1E0E72026F3E7B7FB22
:10842000F6F39D42E1D9DFF83C80B7FBF6F3504606
:1084300018F8031006FB1377FFF7A5FF3346AB428E
:10844000B6FBF5F6F1D2BBF1000F02D00CB1A1459D
:1084500001D3BDE8F88F20215046013CFFF793FF80
:10846000F4E700BF8CC402002DE9F74F054617461C
:108470008846002900F0428118F8011B49B92B7B7E
:10848000002B00F03B81284603B0BDE8F04FFFF71A
:1084900061BF252940F0B780002698F800302D2BC9
:1084A000424608F1010823D0302B24D02B2B25D0B5
:1084B00000242A2B02F1010123D13B681A1D1B68FD
:1084C0003A601C440A4613782E2B26D101324FF015
:1084D000000A104610F8011BA1F1300CBCF1090F85
:1084E0001DD80A2303FB0A13A3F1300A0246F0E762
:1084F00046F00106D1E746F00206CEE746F0040654
:10850000CBE711F8013CA3F130000928DBD80A229F
:1085100002FB0434303C0A46CBE74FF0000A12F865
:10852000011B01F0FB0068289046F8D0782909D893
:108530006F290CD8632962D022D8252963D0582905
:1085400000F0888098F80030002B95D197E77039BB
:108550000829F7D801A353F821F000BFD7860200FD
:1085600045850200458502006586020045850200BA
:1085700043860200458502004585020055860200BB
:10858000642901D06929DDD13A68D2F80090111D23
:1085900089EAE9723960A2EBE9724FF0010B092A0E
:1085A00035DCD34538BFD3462CB1B9F1000F01DB20
:1085B000720700D5013CB30702D5BAF1000F03D012
:1085C000F00701D44CBB0024B9F1000F2DDAC9F13A
:1085D00000092D212846FFF7D6FE06F00302022AE5
:1085E00004D1BAF1000F01D11CBB0024CDE9004633
:1085F00053460A2249462846FFF7DCFEA2E73B68BD
:108600001A1D19783A602846FFF7BDFE9AE70A233B
:108610000BF1010BB2FBF3F2C1E7A345D4D2202149
:108620002846013CFFF7AFFECCE77107D5D52B21DB
:10863000D0E7A345DAD230212846013CFFF7A3FE5C
:10864000D2E73968CDE900460A1D3A6053460A224E
:108650000968D0E739680A1D3A60CDE900465346FB
:108660001022F5E73B681A1D3A6016F00106D3F8B0
:10867000009028D1B9F1000F03D0484603F06CFAFE
:108680000646B44200D904BB09F1FF3919F8011FAD
:1086900000293FF457AF2846FFF775FEF6E7284656
:1086A0000136FFF770FE19F806100029F7D1A6422F
:1086B000BFF448AF002C3FF445AF20212846013CD1
:1086C000FFF761FEF3E70026EDE720212846013C95
:1086D000FFF759FED5E73B681A1D3A60302128465E
:1086E0001C68FFF750FE78212846FFF74CFE002259
:1086F0000823CDE90032214610227CE703B0BDE813
:10870000F08F00BF2DE9F84FB0F806A04579D2F8F8
:1087100000B09DF828900AFB05F5043D88460BEB58
:108720000301A94203F1040488BFA5EB030BB4FBCA
:10873000FAF607460AFB1644C2F800B04EB9AAEB97
:1087400004055D4528BF5D46BBF1000F04D1BDE8BF
:10875000F88F3F68013EF1E7043408EB06003C4423
:108760002A46B9F1000F0DD02146ABEB050B03F003
:1087700075F9DA452E443F6855464FF0000428BF8E
:108780005D46E1E701462046EFE7FFF78EBDF8B50D
:1087900046790146721E0546002393422D6803D395
:1087A0000024A64202D8F8BD0133F6E70F68284638
:1087B000FFF7B6FD01343946F3E72DE9F843068AA1
:1087C000CD1C0746FFF788FD043E35440446B5FB43
:1087D000F6F5F0B14FF48073EDB28380C680013DB1
:1087E000076081464FF00008A84512D23846FFF7CF
:1087F00073FD064648B163790133637108F10108DE
:10880000C9F8000007608146EEE72046FFF7BFFF8A
:1088100034462046BDE8F88301210430FFF727BD28
:1088200010B5012104460430FFF72DFD10F0FF0FB5
:1088300004D12046BDE81040FFF7A9BF10BD1FB509
:1088400003920022009203AAFFF75CFF05B05DF8D7
:1088500004FB1FB503920122009203AAFFF752FF07
:1088600005B05DF804FB836800225A60C3E9042266
:108870009A60DA601A6070470B684A6843609342F6
:1088800008BF0023016008BF43607047436843B1DD
:108890000268916852680B449342436004BF00230E
:1088A0004360704710B50D49A1F59472914201D80B
:1088B00000200FE08C1AE30F03EBE4035B1002EBE4
:1088C000C30452F83330834205D802D204F10802BF
:1088D000ECE7606810BD2146E8E700BFA4C90200CC
:1088E00008B5FFF7DFFF024B002808BF184608BD98
:1088F00068C8020010B50446C0B2FFF7B1FB2046BD
:1089000010BD0000034B1868A0F1080358425841FD
:10891000704700BF30010010064B1B68082B06D1C2
:10892000054B1B68052B02D8044AD05C7047002019
:10893000704700BF3001001034010010AAC90200C6
:10894000024AD2F80034002BFBD0704700E001400F
:1089500010B5FFF7D7FF40B14FF080430022C3F8B6
:108960000C21C3F81021C3F83825FFF7CBFF0028EE
:1089700046D04FF08052614BD2F80414C3F8201552
:10898000D2F80814C3F82415D2F80C14C3F828152B
:10899000D2F81014C3F82C15D2F81414C3F83015FB
:1089A000D2F81814C3F83415D2F81C14C3F84015C3
:1089B000D2F82014C3F84415D2F82414C3F848158B
:1089C000D2F82814C3F84C15D2F82C14C3F850155B
:1089D000D2F83014C3F85415D2F83414C3F8601523
:1089E000D2F83814C3F86415D2F83C14C3F86815EB
:1089F000D2F84014C3F86C15D2F84424C3F870259B
:108A0000FFF78AFF10B13E4B3E4A1A60FFF784FF22
:108A100018B13D4BFB22C3F81825FFF77DFF48B185
:108A20003A493B4B0A681B6822F00F0203F00F0320
:108A300013430B60FFF770FF18B1364B4FF4007211
:108A40001A60FFF75FFF48B14FF08043D3F800246E
:108A5000D20744BF6FF00102C3F800242E4AD2F8B7
:108A6000883043F47003C2F88830BFF34F8FBFF3F0
:108A70006F8F2A4B1B68082B0ED1294B1B68052BC7
:108A800002D8284AD35C3BB14FF01023D3F8082218
:108A90004FF08043C3F858254FF01023D3F800223D
:108AA000002A03DBD3F80432002B22DA1E4901230B
:108AB000C1F80435FFF744FF4FF010201224C0F82E
:108AC0000042FFF73DFFC0F80442FFF739FF0023E3
:108AD000C1F80435FFF734FFBFF34F8F0E49134B36
:108AE000CA6802F4E0621343CB60BFF34F8F00BF4C
:108AF000FDE70F4B0F4A1A6010BD00BF00C00040D9
:108B00008C5600404881030000F00040E40E004015
:108B1000580200104096024000ED00E030010010C5
:108B200034010010A4C9020000E001400400FA056D
:108B30000C2B00200090D003074B1B5C1F2B8ABF1F
:108B4000064A4FF0A04203F01F03D2F80405D840B4
:108B5000C04300F001007047B0C90200000300509C
:108B6000074B1B5C1F2B86BF064903F01F034FF00A
:108B7000A041012202FA03F3C1F80C35704700BF8F
:108B8000B0C9020000030050074B1B5C1F2B86BFBF
:108B9000064903F01F034FF0A041012202FA03F33C
:108BA000C1F80835704700BFB0C90200000300508B
:108BB00008B50020FFF7E8FF0120FFF7E5FF0220DE
:108BC000FFF7E2FFBDE808400320FFF7DDBF08B56F
:108BD0000020FFF7C5FF0120FFF7C2FF0220FFF7CB
:108BE000BFFFBDE808400320FFF7BABF0A4B185C7F
:108BF0001F288ABF094B4FF0A04300F01F00D3F895
:108C000004250121814021EA02000A40C3F8080539
:108C1000C3F80C25704700BFB0C902000003005024
:108C200038B5074C051E04F1080318BF1C4623681D
:108C30002BB11A6822605B6828469847F7E738BD71
:108C40004CA5022020B9054B01225A70FFF7E8BF5E
:108C5000012802D1014A9070F8E7704744A502202C
:108C600020B9034B01225A70FFF7DABF704700BFEB
:108C700044A5022038B50E4C2378B3B90D48636083
:108C8000A3602361E36000F0E5F8054602F072F9A5
:108C900008B900F0EBF801232370074BD3F8003438
:108CA0000BB10123A370284638BD8525F5E700BF29
:108CB00044A50220458C02000000014037B50D4C50
:108CC00000230DF107008DF80730FFF7F1F9E36895
:108CD000013BE360E36833B9074BD3F8005415B99F
:108CE00000F0D6F8A5709DF80700FFF705FA03B06D
:108CF00030BD00BF44A5022000000140012813B58B
:108D00000CD0032820D038B9124B0122C3F88020A0
:108D1000BFF34F8FBFF36F8F02B010BD0E4C002317
:108D20000DF107008DF80730FFF7C2F923780BB972
:108D3000FFF7A0FFE3689DF807000133E36001231C
:108D4000A370FFF7D9F9E7E700F090F8FFF7B6FF57
:108D5000E2E700BF00E100E044A502201FB5037870
:108D60008DF800304368019383688DF80830C3683C
:108D7000054A0393054B684653F8213052F82110F9
:108D8000984705B05DF804FB58A5022060A50220B5
:108D90001FB503788DF800304368019383688DF820
:108DA0000830C368054A0393054B684653F82130E1
:108DB00052F82110984705B05DF804FB58A5022031
:108DC00060A50220F0B5194B90F800C0DFF86CE008
:108DD00043F82C20164B16460A6943F82C204B7F8B
:108DE0000EF80C300C4607460FCC89B06D460FC507
:108DF00094E80F0085E80F001EF80C30CDF810C085
:108E00004BB1002E0B4A694608BF3246381D00F0B0
:108E1000C3FC09B0F0BD002E074A694608BF3246C0
:108E200007F10C0000F078FAF3E700BF60A502201C
:108E300058A502205D8D0200918D020068A50220D8
:108E400000F18040002382B0036003680193019B1E
:108E500002B07047044A137923B901211060918050
:108E600018467047852070476CA50220074B1A688A
:108E7000D20704D4C02283F8002301221A604FF0E5
:108E800080430122C3F81825704700BF00E100E0CD
:108E90004FF0804208B50223C2F808334FF48270C5
:108EA000FFF7CEFF034B01211960D2F81834DB0322
:108EB000FBD408BD0C000040124B1B6810B573B109
:108EC0004FF48070FFF7BCFF4FF080430122C3F8DE
:108ED00008230D4B587910B95A711B6898470B4BF2
:108EE0001B6873B14FF48270FFF7AAFF4FF0804305
:108EF0000222C3F80823044BBDE810401B68012080
:108F0000184710BD000100406CA50220040100407C
:108F100000F1804000F5C040002382B00360036888
:108F20000193019B02B0704703681F2B83BF03F0BE
:108F30001F03036001484FF0A0407047000300503A
:108F400007B5019001A8FFF7EFFF019B00EB83003D
:108F5000D0F8003723F44033C0F80037D0F800379A
:108F600043EA0141C0F8001703B05DF804FB0000BC
:108F70002DE9FF470024CDE90244584D4FF480729B
:108F8000012102F1804303F5C04390B21B68012B1D
:108F900006D1D5F804330B4202D0FFF7B9FF0C43DA
:108FA0000432B2F5907F4FEA4101EAD14C4B1B6885
:108FB000012B11D14FF4BE70FFF7AAFF4FF0A04371
:108FC00044F00044D3F820250292C3F82025D3F8BA
:108FD00020280392C3F8202814F0FF0F1AD0414F25
:108FE00000250126344210D0AB0003F1804303F585
:108FF000C043D3F81005D3F8101557F8253023B126
:10900000C1F30141C0F3052098470135082D4FEA0F
:109010004606E7D1002C59DA324D334C334E4FF02F
:109020000008012716F9013B5A1C3CD0C3F3C201CA
:1090300004A801445FFA83F911F8081C03F03F0209
:1090400003F0070307FA03F319422CD001A8019299
:10905000FFF76AFF019B03F5E07350F82330C3F379
:10906000014ABAF1020F10460CBF03210221FFF79B
:1090700067FF01A80192FFF757FF019B07FA03F36F
:10908000C0F82035AB1893F9303055F8233053B180
:109090004FEA9911032904D0BAF1020F19D101291D
:1090A00001D11046984708F10108B8F1040FB9D171
:1090B0004FF0A043D3F820250292C3F82025D4F81E
:1090C00020350393C4F820351343A7D104B0BDE87D
:1090D000F087BAF1030FE6D10229E1E70060004012
:1090E0007C61004074A5022000030050D4A502203A
:1090F000014B1B68184700BFE0A502200E4B9842A9
:1091000037B50C4602D0002003B030BD00230DF16E
:1091100007008DF80730FEF7CBFF084B1D7915B916
:1091200001221C601A719DF80700FEF7E5FF002D73
:10913000E9D01120E8E700BF00200040E0A50220B0
:109140000023435082B043580193019B02B0704703
:109150000A4610B54FF48E71FFF7F2FF136A91685B
:10916000C95C136A01331362C0F81C1510BD0246B6
:1091700008B500684FF49271FFF7E2FF4FF4847175
:109180001068FFF7DDFF136801221A6008BD8B69C4
:109190000A4610B54FF4847123B9FFF7D1FFD0F818
:1091A000183510BDFFF7CCFF536AD168D0F8180509
:1091B000C854536A01335362F3E700001FB501231B
:1091C0008DF80030044BCDE90110D3E90012684658
:1091D000904705B05DF804FBE8A5022030B54C4887
:1091E000D0F8043313F4007F85B005464DD0D0F895
:1091F0002431002B49D04FF49271FFF7A1FF4FF4B7
:109200000173C0F80833434B93F829200AB90122AF
:1092100042603F4902228DF80020D1F88024C1F835
:10922000802403929A690292DA6801920022C3E9CB
:1092300006226846D3E9001290473548D0F81C3121
:109240005BB134494A690B6A9A420A464AD991F895
:109250002830002B46D1FFF77BFF2D48D0F8443152
:109260008BB14FF4A271FFF76BFF2A4B93F82920C3
:109270000AB1012202609A692AB10022586AD968AB
:109280009A61FFF79BFF05B030BDD5F804335B074B
:10929000D3D5D5F80831002BCFD01E4C1C48214621
:1092A000FFF775FF636AA2699A422346C5D1E26956
:1092B000E1684AB12369E3600023606AA261E36167
:1092C0006362FFF77BFFB8E794F829200AB901220F
:1092D0006A600F4A4FF40170C2F808030022586A0E
:1092E0009A61EEE70A484FF48E71FFF729FF536940
:1092F000002BB2D051690291002391688DF80030A3
:10930000019153616846D2E900139847A5E700BF71
:1093100000200040E8A502202DE9F843614B0579C3
:1093200091462C2202FB0532064692F82A200C4672
:109330009846002A40F0B1805B490068FFF7DEFEE6
:109340000746002840F0AB8021684A1C10D01F2936
:1093500087BF564A01F01F030B464FF0A042012081
:10936000984003F5E073C2F80805032042F8230093
:109370006068431C0DD01F288BBF00F01F030346FD
:109380004A4A4FF0A04203F5E0734FF0000C42F858
:1093900023C03368A269C3F8242594F814C0627D01
:1093A000BCF1010F4CEA0202C3F86C25C3F81405A6
:1093B000C3F80C152BD1A168481C0DD01F298BBFF9
:1093C00001F01F020A4639484FF0A04002F5E07252
:1093D0004FF0000C40F822C0E068421C13D01F2858
:1093E00087BF324A00F01F0C84464FF0A0424FF076
:1093F000010E0EFA0CFE0CF5E07CC2F808E54FF009
:10940000030E42F82CE0C3F80805C3F810152C230E
:109410006B4308EB0302C2F80490226948F803206A
:10942000B9F1000F21D03068247F4FF48E71FFF71F
:1094300087FE4FF4A2713068FFF782FE32681C4B42
:10944000C2F80433110B42F307326301002ADBB286
:109450001EDB1848841884F800330123520901F0F8
:109460001F0103FA01F140F8221033680422C3F807
:1094700000252C2303FB05830022C3E9062283F881
:1094800029205A61012283F82A203846BDE8F88352
:10949000094A01F00F015354E7E70827F5E71127C0
:1094A000F3E700BFE8A50220DD91020000030050B1
:1094B0008000020000E100E014ED00E02DE9F0473B
:1094C000204F90F804904FF02C0808FB09740546D3
:1094D0006669002E34D162610068A16026624FF493
:1094E0008E7184F82860FFF72BFE286801238360C3
:1094F0002146FFF72DFE6368A0468BB92868D4F893
:1095000014A0236A9A4511D82A68D2F81C31002B7E
:10951000FBD00123D3602C2303FB097300225A6183
:109520003046BDE8F08794F828303BB9D0F81C31BC
:10953000002BF8D04146FFF70BFEE2E70F26EAE7E3
:109540001126EDE7E8A502200379044A2C2101FB4E
:1095500003235869003818BF01207047E8A502208E
:109560002DE9F843394F05792C2303FB0573064693
:109570005C6824B103684FF40170C3F808032C231E
:1095800003FB0573986950B1D86900283ED024B117
:1095900033684FF40172C3F80423112433E09A6155
:1095A000D9605862D8612C2303FB057393F82930E6
:1095B0001BB910B93046FFF7DAFD4FF02C0909FB53
:1095C00005783068D8F80430002B34D14FF4A271FC
:1095D000C146FFF7B5FD3068D0F82431D0F8082136
:1095E000D0F84441B2B90CB9002BF4D02C2202FBC4
:1095F00005750022AA6123BB2CBB95F8291033689E
:109600000122B1B11A602046BDE8F8831961DA6120
:109610000120C8E7002BE9D1002CE7D14946FFF72C
:10962000B6FDD8F82430D8F818209A42D3D823466B
:10963000DCE75A60E7E74FF40173C0F80433002415
:10964000E1E70324DFE70F24DDE700BFE8A5022000
:109650000023435082B043580193019B02B07047EE
:109660001FB501238DF80030044BCDE90110D3E97B
:1096700000126846904705B05DF804FB14A602206E
:109680007FB5434AD2F82461002E60D010464FF4D3
:109690009271FFF7DDFF02238DF80030D2F880349D
:1096A000C2F880340393D2F83C350293394BDA6820
:1096B00001920022C3E906226846D3E900129047CE
:1096C0003348D0F8443173B14FF4A271FFF7C0FFB3
:1096D000304B9A693AB10022C3E90622D968D0F822
:1096E0003C05FFF7BDFF2A48D0F82031ABB14FF45D
:1096F0009071FFF7ADFF0123C360264B5A6962B139
:10970000D0F84C150291002299688DF80020019143
:109710005A616846D3E9001290471D48D0F8583185
:109720009BB14FF4AC71FFF793FF1A4B5A6962B1CA
:10973000D0F84C150291002299688DF80020019113
:109740005A616846D3E90012904704B070BDD2F860
:109750001031002BB4D04FF488711046FFF778FF1A
:109760000C4BD2F83C0599698842A9D1DC69D968CB
:1097700064B1D2F8005225F02005C2F800521A69EF
:109780009C61DA60DE61FFF76BFF99E79C61FAE7A5
:109790000020004014A602202DE9F843674B06790B
:1097A0009146242202FB0632044692F820200D4600
:1097B0009846002A40F0BE8061490068FFF79EFC91
:1097C0000746002840F0B8802868421C10D01F28A7
:1097D00087BF5C4A00F01F0303464FF0A0420121FF
:1097E000994003F5E073C2F80815032142F82310ED
:1097F00069684B1C0DD01F298BBF01F01F030B465E
:10980000504A4FF0A04203F5E0734FF0000C42F8CD
:1098100023C02368AA69C3F8242595F814C06A7D7B
:10982000BCF1010F4CEA0202C3F86C25C3F80C0529
:10983000C3F814152BD1A968481C0DD01F298BBF64
:1098400001F01F020A463F484FF0A04002F5E072C7
:109850004FF0000C40F822C0E868421C13D01F28CB
:1098600087BF384A00F01F0C84464FF0A0424FF0EB
:10987000010E0EFA0CFE0CF5E07CC2F808E54FF084
:10988000030E42F82CE0C3F80805C3F81015242392
:10989000734308EB0302C2F804902A6948F80320D6
:1098A000B9F1000F30D020682A7F4FF48871FFF79C
:1098B000CFFE20684FF49071FFF7CAFE20684FF486
:1098C0009271FFF7C5FE20684FF4A271FFF7C0FE4A
:1098D0004FF4AC712068FFF7BBFE23681A49C3F848
:1098E0000413190B43F307335201002BD2B21CDBD4
:1098F0001648C51885F8002301225B0901F01F01F5
:1099000002FA01F140F8231023680822C3F8002569
:10991000242303FB06830022C3E906225A610122A5
:1099200083F820203846BDE8F883094B01F00F0189
:109930005A54E9E70827F5E71127F3E714A60220B0
:1099400081960200000300501003420000E100E095
:1099500014ED00E001F06043B3F1005F2DE9F04148
:10996000064638D11E4B0779242505FB0735984656
:109970006C69002C31D16A610068A9604FF4907164
:10998000FFF766FE4FF4AC713068FFF761FE336895
:109990006A69A968C3F84415C3F8482501229A608A
:1099A0006A68AAB9D3F82021D3F858411AB9002C13
:1099B000F8D00F2407E0002CFBD10122DA60D3F8A5
:1099C0005821002AFBD0242303FB078700237B6157
:1099D0002046BDE8F0811024FAE71124F8E700BF23
:1099E00014A602200379044A242101FB03235869A9
:1099F000003818BF0120704714A60220F8B501F006
:109A00006043B3F1005F04460F465ED10379304DE9
:109A1000242101FB0351496821B100684FF4047609
:109A2000C0F80863242000FB03539E6956B1D8692F
:109A3000002839D021B123684FF40472C3F80423FD
:109A4000112030E09A61DF60DE6120684FF4887198
:109A5000FFF7FEFD20684FF4A271FFF7F9FD2368C0
:109A6000C3F83475C3F8382516BB01221A60217972
:109A7000242202FB015252680ABBD3F81041D3F8EA
:109A80004421D3F82401144302D10028F5D0224602
:109A9000242303FB01550023984218BF03209A4258
:109AA000AB6118BF0F20F8BD1F61DA610126CCE75A
:109AB000D3F8002242F02002C3F80022D7E74FF487
:109AC0000472C3F804230020EDE71020EBE700BF89
:109AD00014A60220036801221A600379034A0C21AC
:109AE00001FB032302221A72704700BF38A602202E
:109AF00037B54FF4803400688C407BB18B0003F5A0
:109B0000A0730025C550C3580193019BC0F80443BE
:109B100001F5A87140F8212003B030BDC0F808431A
:109B2000F6E770B4046840F20116D4F800528E4093
:109B300025EA0605C4F80052D4F800522B43C4F8B5
:109B400000329DF80C3070BCFFF7D2BF2DE9F34115
:109B5000104C114F114E00254FF48038236883B10B
:109B6000D7F8043308FA05F21A420AD0002323601A
:109B70002368019304F5C040019B80B2D6E900310F
:109B800098470135062D04F10404E7D102B0BDE881
:109B9000F08100BF40A1014000A0014038A6022092
:109BA00000F1804000F5E040002382B003600368CC
:109BB0000193019B02B07047F0B5504B504C1B68AD
:109BC00085B0002B3DD04FF4827094F82E20FFF723
:109BD000E7FF2AB394F82F3013BB4A4B1B68002BC6
:109BE00033D04FF48070FFF7DBFF638B94F82D10B8
:109BF0008B424FD922895B1A9BB292B26383D31AEC
:109C0000626802EB4303404AC2F82C36C2F83016B1
:109C10004FF48270FFF7C4FF3C4B01221A6014E03E
:109C2000636802932389ADF80C30E36800218DF856
:109C3000041023BB2374236801A89847002384F8E9
:109C40002F3094F82E30002BC7D1314B1B685BB1FD
:109C50004FF48870FFF7A4FF0023237402238DF8CC
:109C6000043001A8236898472A4B1B68EBB14FF4D6
:109C70008A70FFF795FF0023237405B0F0BD208B99
:109C8000608363602081E160002AD4D11E4B0122F1
:109C90001A60D0E7BCD1E368012284F82F2013B109
:109CA00000226283AFE76383B2E766694FF0004743
:109CB0000125002EE1D0B6FA86F227FA02F34632E9
:109CC000920026EA030602F1804303F5E0431B6895
:109CD000002BEED01046FFF763FFA2F58C72D3087D
:109CE00082F00402C2F380028DF808308DF804502F
:109CF00023688DF8092001A89847DAE7047100402D
:109D000044A6022000710040007000400470004032
:109D1000107100401471004038B5204A92F82C3080
:109D20000446002B37D111601D490078C1F8F005B9
:109D30006078C1F8F4050125137482F82D30536161
:109D400082F82F30E07882F82E006FF0004382F81E
:109D50002C504FF48270C1F80833FFF721FF4FF405
:109D60008070FFF71DFF4FF48A70FFF719FFA3788B
:109D70000C485B01DBB280F80733802303600223C9
:109D8000C1F8043392F82E300BB1C1F80453C1F876
:109D90000055002038BD0820FCE700BF44A6022083
:109DA0000070004000E100E030B5224B1A7C002A30
:109DB0003ED100F10C0403EB4402127922B993F86E
:109DC0002D20013283F82D2003EB4403CA790C7A4D
:109DD0008D781A715C714B782D021B0105F4E065DA
:109DE00003F030032B430D7805F003052B43CD78AA
:109DF0002D0305F480552B430D792D0405F4E02542
:109E00002B434D7989792D0505F48015090601F05C
:109E100080712B430B43010101F1804101F5E041C9
:109E20000020C1F81835C1F81445C1F8102530BD1F
:109E30001120FCE744A60220054B93F82E30002B9E
:109E400014BF0020042000F1804000F5E04070477E
:109E500044A6022070B5264A264B05461220C2F8B9
:109E600008031C7C022C03D1C2F80403112070BD2E
:109E7000187C01281DD1D86818B10223C2F8043318
:109E8000F4E7DD60198393F82E3063B91A4A13683A
:109E9000002BFCD04FF48070FFF782FE144BC3F808
:109EA0002C56C3F83016124B0222C3F804230020AC
:109EB000DDE7022093F82E40C2F8040301260020BB
:109EC0001E745D601981D8603CB1598393F82D30C0
:109ED000C2F82C56C2F83036C9E7C2F82C564FF4F7
:109EE0008070C2F83016FFF75BFE20461660BEE7B2
:109EF0000070004044A60220007100402DE9F74F99
:109F00004FF00009154D164F06464FF0040AC8469B
:109F10005FFA89FB01240DF1070004FA0BF48DF8B8
:109F20000780FEF7C5F82C4208D03B6814EA03020C
:109F300001BF23433B6086F800B092469DF80700BE
:109F4000FEF7DAF8BAF1000F03D0A54309F10109D1
:109F5000DED1504603B0BDE8F08F00BFFFFF010027
:109F600074A6022010B5A1B19AB101238340C3F3B6
:109F7000100484B10A4C246823420ED0C00000F1C2
:109F8000804000F5F830C0F81015C0F81425002006
:109F900010BD0E20FCE70720FAE70820F8E700BF15
:109FA00074A60220012202FA00F3580C400440B9C2
:109FB0001BB1064A1268134205D0054AC2F804359F
:109FC0007047072070470820704700BF74A6022022
:109FD00000F00140034B187810B901221A70704745
:109FE0008520704778A6022008B5094B1B7853B12D
:109FF0000020FEF7C9FD0120FEF7C6FDBDE80840C0
:10A000000320FEF7C1BDBDE80840FEF7D1BD00BF8B
:10A0100079A60220F8B57B4C237805461BB10023B6
:10A020002370FFF7E1FF172D00F28880DFE805F0CD
:10A030000C17174354657680888D888D959A9A9A67
:10A040009A9AC4C9D1D9E4E4FFF7CEFF6E48FDF770
:10A05000FEFE6E4B002204461A702046F8BD00201A
:10A06000FEF76AFDF8B10020FEF78EFD022D0CBF51
:10A070004FF4E1614FF47A61644B1D704FF400407E
:10A080004FF47A740025E0FB01454FF4FA62002397
:10A090002046294601F0A2FB00220146BDE8F84017
:10A0A0005948FDF7A9BEFEF75BFD022D0CBFC82184
:10A0B0004FF4C871E0E70020FEF73EFD40B10020FC
:10A0C000FEF762FD4FF44871504B03221A70D5E73A
:10A0D000FEF746FDC821F7E70020FEF72DFD38B159
:10A0E0000020FEF751FD4FF47A61484B0422EDE762
:10A0F000FEF736FD4FF4C871F7E70020FEF71CFDB0
:10A1000048B10020FEF740FD404B05221A7040F692
:10A11000CD410022C2E7FEF723FDF5E70020FEF760
:10A1200065FD3A4B06221A70002240F26661B5E7DF
:10A130000020FEF715FD354B07221A7000248CE72E
:10A1400001202070FEF752FDEEE701202070FEF79F
:10A150004DFD00224FF40051A0E7FEF738FD2B4BD8
:10A160000C22EAE72A482B4EFDF771FED5F11105C6
:10A1700004461CD0D8B9012D13D0C8235D434FF439
:10A1800000474FF47A7000214FF4FA620023C7FBB6
:10A19000050101F023FB224601461D48FDF72CFE78
:10A1A00004460220FEF7DCFC0123337055E7022051
:10A1B000FEF7EAFC0023F8E7FFF716FF134B122225
:10A1C000BBE7FFF711FF0020FEF7CAFC0F4B13227D
:10A1D000B3E7FFF709FF0120FEF7C2FC0B4B142287
:10A1E000ABE7FFF701FF0020FEF7BAFC0120FEF706
:10A1F000B7FC064B1522A0E7FEF7E9FC034B1D70E8
:10A200009CE700BF8CA60220302B00208DA60220E8
:10A21000102B002079A60220044B1B6813F00103C9
:10A2200001D0FFF7F7BE1846704700BF88A602208E
:10A23000032811D8012A0AD101290FD100F10E02F9
:10A24000D2B20D4B00EB40001A5400207047012998
:10A25000F7D0022904D049B1072070470022F8E75F
:10A26000054B00EB400018444270EEE7024B00EB58
:10A27000400018448270E8E77AA6022008B501225F
:10A2800002210020FFF7D4FF08B1072810D10722D0
:10A2900002210120FFF7CCFF08B1072808D10021D7
:10A2A0000A220846FFF7C4FF10B1072808BF0020A4
:10A2B00008BD00000388102B10B502D0112B1ED052
:10A2C00010BD1A4C2168B1B901220846FFF7B0FF52
:10A2D00008B1072824D1072202210120FFF7A8FF97
:10A2E00008B107281CD1042202210020FFF7A0FF9B
:10A2F00008B1072814D1236801332360E0E70B4A33
:10A300001368013B1360002BDAD1FFF7B7FF002879
:10A31000D6D0074B1B68002BD2D0BDE810401847A1
:10A32000034B1B68002BE6D09847E4E794A6022075
:10A3300090A602200369C1688B429DBF8268D21833
:10A3400002F1FF3203F1FF3394BF501A581A7047DD
:10A350002DE9F843D0E902940546A9EB04084068CA
:10A36000904520440F46144404D901F077FBEC607B
:10A37000BDE8F8834246A4EB090401F06FFB68686E
:10A38000224607EB0801F0E72DE9F843C5680646C9
:10A39000894617464FF000083469B3687068A542D3
:10A3A00028BFE418013C621B5C1BBC4228BF3C4632
:10A3B000944228BF144649462844224601F04EFBE9
:10A3C000B3682544AB4208BF00253F1BA044A1440D
:10A3D000F560E1D14046BDE8F883000010B5114CAE
:10A3E000114AA2610223C4E90433104BE361A26461
:10A3F0004FF400730E4A0F492362E26400231022D7
:10A40000E01DA3626362E362A3656365E3652265A1
:10A4100001F080FB0849204601F07CFB2023A3715A
:10A4200010BD00BF98A60220E6C9020020A70220A6
:10A4300010A70220EFC90200F3C90200F8B5184CBA
:10A44000182300FB033503FB00402544C46A012C9C
:10A450000F4616460FD0022C1AD0F4B92846FFF743
:10A4600069FF864205D8324639462846FFF770FF15
:10A4700034462046F8BD2846FFF75CFF8642344646
:10A4800028BF0446224639462846FFF761FFF0E719
:10A490002846BDE8F840FFF777BF0024E9E700BF92
:10A4A00098A60220FFF79ABF30B5C8B1F2B10024D8
:10A4B000651C8D4206DA1588A54212D805196D78FB
:10A4C0009D420ED1A14211D9005D48B1013880B240
:10A4D00030B10234A3B210FA84F4A14206DB138037
:10A4E00030BD055D01352C44A4B2E1E70020F7E75B
:10A4F00013B513460022ADF806200DF106020446FE
:10A50000FFF7D2FF10B1BDF80630E01802B010BD61
:10A5100072DF704773DF704738B5012204460D467D
:10A52000B0F81414D0F81004FFF7E2FF00B1057082
:10A5300004F13C0204F5826104F15400BDE83840A6
:10A54000FFF7E6BFF8B5077804460D46002F00F088
:10A55000098100F22646817007220021304601F071
:10A56000A6FAE38813B1A378012B04D0E3794BB1A9
:10A57000A378022B06D1636BA3B1012284F82D24AA
:10A5800008209847334604F22C4113F8012F12B9E2
:10A590009942FAD117466B1E032B57D8DFE803F018
:10A5A000050B0F1284F82D34ECE7A3791BB194F856
:10A5B000243003B95FB9E3790BB1002F48D1237A76
:10A5C000002B47D1637A002B0CBF00250425636B59
:10A5D000A570002B40D0033D012D3DD86279002AA3
:10A5E0003AD094F82E24002A36D184F8302401225F
:10A5F00084F82F240720984704F13C0518220021F5
:10A60000284601F054FAE26A0123511E994284F867
:10A610003C3001D9042A00D1D3B294F8242084F824
:10A62000513042B1A36A591E012902D9042B18BF27
:10A63000012384F85230A178002384F85030042993
:10A640001BD8DFE801F0770D223559000025BEE761
:10A650000225BCE70325BAE7002384F82F34CBE7B3
:10A66000C4E91063C4F820340223012284F83C308A
:10A67000802384F83120A4F84830A378002B5CD1E3
:10A68000636B002B6AD1002067E00223002A84F864
:10A69000313014BF0723032384F83C302369A4F826
:10A6A00048300023C4F82034E36826646364E4E798
:10A6B00063696364A369A4F8483012B1062384F87F
:10A6C0003C306379B3B194F82E349BB994F83034AC
:10A6D00083B1022384F8503004212046FFF71CFF89
:10A6E0000028CAD1052384F8313004F58263C4F808
:10A6F0002034C2E70323F6E7E3696364236AA4F81E
:10A70000483012B1062384F83C30637983B194F861
:10A710002E346BB994F8303453B1022384F850309E
:10A7200004212046FFF7F8FE0028A6D10623DAE729
:10A730000423D8E784F831309FE7D4F820142A4660
:10A7400004F15400FFF7E4FE38B994F8301094F89F
:10A750005400FFF7DFFE002892D0F8BD94F83100D6
:10A76000984790E70820F8E70388112B10B50C46AE
:10A770000AD0262B1FD0102B05D1C37B012B02D171
:10A780008388A1F8243410BD0022838881F82E2408
:10A79000B1F824249A42F6D10B79002BF3D1012190
:10A7A0002046FFF7CFFE0028EDD0A36B002BEAD0A8
:10A7B000BDE810401847037A013B012BE3D88978A4
:10A7C00005230131B1FBF3F303EB8303C91AC9B2CB
:10A7D000E6E70000034B1A8882420CBF18460020AF
:10A7E000704700BF3CA90220024B9B6903B1184788
:10A7F000704700BF20A9022037B50B46497A0F4A9F
:10A8000071B9D2E901141D7A0246002D18BF214604
:10A810005868FDF7F1FA08B1FFF7E6FF03B030BD65
:10A82000002119725369002BF8D00122ADF80600FF
:10A830008DF8042001A89847F0E700BF20A9022066
:10A840004B8802889A4213D842889A4210D3808853
:10A850008A8840F2F313984294BF031AC31A9342B2
:10A8600006D800F2F310904234BF00200120704758
:10A87000002070470388122B70B5014659D004D8C8
:10A88000102B1ED0112B44D070BD502BFCD12F4B60
:10A89000C288DB899A42F7D1038A022BF4D18688D9
:10A8A0003046FFF797FF05460028EDD001F1120072
:10A8B00000F028F938BB6868FDF7C9FA0028E3D032
:10A8C00009E0C37B012BDFD14FF6FF70FFF782FF5A
:10A8D000054620B90420BDE87040FFF785BF1C4A3B
:10A8E0008E880680002303721368C0F80A3053680C
:10A8F000C0F80E3010310A30FFF7A2FF134B687218
:10A90000DB89002BC0D129463046BDE87040FFF7F7
:10A9100073BF8088FFF75EFF04460028B4D040680C
:10A92000FDF795FA08B1FFF75FFF4FF6FF7323803D
:10A93000AAE786883046FFF74DFF05460028A3D0DA
:10A9400008310A30FFF77CFF6872DCE720A902209B
:10A9500050A902200AB1FDF73FBCFDF746BC73B514
:10A960000191019C06466CB100252C46294601A8A0
:10A97000FDF745FC18B106EB440301349D80013519
:10A98000142DF3D13046346002B070BD2DE9F0478C
:10A9900003888488103B8CB005460A2B1FD8DFE85B
:10A9A00003F0063F1E1E1E1E1E1E1E604400314E7A
:10A9B000B368DB43009371686846FDF74CFC00996F
:10A9C00001A8FFF7CCFF0DF108094FF00008019B2B
:10A9D000984507D3132C13D90420FDF75BF90CB06D
:10A9E000BDE8F08739F802AB00270137514606EB86
:10A9F0008700FDF7FAFB1E2FF7D108F10108E6E703
:10AA00001D482146FDF7E8FB1C482146FDF7E4FB05
:10AA1000EB7B022BE3D11A482146FDF7DDFBDEE795
:10AA200015482146FDF7E1FBD9E7027A15483F2A90
:10AA30004FEA1215214694BF00220122FFF78AFF38
:10AA4000022D94BF002201220F482146FFF782FF0A
:10AA5000012D0E4894BF002201222146FFF77AFF04
:10AA6000BDE7037A002BBAD1427A0648C2F3C0028E
:10AA70002146F3E758A9022060A902205CA9022020
:10AA800064A9022070A902206CA9022068A90220F2
:10AA90001328014602D80248FDF7B1BB00207047D9
:10AAA0005CA9022010B50446FFF7F2FF002814BF8E
:10AAB0002046142010BD70B50546164608460AB952
:10AAC0000E2070BD00231360002DF9D02B68002BE1
:10AAD000F6D0EB8813F003040ED1FFF7E3FFC0B20A
:10AAE00014280BD02B7983420AD9EB882A6800FB03
:10AAF000032030602046E4E70720E2E70520E0E796
:10AB00000420DEE7007800F00100704790DF704716
:10AB1000A5DF7047B5DF70477FB50023ADF808109B
:10AB2000ADF80A106A4602A9064603930093ADF8F1
:10AB30000430FFF7EBFF054600B3124B124CE41A4A
:10AB4000E408FDF7CDFE240444F0010403460F4958
:10AB500032462046FCF73DFFBDF80020BDF802302C
:10AB600052EA030103D00A492046FCF732FFBDF840
:10AB700004201AB107492046FCF722FF284604B0FA
:10AB800070BD00BF84C20200ECC20200FAC902001C
:10AB900044CA020083CA020013B5034680880C46EB
:10ABA000A0B91A88242A75D012D8112A51D0232A84
:10ABB0007DD0102A3AD0A37A43B1E1880020FFF774
:10ABC000A7FF002879D14FF48073638102B010BDD4
:10ABD0003A2A47D0552AEED1DB88C988A072172BB4
:10ABE00038BF17238B4228BF0B462381FFF792FF04
:10ABF00060B1FDF775FE394B3949024639481B1AD9
:10AC0000DB081B0443F00100FCF7DAFEE37A002BBB
:10AC1000D1D12369002BCED040F677220092228931
:10AC2000ADF80420694620469847C4E7DB7B0979E4
:10AC30002173012B08D0022B09D0637B8B42BAD23F
:10AC40000020FFF769FFB6E72388E380F5E7638814
:10AC5000FBE7F723CB8017230B8141F6FB334881B9
:10AC60008B81A8E75B89CA88934228BF1346172BBC
:10AC70000A6938BF17230B814AB1C97A39B140F646
:10AC800077210091ADF804306946204690470023B3
:10AC9000638190E71A7A0B694A73002B8BD04DF6CB
:10ACA0007A218DF8050000918DF80420BAE7197A11
:10ACB000237B994228BF1946C3E7112886D0FDF7A8
:10ACC0000FFE064B0849024606481B1ADB081B0408
:10ACD00043F00100FCF774FE78E700BFECC202000D
:10ACE000D9CA020084C2020008CB0200B0DF70475C
:10ACF00066DF704710B5002104464088FFF7F8FF73
:10AD0000034608B9237210BD112801D10123F9E7C8
:10AD10006368BDE81040184728B10378DE2B04D1E2
:10AD20004180002070470E20704708207047F0B522
:10AD3000054685B00C46F1B1E8B10B78DE2B1AD18F
:10AD400082884B889A4204D10B7A13B10846FFF7E8
:10AD5000D1FF2B88112B32D0512B0ED0012B0AD1D1
:10AD60002B7A012B07D1A9886288914203D12372E3
:10AD70002046FFF7BFFF05B0F0BDAE886388B34241
:10AD8000F9D1AF79022FF6D1AD7B2B1F022BF2D870
:10AD900000211022684600F08AFE052D14BF4FF4F2
:10ADA000C0730023694630468DF80070ADF804305A
:10ADB000FFF79CFF0028DED063689847DBE76388D5
:10ADC000AA889A4204BF4FF6FF736380D3E7ADDFD2
:10ADD0007047AEDF704770B505468AB00C46002953
:10ADE00062D0002860D00388502B37D0572B72D008
:10ADF000102B59D181886069002601AA0196FFF7BE
:10AE00005AFE082231460DEB020000F050FE0223EC
:10AE10002189A888CDF80CD002AA0293FFF7D7FFAA
:10AE2000002841D1A369002B3ED00398FFF76AFEAA
:10AE3000002839D0019B0BB101221A701822002181
:10AE400004A800F034FE02238DF81030AB88ADF872
:10AE50001830019B05940793A36923E081886069FA
:10AE600002AAFFF728FE1822002104A800F01FFE06
:10AE7000AB882189ADF81830EB88029A0594994285
:10AE8000079218D12E8A022E15D16AB105F112004F
:10AE9000FFF738FE029B48B101221A708DF810604E
:10AEA000A3690BB104A898470AB070BD18700323BA
:10AEB0008DF81030F4E7A2899A42F5D1A369002BEE
:10AEC000F2D000228DF8102005F1120208922A8A91
:10AED000ADF82420E6E78188606902AAFFF7EBFD60
:10AEE00001460028E0D1029B1B78002BDCD0A3692F
:10AEF000002BD9D0182204A800F0D9FD01238DF829
:10AF00001030AB88ADF818300594029BA3E7F0B57C
:10AF10000F4687B016461C46054618B3406901AA7D
:10AF20001946FFF7C8FDD8B94FF6FF739C421BD0F6
:10AF3000019BCBB11B78CBB13388F42B18D80146D9
:10AF4000102202A800F0B3FDAB88ADF8083002A9CA
:10AF500001232046CDE904678DF80A30FFF739FF59
:10AF600007B0F0BD0E20FBE70520F9E70820F7E762
:10AF70000720F5E7014B1878704700BFD4A90220DD
:10AF800007B508496846FDF777FC019B13B903B084
:10AF90005DF804FBD3E9002090476846FDF776FC96
:10AFA000F3E700BF58CB0200FFF7EABF61DF70474D
:10AFB00030B5114DADF5017D4FF4FA740DF102017C
:10AFC00003A8ADF80240FFF7F1FF70B9294601A8C8
:10AFD000FDF752FC029B002BF0D003A8D3E900211F
:10AFE000904701A8FDF752FCF4E7052801D0FCF7D3
:10AFF00051FE0DF5017D30BD70CB0200024B1B7878
:10B000000BB1FFF7D5BF7047D5A902204BDF7047C2
:10B010001FB50D4C01A8FFF7F9FF70B9214602A832
:10B02000FDF72AFC039B002BF4D00198D3E9002103
:10B03000904702A8FDF72AFCF4E7052801D0FCF7A9
:10B0400029FE04B010BD00BF88CB02002DE9F341FA
:10B050004E0804460D4600EB86060027B4420AD18E
:10B06000EB0705D5B4F90030002BBCBF00232380CB
:10B0700002B0BDE8F08104220DEB0200214600F091
:10B08000EDFC019A02F0802304F104084FEAF33347
:10B09000D7FA13F322EA0303042220460DEB020140
:10B0A0000193444600F0DAFCD8E72DE9F04F8FB069
:10B0B00015460993BDF860300293BDF864300393E0
:10B0C000099B05909B0807931A9B03F108081B9B9B
:10B0D00003F10809530800EB83021B010A93079B45
:10B0E00008920C460693069B13BB1B9B079A03EB27
:10B0F000C2081A9B03EBC2030193099B03F00303ED
:10B1000008EB43030693059BAE084FEA450B04EB9F
:10B11000C60905F0030503EBC60606EB45030493D9
:10B12000069B984540F0878000200FB0BDE8F08F67
:10B13000029A38F9083C38F9047C38F9026C9340DB
:10B14000019338F9063C03FA02FB059B97409640B1
:10B15000A246089A934236D10A9B1C44EB0712D5AB
:10B16000B2F900300198224632F8081B13FB0101A6
:10B170000191618813FB01BBA18813FB0177E18872
:10B18000144613FB0166039A019B134103F30F035B
:10B1900029F8083C4BFA02F303F30F0329F8063CA5
:10B1A000069B013B9BB21741164107F30F0706F3BD
:10B1B0000F0629F8047C29F8026C069308F10808A8
:10B1C00009F108098FE7194604220DA8049300F03D
:10B1D00045FC049B04330B9351460D9B04930422BE
:10B1E0000DA800F03BFC0D9A049B019923FB021370
:10B1F00004220AEB02010DA8019300F02FFC0D9A26
:10B20000049B23FB02BB04220AF108010DA800F0F5
:10B2100025FC0D9A049B23FB027704220AF10C0102
:10B220000DA800F01BFC0AF1100A0D9A049B23FBE9
:10B2300002660B9B8DE7019BDDF814A033F9025BDE
:10B240000193029B27469D404F454A460CD1334609
:10B25000049999422DD1039B5C441D41D94405F3C7
:10B260000F0528F8025B5BE7394604220DA800F0C1
:10B27000F5FB0D9B0793042251460DA800F0EEFB51
:10B280000D9A079B22FB03550422B9180DA800F064
:10B29000E5FB04220D9B07930AEB02010DA800F0C9
:10B2A000DDFB08370D9A079B0AF1080A22FB0355BC
:10B2B000CAE733F8020B32F8021B10FB0155C7E74F
:10B2C00000F5E0704FF0A0430C2243F820207047B7
:10B2D00008B50B20FFF7F4FF0C20FFF7F1FF182053
:10B2E000FFF7EEFFBDE808401920FFF7E9BF0000B7
:10B2F00008B500F021F94FF480410020FCF7C4F9B3
:10B3000008B1FCF7C7FCFCF7FFF8FFF7E1FF00F01E
:10B3100039F900F081F900F071F9084800F058FBA4
:10B320004FF0A044D4F810351A05FBD400F002FA0F
:10B33000D4F810351B05FBD5F4E700BF94CB020011
:10B3400076DF70477FDF70478FDF7047B1DF704770
:10B350000388212B13B504463DD007D8112B2BD0E1
:10B36000132B40D0102B0CD002B010BD522B42D06A
:10B37000562B01D03B2BF7D1A0881321FFF7E0FF1C
:10B3800015E0214B21482249C01AC008000440F0B2
:10B390000300FCF711FB0720FEF73EFF08B1FCF7A6
:10B3A00079FC1C4BA1881C481980FFF7B5FC0028CC
:10B3B000DAD0FCF76FFCD7E7134B14481749C01AD3
:10B3C000C008000440F00300FCF7F6FA114B4FF6FA
:10B3D000FF721A80C8E7002301A98088ADF8043005
:10B3E000FFF7B2FFE3E70B4800231A4685210088E8
:10B3F000FFF7A8FFDBE7074800231A461946008835
:10B40000FFF7A4FFD3E700BF84C20200C4C202005A
:10B41000ADCB0200762B0020ACB30220B7CB0200EC
:10B42000F7B50378012B33D0022B31D073BB1A4C04
:10B430001A4D20782844FCF7FDFD23780133DBB258
:10B440001D44237015F8012C0A2A05D00D2A03D0BB
:10B45000134A12889A4219D8012B15D9114D0F4E53
:10B46000114F2378ADF806300DF106022B883146D6
:10B470003846FFF74CFD082806D01328F1D00528E0
:10B4800002D008B1FCF706FC0023237003B0F0BD26
:10B490004068FCF7FFFBF9E724AF022030AE022042
:10B4A000742B0020762B0020782B002010B5037819
:10B4B00094B00446002B34D140680621FEF7CAFC44
:10B4C00008B1FCF7E7FB61684FF49670B1F9023000
:10B4D000B1F900200490B1F90A000390B1F9080015
:10B4E0000290B1F906000190B1F90410009107A88B
:10B4F0000D4900F08DFA0D4BADF81A001B880C4871
:10B500000DF11A0207A9FFF702FD0528034604D032
:10B5100033F0080301D0FCF7BDFB064A1368013382
:10B52000136014B010BD00BFC4CB0200762B002006
:10B53000782B002028AF022030B50E4D0FCD8BB0F8
:10B5400004AC0FC495E803000B4B0C4A00934FF476
:10B55000807384E80300CDE902230193084A07239E
:10B56000694604A8FCF70EFD08B1FCF793FB0BB08D
:10B5700030BD00BFE4CB0200B8B30220B8B4022053
:10B5800021B4020013B5FEF725FD044620B1FCF7F7
:10B5900081FB2046FCF77EFB134B1448D3F81025A3
:10B5A0000021D2B220FA02F2009101231048FEF7E6
:10B5B000B8FA0F48FEF78EFAFEF73EFC04460D4837
:10B5C000FEF79CFC08B1FCF765FB0A4B0A491878AA
:10B5D0002246FEF7C7FC20B102B0BDE81040FCF7E0
:10B5E00059BB02B010BD00BF00A0014000350C00E7
:10B5F00038CC0200A8B3022040A1014008B5054B99
:10B600001878FEF7CFFC18B1BDE80840FCF742BB44
:10B6100008BD00BFA8B3022030B5424B95B01C4610
:10B620001868019054F8040F022261688DF8042014
:10B630001D4602AA03C255F80D0F217A11706968E0
:10B6400005AC03C4297A21701D4608AC55F8160FC5
:10B65000696803C4297A21701D460BAC55F81F0F89
:10B66000696803C4297A21701D464FF48172ADF8D0
:10B670000A20ADF81620ADF82220ADF82E2055F89E
:10B68000280F69680EAC03C453F8310F297A217072
:10B6900059681B7AADF83A2011AC03C422492370D3
:10B6A00001A8ADF84620FEF737FB08B1FCF7F2FA27
:10B6B00002A90020FEF778FB08B1FCF7EBFA05A918
:10B6C0000120FEF771FB08B1FCF7E4FA08A902209B
:10B6D000FEF76AFB08B1FCF7DDFA0BA90320FEF7C1
:10B6E00063FB08B1FCF7D6FA0EA90420FEF75CFB59
:10B6F00008B1FCF7CFFA11A90520FEF755FB08B1F8
:10B70000FCF7C8FA09480621FEF7A4FB08B1FCF7CC
:10B71000C1FA07480621FEF79DFB08B1FCF7BAFA0B
:10B7200015B030BDFCCB0200ADB4020060B3022006
:10B730006CB30220F0B51D481D4D1E4C1E4E1F4F10
:10B7400087B000F045F91E4B029314220723CDE980
:10B7500000321C49049464234FF4447203951A4840
:10B76000FFF7A3FC64212846FFF770FC174800F0A0
:10B770002FF9174B049402930F210223154C0394C5
:10B78000CDE90031284614490A236422FFF78DFCD5
:10B79000002536F9022B34F9021B3846013500F03A
:10B7A00017F90A2DF5D107B0F0BD00BF40CC02005B
:10B7B00058C00220B8B50220E89E022064CC0200E6
:10B7C0009C2B0020642C0020C898022057CC02003B
:10B7D000E490022038BA0220F890022053EA020CCA
:10B7E00061D02DE9F04BB3FA83F51E0007BFB2FA22
:10B7F00082F502FA05F403FA05F41646C5F12005B0
:10B800001EBF22FA05F73C43203556EA044C4FEAA6
:10B81000144418BF0134A3464FF00009C8469042B3
:10B8200071EB030C39D3094207BFB0FA80F700FA75
:10B8300007F6B1FA81F701FA07F6C7F120071EBF34
:10B8400020FA07FC46EA0C062037B6FBFBFC7F1B00
:10B85000103F07F01F04C4F120060CFA04F42CFA80
:10B8600006F644BF34460026202FA4BF26460024F7
:10B8700054EA060C08BF012418EB040849EB06093A
:10B88000A4FB027CC01B06FB02CC04FB03CC71EBC7
:10B890000C01904271EB030CC5D20B46024649469F
:10B8A0004046BDE8F08BB2FBF3F200007F2805D8DC
:10B8B000034B185C034B5B5C1840704700207047DB
:10B8C0007CCC0200FCCC0200A0F16103192B98BFD4
:10B8D00020387047A0F14103192B98BF20307047E2
:10B8E0007F2805D8034B185C034B5B5C18407047FE
:10B8F000002070477CCC0200FCCC0200A0F1610368
:10B90000192B98BF20387047A0F14103192B98BF1D
:10B91000203070477F299ABF017001206FF02E0000
:10B9200070475AB10A787F2A0AD800B10260002114
:10B9300019605960501A18BF0120704700207047E5
:10B940006FF02E00704738B504460846A26842B131
:10B95000236861685D1C8D4208BF00208B4208D2BD
:10B96000D054E3682BB121686268914201D221462C
:10B97000984723680133236038BD70B54C1E09D445
:10B980001646C5B229463046FFF7DDFF013CB4F14B
:10B99000FF3FF7D170BD10F0100F08D108B510F4BB
:10B9A000007F14BF30202020FFF7E7FF08BD70475D
:10B9B00008B5034B5B689B681B68984708BD00BFD0
:10B9C000FC9E022008B50921FFF7F2FF08BD000028
:10B9D0000FB410B586B008AB53F8044B05930023A1
:10B9E00003936FF000430293084B049300F0FEFBB7
:10B9F000059A214601A800F0DFF8044600F0F7FBA5
:10BA0000204606B0BDE8104004B07047F58802003B
:10BA10000EB400B586B007AA52F8041B0592039035
:10BA2000002304936FF00043029301A800F0C4F8D0
:10BA300006B05DF804EB03B07047037853B159B119
:10BA40000144034613F8012F12B18B42FAD10B4681
:10BA5000181A70470346FBE70346F9E7844640EAB5
:10BA6000010313F0030F18D18446202A0BD32DE9CC
:10BA7000F007B1E8F807A0E8F807A2F12002202AB1
:10BA8000F7D2BDE8F007042A07D351F8043B40F889
:10BA9000043BA2F10402042AF7D2002A05D011F8CF
:10BAA000013B00F8013B013AF9D1604670478446FA
:10BAB000002A2DD010F0030F04D000F8011B013A2A
:10BAC00026D0F7E7C9B241EA012141EA0141202A23
:10BAD00012D3A2F120022DE9F0030B460C460D46CD
:10BAE0000E460F4688468946A0E8FA03203AFBD264
:10BAF000BDE8F00320320BD0042A05D340F8041B24
:10BB0000043A05D0042AF9D200F8011B013AFBD10E
:10BB100060467047024610F0030F16D111F0030F74
:10BB200013D12DE9F0004FF001374FF0803351F879
:10BB3000044BA4EB070525EA04051D4002D142F899
:10BB4000044BF4E7A1F10401F0BC11F8013B02F849
:10BB5000013B002BF9D1704700F1010110F0030FF8
:10BB600011D010F8012B002A23D010F0030F0AD0B7
:10BB700010F8012B002A1CD010F0030F03D010F88E
:10BB8000012B002A15D02DE970004FF001324FF043
:10BB9000803350F8044BA4EB020525EA04051D4050
:10BBA00000D1F6E7A0F1040070BC10F8012B002AC8
:10BBB000FBD1A0EB010070472DE9F04F89B007469B
:10BBC0000392002303600C4614F8011B002900F0C7
:10BBD000FA82DFF814B5E9E2002507E05E2868D1B3
:10BBE00045F4805501E045F040051C46234613F816
:10BBF000010B3028F2D81F2837D9A0F12002102AD3
:10BC000033D801A151F822F0E7BB02006BBC02005F
:10BC10006BBC02004DBC02006BBC02006BBC02009E
:10BC20006BBC020053BC02006BBC02006BBC020088
:10BC30006BBC020059BC02006BBC02005FBC02007E
:10BC40006BBC02006BBC020065BC020045F08005C5
:10BC5000CBE745F40045C8E745F02005C5E745F0CA
:10BC60001005C2E745F40075BFE72A2821D1039AE1
:10BC7000111D0391D2F800A0BAF1000FBCBFCAF1A8
:10BC8000000A45F010051878A31C2AEAEA7A2E2843
:10BC900026D00021742847D07A2845D06C2800F09F
:10BCA000A8804C2800F0AB80682800F0B8801C46C3
:10BCB0003DE0A0F13002D2B2092A88BF4FF0000A5D
:10BCC000E3D84FF0000A0AEB8A0A303800EB4A0A40
:10BCD00013F8010BA0F13002D2B2092AF3D9D4E74C
:10BCE00018782A280AD1039A111D039111685878EF
:10BCF00002330029CEDB45F48075CBE70133A0F198
:10BD00003002D2B2092A88BF0021F4D8002101EB09
:10BD10008101303800EB410113F8010BA0F1300232
:10BD2000D2B2092AF3D9E4E71C4614F8010B002823
:10BD300000F05582A0F12503DBB2532B62D8A0F1AD
:10BD40002503532B5ED8DFE813F076005D005D001D
:10BD50005D005D005D005D005D005D005D005D00FB
:10BD60005D005D005D005D005D005D005D005D00EB
:10BD70005D005D005D005D005D005D005D005D00DB
:10BD80005D005D005D005D005D005D005D005D00CB
:10BD90005D005D005D005D005D005D005D005D00BB
:10BDA0005D005D005D005D005D005D005D005D00AB
:10BDB000EB005D005D005D005D005D005D005D000D
:10BDC0005D005D005D007B0020015D005D005D00A9
:10BDD0005D0020015D005D005D005D0095000E01CD
:10BDE000D1005D005D00A6005D0019015D005D00F1
:10BDF000ED001C4614F8010B45F0010597E745F0EE
:10BE000001051C46B44B1E68002E00F0CC8103AB2C
:10BE10000193009153462A463946B047C3E118784A
:10BE2000682803D05C1C45F0040580E745F0080550
:10BE30009C1C58787BE725213846FFF784FDB2E14A
:10BE4000039B1A1D03921E780AF1FF3A3A465146A7
:10BE50002846FFF7A0FD31463846FFF774FDA94696
:10BE600019F0100F00F09F813A4651462020FFF74D
:10BE700084FD98E115F0080F06D03A68039B191D60
:10BE800003911B681A708EE1039B1A1D03921B68B5
:10BE90003A681A6087E1039B1A1D0392D3F8008069
:10BEA0008E4BB8F1000F08BF9846464625F400793E
:10BEB00015F4807F15D04046FFF7BFFD0546AAEB7D
:10BEC000050A3A4651464846FFF765FD002DC7D0A2
:10BED000454416F8011B3846FFF735FDB542F8D149
:10BEE000BEE74046FFF738FE0546E8E7039B1A1D0C
:10BEF00003921B6815F0800F0CBF0026232645F423
:10BF0000807508211A46002B00F0298105AB4FF0FF
:10BF1000000805F4005CA64660468C460146D1E068
:10BF200045F4005515F0800F1BD043F2780643F21C
:10BF30005803782818BF1E4615F4807F01D025F4D9
:10BF4000007515F4804F32D0039B1A1D03921B68B5
:10BF500015F0040F1FD01BB2002B20DA5B422D26F8
:10BF60002DE00026E8E715F0800F0CBF00263026F4
:10BF700015F4807FE5D025F40075E2E715F4807FA5
:10BF800007D025F400750026DBE745F48045002640
:10BF9000D7E70026D5E715F0080FDDD0DBB215F0A6
:10BFA000200F60D115F0400F18BF202607E0039B3B
:10BFB0001A1D03921B6815F0040F4FD09BB215F4A5
:10BFC000807F14BF25F4007501215838202800F225
:10BFD000AE8001A252F820F005BF02002FC102007E
:10BFE0002FC102002FC102002FC102002FC1020089
:10BFF0002FC102002FC102002FC102002FC1020079
:10C000002FC102002FC1020093C002002FC1020005
:10C010002FC102002FC102002FC1020093C00200F5
:10C020002FC102002FC102002FC102002FC1020048
:10C030002FC102006BC0020005BF02002FC1020029
:10C040002FC102002FC102002FC1020093C00200C5
:10C050002FC102002FC1020005BF020015F0080F1A
:10C06000ADD0DBB2ABE72B26A9E71A464FF00008AC
:10C07000002B5ED005A84FF0000803F00703303313
:10C0800000F8013B08F10108D2081346002AF4D158
:10C090004FE018464FF00008002B4AD04FF0000840
:10C0A00005F4004E4FF02C0973468E4619462FE0DA
:10C0B00002F00F000A4C205C03F8010B08F10108A4
:10C0C000120906D00029F3D002F00F00054C205CC5
:10C0D000F2E7744661462CE078C60220D0CE02001A
:10C0E000B0CE0200C0CE0200CDCCCCCC08AB03EB6E
:10C0F000080CABFB0032D20802EB8203A0EB430337
:10C1000030330CF80C3C08F1010809280DD9104611
:10C110000029EBD008F00303032BE7D108AB43441D
:10C1200003F80C9C08F10108E0E7714601E04FF0CC
:10C130000008A1EB080121EAE179AAEB090AAAEBC0
:10C14000080AFF2E0ED9AAF1020AC6F307213846C3
:10C15000FFF7F9FBF1B23846FFF7F5FB04E04FF0CB
:10C160000008E6E7002E3DD13A4651462846FFF743
:10C1700012FC3A4649463020FFF7FFFBB8F1000FAA
:10C180000EDD0DF1140908F1FF38C84498F80010CD
:10C1900046463846FFF7D7FBC14508F1FF38F5D1D1
:10C1A00015F0100F09D114F8011B61B125293FF4D6
:10C1B00013AD3846FFF7C7FBF5E73A465146202056
:10C1C000FFF7DBFBEFE7BB682BB13A6879688A427F
:10C1D0003CBF00219954386809B0BDE8F08F4FF09A
:10C1E000FF30F9E70AF1FF3AB4E700BF7047704744
:08C1F000618C02000000000058
:10C1F8008DA9020000000000B5A2020000000000A6
:10C2080075A802000000000069A70200D8A9022052
:10C2180099AB02000CAE022069A702002CAF0220E5
:10C2280099AB020090B302202FAD020024AE022089
:10C23800D7AD0200502B00202FAD0200ACB3022076
:10C24800D7AD0200782B002051B302000000000097
:08C25800FD8C02000000000053
:10C26000FDAF02000000000011B00200000000005D
:10C27000549F02201CA0022024A002205C9F0220C8
:04C2800018000000A2
:10C28400BAC9020000000000C0C90200000000009A
:10C29400E2C9020000000000C7C90200000000005B
:10C2A400DCC9020000000000D6C902000000000042
:10C2B400CBC9020000000000D0C902000000000049
:10C2C40065C30200000003033CC402000000000038
:10C2D40060C402000000000046CB02000000000021
:10C2E400B4C902000000000039CB020000000303BF
:10C2F4004ECB02000000030364CB020000000303E2
:10C304007CCB0200000003039CC402000000000078
:08C31400A5C4020000000000B6
:10C31C0038C302000000000044C30200E82A0020D9
:10C32C00000000000338FDD870470000D5730200F0
:10C33C0041740200D17302007274745F6C6F675F9A
:10C34C006261636B656E64004261636B656E6473FE
:10C35C0020666C7573686564006170700000000085
:10C36C0044A402207F000000C4A402201B5B306D9B
:10C37C00002573001B5B313B33316D0025734C6F13
:10C38C0067732064726F707065642028256429259A
:10C39C00730D0A003C25733E2025733A200020259E
:10C3AC0030327800202020007C002563001B5B319C
:10C3BC003B33306D001B5B313B33326D001B5B310B
:10C3CC003B33336D001B5B313B33346D001B5B31F6
:10C3DC003B33356D001B5B313B33366D001B5B31E2
:10C3EC003B33376D007761726E696E6700696E66FC
:10C3FC006F0064656275670078C30200B9C3020000
:10C40C0080C30200C1C30200C9C30200D1C3020031
:10C41C00D9C30200E1C30200E9C30200000000001E
:10C42C004DC40200F1C30200F9C30200FEC30200B6
:10C43C006170705F627574746F6E00466174616CCC
:10C44C00206572726F720053797374656D2072651A
:10C45C00736574006170705F74696D6572000000C3
:10C46C00FFFFFFFFFFFFFFFFFFFFFFFFFFFFFFFFD0
:10C47C0000000000000000000000D60106010000D2
:10C48C0030313233343536373839414243444546FE
:10C49C007077725F6D676D7400736F72746C697313
:10C4AC0074004E52465F53554343455353004E520E
:10C4BC00465F4552524F525F5356435F48414E447C
:10C4CC004C45525F4D495353494E47004E52465FBF
:10C4DC004552524F525F534F46544445564943457B
:10C4EC005F4E4F545F454E41424C4544004E5246C0
:10C4FC005F4552524F525F494E5445524E414C008B
:10C50C004E52465F4552524F525F4E4F5F4D454D16
:10C51C00004E52465F4552524F525F4E4F545F464B
:10C52C004F554E44004E52465F4552524F525F4E4D
:10C53C004F545F535550504F52544544004E524641
:10C54C005F4552524F525F494E56414C49445F50E1
:10C55C004152414D004E52465F4552524F525F4937
:10C56C004E56414C49445F5354415445004E52463B
:10C57C005F4552524F525F494E56414C49445F4CB5
:10C58C00454E475448004E52465F4552524F525FFB
:10C59C00494E56414C49445F464C414753004E521C
:10C5AC00465F4552524F525F494E56414C49445F8B
:10C5BC0044415441004E52465F4552524F525F44E3
:10C5CC004154415F53495A45004E52465F455252C1
:10C5DC004F525F54494D454F5554004E52465F459E
:10C5EC0052524F525F4E554C4C004E52465F455284
:10C5FC00524F525F464F5242494444454E004E52B0
:10C60C00465F4552524F525F494E56414C49445F2A
:10C61C0041444452004E52465F4552524F525F4283
:10C62C00555359004E52465F4552524F525F434F3D
:10C63C004E4E5F434F554E54004E52465F4552523C
:10C64C004F525F5245534F5552434553004E52463D
:10C65C005F4552524F525F4D4F44554C455F4E4FC4
:10C66C00545F494E495449414C495A4544004E5235
:10C67C00465F4552524F525F4D555445585F494E97
:10C68C0049545F4641494C4544004E52465F455221
:10C69C00524F525F4D555445585F4C4F434B5F467C
:10C6AC0041494C4544004E52465F4552524F525FF1
:10C6BC004D555445585F554E4C4F434B5F46414981
:10C6CC004C4544004E52465F4552524F525F4D55B9
:10C6DC005445585F434F4E445F494E49545F464161
:10C6EC00494C4544004E52465F4552524F525F4DA5
:10C6FC004F44554C455F414C52454144595F494E5E
:10C70C00495449414C495A4544004E52465F4552A2
:10C71C00524F525F53544F524147455F46554C4C14
:10C72C00004E52465F4552524F525F4150495F4E48
:10C73C004F545F494D504C454D454E544544004E69
:10C74C0052465F4552524F525F46454154555245F1
:10C75C005F4E4F545F454E41424C4544004E52464D
:10C76C005F4552524F525F494F5F50454E44494EC0
:10C77C0047004E52465F4552524F525F4452565FED
:10C78C005457495F4552525F4F56455252554E00D1
:10C79C004E52465F4552524F525F4452565F545769
:10C7AC00495F4552525F414E41434B004E52465FEA
:10C7BC004552524F525F4452565F5457495F45524F
:10C7CC00525F444E41434B004E52465F4552524FCE
:10C7DC00525F424C455F495053505F52585F504B2B
:10C7EC00545F5452554E4341544544004E52465F9B
:10C7FC004552524F525F424C455F495053505F4334
:10C80C0048414E4E454C5F414C52454144595F4561
:10C81C005849535453004E52465F4552524F525F43
:10C82C00424C455F495053505F4C494E4B5F444915
:10C83C0053434F4E4E4543544544004E52465F457C
:10C84C0052524F525F424C455F495053505F5045D6
:10C85C0045525F52454A454354454400556E6B6EF4
:10C86C006F776E206572726F7220636F6465000063
:10C87C0000000000AEC4020001000000BAC40200B7
:10C88C0002000000D8C4020003000000F9C402003A
:10C89C00040000000CC50200050000001DC50200CC
:10C8AC000600000031C502000700000049C5020067
:10C8BC000800000061C502000900000079C50200F3
:10C8CC000A00000092C502000B000000AAC502007D
:10C8DC000C000000C1C502000D000000D5C502000F
:10C8EC000E000000E7C502000F000000F6C50200B4
:10C8FC00100000000AC602001100000021C6020050
:10C90C001200000030C602001300000045C60200F1
:10C91C008000000059C60200810000007AC60200A7
:10C92C008200000096C6020083000000B2C602001E
:10C93C0084000000D0C6020085000000F1C6020091
:10C94C008600000016C70200900000002DC70200F0
:10C95C00910000004BC702009200000069C7020062
:10C96C00008200007EC70200018200009CC702000A
:10C97C0002820000B8C7020000840000D4C7020085
:10C98C0001840000F8C702000284000022C80200E3
:10C99C000384000047C802000000000001010100F0
:10C9AC00000000000D0E0F10636C6F636B00434CA6
:10C9BC004F434B004750494F54450050525300557C
:10C9CC004152540055415254450054494D45520072
:10C9DC00534141444300505049005465726D696E97
:10C9EC00616C0052545400534547474552007364E0
:10C9FC005F626C655F6761705F646174615F6C65D9
:10CA0C006E6774685F75706461746528292028727C
:10CA1C0065717565737429206F6E20636F6E6E651A
:10CA2C006374696F6E203078257820726574757226
:10CA3C006E65642025732E005468652072657175CF
:10CA4C0065737465642054582F5258207061636B61
:10CA5C006574206C656E67746820697320746F6FE1
:10CA6C00206C6F6E672062792025752F2575206FDD
:10CA7C0063746574732E00546865207265717565F6
:10CA8C007374656420636F6D62696E6174696F6E37
:10CA9C00206F6620545820616E64205258207061BB
:10CAAC00636B6574206C656E6774687320697320A2
:10CABC00746F6F206C6F6E67206279202575206D06
