:020000022000DC
:1070000000000420757302005D7302005F730200CC
:1070100061730200637302006573020000000000E8
:107020000000000000000000000000006773020084
:1070300069730200000000006B7302006D730200B0
:10704000399402006F730200719602006F730200A0
:107050006F7302006F730200F19402006F730200FD
:107060006F7302006F7302006F7302006F73020090
:107070006F7302006F7302006F7302006F73020080
:107080006F7302007D8602006F7302006F7302004F
:107090006F7302006F730200F1B002006F730200A1
:1070A0006F7302006F7302006F7302006F73020050
:1070B0006F7302006F730200000000000000000008
:1070C0006F7302006F7302006F7302006F73020030
:1070D0006F7302006F7302006F7302006F73020020
:1070E0006F7302006F7302006F73020000000000F4
:1070F000000000006F730200000000006F730200C8
:10710000000000000000000000000000000000007F
:10711000000000000000000000000000000000006F
:10712000000000000000000000000000000000005F
:10713000000000000000000000000000000000004F
:10714000000000000000000000000000000000003F
:10715000000000000000000000000000000000002F
:10716000000000000000000000000000000000001F
:10717000000000000000000000000000000000000F
:1071800000000000000000000000000000000000FF
:1071900000000000000000000000000000000000EF
:1071A00000000000000000000000000000000000DF
:1071B00000000000000000000000000000000000CF
:1071C00000000000000000000000000000000000BF
:1071D00000000000000000000000000000000000AF
:1071E000000000000000000000000000000000009F
:1071F000000000000000000000000000000000008F
:10720000354936480A1A02D0072291438D4634493F
:1072100034480A1A06D00722914381F309880222D2
:1072200082F3148830483149314A00F044F831483B
:107230003149324A00F03FF831483249324A00F0D1
:107240003AF832483249334A00F035F83248334987
:10725000334A00F030F833483349344A00F02BF811
:1072600033483449344A00F026F83448344900227F
:1072700000F02CF833483449002200F027F8334856
:107280003349091A082902DB002202604160314AB1
:1072900090471F481F49884205D00268043003B454
:1072A000904703BCF7E700208646EC46002000210B
:1072B000294A9047FEE7884207D0521A05D0037842
:1072C00001300B700131013AF9D17047884202D088
:1072D00002700130FAE770470000042000E003204C
:1072E000000004200000042018DB0200E82A00202F
:1072F00004B90020D0730200D073020084CE0200D3
:1073000018DB0200E82A0020E82A002080CF0200D3
:1073100080CF020080CF020080CF020080CF020029
:1073200080CF020080CF020080CF020017DB020076
:107330003469030004B9002004B9002004B9002016
:10734000C8770120C8770120C8770120C8770120BD
:10735000C89701209D730200E1A10200FEE7FEE74D
:10736000FEE7FEE7FEE7FEE7FEE7FEE7FEE7FEE7F5
:1073700000F002B8FFF7FCBF0F484FF00701884349
:1073800085460E4880470E48016841F4700101604F
:10739000BFF34F8FBFF36F8FFFF732BF09480A4922
:1073A0000A4A884207D0521A05D0037801300B7080
:1073B0000131013AF9D1704700000420B98F020071
:1073C00088ED00E080CF0200E82A0020E82A0020B3
:1073D0007047000007B5044B0093044A402300F0B7
:1073E00032F803B05DF804FBF173020005B9002028
:1073F0002DE9F84388461446B2B10F4B0F4E0325D2
:10740000002743F00109224608EB0701002003F0A2
:10741000C3F80744241A48B933782BB14FF47A40A3
:10742000C847013D02D13570BDE8F88301233370B0
:10743000002CE8D1F8E700BF80CF020004B900209B
:10744000704703F0DDB8F0B595B01D461646084606
:107450000C4601F0C5FC1A9B0D93CDE9086500258B
:107460002B46082205A920460A958DF82C500C952C
:1074700001F0D3FC079B0293069B03939DF8143005
:107480008DF8115003F00302012A1DD1BDF814201C
:10749000059DC3F3C203C2F383168DF81030B2000A
:1074A00008230EA9204601F0B8FCC5F3952508ABCA
:1074B0000093324602AB0EA9284600F02BFB204673
:1074C00001F092FC15B0F0BD022AF8D1BDF81650BB
:1074D000C3F3C203C5F389158DF810300827082DB2
:1074E0002E4628BF08263B4632460EA9204601F00C
:1074F00094FCAD1B08AB02AA31460EA8374400F03D
:107500006DFB002DEBD1DAE708B5FFF79AFF0448D1
:10751000042100F069FA034B01225A7108BD00BF33
:1075200070CF0200E82A0020037813F0040216D07E
:1075300003F00303012B03D0022B09D00120704775
:107540000A6800880232C0F3831002440A60F5E73B
:107550000B684288023303EB92130B60EEE7104690
:10756000704700002DE9F04F87B000230446861CC9
:107570000DF107000F4615468DF8073000F010FF9B
:10758000404A51683960936803F580735B1A9246EC
:1075900002F21C4702F5836902F21448B3421AD37F
:1075A0000020002D69D004F00F039B0143F0050378
:1075B00063F30F00DAF80430DAB203321E444AF8FB
:1075C00022009DF80700CAF8046000F00DFF0120BA
:1075D00007B0BDE8F08F0121384601F02CF948468C
:1075E00001F041F9404601F03EF9DAF80800029056
:1075F000C0B203300AEB800002A9FFF795FF029B9F
:1076000030BBDAB20AEB8202D16803919A1C0133D3
:10761000DBB20AEB83030292D3F80CB001F0030350
:10762000012B22D0022B15D08346404601F01EF9D3
:1076300010B1029BCAF808305946384601F0FBF8F1
:10764000DAF80830DAF8042003F580739B1AA5E70E
:10765000D8B2CEE7BDF80E30C3F3891303334FEA37
:107660001B4B02EB93030293DFE7BDF80C30C3F32F
:1076700083134FEA1B4B1344F5E7A40544F00600BF
:1076800098E700BF18BA0020064B074810B5002243
:107690001A7001F05EFB044610B9044801F0F0FBDB
:1076A000204610BD18BA0020DCCE0200BCCF02007C
:1076B00030B50A4C71B10A4A0A49121BD20800239C
:1076C0009A4201D1002030BD31F82350854202D0CA
:1076D0000133F5E7034654F83300F4E7F0CE020037
:1076E00070CF0200E82A0020094B013903EBC000EB
:1076F000032909D8DFE801F00A02040604207047D4
:107700000079704740797047002070470220704729
:10771000F0CE020070470000034BD3E90130C31ADA
:1077200058425841704700BF18BA00202DE9F04177
:1077300086B0FFF7F1FF0546002840F0E680744C64
:10774000C4F81804BFF34F8FA3680293DBB203336E
:1077500004EB830002A9FFF7E7FE029B18B1D4F8FF
:107760001824002A55D0DAB2991C013304EB8202A6
:10777000DBB204EB8303D268DB68049302F00303FB
:10778000022B039202914FD1BDF80E306148C3F332
:107790008917502F3E4628BF502666F38F1306F1F7
:1077A0000801ADF80E3001F0ECFA0546002800F0B3
:1077B000978001F015FB002303A90822284601F059
:1077C00022FB0299CB43DBB20133C9B20331B6EBE2
:1077D000830F4FEA830804EB810122D90823424634
:1077E000A6EB0806284601F00EFBF6B24A4908F15E
:1077F00008033246284601F006FB029B033703EBE1
:1078000097070297D4F81834002B41D1D4F81064AC
:1078100051E062689A4299D8A260284606B0BDE855
:10782000F08108233246E5E7012B59D1BDF80C3031
:107830003848C3F38311062928BF062161F3891351
:1078400002318900ADF80C3001F09BFA05460028A2
:1078500046D001F0C5FA0023082203A9284601F00A
:10786000D2FA0026BDF80C20C2F38312B300964270
:1078700003F10803C6D202994A1CC9B2033102922D
:1078800004EB81010422284601F0BDFA0136E9E744
:10789000284601F0A9FAFFF73FFF80F00100C5B2CA
:1078A000BBE7F3685B7923B1336829461B68304630
:1078B0009847F3681E68002EF3D1284601F094FA29
:1078C0000DF107008DF8076000F06AFDD4F8183458
:1078D0000BB9029BA3609DF8070000F085FDDAE775
:1078E000D4F8104454B90D4B0D480E49C01AC008C5
:1078F000000440F0020000F05FF8CCE72368204667
:107900009B689847E3681C68ECE7002585E700BFA3
:1079100018BA0020DCCE020024BA0020F0CE02000B
:1079200018CF0200A4CF02002DE9F34704460E460B
:10793000924601A9012218469946FFF713FE1C4FF3
:1079400010B3019D4FF00008AA1CC84508EB0201C6
:1079500025D11848002100F03FFF80F310000004FB
:1079600040EA1440E4006B1C04F03804DBB2EDB2D2
:1079700044F0010407EB8303033544EA881444EA26
:107980008624D86047F825403B781BB1FFF7CEFE30
:107990000028FBD1FFF7BEFE02B0BDE8F087C9B2F8
:1079A00007EB81015AF82830CB6008F10108CCE7D9
:1079B00018BA002034BE002000231A46FFF7B4BFD7
:1079C00007B50123019201AAFFF7AEFF03B05DF8EE
:1079D00004FB07B5CDE9002302236A46FFF7A4FFA5
:1079E00003B05DF804FB000030B50F49D1F8102456
:1079F00003460020144634B9DC6820714AB9C1F846
:107A00001034226030BDE4682579854206D02468B0
:107A1000F1E7D268116821601360F3E701300A28AA
:107A2000E8D14FF0FF30EDE718BA0020084A38B52A
:107A30000123D2F8104413701D4604B938BDE36821
:107A40005D71236820465B689847E3681C68F4E72B
:107A500018BA002007B503460846197A052911D03F
:107A60005B7A2BB1094A0A49019000F062FF019844
:107A70000849019000F05DFF019803B05DF804EB48
:107A800000F04CBF002AF8D0F2E700BFC8CF0200D8
:107A9000CDCF020083D6020030B5C38885B004463E
:107AA0000D4633B1144A00921449154A284600F095
:107AB00040FF217A05291DD0637A4BB1A088FFF7DA
:107AC00013FE104B104953F82020284600F031FFD8
:107AD000227A0E4BA08853F8222003920021FFF750
:107AE000E7FD039A0A490346284605B0BDE8304041
:107AF00000F01FBF05B030BDC8CF0200D8CF0200D4
:107B0000D0CF020054D00200CDCF020078D00200C6
:107B1000F0CF02002DE9F04385B01F460C9D0023F5
:107B200095F80C902B7306460C469046294638462D
:107B3000FFF7B2FFB8F1060F09D8DFE808F004122A
:107B4000181F283340003146284600F0F2FE00227C
:107B500029463846FFF77EFF85F80C9005B0BDE852
:107B6000F08322683146284600F0E3FEEFE7D4E9CF
:107B700000233146284600F0DCFEE8E7A3680093C6
:107B80003146D4E90023284600F0D3FEDFE7E3685E
:107B90000193A36800933146D4E90023284600F0FE
:107BA000C8FED4E723690293E3680193A3680093B6
:107BB0003146D4E90023284600F0BBFEC7E76369DD
:107BC000039323690293E3680193A368009331460A
:107BD000D4E90023284600F0ACFEB8E708292DE9D7
:107BE000F74F80460E4617461C463CD8002593F8B2
:107BF0000C901D7319461046FFF74EFFDFF888A062
:107C0000DFF888B0AE4231D918F805205946204631
:107C100000F08FFE0135082DF4D11949194DDFF818
:107C200070A0204600F085FE4FF0000B5E4522D983
:107C300018F80B207E2A05D81046019204F004FDA6
:107C4000019A00B92E225146204600F072FE0BF137
:107C5000010BBBF1080FE9D1012221463846FFF79D
:107C6000F9FE84F80C9003B0BDE8F08F5146204631
:107C700000F05FFECEE72946204600F05AFEE6E718
:107C800004D0020002D0020000D00200FACF0200AD
:107C900006D002001FB50021039001AA44F20100A2
:107CA000CDE9011100F004F805B05DF804FB000017
:107CB00010B572B6FFF7BAFEFFF738FD0028FBD10A
:107CC000104B114C1149E41AE408240444F001005B
:107CD000FFF772FE0E4B1B68DB0700D500BE0D4997
:107CE00044F00200FFF768FEBFF34F8F0A490B4BC9
:107CF000CA6802F4E0621343CB60BFF34F8F00BF4A
:107D0000FDE700BFF0CE020018CF020097D00200BE
:107D1000F0ED00E0A3D0020000ED00E00400FA0561
:107D200049B152B1531E1A4007D18260016083806D
:107D3000C260104670470E2070470920704710B58A
:107D40008468C2688388121B934208D3C2681340B8
:107D50000268D154C3680133C360002010BD042001
:107D6000FCE78268C3689A420AD08268838813401D
:107D70000268D35C0B708368013383600020704716
:107D800005207047D0E90223D1E90201994208BFDA
:107D900090422CBF012000207047000008B50B481E
:107DA00000F055FC0A4B0B49D3E900231218D1E926
:107DB000000143F100038B4208BF824203D212F15B
:107DC000807243F100031046194608BDF02A0020D6
:107DD000D8BE002050BF002037B505460C460A48E3
:107DE00001A900F068FC60B10570446001A9064873
:107DF00000F08BFC18B1054800F02EFC002003B009
:107E000030BD0420FBE700BF3CBF0020F02A00206B
:107E1000284B73B51E7804461EB90026304602B0C2
:107E200070BD0028F9D0FFF7B9FFD4E902239942C9
:107E300008BF904238D300230DF107008DF80730BA
:107E400000F0AEFA23692BB94FF0FF324FF0FF3349
:107E5000C4E902239DF8070000F0C6FAD4E9053012
:107E6000984700250DF107008DF8075000F098FAAB
:107E70002169B9B1D4E90223581C08BFB2F1FF3F10
:107E800005D0521843F10003C4E9022335469DF89A
:107E9000070000F0A9FA002DBFD00748214601F0E5
:107EA0000EF8BBE70D46F2E7013308BFB2F1FF3F22
:107EB000B3D0F2E7E0BE0020C0D0020013B5114BF2
:107EC00011491868019008231048582200F0E0FB7F
:107ED000044698B90E4A0F4801A900F0A9FA0446D1
:107EE00060B90C48012100F095FB01230A4A0948BA
:107EF000194600F0F7FA094B01221A70204602B029
:107F000010BD00BFBAD00200E4BE00203CBF00207C
:107F1000CD7F0200F02A0020FFFF7F00E0BE00209E
:107F2000F7B5054600240DF1070017460E468DF8FB
:107F3000074000F035FAD5E90223013308BFB2F15A
:107F4000FF3F07D1FFF72AFF801941F10001C5E982
:107F5000020101249DF8070000F046FA4CB12B699C
:107F6000AF6103B12E6129460020FFF735FF03B052
:107F7000F0BD2046FBE737B5054600240DF10700AC
:107F80008DF8074000F00CFAD5E9022301330FBF4A
:107F9000B2F1FF3F4FF0FF324FF0FF33C5E902234C
:107FA00018BF01249DF8070000F01EFA2CB12946E5
:107FB0000120FFF711FF03B030BD2046FBE70000B2
:107FC000014800F044BB00BFF02A00202DE9F74F24
:107FD000804600F027FB40B1634AD2E9003113F13B
:107FE000807341F10001C2E900310021404600F0F8
:107FF00028FB38B15D4E336823B13068FFF708FFC6
:10800000002333600121404600F01BFB20B1FFF745
:10801000C5FE574BC3E900015648DFF8509101A94E
:1080200000F083FB4FF0FF364FF0FF3798B9DFF8D1
:1080300048A14E4F504600F058FF002800F08780BE
:10804000D0E90223591C08BFB2F1FF3F34D150469A
:1080500000F045FFEEE70378012B20D0022B09D179
:10806000DFF814A1504600F03AFF002877D0C0E9AD
:108070000267F7E753B94168D1E90223013308BF2A
:10808000B2F1FF3F02D03C4800F019FF01A9394886
:1080900000F076FB01A9374800F047FBC6E74168CE
:1080A000D9F80030994203D10023C9F80030EDE738
:1080B000314800F01DFFE9E7396891B13968D1E92D
:1080C00002018B4208BF82422FD23B68D3E90223D0
:1080D000013308BFB2F1FF3F03D03968504600F0CA
:1080E000EEFE504600F0FBFED0E9026B8146FFF742
:1080F00055FE341A6BEB0105012C75F1000319DBF9
:10810000B4F5350F14D3FFF75BFF1C4A02441C483B
:108110004FF49603002100F005FA98B93B6813B9B3
:10812000404600F0D7F9C7F8009003B0BDE8F08FE3
:108130003246ECE71248002100F079FA4846FFF792
:1081400067FE01E00D28F9D000233B6072E7074B82
:108150001B68002BE9D1404600F0C0F9E5E7094B68
:1081600001221A7092E700BFD8BE002058BF00203D
:1081700050BF00203CBF0020C0D00200FFFFB40071
:10818000F02A0020E0BE00200648074A037807498D
:10819000D35C012213B1043001F0F0BE0C3001F0C9
:1081A0009FBC00BFF82A0020C4BF002084BF00206D
:1081B0000648074A03780749D35C012213B104300B
:1081C00001F088BE0C3001F039BC00BFF82A002055
:1081D000C4BF002085BF002037B50578012D0BD026
:1081E000022D2ED065B91E491E48FFF7BAFD0028A2
:1081F00032D1FFF7DDFF03E0037A1BB9FFF7C4FFBD
:1082000003B030BD4368184C19782046FFF797FD3E
:1082100080B18DF800500190144B68461B68984758
:10822000A168E368A2885B1A9A42E7D2104B012248
:108230001A70E5E7A268E3689A42F1D08DF8000071
:10824000EAE7C3688DF800500193FFF79DFF074BE5
:1082500068461B689847D3E703238DF80030F6E79C
:1082600085BF002074BF002060BF00205CBF0020DD
:1082700070BF0020F0B51F46234B89B004461A603A
:108280000D4600293DD08A8820480968FFF748FD3F
:10829000002834D1AA89A9681D48FFF741FD0028AC
:1082A0002DD11C4E0FCE6D460FC596E80F0085E808
:1082B0000F0063690693237C174A18488DF81C70D9
:1082C000003B18BF01238DF81430637C002B14BFD2
:1082D0000E2300238DF81530E3680293A3680393FF
:1082E0002368019369466368009301F02BF830B965
:1082F0000B4B18702368013301D0FFF745FF09B01D
:10830000F0BD0720FBE700BF5CBF002060BF00207E
:1083100074BF0020CCD00200D9810200F82A0020CE
:1083200070BF002070B5084D014608482E78FFF751
:1083300018FD044636B100232B70FFF725FF08B166
:10834000FFF7A8FC204670BD70BF002060BF002072
:1083500010B501460E48FFF7F2FC0446A8B90D48D7
:108360000D4A0378D35C63B1043001F0FBFD60B9C2
:108370000A490748FFF7F5FC38B9BDE81040FFF798
:1083800017BF0C3001F0A0FBF1E7204610BD00BF85
:1083900074BF0020F82A0020C4BF002085BF002041
:1083A00070B5EFF3108672B60C4A946801239CB93D
:1083B00093600B4B0B4DD3F8801029401160C3F82C
:1083C0008050D3F8841051604FF0FF32C3F88420FE
:1083D000047006B962B670BD0370FAE788BF00206A
:1083E00000E100E0FC06FFBD084B9A6810B55AB1E9
:1083F00050B9EFF3108172B6054A1C6814605C68CE
:108400005460986001B962B610BD00BF88BF0020FB
:1084100000E100E0435882B03BB100234350435891
:108420000193019B012002B070471846FBE7000052
:10843000F8B5204B4479204D43F824201F4A204BA7
:1084400005EBC4049B1A2279DB081B0432B143F00C
:1084500002001C49FFF7B0FA0820F8BD02680C883A
:10846000C2F8084590F904608A7804795201002E18
:10847000D2B219DB14498F1987F80023012276093B
:1084800004F01F0402FA04F441F82640427905EB97
:10849000C201012445F832000C7143F003000B497E
:1084A000FFF78AFA0020D8E7094904F00F040A55BB
:1084B000ECE700BF9CBF002094BF0020F0CE02007C
:1084C00028CF0200ECD0020000E100E00ED1020053
:1084D00014ED00E0036801221A607047036801226E
:1084E0005A60704773B501F15005AD000068ADB238
:1084F0004FF480348C400026C0F80843C0F848434D
:10850000465101F5A8714559019522F07F42019D20
:1085100040F82120C0F844430BB1C0F8044302B036
:1085200070BD00002DE9F74F0D4622F07F44026830
:108530004FF4803705F150068F408046B60002EBBD
:108540008500C2F84873B6B2C2F80873D2F80415B1
:1085500099464FF0000BD0F84035C0F8401542F86E
:1085600006B05B1A9259009223F07F43012B009AC8
:108570004FEA850A0CD1264B4FF4806043F001038B
:108580009847D8F8003043F806B09B590193019BF7
:10859000D8F80010D1F80465C1F84473A31B23F088
:1085A0007F43012B1CD11A4B05F5A875013443F00C
:1085B000010341F825404FF480609847D8F8003017
:1085C000D3F804359E4209D1D8F800300020C3F812
:1085D0004473C3F8047303B0BDE8F08F0D20FAE7CD
:1085E0008A44C9F1FF13CAF84045D1F80405221A9C
:1085F000013A22F07F4203F57F439342EED3002AF3
:10860000E2D10134CAF84045D1F804359842DAE79E
:1086100020D1020003680222C3F8442309B1C3F841
:108620000423704700684FF48271FFF7F3BE4FF4E4
:10863000803303FA01F10368C3F84813C3F8081341
:10864000704750318900006889B2FFF7E3BE0368C4
:10865000D3F804057047000090F90430002B09DBC3
:108660005A09012103F01F0301FA03F340320249C2
:1086700041F82230704700BF00E100E0024B034A9E
:108680001B681068184700BF9CBF002094BF0020E3
:1086900010B561B1B2FBF3F403FB1424A4B244B9E6
:1086A000C0E9001484608281C381204610BD0E2081
:1086B000FCE70920FAE737B550E8013F9DB2C489CD
:1086C00025448489A54228BF2D1B0489A54202BFE9
:1086D000BFF32F8F002207E0C5EA030540E80154ED
:1086E000002CE9D14FF001028DF803200193019B8A
:1086F0009DF803200B6002F0FF0322B10B88006895
:10870000184403B030BD1846FBE70A884B889A42EC
:1087100009D150E8012FC2EA024240E80123002BB0
:10872000F7D1012070470020704737B550E8023F6D
:108730001FFAA3F5C488A54202BFBFF32F8F002202
:108740000DE0C48925448489A54228BF2D1BC3EAB6
:10875000054540E80254002CE8D14FF001028DF8A5
:1087600003200193019B9DF803200B6002F0FF039F
:1087700022B14B880068184403B030BD1846FBE7AF
:108780000A884B889A4209D150E8022FC2EA224255
:1087900040E80223002BF7D10120704700207047EA
:1087A00001F01F024B090121914000EB830000F012
:1087B0001EB801F01F0301229A404B0900EB830011
:1087C000D14300F02CB84B0901F01F0150F82300F1
:1087D000C84000F00100704710B5034653E8000F91
:1087E0000A4643E8002494F0000FF7D110BD10B5FD
:1087F000034653E8002F42EA010043E8000494F0E6
:10880000000FF6D110BD10B5034653E8000F00EA83
:10881000010243E8002494F0000FF6D110BD10B51A
:10882000034653E8002F02EA010043E8000494F0F5
:10883000000FF6D110BD10B5034653E8002F02EB30
:10884000010043E8000494F0000FF6D110BD10B50C
:10885000034653E8002FA2EB010043E8000494F024
:10886000000FF6D110BD0121FFF7C1BF0021FFF7B6
:10887000CABF10B590B1D0E9012301689B1ADBB2E1
:108880000A60013BDBB2FF2B026802D100201071AD
:1088900010BD11684C1C14600B70F2E70E20F7E756
:1088A00037B5054600240DF107008DF80740FFF7A6
:1088B00077FD2A686B68116899420ED9481E1060CE
:1088C00011F8014CEB68298A01FB0434AB6811797B
:1088D0001B1ADBB2994238BF13719DF80700FFF7EE
:1088E00083FD204603B030BD37B5054600230DF1AA
:1088F00007000C468DF80730FFF752FD2A68136811
:10890000591C1160E968641A298AB4FBF1F41C70DF
:108910009DF80700FFF768FD03B030BD826810B511
:1089200004462AB143690168006998470023A3609F
:1089300010BD0EB403B5039921B104AB01AA019394
:1089400000F076F802B05DF804EB03B070470A2936
:1089500038B504460D4602D10D21FFF7F8FFA36894
:108960002268591CA160D554D4E901329A4204D33B
:108970002046BDE83840FFF7D1BF38BD2DE9F84F9C
:108980009846DDE90A43154682460F460A464FF0EF
:108990000109AA420FD2C14538BFC14613F0010BED
:1089A00001D16CB900240126B8F1010F1BD908F1DF
:1089B000FF386E43F8E709F10109B2FBF5F2E8E789
:1089C0009B070ED5B8F1000F0CBF30262026A1451D
:1089D000E9D2013C31465046FFF7B9FF002CF6D1F1
:1089E000E0E72026F3E7B7FBF6F39D42E1D9DFF895
:1089F0003C80B7FBF6F3504618F8031006FB1377DC
:108A0000FFF7A5FF3346AB42B6FBF5F6F1D2BBF15B
:108A1000000F02D00CB1A14501D3BDE8F88F202191
:108A20005046013CFFF793FFF4E700BF26D1020058
:108A30002DE9F74F054617468846002900F0428188
:108A400018F8011B49B92B7B002B00F03B8128460D
:108A500003B0BDE8F04FFFF761BF252940F0B780B4
:108A6000002698F800302D2B424608F1010823D04B
:108A7000302B24D02B2B25D000242A2B02F10101EE
:108A800023D13B681A1D1B683A601C440A461378C0
:108A90002E2B26D101324FF0000A104610F8011B90
:108AA000A1F1300CBCF1090F1DD80A2303FB0A13F6
:108AB000A3F1300A0246F0E746F00106D1E746F09E
:108AC0000206CEE746F00406CBE711F8013CA3F11D
:108AD00030000928DBD80A2202FB0434303C0A4665
:108AE000CBE74FF0000A12F8011B01F0FB006828E9
:108AF0009046F8D0782909D86F290CD8632962D01C
:108B000022D8252963D0582900F0888098F80030B1
:108B1000002B95D197E770390829F7D801A353F8AE
:108B200021F000BF9F8C02000D8B02000D8B020014
:108B30002D8C02000D8B02000B8C02000D8B0200AD
:108B40000D8B02001D8C0200642901D06929DDD142
:108B50003A68D2F80090111D89EAE9723960A2EBF7
:108B6000E9724FF0010B092A35DCD34538BFD346F3
:108B70002CB1B9F1000F01DB720700D5013CB3073E
:108B800002D5BAF1000F03D0F00701D44CBB00248A
:108B9000B9F1000F2DDAC9F100092D212846FFF7A0
:108BA000D6FE06F00302022A04D1BAF1000F01D169
:108BB0001CBB0024CDE9004653460A2249462846FC
:108BC000FFF7DCFEA2E73B681A1D19783A602846D9
:108BD000FFF7BDFE9AE70A230BF1010BB2FBF3F29C
:108BE000C1E7A345D4D220212846013CFFF7AFFEC0
:108BF000CCE77107D5D52B21D0E7A345DAD23021B8
:108C00002846013CFFF7A3FED2E73968CDE90046CC
:108C10000A1D3A6053460A220968D0E739680A1DDE
:108C20003A60CDE9004653461022F5E73B681A1D2D
:108C30003A6016F00106D3F8009028D1B9F1000F80
:108C400003D0484603F0D1FD0646B44200D904BB28
:108C500009F1FF3919F8011F00293FF457AF2846E1
:108C6000FFF775FEF6E728460136FFF770FE19F8A4
:108C700006100029F7D1A642BFF448AF002C3FF4FC
:108C800045AF20212846013CFFF761FEF3E70026AF
:108C9000EDE720212846013CFFF759FED5E73B6868
:108CA0001A1D3A60302128461C68FFF750FE7821D3
:108CB0002846FFF74CFE00220823CDE9003221466A
:108CC00010227CE703B0BDE8F08F00BF2DE9F84F1C
:108CD000B0F806A04579D2F800B09DF828900AFBBC
:108CE00005F5043D88460BEB0301A94203F104049A
:108CF00088BFA5EB030BB4FBFAF607460AFB164444
:108D0000C2F800B04EB9AAEB04055D4528BF5D4628
:108D1000BBF1000F04D1BDE8F88F3F68013EF1E7D9
:108D2000043408EB06003C442A46B9F1000F0DD08C
:108D30002146ABEB050B03F0DAFCDA452E443F6825
:108D400055464FF0000428BF5D46E1E70146204646
:108D5000EFE7FFF78EBDF8B546790146721E05466E
:108D6000002393422D6803D30024A64202D8F8BD05
:108D70000133F6E70F682846FFF7B6FD01343946A0
:108D8000F3E72DE9F843068ACD1C0746FFF788FD77
:108D9000043E35440446B5FBF6F5F0B14FF480735C
:108DA000EDB28380C680013D076081464FF0000828
:108DB000A84512D23846FFF773FD064648B16379DD
:108DC0000133637108F10108C9F8000007608146AA
:108DD000EEE72046FFF7BFFF34462046BDE8F883A4
:108DE00001210430FFF727BD10B5012104460430EE
:108DF000FFF72DFD10F0FF0F04D12046BDE8104015
:108E0000FFF7A9BF10BD1FB503920022009203AA6D
:108E1000FFF75CFF05B05DF804FB1FB5039201226C
:108E2000009203AAFFF752FF05B05DF804FB41DF93
:108E30007047000007B500230DF107008DF80730DB
:108E4000FFF7AEFAF1EE103A23F09F03E1EE103A8D
:108E5000BFF35F8F094B4022C3F884219DF80700C0
:108E6000FFF7C2FA02F02AF920B1FFF7E0FF03B0E2
:108E70005DF804FB20BF40BF20BFF8E700E100E041
:108E8000836800225A60C3E904229A60DA601A609B
:108E900070470B684A684360934208BF0023016033
:108EA00008BF43607047436843B1026891685268E5
:108EB0000B449342436004BF00234360704770B586
:108EC000446806460D46206818B1B368294698479D
:108ED00018B923682B60256070BD2468F3E74368E8
:108EE000186808B102681A607047436818687047CC
:108EF0004368186800B97047884203D102681A6055
:108F00000120704703460068F4E7000010B50D49E2
:108F1000A1F59472914201D800200FE08C1AE30F62
:108F200003EBE4035B1002EBC30452F833308342DB
:108F300005D802D204F10802ECE7606810BD2146B2
:108F4000E8E700BF40D6020008B5FFF7DFFF024B9D
:108F5000002808BF184608BD02D5020010B5044617
:108F6000C0B2FFF7F5F9204610BD0000034B1868AA
:108F7000A0F1080358425841704700BF300100106B
:108F8000064B1B68082B06D1054B1B68052B02D826
:108F9000044AD05C70470020704700BF30010010C9
:108FA0003401001046D60200024AD2F80034002BE9
:108FB000FBD0704700E0014010B5FFF7D7FF40B18C
:108FC0004FF080430022C3F80C21C3F81021C3F8EE
:108FD0003825FFF7CBFF002846D04FF08052614B79
:108FE000D2F80414C3F82015D2F80814C3F82415D5
:108FF000D2F80C14C3F82815D2F81014C3F82C15A5
:10900000D2F81414C3F83015D2F81814C3F8341574
:10901000D2F81C14C3F84015D2F82014C3F8441534
:10902000D2F82414C3F84815D2F82814C3F84C1504
:10903000D2F82C14C3F85015D2F83014C3F85415D4
:10904000D2F83414C3F86015D2F83814C3F8641594
:10905000D2F83C14C3F86815D2F84014C3F86C1564
:10906000D2F84424C3F87025FFF78AFF10B13E4BB5
:109070003E4A1A60FFF784FF18B13D4BFB22C3F84C
:109080001825FFF77DFF48B13A493B4B0A681B683A
:1090900022F00F0203F00F0313430B60FFF770FF82
:1090A00018B1364B4FF400721A60FFF75FFF48B1FA
:1090B0004FF08043D3F80024D20744BF6FF0010281
:1090C000C3F800242E4AD2F8883043F47003C2F863
:1090D0008830BFF34F8FBFF36F8F2A4B1B68082B6D
:1090E0000ED1294B1B68052B02D8284AD35C3BB113
:1090F0004FF01023D3F808224FF08043C3F85825CF
:109100004FF01023D3F80022002A03DBD3F80432F7
:10911000002B22DA1E490123C1F80435FFF744FF72
:109120004FF010201224C0F80042FFF73DFFC0F8B6
:109130000442FFF739FF0023C1F80435FFF734FF7D
:10914000BFF34F8F0E49134BCA6802F4E06213431A
:10915000CB60BFF34F8F00BFFDE70F4B0F4A1A6084
:1091600010BD00BF00C000408C5600404881030085
:1091700000F00040E40E004058020010409602400B
:1091800000ED00E0300100103401001040D6020074
:1091900000E001400400FA050C2B00200090D003F1
:1091A00038B5074C051E04F1080318BF1C46236898
:1091B0002BB11A6822605B6828469847F7E738BDEC
:1091C000A8BF002020B9054B01225A70FFF7E8BF65
:1091D000012802D1014A9070F8E77047A0BF002033
:1091E00020B9034B01225A70FFF7DABF704700BF66
:1091F000A0BF002038B50E4C2378B3B90D4863608A
:10920000A3602361E36000F0E5F8054601F056FF36
:1092100008B900F0EBF801232370074BD3F80034B2
:109220000BB10123A370284638BD8525F5E700BFA3
:10923000A0BF0020C59102000000014037B50D4CD1
:1092400000230DF107008DF80730FFF7A9F8E36858
:10925000013BE360E36833B9074BD3F8005415B919
:1092600000F0D6F8A5709DF80700FFF7BDF803B031
:1092700030BD00BFA0BF002000000140012813B591
:109280000CD0032820D038B9124B0122C3F880201B
:10929000BFF34F8FBFF36F8F02B010BD0E4C002392
:1092A0000DF107008DF80730FFF77AF823780BB936
:1092B000FFF7A0FFE3689DF807000133E360012397
:1092C000A370FFF791F8E7E700F090F8FFF7B6FF1B
:1092D000E2E700BF00E100E0A0BF00201FB5037877
:1092E0008DF800304368019383688DF80830C368B7
:1092F000054A0393054B684653F8213052F8211074
:10930000984705B05DF804FBB4BF0020BCBF002047
:109310001FB503788DF800304368019383688DF89A
:109320000830C368054A0393054B684653F821305B
:1093300052F82110984705B05DF804FBB4BF002037
:10934000BCBF0020F0B5194B90F800C0DFF86CE00E
:1093500043F82C20164B16460A6943F82C204B7F05
:109360000EF80C300C4607460FCC89B06D460FC581
:1093700094E80F0085E80F001EF80C30CDF810C0FF
:109380004BB1002E0B4A694608BF3246381D00F02B
:10939000C3FC09B0F0BD002E074A694608BF32463B
:1093A00007F10C0000F078FAF3E700BFBCBF002023
:1093B000B4BF0020DD92020011930200C4BF002060
:1093C00000F18040002382B0036003680193019B99
:1093D00002B07047044A137923B9012110609180CB
:1093E0001846704785207047C8BF0020074B1A6891
:1093F000D20704D4C02283F8002301221A604FF060
:1094000080430122C3F81825704700BF00E100E047
:109410004FF0804208B50223C2F808334FF482703F
:10942000FFF7CEFF034B01211960D2F81834DB039C
:10943000FBD408BD0C000040124B1B6810B573B183
:109440004FF48070FFF7BCFF4FF080430122C3F858
:1094500008230D4B587910B95A711B6898470B4B6C
:109460001B6873B14FF48270FFF7AAFF4FF080437F
:109470000222C3F80823044BBDE810401B680120FA
:10948000184710BD00010040C8BF00200401004083
:1094900000F1804000F5C040002382B00360036803
:1094A0000193019B02B0704703681F2B83BF03F039
:1094B0001F03036001484FF0A040704700030050B5
:1094C00007B5019001A8FFF7EFFF019B00EB8300B8
:1094D000D0F8003723F44033C0F80037D0F8003715
:1094E00043EA0141C0F8001703B05DF804FB000037
:1094F0002DE9FF470024CDE90244584D4FF4807216
:10950000012102F1804303F5C04390B21B68012B97
:1095100006D1D5F804330B4202D0FFF7B9FF0C4354
:109520000432B2F5907F4FEA4101EAD14C4B1B68FF
:10953000012B11D14FF4BE70FFF7AAFF4FF0A043EB
:1095400044F00044D3F820250292C3F82025D3F834
:1095500020280392C3F8202814F0FF0F1AD0414F9F
:1095600000250126344210D0AB0003F1804303F5FF
:10957000C043D3F81005D3F8101557F8253023B1A0
:10958000C1F30141C0F3052098470135082D4FEA8A
:109590004606E7D1002C59DA324D334C334E4FF0AA
:1095A0000008012716F9013B5A1C3CD0C3F3C20145
:1095B00004A801445FFA83F911F8081C03F03F0284
:1095C00003F0070307FA03F319422CD001A8019214
:1095D000FFF76AFF019B03F5E07350F82330C3F3F4
:1095E000014ABAF1020F10460CBF03210221FFF716
:1095F00067FF01A80192FFF757FF019B07FA03F3EA
:10960000C0F82035AB1893F9303055F8233053B1FA
:109610004FEA9911032904D0BAF1020F19D1012997
:1096200001D11046984708F10108B8F1040FB9D1EB
:109630004FF0A043D3F820250292C3F82025D4F898
:1096400020350393C4F820351343A7D104B0BDE8F7
:10965000F087BAF1030FE6D10229E1E7006000408C
:109660007C610040D0BF00200003005030C00020CB
:10967000014B1B68184700BF3CC000200E4B9842AE
:1096800037B50C4602D0002003B030BD00230DF1E9
:1096900007008DF80730FEF783FE084B1D7915B9DA
:1096A00001221C601A719DF80700FEF79DFE002D37
:1096B000E9D01120E8E700BF002000403CC00020B6
:1096C0000023435082B043580193019B02B070477E
:1096D0000A4610B54FF48E71FFF7F2FF136A9168D6
:1096E000C95C136A01331362C0F81C1510BD024631
:1096F00008B500684FF49271FFF7E2FF4FF48471F0
:109700001068FFF7DDFF136801221A6008BD8B693E
:109710000A4610B54FF4847123B9FFF7D1FFD0F892
:10972000183510BDFFF7CCFF536AD168D0F8180583
:10973000C854536A01335362F3E700001FB5012395
:109740008DF80030044BCDE90110D3E900126846D2
:10975000904705B05DF804FB44C0002030B54C488C
:10976000D0F8043313F4007F85B005464DD0D0F80F
:109770002431002B49D04FF49271FFF7A1FF4FF431
:109780000173C0F80833434B93F829200AB901222A
:1097900042603F4902228DF80020D1F88024C1F8B0
:1097A000802403929A690292DA6801920022C3E946
:1097B00006226846D3E9001290473548D0F81C319C
:1097C0005BB134494A690B6A9A420A464AD991F810
:1097D0002830002B46D1FFF77BFF2D48D0F84431CD
:1097E0008BB14FF4A271FFF76BFF2A4B93F829203E
:1097F0000AB1012202609A692AB10022586AD96826
:109800009A61FFF79BFF05B030BDD5F804335B07C5
:10981000D3D5D5F80831002BCFD01E4C1C4821469B
:10982000FFF775FF636AA2699A422346C5D1E269D0
:10983000E1684AB12369E3600023606AA261E361E1
:109840006362FFF77BFFB8E794F829200AB9012289
:109850006A600F4A4FF40170C2F808030022586A88
:109860009A61EEE70A484FF48E71FFF729FF5369BA
:10987000002BB2D051690291002391688DF800301D
:10988000019153616846D2E900139847A5E700BFEC
:109890000020004044C000202DE9F843614B0579C9
:1098A00091462C2202FB0532064692F82A200C46ED
:1098B0009846002A40F0B1805B490068FFF7DEFE61
:1098C0000746002840F0AB8021684A1C10D01F29B1
:1098D00087BF564A01F01F030B464FF0A0420120FC
:1098E000984003F5E073C2F80805032042F823000E
:1098F0006068431C0DD01F288BBF00F01F03034678
:109900004A4A4FF0A04203F5E0734FF0000C42F8D2
:1099100023C03368A269C3F8242594F814C0627D7B
:10992000BCF1010F4CEA0202C3F86C25C3F8140520
:10993000C3F80C152BD1A168481C0DD01F298BBF73
:1099400001F01F020A4639484FF0A04002F5E072CC
:109950004FF0000C40F822C0E068421C13D01F28D2
:1099600087BF324A00F01F0C84464FF0A0424FF0F0
:10997000010E0EFA0CFE0CF5E07CC2F808E54FF083
:10998000030E42F82CE0C3F80805C3F810152C2389
:109990006B4308EB0302C2F80490226948F80320E5
:1099A000B9F1000F21D03068247F4FF48E71FFF79A
:1099B00087FE4FF4A2713068FFF782FE32681C4BBD
:1099C000C2F80433110B42F307326301002ADBB201
:1099D0001EDB1848841884F800330123520901F073
:1099E0001F0103FA01F140F8221033680422C3F882
:1099F00000252C2303FB05830022C3E9062283F8FC
:109A000029205A61012283F82A203846BDE8F883CC
:109A1000094A01F00F015354E7E70827F5E711273A
:109A2000F3E700BF44C000205D9702000003005030
:109A30008000020000E100E014ED00E02DE9F047B5
:109A4000204F90F804904FF02C0808FB097405464D
:109A50006669002E34D162610068A16026624FF40D
:109A60008E7184F82860FFF72BFE2868012383603D
:109A70002146FFF72DFE6368A0468BB92868D4F80D
:109A800014A0236A9A4511D82A68D2F81C31002BF9
:109A9000FBD00123D3602C2303FB097300225A61FE
:109AA0003046BDE8F08794F828303BB9D0F81C3137
:109AB000002BF8D04146FFF70BFEE2E70F26EAE75E
:109AC0001126EDE744C000200379044A2C2101FB54
:109AD00003235869003818BF0120704744C0002094
:109AE0002DE9F843394F05792C2303FB057306460E
:109AF0005C6824B103684FF40170C3F808032C2399
:109B000003FB0573986950B1D86900283ED024B191
:109B100033684FF40172C3F80423112433E09A61CF
:109B2000D9605862D8612C2303FB057393F8293060
:109B30001BB910B93046FFF7DAFD4FF02C0909FBCD
:109B400005783068D8F80430002B34D14FF4A27176
:109B5000C146FFF7B5FD3068D0F82431D0F80821B0
:109B6000D0F84441B2B90CB9002BF4D02C2202FB3E
:109B700005750022AA6123BB2CBB95F82910336818
:109B80000122B1B11A602046BDE8F8831961DA619B
:109B90000120C8E7002BE9D1002CE7D14946FFF7A7
:109BA000B6FDD8F82430D8F818209A42D3D82346E6
:109BB000DCE75A60E7E74FF40173C0F80433002490
:109BC000E1E70324DFE70F24DDE700BF44C0002006
:109BD0000023435082B043580193019B02B0704769
:109BE0001FB501238DF80030044BCDE90110D3E9F6
:109BF00000126846904705B05DF804FB70C0002075
:109C00007FB5434AD2F82461002E60D010464FF44D
:109C10009271FFF7DDFF02238DF80030D2F8803417
:109C2000C2F880340393D2F83C350293394BDA689A
:109C300001920022C3E906226846D3E90012904748
:109C40003348D0F8443173B14FF4A271FFF7C0FF2D
:109C5000304B9A693AB10022C3E90622D968D0F89C
:109C60003C05FFF7BDFF2A48D0F82031ABB14FF4D7
:109C70009071FFF7ADFF0123C360264B5A6962B1B3
:109C8000D0F84C150291002299688DF800200191BE
:109C90005A616846D3E9001290471D48D0F8583100
:109CA0009BB14FF4AC71FFF793FF1A4B5A6962B145
:109CB000D0F84C150291002299688DF8002001918E
:109CC0005A616846D3E90012904704B070BDD2F8DB
:109CD0001031002BB4D04FF488711046FFF778FF95
:109CE0000C4BD2F83C0599698842A9D1DC69D96846
:109CF00064B1D2F8005225F02005C2F800521A696A
:109D00009C61DA60DE61FFF76BFF99E79C61FAE71F
:109D10000020004070C000202DE9F843674B067911
:109D20009146242202FB0632044692F820200D467A
:109D30009846002A40F0BE8061490068FFF79EFC0B
:109D40000746002840F0B8802868421C10D01F2821
:109D500087BF5C4A00F01F0303464FF0A042012179
:109D6000994003F5E073C2F80815032142F8231067
:109D700069684B1C0DD01F298BBF01F01F030B46D8
:109D8000504A4FF0A04203F5E0734FF0000C42F848
:109D900023C02368AA69C3F8242595F814C06A7DF6
:109DA000BCF1010F4CEA0202C3F86C25C3F80C05A4
:109DB000C3F814152BD1A968481C0DD01F298BBFDF
:109DC00001F01F020A463F484FF0A04002F5E07242
:109DD0004FF0000C40F822C0E868421C13D01F2846
:109DE00087BF384A00F01F0C84464FF0A0424FF066
:109DF000010E0EFA0CFE0CF5E07CC2F808E54FF0FF
:109E0000030E42F82CE0C3F80805C3F8101524230C
:109E1000734308EB0302C2F804902A6948F8032050
:109E2000B9F1000F30D020682A7F4FF48871FFF716
:109E3000CFFE20684FF49071FFF7CAFE20684FF400
:109E40009271FFF7C5FE20684FF4A271FFF7C0FEC4
:109E50004FF4AC712068FFF7BBFE23681A49C3F8C2
:109E60000413190B43F307335201002BD2B21CDB4E
:109E70001648C51885F8002301225B0901F01F016F
:109E800002FA01F140F8231023680822C3F80025E4
:109E9000242303FB06830022C3E906225A61012220
:109EA00083F820203846BDE8F883094B01F00F0104
:109EB0005A54E9E70827F5E71127F3E770C00020B7
:109EC000019C0200000300501003420000E100E08A
:109ED00014ED00E001F06043B3F1005F2DE9F041C3
:109EE000064638D11E4B0779242505FB07359846D1
:109EF0006C69002C31D16A610068A9604FF49071DF
:109F0000FFF766FE4FF4AC713068FFF761FE33680F
:109F10006A69A968C3F84415C3F8482501229A6004
:109F20006A68AAB9D3F82021D3F858411AB9002C8D
:109F3000F8D00F2407E0002CFBD10122DA60D3F81F
:109F40005821002AFBD0242303FB078700237B61D1
:109F50002046BDE8F0811024FAE71124F8E700BF9D
:109F600070C000200379044A242101FB03235869AF
:109F7000003818BF0120704770C00020F8B501F00C
:109F80006043B3F1005F04460F465ED10379304D64
:109F9000242101FB0351496821B100684FF4047684
:109FA000C0F80863242000FB03539E6956B1D869AA
:109FB000002839D021B123684FF40472C3F8042378
:109FC000112030E09A61DF60DE6120684FF4887113
:109FD000FFF7FEFD20684FF4A271FFF7F9FD23683B
:109FE000C3F83475C3F8382516BB01221A602179ED
:109FF000242202FB015252680ABBD3F81041D3F865
:10A000004421D3F82401144302D10028F5D022467C
:10A01000242303FB01550023984218BF03209A42D2
:10A02000AB6118BF0F20F8BD1F61DA610126CCE7D4
:10A03000D3F8002242F02002C3F80022D7E74FF401
:10A040000472C3F804230020EDE71020EBE700BF03
:10A0500070C00020032811D8012A0AD101290FD18C
:10A0600000F10E02D2B20D4B00EB40001A5400205A
:10A0700070470129F7D0022904D049B10720704761
:10A080000022F8E7054B00EB400018444270EEE771
:10A09000024B00EB400018448270E8E794C00020B7
:10A0A00008B5012202210020FFF7D4FF08B10728DC
:10A0B00010D1072202210120FFF7CCFF08B10728A9
:10A0C00008D100210A220846FFF7C4FF10B1072873
:10A0D00008BF002008BD00000388102B10B502D077
:10A0E000112B1ED010BD1A4C2168B1B901220846AF
:10A0F000FFF7B0FF08B1072824D107220221012071
:10A10000FFF7A8FF08B107281CD104220221002074
:10A11000FFF7A0FF08B1072814D12368013323609B
:10A12000E0E70B4A1368013B1360002BDAD1FFF71D
:10A13000B7FF0028D6D0074B1B68002BD2D0BDE854
:10A1400010401847034B1B68002BE6D09847E4E704
:10A15000A4C00020A0C0002073B50378012B33D029
:10A16000022B31D073BB1A4C1A4D20782844FEF7CD
:10A17000D9F823780133DBB21D44237015F8012C84
:10A180000A2A05D00D2A03D0134A12889A4219D8F8
:10A19000012B15D90F4D114E2378ADF806300DF176
:10A1A00006024FF6FF732946304600F053FF082899
:10A1B00006D01328F0D0052802D008B1FDF76AFDBB
:10A1C0000023237002B070BD4068FDF763FDF9E71E
:10A1D0001CCE002028CD0020CAB80020CCB800201A
:10A1E0002DE9F04F914D0FCD97B010AC0FC495E80D
:10A1F00003008F4B8F4A0C934FF4807384E8030065
:10A20000CDE90E230D938C4A07230CA910A8FEF765
:10A2100031F808B1FDF73EFD4FF480410020FDF715
:10A2200033FA08B1FDF736FDFDF76EF9FDF746FE8E
:10A2300008B1FDF72FFD814802F028FA8049814AD4
:10A2400000200B78DB01A3F578531B1203F30703FF
:10A2500013704B78DB01A3F574531B1203F3070350
:10A2600053708B780330DB01A3F56253B0F5406F78
:10A270004FEA232301F1030103F3070302F1030271
:10A2800002F8013CDDD17048704CDFF800B202F0FA
:10A29000FDF94FF0090A0623CDE9053A6C4B04930A
:10A2A000202600254FF002084FF001090523032264
:10A2B0003146CDE900630896664B079404F50040EB
:10A2C000CDE902890A95CDF824B001F02EFA624852
:10A2D00002F0DCF94FF40041204600F05BFF5F48DC
:10A2E00002F0D4F9102704F50043324631462046E7
:10A2F000CDE90353CDE901870323009501F0A2FFC7
:10A30000574802F0C3F9574BCDF818A00422059224
:10A3100005223946CDE90747CDE90393CDE900721F
:10A32000514BCDF80880324604F50040CDE909B51F
:10A3300000F064FF484802F0A9F94FF4805120462C
:10A3400000F028FF454802F0A1F94FF0080A04F593
:10A3500000433A4639462046CDE903B3CDE9018AA8
:10A360000323009501F06EFF3D4802F08FF90723AB
:10A37000CDE905933D4BCDF808800522CDE900627B
:10A3800051463A46CDE9074ACDE9039304F500402A
:10A39000374BCDE909B500F031FF2F4802F076F9CF
:10A3A0004FF40061204600F0F5FE2C4802F06EF9F3
:10A3B00004F50043CDE903B3042332465146204659
:10A3C000CDE901830095032301F03CFF2448294E89
:10A3D00002F05CF9284B294904944FF40072CDE94E
:10A3E00001A304F500400A230396CDF8009001F084
:10A3F00057FD2348234C02F049F932460A213046E2
:10A4000001F0C2FF204802F041F9294616F9012B5C
:10A410002046013502F03AF90A2DF6D1FDF786F90A
:10A420000028FBD1FEF706FDF8E700BFECD60200DE
:10A4300082D200208273012059A102006ED6020050
:10A44000C09800208253012086D6020082D30020CB
:10A45000102B0020302B00209BD60200ADD602002E
:10A46000B9D6020090340020A0340020A06600205D
:10A47000C066002078D20020C0A40020CAA400201A
:10A48000C8D60200E1D60200D2D60200A8C0002041
:10A490000369C1688B429DBF8268D21802F1FF3206
:10A4A00003F1FF3394BF501A581A70472DE9F8434F
:10A4B000D0E902940546A9EB040840689045204481
:10A4C0000F46144404D902F012F9EC60BDE8F88399
:10A4D0004246A4EB090402F00AF96868224607EB39
:10A4E0000801F0E72DE9F843C56806468946174696
:10A4F0004FF000083469B3687068A54228BFE418BB
:10A50000013C621B5C1BBC4228BF3C46944228BFF6
:10A51000144649462844224602F0E9F8B368254427
:10A52000AB4208BF00253F1BA044A144F560E1D128
:10A530004046BDE8F883000010B5114C114AA261F5
:10A540000223C4E90433104BE361A2644FF40073A7
:10A550000E4A0F492362E26400231022E01DA36229
:10A560006362E362A3656365E365226502F01BF93C
:10A570000849204602F017F92023A37110BD00BF3F
:10A580008474012004D702000C750120FC740120A2
:10A590000DD7020011D70200F8B5184C182300FBA4
:10A5A000033503FB00402544C46A012C0F461646C0
:10A5B0000FD0022C1AD0F4B92846FFF769FF864263
:10A5C00005D8324639462846FFF770FF3446204604
:10A5D000F8BD2846FFF75CFF8642344628BF044694
:10A5E000224639462846FFF761FFF0E72846BDE8D6
:10A5F000F840FFF777BF0024E9E700BF847401202B
:10A60000FFF79ABF30B5C8B1F2B10024651C8D4286
:10A6100006DA1588A54212D805196D789D420ED12B
:10A62000A14211D9005D48B1013880B230B1023485
:10A63000A3B210FA84F4A14206DB138030BD055D9D
:10A6400001352C44A4B2E1E70020F7E713B5134627
:10A650000022ADF806200DF106020446FFF7D2FFF6
:10A6600010B1BDF80630E01802B010BD72DF7047BF
:10A6700073DF704738B5012204460D46B0F8141454
:10A68000D0F81004FFF7E2FF00B1057004F13C02BE
:10A6900004F5826104F15400BDE83840FFF7E6BFDD
:10A6A000F8B5077804460D46002F00F0098100F246
:10A6B0002646817007220021304602F041F8E388E7
:10A6C00013B1A378012B04D0E3794BB1A378022B0B
:10A6D00006D1636BA3B1012284F82D24082098478A
:10A6E000334604F22C4113F8012F12B99942FAD1E2
:10A6F00017466B1E032B57D8DFE803F0050B0F122C
:10A7000084F82D34ECE7A3791BB194F8243003B915
:10A710005FB9E3790BB1002F48D1237A002B47D1E1
:10A72000637A002B0CBF00250425636BA570002BFA
:10A7300040D0033D012D3DD86279002A3AD094F8EB
:10A740002E24002A36D184F83024012284F82F24C4
:10A750000720984704F13C0518220021284601F003
:10A76000EFFFE26A0123511E994284F83C3001D97F
:10A77000042A00D1D3B294F8242084F8513042B195
:10A78000A36A591E012902D9042B18BF012384F89A
:10A790005230A178002384F8503004291BD8DFE818
:10A7A00001F0770D223559000025BEE70225BCE7F0
:10A7B0000325BAE7002384F82F34CBE7C4E91063FC
:10A7C000C4F820340223012284F83C30802384F82A
:10A7D0003120A4F84830A378002B5CD1636B002BA8
:10A7E0006AD1002067E00223002A84F8313014BFC8
:10A7F0000723032384F83C302369A4F8483000235E
:10A80000C4F82034E36826646364E4E7636963643E
:10A81000A369A4F8483012B1062384F83C30637968
:10A82000B3B194F82E349BB994F8303483B1022339
:10A8300084F8503004212046FFF71CFF0028CAD1BD
:10A84000052384F8313004F58263C4F82034C2E76C
:10A850000323F6E7E3696364236AA4F8483012B17E
:10A86000062384F83C30637983B194F82E346BB9B5
:10A8700094F8303453B1022384F850300421204638
:10A88000FFF7F8FE0028A6D10623DAE70423D8E76D
:10A8900084F831309FE7D4F820142A4604F154009C
:10A8A000FFF7E4FE38B994F8301094F85400FFF73D
:10A8B000DFFE002892D0F8BD94F83100984790E769
:10A8C0000820F8E70388112B10B50C460AD0262B78
:10A8D0001FD0102B05D1C37B012B02D18388A1F897
:10A8E000243410BD0022838881F82E24B1F824245A
:10A8F0009A42F6D10B79002BF3D101212046FFF7C4
:10A90000CFFE0028EDD0A36B002BEAD0BDE81040AD
:10A910001847037A013B012BE3D8897805230131DD
:10A92000B1FBF3F303EB8303C91AC9B2E6E70000F6
:10A93000034B1A8882420CBF18460020704700BFA4
:10A9400028770120024B9B6903B11847704700BF6D
:10A950000C77012037B50B46497A0F4A71B9D2E915
:10A9600001141D7A0246002D18BF21465868FDF7D4
:10A97000D7FA08B1FFF7E6FF03B030BD0021197226
:10A980005369002BF8D00122ADF806008DF80420A1
:10A9900001A89847F0E700BF0C7701204B88028898
:10A9A0009A4213D842889A4210D380888A8840F20B
:10A9B000F313984294BF031AC31A934206D800F2C5
:10A9C000F310904234BF00200120704700207047F0
:10A9D0000388122B70B5014659D004D8102B1ED015
:10A9E000112B44D070BD502BFCD12F4BC288DB897A
:10A9F0009A42F7D1038A022BF4D186883046FFF7BA
:10AA000097FF05460028EDD001F1120000F028F96B
:10AA100038BB6868FDF7AFFA0028E3D009E0C37BD4
:10AA2000012BDFD14FF6FF70FFF782FF054620B9FB
:10AA30000420BDE87040FFF785BF1C4A8E88068061
:10AA4000002303721368C0F80A305368C0F80E3050
:10AA500010310A30FFF7A2FF134B6872DB89002B1D
:10AA6000C0D129463046BDE87040FFF773BF8088EB
:10AA7000FFF75EFF04460028B4D04068FDF77BFA7C
:10AA800008B1FFF75FFF4FF6FF732380AAE78688C0
:10AA90003046FFF74DFF05460028A3D008310A30A5
:10AAA000FFF77CFF6872DCE70C7701203C77012020
:10AAB0000AB1FDF775BEFDF77CBE73B50191019C2F
:10AAC00006466CB100252C46294601A8FDF77BFE01
:10AAD00018B106EB440301349D800135142DF3D1E8
:10AAE0003046346002B070BD2DE9F0470388848899
:10AAF000103B8CB005460A2B1FD8DFE803F0063F59
:10AB00001E1E1E1E1E1E1E604400314EB368DB4317
:10AB1000009371686846FDF782FE009901A8FFF76F
:10AB2000CCFF0DF108094FF00008019B984507D3B1
:10AB3000132C13D90420FDF7ADF80CB0BDE8F08755
:10AB400039F802AB00270137514606EB8700FDF7C5
:10AB500030FE1E2FF7D108F10108E6E71D48214617
:10AB6000FDF71EFE1C482146FDF71AFEEB7B022B6B
:10AB7000E3D11A482146FDF713FEDEE715482146CA
:10AB8000FDF717FED9E7027A15483F2A4FEA12155A
:10AB9000214694BF00220122FFF78AFF022D94BFB5
:10ABA000002201220F482146FFF782FF012D0E48A7
:10ABB00094BF002201222146FFF77AFFBDE7037A06
:10ABC000002BBAD1427A0648C2F3C0022146F3E70D
:10ABD000447701204C7701204877012050770120ED
:10ABE0005C77012058770120547701201328014613
:10ABF00002D80248FDF7E7BD0020704748770120E2
:10AC000010B50446FFF7F2FF002814BF20461420B9
:10AC100010BD70B50546164608460AB90E2070BD2F
:10AC200000231360002DF9D02B68002BF6D0EB88A1
:10AC300013F003040ED1FFF7E3FFC0B214280BD0CA
:10AC40002B7983420AD9EB882A6800FB0320306005
:10AC50002046E4E70720E2E70520E0E70420DEE7FE
:10AC6000007800F00100704790DF7047A5DF704763
:10AC7000B5DF70477FB50023ADF80810ADF80A10B6
:10AC80006A4602A9064603930093ADF80430FFF725
:10AC9000EBFF054600B3124B124CE41AE408FEF732
:10ACA00053F9240444F0010403460F493246204678
:10ACB000FCF78FFEBDF80020BDF8023052EA030118
:10ACC00003D00A492046FCF784FEBDF804201AB1DF
:10ACD00007492046FCF774FE284604B070BD00BF4B
:10ACE000F0CE020040CF020018D7020062D7020067
:10ACF000A1D7020013B5034680880C46A0B91A8874
:10AD0000242A75D012D8112A51D0232A7DD0102A96
:10AD10003AD0A37A43B1E1880020FFF7A7FF0028CB
:10AD200079D14FF48073638102B010BD3A2A47D0C5
:10AD3000552AEED1DB88C988A072172B38BF17239C
:10AD40008B4228BF0B462381FFF792FF60B1FEF7CD
:10AD5000FBF8394B3949024639481B1ADB081B04FA
:10AD600043F00100FCF72CFEE37A002BD1D12369DC
:10AD7000002BCED040F6772200922289ADF8042035
:10AD8000694620469847C4E7DB7B09792173012B8C
:10AD900008D0022B09D0637B8B42BAD20020FFF788
:10ADA00069FFB6E72388E380F5E76388FBE7F723CD
:10ADB000CB8017230B8141F6FB3348818B81A8E7B9
:10ADC0005B89CA88934228BF1346172B0A6938BF8C
:10ADD00017230B814AB1C97A39B140F67721009126
:10ADE000ADF804306946204690470023638190E720
:10ADF0001A7A0B694A73002B8BD04DF67A218DF8A5
:10AE0000050000918DF80420BAE7197A237B994256
:10AE100028BF1946C3E7112886D0FEF795F8064BE0
:10AE20000849024606481B1ADB081B0443F00100D0
:10AE3000FCF7C6FD78E700BF40CF0200F7D702005D
:10AE4000F0CE020026D80200B0DF704766DF704700
:10AE500010B5002104464088FFF7F8FF034608B903
:10AE6000237210BD112801D10123F9E76368BDE801
:10AE700010401847F0B5054685B00C46F1B1E8B171
:10AE80000B78DE2B1AD182884B889A4204D10B7A38
:10AE900013B10846FFF7DCFF2B88112B32D0512B62
:10AEA0000ED0012B0AD12B7A012B07D1A9886288F9
:10AEB000914203D123722046FFF7CAFF05B0F0BDCF
:10AEC000AE886388B342F9D1AF79022FF6D1AD7B5A
:10AED0002B1F022BF2D800211022684601F030FC13
:10AEE000052D14BF4FF4C0730023694630468DF81A
:10AEF0000070ADF80430FFF7A7FF0028DED06368CC
:10AF00009847DBE76388AA889A4204BF4FF6FF732D
:10AF10006380D3E7ADDF7047AEDF704770B505469D
:10AF20008AB00C46002962D0002860D00388502BDC
:10AF300037D0572B72D0102B59D1818860690026E9
:10AF400001AA0196FFF765FE082231460DEB0200CB
:10AF500001F0F6FB02232189A888CDF80CD002AAC3
:10AF60000293FFF7D7FF002841D1A369002B3ED001
:10AF70000398FFF775FE002839D0019B0BB1012221
:10AF80001A701822002104A801F0DAFB02238DF8C0
:10AF90001030AB88ADF81830019B05940793A36976
:10AFA00023E08188606902AAFFF733FE182200219E
:10AFB00004A801F0C5FBAB882189ADF81830EB88F7
:10AFC000029A05949942079218D12E8A022E15D121
:10AFD0006AB105F11200FFF743FE029B48B101225E
:10AFE0001A708DF81060A3690BB104A898470AB0D5
:10AFF00070BD187003238DF81030F4E7A2899A42CF
:10B00000F5D1A369002BF2D000228DF8102005F1B4
:10B01000120208922A8AADF82420E6E78188606946
:10B0200002AAFFF7F6FD01460028E0D1029B1B783B
:10B03000002BDCD0A369002BD9D0182204A801F082
:10B040007FFB01238DF81030AB88ADF818300594E4
:10B05000029BA3E7F0B50F4687B016461C4605468F
:10B0600018B3406901AA1946FFF7D3FDD8B94FF6C6
:10B07000FF739C421BD0019BCBB11B78CBB13388B3
:10B08000F42B18D80146102202A801F059FBAB8816
:10B09000ADF8083002A901232046CDE904678DF8F8
:10B0A0000A30FFF739FF07B0F0BD0E20FBE705209F
:10B0B000F9E70820F7E70720F5E70000014B1878CB
:10B0C000704700BFC077012007B508496846FDF703
:10B0D000E0FE019B13B903B05DF804FBD3E9002047
:10B0E00090476846FDF7DFFEF3E700BF74D8020023
:10B0F000FFF7EABF61DF704730B5114DADF5017D57
:10B100004FF4FA740DF1020103A8ADF80240FFF705
:10B11000F1FF70B9294601A8FDF7BBFE029B002B89
:10B12000F0D003A8D3E90021904701A8FDF7BBFEAA
:10B13000F4E7052801D0FCF7ADFD0DF5017D30BD2C
:10B140008CD80200024B1B780BB1FFF7D5BF7047BC
:10B15000C17701204BDF70471FB50D4C01A8FFF7E9
:10B16000F9FF70B9214602A8FDF793FE039B002B5F
:10B17000F4D00198D3E90021904702A8FDF793FE8F
:10B18000F4E7052801D0FCF785FD04B010BD00BF31
:10B19000A4D802002DE9F3418E0804460D4600EBC9
:10B1A00086060027B44208D105F003052544002394
:10B1B000AC421CD102B0BDE8F08104220DEB0200CC
:10B1C000214601F094FA019A02F0803304F1040858
:10B1D0004FEAF313C7FA13F322EA030304222046CB
:10B1E0000DEB02010193444601F081FADAE794F98C
:10B1F0000020002AB8BF23700134D9E72DE9F04FB1
:10B200002DED048B9DB008EE103ABDF8A830BDF8C6
:10B21000B460DDF8CCA00B9008EE903ABDF8AC30ED
:10B220000893BDF8B0300593BDF8BC300993BDF864
:10B23000C0300793BDF8C8300C9318EE903A02F076
:10B24000030503F001031D430491934640F06A8215
:10B25000089B5343089A1293534315930AEB8303B5
:10B260000A9312FB02F313FB0BF39BB209EE103AA5
:10B270004FEA4B030693059B5B429BB20D930F93E2
:10B280005446059B0FFA85F999456CDABDF93C30B7
:10B29000059A1693089BDDF834809B1A109306FBE1
:10B2A0000933149300230E9326E00FFA88F31793C3
:10B2B000109B169F06FB09331393149B9F4226DBBA
:10B2C0000A9BA34212D1319B03932E9B0293079BAF
:10B2D0000193099B009318EE902A19EE103A18EE8C
:10B2E000100A514600F0DEFC544631900E9BB044EB
:10B2F00001330E931FFA88F8BDF938900C9B9945DD
:10B30000D3DB0F9B33449BB201350F93B9E7049B0A
:10B31000DDF85C907B431193139B994502DB013769
:10B320003FB2CAE7002F07DB049BBB4204DDB9F143
:10B33000000F01DB4B450BDC069A0021204601F093
:10B34000FFF9069B1C4409F101030FFA83F9E3E7B7
:10B35000119B03EB09000B9B5A4621460BFB003067
:10B3600000F0F0FEEDE7129B5B001893059B15FBC8
:10B3700006F5ED1AABB2059A10930C9B9B1A9945F2
:10B380001493C0F2F78019FB06F5AD1A0C9B4B45E0
:10B39000ADB240F35A812BB2059A1393089BDDF8A6
:10B3A00034809B1A0F9306FB0933129300230E93EC
:10B3B00016E10FFA88F319930E9B06FB0533119DD6
:10B3C00017930F9B9D4233DB0A9BA34212D1319B03
:10B3D00003932E9B0293079B0193099B009318EE06
:10B3E000902A19EE103A18EE100A514600F05AFC55
:10B3F00054463190139BB044013313931FFA88F8DD
:10B40000BDF94C50059BAB42D3DC149B9D4232DB13
:10B41000059B15FB06F7FF1A0C9B9D42BFB25ADB3A
:10B4200009F101030FFA83F9109B33441D46A1E78C
:10B43000049B199F6B431693179B9F4202DB6B1C67
:10B440001DB2BEE7002F02DB049BBB4209DC069A5B
:10B450000021204601F074F9069B01371C443FB2DD
:10B46000EAE7169BD8190B9B5A4621460BFB003086
:10B4700000F068FEF0E7119F06FB05F80F9BBB424A
:10B4800018DC0A9BA34212D1319B03932E9B02939B
:10B49000079B0193099B009318EE902A19EE103A2E
:10B4A00018EE100A514600F0FDFB5446319001356C
:10B4B0002DB2AAE7049B129A07FB0380059BC01AD2
:10B4C0000B9B21460BFB003000F03CFE189B013724
:10B4D0001C443FB2D2E73BB216930E9B06FB0533EA
:10B4E0001493119B0F9A9A4219DC0A9BA34212D122
:10B4F000319B03932E9B0293079B0193099B00931F
:10B5000018EE902A19EE103A18EE100A514600F083
:10B51000C9FB5446319001352DB237447CE7049A7B
:10B52000DDF858805A431392149A904502DB013398
:10B530001BB2D7E7B8F1000F02DB049A42450DDCDD
:10B54000069A17930021204601F0FAF8069A179BF5
:10B5500008F1010814440FFA88F8E5E71793139BE4
:10B5600003EB08000B9B5A4621460BFB003000F012
:10B57000E9FDEBE7BDF94030059A1193089BDDF832
:10B5800034809B1A0E9306FB09330F930023139309
:10B5900036E70FFA88F214920F9A139F06FB0323E3
:10B5A0001193129B9F4226DB0A9BA34212D1319B2F
:10B5B00003932E9B0293079B0193099B009318EE24
:10B5C000902A19EE103A18EE100A514600F06AFB64
:10B5D000544631900E9BB04401330E931FFA88F805
:10B5E000BDF938300C9A9A42D3DC09F101030FFA05
:10B5F00083F93544CAE6049B7B431093149B119A4C
:10B60000934202DB01373FB2CBE7002F06DB049AFF
:10B61000BA4203DD002B01DB9A420BDC069A16933B
:10B620000021204601F08CF8169B069A0133144441
:10B630001BB2E4E7109A1693D0180B9B5A4621468A
:10B640000BFB003000F07EFDEEE7544505D10020F5
:10B650001DB0BDEC048BBDE8F08F079A0123934029
:10B660005B08059319EE103A03F00305159B18EEDD
:10B67000101AC3F38F0205EB820301EB82070AEB7A
:10B68000C2020492002618EE902AB242DFDD2E9A02
:10B690009457099A9440059A18EE108A1444D1469A
:10B6A00047453A4611D104997819824233D118EEB0
:10B6B000102A1A4408EE102A079A1441319A04F30A
:10B6C00007041F4494550136DDE7414604221BA8B8
:10B6D000089301F00CF81B9A08F104084FEA322194
:10B6E0002FFA81FB2FFA82F3042249461BA8069306
:10B6F00000F0FDFF1B9A069B23FB0244042209EB8A
:10B7000002011BA800F0F3FF09F108091B9A2BFBAB
:10B710000244089BC4E712F901CB31F802EB1EFB8F
:10B720000C44C2E76FF0020092E72DE9F04F9BB0A6
:10B73000032A0593BDF890300D93BDF898300E9311
:10B74000BDF8A4300F93BDF8A8300993BDF8B03010
:10B75000BDF89490BDF89CA017900891109340F00C
:10B76000FE802D9A09FB09FB0C2319FB09F803FB4A
:10B770000B2308EB480814931FFA88F30B930E9BD6
:10B780005B429BB20C93079300230693BDF91830DC
:10B7900010998B4271DABDF91C1015910E990C9F0E
:10B7A000A9EB01010AFB03130A9113934FF0000860
:10B7B00020E039B216910A99159C0AFB03131293E3
:10B7C000139B9C4223DB149B93420FD12B9B03932F
:10B7D000289B0293099B01930F9B0D9A00932D992F
:10B7E0000B9B059800F0BEF82D9A2B90574408F15A
:10B7F0000108BFB210990FFA88F38B42D9DB069B80
:10B8000001330693079B53449BB20793BEE7089B03
:10B81000169D634311931646002312998D423246BA
:10B8200002DB013424B2CBE7002C06DB089AA242EB
:10B8300003DD002D01DBAA4205DC3360B380013556
:10B840002DB20636E9E7119B5919179B01EB41010F
:10B850000422194419A800F04AFF199A2FFA82F11C
:10B860004FEA32222FFA82F23180090C92B2090497
:10B870000A43C6F802200023E1E72D9B934203D13F
:10B8800000201BB0BDE8F08F099A05990123934071
:10B890005B080BEB4B02C2F38F0206930B9B01EB91
:10B8A00082072D9903F0030808EB820301EBC20223
:10B8B000079200260D9AB242E2DD289ADDF8B4A084
:10B8C00094570F9ADDF814909440069A1444B945A1
:10B8D0003A4610D1079907EB0800824238D1059A01
:10B8E0001A440592099A14412B9A04F307041F4441
:10B8F00094550136DEE74946042219A8089300F062
:10B90000F6FE199D09F104094FEA35222FFA82F259
:10B910002FFA85F54FEA124B4FEA0B4B4BEA154BCA
:10B92000ADB245EA02455146042219A800F0DFFEF7
:10B93000199A25FB024404220AEB020119A800F01F
:10B94000D6FE0AF1080A199A2BFB0244089BBEE7AF
:10B9500012F9015B31F802CB1CFB0544BDE76FF027
:10B9600002008EE72DE9F04F9DB001240093BDF851
:10B9700098300F93BDF89C300193299B0992134492
:10B98000109353080393009B0E9001EB4303029323
:10B99000019B9C4063080A93289B02330693299BD2
:10B9A00002330793109B02330893009B03F00303B9
:10B9B0001693009B9B089A008B4617921699009A43
:10B9C000561806EB83020D920BEBC3020592029A06
:10B9D00000EB830A02EBC3031593039B0B9306460C
:10B9E0000B9B002B38D1DDE90D21039B02FB0316D5
:10B9F000299B039A03EB4208099BDB0726D5289B6A
:10BA000013F912400F9B9C400A9B1C442546B146EB
:10BA1000059B9B4540F0F880179B1E44009B00222D
:10BA200003F003039A4240F03081019B039A1C41CA
:10BA3000299B04F3070403F81240019B1D41109B4E
:10BA400005F3070503F8125008F10108099B434468
:10BA500018461DB0BDE8F08F009BDDF808901896E1
:10BA6000F3180C93069B13F9025C0F9B9D400A9BF5
:10BA70001D44069B13F9014C0F9B9C400A9B1C44E0
:10BA8000D84604942B46059A90453CD10099169FC0
:10BA9000159801EB0A0605990C9152460AEB070925
:10BAA0004A4540F09C80019A049E1541079A05F38F
:10BAB000070502F8025C019A1441079A04F307048F
:10BAC00002F8014C019A43FA02F7089B07F30707B3
:10BAD00003F8027C089B16410D9A06F3070603F84B
:10BAE000016C189B13441E460B9B013B9BB20B93AE
:10BAF000069B02330693079B02330793089B02338E
:10BB0000089392446CE7414604221BA8199300F065
:10BB1000EEFD1B9B1493494604221BA800F0E7FD91
:10BB20001B9B1393314604221BA800F0E0FD1B9FD2
:10BB300004364FEA37222FFA82F22FFA87F7110CD8
:10BB4000090441EA1743BFB20C99129347EA02472E
:10BB50001BA8042200F0CBFD0C9B1B9A04330C9312
:10BB60004FEA32212FFA81F12FFA82F2080C0004F9
:10BB700040EA124392B2119342EA0142149B27FB1E
:10BB80000355139B1946199B27FB0137149B22FB76
:10BB9000034314930B46049922FB0313042208EB7E
:10BBA00002011BA8049300F0A2FD042209EB02018C
:10BBB0001BA81B9C08F1080800F099FD09F1080971
:10BBC0001B9A129B23FB045523FB027311991498B3
:10BBD00021FB0404049821FB0202049253E70C9910
:10BBE00016F9017B31F902EB30F902CB0C91049983
:10BBF00012F9018B1EFB07441CFB07171EFB08559F
:10BC00001CFB083304974BE7594604221BA800F09D
:10BC10006EFD1B9B0299049304221BA800F067FD94
:10BC2000494604221BA8DDF86CA000F060FD1B9BB8
:10BC300009F104094FEA33222FFA82F22FFA83F333
:10BC4000170C3F0447EA13479BB243EA0243049AA6
:10BC500023FB024423FB0A5504220BEB02011BA821
:10BC600000F045FD029BDDF86CA0042299181BA88A
:10BC700000F03DFD029B08330BF1080B029327FBFC
:10BC80000A441B9B27FB0355C2E60598B15630F8C2
:10BC9000120010FB0144159830F81200013210FB1D
:10BCA0000155BFE62DE9F04F99B09B46BDF88830AD
:10BCB0001093BDF88C300493259B059213440A938E
:10BCC00001EB4B030893049B0791012202FA03F353
:10BCD000D34009930BF003030E930E9903924FEA9E
:10BCE0009B03594401EB83010F9100EB8301029107
:10BCF000079901EBC3010D91089901EBC3030646B7
:10BD000013934FF0000A059B534508DC581C40086C
:10BD100003EB4000259B184419B0BDE8F08F06EBFB
:10BD20000B030693249B039A13F90A50109B149655
:10BD30009D40099B1D44249B9C56109B9C40099B45
:10BD4000DDE907891C4401942B460D9A904534D1B6
:10BD5000029A0E9F0D99139806910BEB020602EBC7
:10BD600007094A4540F08780049A0399019E1541CE
:10BD7000259A05F3070502F80A50049A1441259AFA
:10BD800004F307045454049A43FA02F70A9B07F396
:10BD9000070703F80A700A9B16410F9A06F3070675
:10BDA0005E54149B13441E46029B134402930B469D
:10BDB00002330AF1020A0393A5E74146042217A8B9
:10BDC000159300F094FC179B0C934946042217A886
:10BDD00000F08DFC179B0B933146042217A800F04E
:10BDE00086FC179F04364FEA37222FFA82F311930D
:10BDF0002FFA87F70422069917A800F078FC069B13
:10BE0000179A043306934FEA32212FFA81F31293E3
:10BE10002FFA82F20C9B27FB03550B9B1946159BAF
:10BE200027FB01370C9B22FB03430C930B46019924
:10BE300022FB0313042208EB020117A8019300F070
:10BE400056FC042209EB020117A8179C08F1080808
:10BE500000F04DFC09F10809179A119B23FB0455CA
:10BE600023FB027312990C9821FB0404019821FB17
:10BE70000202019269E7069916F9017B31F902EB9A
:10BE800030F902CB0691019912F9018B1EFB074490
:10BE90001CFB07171EFB08551CFB0833019760E7C6
:10BEA0002DE9F04F93B014460D93BDF87030039315
:10BEB000BDF8743001930D9B0A919B08209904935F
:10BEC00000F040F9019A012393401F9A02F1040BFC
:10BED000A20891000E9104F0030101EB820106918A
:10BEE00089000C910A9901EB02110991209904F043
:10BEF000030401EBC2025B08059202EB44020293C9
:10BF00000B921E9B0A9A0892049A07920433079A8E
:10BF1000E2B9049B049A9E001F9B03EB82051E9BC3
:10BF200003EB8208069B0A9A03FB06260E9B33440A
:10BF30001F460D9B03F00303EB180493049B9D42E3
:10BF400040F0BA80002013B0BDE8F08F039A13F9D7
:10BF5000045C13F9037C13F9024C13F9016CDDF84E
:10BF60008090DDF820809540029A1544039A97400E
:10BF7000029A1744039A9440029A1444039A9640F2
:10BF8000029A1644059A91452BD1099A05980432D4
:10BF90000B99884202F104027BD1089A0C990A4459
:10BFA0000892019A1541174114411641079A05F369
:10BFB0000705013A92B20792099A0BF8045C0A4409
:10BFC00007F3070704F307040BF8037C0BF8024C94
:10BFD00006F3070604330BF8016C09920BF1040B0E
:10BFE00095E74946042211A80F9300F080FB4146D3
:10BFF000042211A8DDF844A000F079FB119A4FEA61
:10C0000032212FFA81F12FFA82F222FB0A5521FB0D
:10C010000A77042208EB020111A800F068FB119ACC
:10C020004FEA32212FFA81F12FFA82F222FB0A44E1
:10C0300021FB0A6A042209EB020111A800F057FB58
:10C0400008F10801042211A8119E00F050FB119A7A
:10C0500009F108094FEA32212FFA81F12FFA82F211
:10C0600022FB065521FB0677042208F10C0111A8DA
:10C0700000F03DFB119A08F110084FEA32212FFA27
:10C0800081F12FFA82F222FB064421FB06A60F9BC8
:10C0900078E730F9021B12F908CC11FB0C5512F9A4
:10C0A00007CC11FB0C7712F906CC11FB0C4412F9EA
:10C0B00005CC11FB0C666BE7039B18F9014BDDF80F
:10C0C00080A09C40029BB1461C44B9453A460ED123
:10C0D000059B0B998B422ED1069B1E44019B1C4154
:10C0E000069B04F307041F4405F8014B26E7494665
:10C0F000042211A800F0FBFA119A09F104094FEA91
:10C1000032232FFA83F307932FFA82FB042251463E
:10C1100011A800F0ECFA119A22FB0B4404220AEB5E
:10C12000020111A800F0E3FA0AF1080A119A079B2C
:10C1300022FB0344C9E712F9011B33F8020B10FB81
:10C140000144C6E72DE9F74322F0030507460E46F2
:10C1500014464FEA920901F108080544AF4208F17C
:10C16000080809D104F0030406EBC9062C44A542D3
:10C1700013D103B0BDE8F083042239460DEB020071
:10C1800000F0B5FA019B04374FEA33222FFA82F20E
:10C190002FFA83F348E90432E0E715F9013B26F86A
:10C1A000023BE4E72DE9F74F4FEA92094FEA890B8A
:10C1B00004460F46164600EB89098A464C4508D1CD
:10C1C0005F4406F0030600239E4234D103B0BDE86D
:10C1D000F08F042221460DEB020000F088FA0422C1
:10C1E00051460DEB0200019D00F081FA019B69B2FE
:10C1F0005AB2A8469142B8BF62F3070845F3072137
:10C2000043F307229142B8BF62F30F2845F3074179
:10C2100043F3074291424FEA2565B8BF62F31748DE
:10C220001A16B5EB236FB8BF62F31F6844F8048B8E
:10C230000AF1040AC2E7FA56E1569142B8BFE25445
:10C240000133C1E72DE9F04F2DED028B87B0804619
:10C250000193BDF848300093BDF85070BDF84C30E4
:10C2600002930E46154600230FFA83F9B14542DAD0
:10C2700006FB09F909EB060205FB028203924FF067
:10C28000000B2BE0029A059309EB040A5443009A31
:10C29000A21A5EBF009809EB0401091A019805FB78
:10C2A0000A8A024454BF05FB01815146B242B4BF21
:10C2B000009A039C0491BFBF4C44A41A0246A418E0
:10C2C00050462A46B8BF05FB048400F0C2F9049921
:10C2D000059B2944A14207D30BF1010B0FFA8BF404
:10C2E000BC42CFDB0133BFE72A4650460593049199
:10C2F000FFF758FFEBE706FB05FB06FB0B830393F9
:10C3000005FB07F308EE903A17FB05F39BB208EE26
:10C31000103A4FF0000A0FFA8AF3BB4204DB07B071
:10C32000BDEC028BBDE8F08F169A07FB03F905FB05
:10C330000929029A03FB02F4009BE41A019B58BFEF
:10C3400004FB06F11C4454BF05FB01814146A64293
:10C35000C8BF744318EE902A4846D8BF039C049186
:10C36000C8BF05FB048400F074F904995944A14244
:10C3700002D30AF1010ACEE718EE102A48460491CA
:10C38000FFF710FFF1E700002DE9F04F6FF07F039A
:10C39000914685B006460F46002211B2B94202F11D
:10C3A000010235DB083B5FFA83F81A0448EA0368A8
:10C3B0000FFA83FA02F47F021B0203F47F434FEA71
:10C3C000970B48EA020848EA03084FEA8B030193F7
:10C3D00006EB8B0B354600245D451ED107F00307A5
:10C3E0002F44AB460122BB4547D14F464FF4801343
:10C3F00093FBF4F4B54207F1040749D1019B0AF11C
:10C400000D0A9944AB4540F0828005B0BDE8F08F3D
:10C4100071568B42B8BF0B46BFE72946042203A8DA
:10C4200000F065F904350399C1FA08FE4FEA3E2190
:10C430002FFA81F12FFA8EFE1FFA8EF04FF0010CC9
:10C4400040EA0140394BA0F30300C2B20CFA02F2F9
:10C45000C0F3074014440CFA00F01940044441EAC8
:10C460001E41A1F30302D0B20CFA00F0C2F307425E
:10C4700004440CFA02F21444AEE71BF9013BA3EBAF
:10C480000A0383F30303DBB202FA03F31C44AAE7B3
:10C490003146042203A800F02AF9043603994FF02C
:10C4A0000D32C2FA01F282FA08F24FEA32212FFA73
:10C4B00081F12FFA82FC1D4B1FFA8CF040EA0140FB
:10C4C000A0F30500C2B244FA02F202F3070207F831
:10C4D000042C01EA0302C0F3074042EA1C42A2F323
:10C4E0000502D1B2C2F3074244FA00F044FA01F166
:10C4F00044FA02F200F3070001F3070102F3070216
:10C5000007F8030C07F8021C07F8012C72E715F96D
:10C51000013BAAEB030383F30503DBB244FA03F305
:10C5200003F3070309F8013B6CE700BF0000FFFFBE
:10C530007F2805D8034B185C034B5B5C18407047A1
:10C5400000207047BCD802003CD90200A0F1610372
:10C55000192B98BF20387047A0F14103192B98BFC1
:10C56000203070477F2805D8034B185C034B5B5C79
:10C570001840704700207047BCD802003CD9020028
:10C58000A0F16103192B98BF20387047A0F1410337
:10C59000192B98BF203070477F299ABF0170012066
:10C5A0006FF02E0070475AB10A787F2A0AD800B17E
:10C5B0000260002119605960501A18BF01207047AD
:10C5C000002070476FF02E00704738B504460846CB
:10C5D000A26842B1236861685D1C8D4208BF0020DB
:10C5E0008B4208D2D054E3682BB121686268914233
:10C5F00001D22146984723680133236038BD70B5C6
:10C600004C1E09D41646C5B229463046FFF7DDFF59
:10C61000013CB4F1FF3FF7D170BD10F0100F08D10D
:10C6200008B510F4007F14BF30202020FFF7E7FF8B
:10C6300008BD704708B5034B5B689B681B6898474B
:10C6400008BD00BFF0B8002008B50921FFF7F2FFD0
:10C6500008BD10B4144688420BD98B1882182CB12F
:10C6600013F8014D02F8014D9942F9D15DF8044BE0
:10C6700070478842FAD0002AF8D0431E0C4411F8C3
:10C68000012B03F8012FA142F9D1EFE70FB410B548
:10C6900086B008AB53F8044B0593002303936FF067
:10C6A00000430293084B049300F0EAFB059A2146ED
:10C6B00001A800F0CBF8044600F0E3FB204606B0EA
:10C6C000BDE8104004B070475D8F0200037853B19D
:10C6D00059B10144034613F8012F12B18B42FAD12C
:10C6E0000B46181A70470346FBE70346F9E78446F2
:10C6F00040EA010313F0030F18D18446202A0BD31C
:10C700002DE9F007B1E8F807A0E8F807A2F1200248
:10C71000202AF7D2BDE8F007042A07D351F8043BDA
:10C7200040F8043BA2F10402042AF7D2002A05D003
:10C7300011F8013B00F8013B013AF9D1604670471E
:10C740008446002A2DD010F0030F04D000F8011BFE
:10C75000013A26D0F7E7C9B241EA012141EA014195
:10C76000202A12D3A2F120022DE9F0030B460C4639
:10C770000D460E460F4688468946A0E8FA03203A41
:10C78000FBD2BDE8F00320320BD0042A05D340F8D9
:10C79000041B043A05D0042AF9D200F8011B013A1F
:10C7A000FBD160467047024610F0030F16D111F01E
:10C7B000030F13D12DE9F0004FF001374FF0803314
:10C7C00051F8044BA4EB070525EA04051D4002D1EE
:10C7D00042F8044BF4E7A1F10401F0BC11F8013B6D
:10C7E00002F8013B002BF9D1704700F1010110F074
:10C7F000030F11D010F8012B002A23D010F0030FE3
:10C800000AD010F8012B002A1CD010F0030F03D01F
:10C8100010F8012B002A15D02DE970004FF00132DD
:10C820004FF0803350F8044BA4EB020525EA0405D1
:10C830001D4000D1F6E7A0F1040070BC10F8012BF8
:10C84000002AFBD1A0EB0100704700002DE9F04F5A
:10C8500089B007460392002303600C4614F8011BBD
:10C86000002900F0FA82DFF814B5E9E2002507E0BC
:10C870005E2868D145F4805501E045F040051C462E
:10C88000234613F8010B3028F2D81F2837D9A0F11E
:10C890002002102A33D801A151F822F07BC80200EF
:10C8A000FFC80200FFC80200E1C80200FFC8020082
:10C8B000FFC80200FFC80200E7C80200FFC802006C
:10C8C000FFC80200FFC80200EDC80200FFC8020056
:10C8D000F3C80200FFC80200FFC80200F9C8020046
:10C8E00045F08005CBE745F40045C8E745F0200555
:10C8F000C5E745F01005C2E745F40075BFE72A28F3
:10C9000021D1039A111D0391D2F800A0BAF1000FB2
:10C91000BCBFCAF1000A45F010051878A31C2AEA2A
:10C92000EA7A2E2826D00021742847D07A2845D0CC
:10C930006C2800F0A8804C2800F0AB80682800F03C
:10C94000B8801C463DE0A0F13002D2B2092A88BF6F
:10C950004FF0000AE3D84FF0000A0AEB8A0A303899
:10C9600000EB4A0A13F8010BA0F13002D2B2092AF7
:10C97000F3D9D4E718782A280AD1039A111D039114
:10C980001168587802330029CEDB45F48075CBE777
:10C990000133A0F13002D2B2092A88BF0021F4D8B5
:10C9A000002101EB8101303800EB410113F8010B4C
:10C9B000A0F13002D2B2092AF3D9E4E71C4614F8F8
:10C9C000010B002800F05582A0F12503DBB2532BA8
:10C9D00062D8A0F12503532B5ED8DFE813F0760070
:10C9E0005D005D005D005D005D005D005D005D005F
:10C9F0005D005D005D005D005D005D005D005D004F
:10CA00005D005D005D005D005D005D005D005D003E
:10CA10005D005D005D005D005D005D005D005D002E
:10CA20005D005D005D005D005D005D005D005D001E
:10CA30005D005D005D005D005D005D005D005D000E
:10CA40005D005D00EB005D005D005D005D005D0070
:10CA50005D005D005D005D005D007B0020015D000C
:10CA60005D005D005D0020015D005D005D005D001A
:10CA700095000E01D1005D005D00A6005D0019016A
:10CA80005D005D00ED001C4614F8010B45F001054A
:10CA900097E745F001051C46B44B1E68002E00F0D8
:10CAA000CC8103AB0193009153462A463946B047E7
:10CAB000C3E11878682803D05C1C45F0040580E7C2
:10CAC00045F008059C1C58787BE725213846FFF780
:10CAD0007CFDB2E1039B1A1D03921E780AF1FF3A16
