:020000022000DC
:1070000000000420757302005D7302005F730200CC
:1070100061730200637302006573020000000000E8
:107020000000000000000000000000006773020084
:1070300069730200000000006B7302006D730200B0
:10704000419302006F730200799502006F73020092
:107050006F7302006F730200F99302006F730200F6
:107060006F7302006F7302006F7302006F73020090
:107070006F7302006F7302006F7302006F73020080
:107080006F730200AD8502006F7302006F73020020
:107090006F7302006F7302003DB002006F73020055
:1070A0006F7302006F7302006F7302006F73020050
:1070B0006F7302006F730200000000000000000008
:1070C0006F7302006F7302006F7302006F73020030
:1070D0006F7302006F7302006F7302006F73020020
:1070E0006F7302006F7302006F73020000000000F4
:1070F000000000006F730200000000006F730200C8
:10710000000000000000000000000000000000007F
:10711000000000000000000000000000000000006F
:10712000000000000000000000000000000000005F
:10713000000000000000000000000000000000004F
:10714000000000000000000000000000000000003F
:10715000000000000000000000000000000000002F
:10716000000000000000000000000000000000001F
:10717000000000000000000000000000000000000F
:1071800000000000000000000000000000000000FF
:1071900000000000000000000000000000000000EF
:1071A00000000000000000000000000000000000DF
:1071B00000000000000000000000000000000000CF
:1071C00000000000000000000000000000000000BF
:1071D00000000000000000000000000000000000AF
:1071E000000000000000000000000000000000009F
:1071F000000000000000000000000000000000008F
:10720000354936480A1A02D0072291438D4634493F
:1072100034480A1A06D00722914381F309880222D2
:1072200082F3148830483149314A00F044F831483B
:107230003149324A00F03FF831483249324A00F0D1
:107240003AF832483249334A00F035F83248334987
:10725000334A00F030F833483349344A00F02BF811
:1072600033483449344A00F026F83448344900227F
:1072700000F02CF833483449002200F027F8334856
:107280003349091A082902DB002202604160314AB1
:1072900090471F481F49884205D00268043003B454
:1072A000904703BCF7E700208646EC46002000210B
:1072B000294A9047FEE7884207D0521A05D0037842
:1072C00001300B700131013AF9D17047884202D088
:1072D00002700130FAE770470000042000E003204C
:1072E0000000042000000420D0E20200E82A002070
:1072F00004B90020D0730200D073020044D602000B
:10730000D0E20200E82A0020E82A002040D702004C
:1073100040D7020040D7020040D7020040D7020009
:1073200040D7020040D7020040D70200CFE202005F
:10733000EC70030004B9002004B9002004B9002057
:10734000C8770120C8770120C8770120C8770120BD
:10735000C89701209D730200E9A00200FEE7FEE746
:10736000FEE7FEE7FEE7FEE7FEE7FEE7FEE7FEE7F5
:1073700000F002B8FFF7FCBF0F484FF00701884349
:1073800085460E4880470E48016841F4700101604F
:10739000BFF34F8FBFF36F8FFFF732BF09480A4922
:1073A0000A4A884207D0521A05D0037801300B7080
:1073B0000131013AF9D1704700000420D98E020052
:1073C00088ED00E040D70200E82A0020E82A0020EB
:1073D0007047000007B5044B0093044A402300F0B7
:1073E00032F803B05DF804FBF173020005B9002028
:1073F0002DE9F84388461446B2B10F4B0F4E0325D2
:10740000002743F00109224608EB0701002003F0A2
:1074100047F80744241A48B933782BB14FF47A401F
:10742000C847013D02D13570BDE8F88301233370B0
:10743000002CE8D1F8E700BF40D7020004B90020D3
:10744000704703F061B8F0B595B01D461646084682
:107450000C4601F05DFC1A9B0D93CDE908650025F3
:107460002B46082205A920460A958DF82C500C952C
:1074700001F06BFC079B0293069B03939DF814306D
:107480008DF8115003F00302012A1DD1BDF814201C
:10749000059DC3F3C203C2F383168DF81030B2000A
:1074A00008230EA9204601F050FCC5F3952508AB32
:1074B0000093324602AB0EA9284600F027FB204677
:1074C00001F02AFC15B0F0BD022AF8D1BDF8165023
:1074D000C3F3C203C5F389158DF810300827082DB2
:1074E0002E4628BF08263B4632460EA9204601F00C
:1074F0002CFCAD1B08AB02AA31460EA8374400F0A5
:1075000069FB002DEBD1DAE708B5FFF79AFF0448D5
:10751000042100F065FA034B01225A7108BD00BF37
:1075200030D70200E82A0020037813F0040216D0B6
:1075300003F00303012B03D0022B09D00120704775
:107540000A6800880232C0F3831002440A60F5E73B
:107550000B684288023303EB92130B60EEE7104690
:10756000704700002DE9F04F87B000230446861CC9
:107570000DF107000F4615468DF8073000F0A8FE04
:10758000404A51683960936803F580735B1A9246EC
:1075900002F21C4702F5836902F21448B3421AD37F
:1075A0000020002D69D004F00F039B0143F0050378
:1075B00063F30F00DAF80430DAB203321E444AF8FB
:1075C00022009DF80700CAF8046000F0A5FE012023
:1075D00007B0BDE8F08F0121384601F0C4F84846F5
:1075E00001F0D9F8404601F0D6F8DAF80800029028
:1075F000C0B203300AEB800002A9FFF795FF029B9F
:1076000030BBDAB20AEB8202D16803919A1C0133D3
:10761000DBB20AEB83030292D3F80CB001F0030350
:10762000012B22D0022B15D08346404601F0B6F83C
:1076300010B1029BCAF808305946384601F093F859
:10764000DAF80830DAF8042003F580739B1AA5E70E
:10765000D8B2CEE7BDF80E30C3F3891303334FEA37
:107660001B4B02EB93030293DFE7BDF80C30C3F32F
:1076700083134FEA1B4B1344F5E7A40544F00600BF
:1076800098E700BF18BA0020064B074810B5002243
:107690001A7001F0F6FA044610B9044801F088FBAC
:1076A000204610BD18BA00209CD602007CD70200EC
:1076B00030B50A4C71B10A4A0A49121BD20800239C
:1076C0009A4201D1002030BD31F82350854202D0CA
:1076D0000133F5E7034654F83300F4E7B0D602006F
:1076E00030D70200E82A0020094B013903EBC00023
:1076F000032909D8DFE801F00A02040604207047D4
:107700000079704740797047002070470220704729
:10771000B0D60200034BD3E90130C31A5842584196
:10772000704700BF18BA00202DE9F04186B0FFF77E
:10773000F1FF0546002840F0E680744CC4F81804B8
:10774000BFF34F8FA3680293DBB2033304EB8300D4
:1077500002A9FFF7E9FE029B18B1D4F81824002A09
:1077600055D0DAB2991C013304EB8202DBB204EB90
:107770008303D268DB68049302F00303022B0392B5
:1077800002914FD1BDF80E306148C3F38917502FD5
:107790003E4628BF502666F38F1306F10801ADF868
:1077A0000E3001F086FA0546002800F0978001F0BF
:1077B000AFFA002303A90822284601F0BCFA029977
:1077C000CB43DBB20133C9B20331B6EB830F4FEACF
:1077D000830804EB810122D908234246A6EB080660
:1077E000284601F0A8FAF6B24A4908F108033246E1
:1077F000284601F0A0FA029B033703EB9707029794
:10780000D4F81834002B41D1D4F8106451E06268E8
:107810009A4299D8A260284606B0BDE8F0810823B4
:107820003246E5E7012B59D1BDF80C303848C3F397
:107830008311062928BF062161F3891302318900CB
:10784000ADF80C3001F035FA0546002846D001F0BD
:107850005FFA0023082203A9284601F06CFA0026EB
:10786000BDF80C20C2F38312B300964203F1080363
:10787000C6D202994A1CC9B20331029204EB8101BB
:107880000422284601F057FA0136E9E7284601F0BC
:1078900043FAFFF73FFF80F00100C5B2BBE7F36892
:1078A0005B7923B1336829461B6830469847F368F3
:1078B0001E68002EF3D1284601F02EFA0DF10700C4
:1078C0008DF8076000F004FDD4F818340BB9029B62
:1078D000A3609DF8070000F01FFDDAE7D4F810441C
:1078E00054B90D4B0D480E49C01AC008000440F0B1
:1078F000020000F05DF8CCE7236820469B689847BB
:10790000E3681C68ECE7002585E700BF18BA002093
:107910009CD6020024BA0020B0D60200D8D60200BD
:1079200064D702002DE9F34704460E46924601A9AA
:10793000012218469946FFF715FE1B4F10B3019D13
:107940004FF00008AA1CC84508EB020123D11748D4
:10795000002100F0D9FE80F31000000440EA14403A
:10796000E4006B1C04F03804DBB2EDB244F0010417
:1079700007EB8303033544EA881444EA8624D8607D
:1079800047F825403B781BB1FFF7CEFE0028FBD11E
:1079900002B0BDE8F087C9B207EB81015AF8283080
:1079A000CB6008F10108CEE718BA002034BE0020F1
:1079B00000231A46FFF7B6BF07B50123019201AABB
:1079C000FFF7B0FF03B05DF804FB07B5CDE9002376
:1079D00002236A46FFF7A6FF03B05DF804FB000030
:1079E00030B50F49D1F8102403460020144634B9AD
:1079F000DC6820714AB9C1F81034226030BDE468F7
:107A00002579854206D02468F1E7D26811682160A3
:107A10001360F3E701300A28E8D14FF0FF30EDE7BB
:107A200018BA0020084A38B50123D2F81044137060
:107A30001D4604B938BDE3685D71236820465B6864
:107A40009847E3681C68F4E718BA002007B50346B6
:107A50000846197A052911D05B7A2BB1094A0A49DF
:107A6000019000F0FEFE01980849019000F0F9FE37
:107A7000019803B05DF804EB00F0E8BE002AF8D0EE
:107A8000F2E700BF88D702008DD702003BDE02007C
:107A900030B5C38885B004460D4633B1144A009210
:107AA0001449154A284600F0DCFE217A05291DD02C
:107AB000637A4BB1A088FFF717FE104B104953F8BB
:107AC0002020284600F0CDFE227A0E4BA08853F8E5
:107AD000222003920021FFF7EBFD039A0A49034697
:107AE000284605B0BDE8304000F0BBBE05B030BD53
:107AF00088D7020098D7020090D7020014D802005D
:107B00008DD7020038D80200B0D702002DE9F0432B
:107B100085B01F460C9D002395F80C902B730646EC
:107B20000C46904629463846FFF7B2FFB8F1060FDB
:107B300009D8DFE808F00412181F28334000314646
:107B4000284600F08EFE002229463846FFF77EFFC9
:107B500085F80C9005B0BDE8F083226831462846D0
:107B600000F07FFEEFE7D4E900233146284600F01D
:107B700078FEE8E7A36800933146D4E9002328465D
:107B800000F06FFEDFE7E3680193A36800933146DE
:107B9000D4E90023284600F064FED4E72369029369
:107BA000E3680193A36800933146D4E90023284693
:107BB00000F057FEC7E76369039323690293E36804
:107BC0000193A36800933146D4E90023284600F0CE
:107BD00048FEB8E708292DE9F74F80460E461746BC
:107BE0001C463CD8002593F80C901D73194610468E
:107BF000FFF74EFFDFF888A0DFF888B0AE4231D93A
:107C000018F805205946204600F02BFE0135082DB6
:107C1000F4D11949194DDFF870A0204600F021FE7B
:107C20004FF0000B5E4522D918F80B207E2A05D8AC
:107C30001046019205F0E8F8019A00B92E2251464B
:107C4000204600F00EFE0BF1010BBBF1080FE9D14D
:107C5000012221463846FFF7F9FE84F80C9003B064
:107C6000BDE8F08F5146204600F0FBFDCEE72946E7
:107C7000204600F0F6FDE6E7C4D70200C2D70200B6
:107C8000C0D70200BAD70200C6D702001FB5002134
:107C9000039001AA44F20100CDE9011100F004F8BB
:107CA00005B05DF804FB000010B572B6FFF7BAFE30
:107CB000FFF73AFD0028FBD1104B114C1149E41A93
:107CC000E408240444F00100FFF772FE0E4B1B6829
:107CD000DB0700D500BE0D4944F00200FFF768FE47
:107CE000BFF34F8F0A490B4BCA6802F4E06213439B
:107CF000CB60BFF34F8F00BFFDE700BFB0D60200DF
:107D0000D8D6020057D80200F0ED00E063D8020098
:107D100000ED00E00400FA0549B152B1531E1A40CB
:107D200007D1826001608380C260104670470E20D8
:107D300070470920704710B58468C2688388121B99
:107D4000934208D3C26813400268D154C368013318
:107D5000C360002010BD0420FCE78268C3689A421B
:107D60000AD08268838813400268D35C0B708368F2
:107D7000013383600020704705207047D0E902235B
:107D8000D1E90201994208BF90422CBF0120002096
:107D90007047000008B50B4800F0F1FB0A4B0B4997
:107DA000D3E900231218D1E9000143F100038B420B
:107DB00008BF824203D212F1807243F100031046E1
:107DC000194608BDF02A0020D8BE002050BF002070
:107DD00037B505460C460A4801A900F004FC60B11D
:107DE0000570446001A9064800F027FC18B1054859
:107DF00000F0CAFB002003B030BD0420FBE700BF49
:107E00003CBF0020F02A002038B5184B1B780446F0
:107E100013B90025284638BD0028FAD0037F03F0A7
:107E2000FF05002BF5D0FFF7B5FFD4E902239942F7
:107E300008BF904214D3236903B92377D4E90530EE
:107E4000984721690029E4D0237F03F0FF05002B28
:107E5000DFD0D4E90223521843F10003C4E902231E
:107E60000348214600F0C3FFD4E700BFE0BE002076
:107E700080D8020013B5114B1149186801900823EE
:107E80001048582200F09CFB044698B90E4A0F484F
:107E900001A900F065FA044660B90C48012100F020
:107EA00051FB01230A4A0948194600F0B3FA094B6D
:107EB00001221A70204602B010BD00BF7AD802001D
:107EC000E4BE00203CBF0020217F0200F02A0020F9
:107ED000FFFF7F00E0BE002038B5037F04460D465B
:107EE00083B98261FFF756FF2369401941F1000110
:107EF000C4E9020103B1256121460020BDE83840F4
:107F0000FFF766BF002038BD00230146037701203C
:107F1000FFF75EBF014800F032BB00BFF02A00202F
:107F20002DE9F04F85B0804600F014FB40B15A4A6D
:107F3000D2E9003113F1807341F10001C2E900314F
:107F40000021404600F015FB38B1544E336823B190
:107F50003068FFF759FF002333600121404600F0ED
:107F600008FB20B1FFF716FF4D4BC3E900014D4858
:107F70004A4F4D4EDFF8389103A900F06EFB002800
:107F800045D1DFF82491454EDFF828A1484600F09E
:107F900044FF3368002875D07BB13368D0E9020113
:107FA000D3E90223994208BF90422DD233681B7F48
:107FB0001BB13168484600F01AFF484600F027FF21
:107FC000D0E902B307460193FFF7E4FE019BBBEB48
:107FD000000463EB0105012C75F1000345DBB4F5EA
:107FE000350F40D3FFF796FF304A02444FF4960313
:107FF0000021504600F02EFA00283ED1336813B914
:10800000404600F0FFF9376005B0BDE8F08F037817
:10801000012B1DD0022B09D14FF0000A304600F091
:10802000F6FE002834D080F81CA0F7E73BB9416881
:108030000B7F23B901230B77304600F0D8FE03A94C
:10804000184800F035FB03A9164800F006FB96E738
:1080500041683B68994202D100233B60EFE730461C
:1080600000F0DEFEEBE7BA68C0E70021504600F002
:1080700076FA3846FFF7C8FE01E00D28F9D0002354
:10808000336083E7002BBFD1404600F0BFF9BBE768
:10809000012389F80030D2E7D8BE002058BF002065
:1080A00050BF00203CBF002080D80200FFFFB4007A
:1080B000E0BE0020F02A00200648074A037807495E
:1080C000D35C012213B1043001F0DCBE0C3001F0AE
:1080D0008BBC00BFF82A0020C4BF002084BF002052
:1080E0000648074A03780749D35C012213B10430DC
:1080F00001F074BE0C3001F025BC00BFF82A00204E
:10810000C4BF002085BF002037B50578012D0BD0F6
:10811000022D2ED065B91E491E48FFF71EFE00280D
:1081200032D1FFF7DDFF03E0037A1BB9FFF7C4FF8D
:1081300003B030BD4368184C19782046FFF7FBFDAB
:1081400080B18DF800500190144B68461B68984729
:10815000A168E368A2885B1A9A42E7D2104B012219
:108160001A70E5E7A268E3689A42F1D08DF8000042
:10817000EAE7C3688DF800500193FFF79DFF074BB6
:1081800068461B689847D3E703238DF80030F6E76D
:1081900085BF002074BF002060BF00205CBF0020AE
:1081A00070BF0020F0B51F46234B89B004461A600B
:1081B0000D4600293DD08A8820480968FFF7ACFDAC
:1081C000002834D1AA89A9681D48FFF7A5FD002819
:1081D0002DD11C4E0FCE6D460FC596E80F0085E8D9
:1081E0000F0063690693237C174A18488DF81C70AA
:1081F000003B18BF01238DF81430637C002B14BFA3
:108200000E2300238DF81530E3680293A3680393CF
:108210002368019369466368009301F017F830B949
:108220000B4B18702368013301D0FFF745FF09B0ED
:10823000F0BD0720FBE700BF5CBF002060BF00204F
:1082400074BF00208CD8020009810200F82A0020A7
:1082500070BF002070B5084D014608482E78FFF722
:108260007CFD044636B100232B70FFF725FF08B1D3
:10827000FFF70CFD204670BD70BF002060BF0020DE
:1082800010B501460E48FFF756FD0446A8B90D4843
:108290000D4A0378D35C63B1043001F0E7FD60B9A7
:1082A0000A490748FFF759FD38B9BDE81040FFF704
:1082B00017BF0C3001F08CFBF1E7204610BD00BF6A
:1082C00074BF0020F82A0020C4BF002085BF002012
:1082D00070B5EFF3108672B60C4A946801239CB90E
:1082E00093600B4B0B4DD3F8801029401160C3F8FD
:1082F0008050D3F8841051604FF0FF32C3F88420CF
:10830000047006B962B670BD0370FAE788BF00203A
:1083100000E100E0FC06FFBD084B9A6810B55AB1B9
:1083200050B9EFF3108172B6054A1C6814605C689E
:108330005460986001B962B610BD00BF88BF0020CC
:1083400000E100E0435882B03BB100234350435862
:108350000193019B012002B070471846FBE7000023
:10836000F8B5204B4479204D43F824201F4A204B78
:1083700005EBC4049B1A2279DB081B0432B143F0DD
:1083800002001C49FFF714FB0820F8BD02680C88A6
:10839000C2F8084590F904608A7804795201002EE9
:1083A000D2B219DB14498F1987F80023012276090C
:1083B00004F01F0402FA04F441F82640427905EB68
:1083C000C201012445F832000C7143F003000B494F
:1083D000FFF7EEFA0020D8E7094904F00F040A5528
:1083E000ECE700BF9CBF002094BF0020B0D6020085
:1083F000E8D60200ACD8020000E100E0CED80200CE
:1084000014ED00E0036801221A607047036801223E
:108410005A60704773B501F15005AD000068ADB208
:108420004FF480348C400026C0F80843C0F848431D
:10843000465101F5A8714559019522F07F42019DF1
:1084400040F82120C0F844430BB1C0F8044302B007
:1084500070BD00002DE9F74F0D4622F07F44026801
:108460004FF4803705F150068F408046B60002EB8E
:108470008500C2F84873B6B2C2F80873D2F8041582
:1084800099464FF0000BD0F84035C0F8401542F83F
:1084900006B05B1A9259009223F07F43012B009A99
:1084A0004FEA850A0CD1264B4FF4806043F001035C
:1084B0009847D8F8003043F806B09B590193019BC8
:1084C000D8F80010D1F80465C1F84473A31B23F059
:1084D0007F43012B1CD11A4B05F5A875013443F0DD
:1084E000010341F825404FF480609847D8F80030E8
:1084F000D3F804359E4209D1D8F800300020C3F8E3
:108500004473C3F8047303B0BDE8F08F0D20FAE79D
:108510008A44C9F1FF13CAF84045D1F80405221A6C
:10852000013A22F07F4203F57F439342EED3002AC3
:10853000E2D10134CAF84045D1F804359842DAE76F
:10854000E0D8020003680222C3F8442309B1C3F84B
:108550000423704700684FF48271FFF7F3BE4FF4B5
:10856000803303FA01F10368C3F84813C3F8081312
:10857000704750318900006889B2FFF7E3BE036895
:10858000D3F804057047000090F90430002B09DB94
:108590005A09012103F01F0301FA03F34032024993
:1085A00041F82230704700BF00E100E0024B034A6F
:1085B0001B681068184700BF9CBF002094BF0020B4
:1085C00010B561B1B2FBF3F403FB1424A4B244B9B7
:1085D000C0E9001484608281C381204610BD0E2052
:1085E000FCE70920FAE737B550E8013F9DB2C4899E
:1085F00025448489A54228BF2D1B0489A54202BFBA
:10860000BFF32F8F002207E0C5EA030540E80154BD
:10861000002CE9D14FF001028DF803200193019B5A
:108620009DF803200B6002F0FF0322B10B88006865
:10863000184403B030BD1846FBE70A884B889A42BD
:1086400009D150E8012FC2EA024240E80123002B81
:10865000F7D1012070470020704737B550E8023F3E
:108660001FFAA3F5C488A54202BFBFF32F8F0022D3
:108670000DE0C48925448489A54228BF2D1BC3EA87
:10868000054540E80254002CE8D14FF001028DF876
:1086900003200193019B9DF803200B6002F0FF0370
:1086A00022B14B880068184403B030BD1846FBE780
:1086B0000A884B889A4209D150E8022FC2EA224226
:1086C00040E80223002BF7D10120704700207047BB
:1086D00001F01F024B090121914000EB830000F0E3
:1086E0001EB801F01F0301229A404B0900EB8300E2
:1086F000D14300F02CB84B0901F01F0150F82300C2
:10870000C84000F00100704710B5034653E8000F61
:108710000A4643E8002494F0000FF7D110BD10B5CD
:10872000034653E8002F42EA010043E8000494F0B6
:10873000000FF6D110BD10B5034653E8000F00EA54
:10874000010243E8002494F0000FF6D110BD10B5EB
:10875000034653E8002F02EA010043E8000494F0C6
:10876000000FF6D110BD10B5034653E8002F02EB01
:10877000010043E8000494F0000FF6D110BD10B5DD
:10878000034653E8002FA2EB010043E8000494F0F5
:10879000000FF6D110BD0121FFF7C1BF0021FFF787
:1087A000CABF10B590B1D0E9012301689B1ADBB2B2
:1087B0000A60013BDBB2FF2B026802D1002010717E
:1087C00010BD11684C1C14600B70F2E70E20F7E727
:1087D00037B5054600240DF107008DF80740FFF777
:1087E00077FD2A686B68116899420ED9481E10609F
:1087F00011F8014CEB68298A01FB0434AB6811794C
:108800001B1ADBB2994238BF13719DF80700FFF7BE
:1088100083FD204603B030BD37B5054600230DF17A
:1088200007000C468DF80730FFF752FD2A681368E1
:10883000591C1160E968641A298AB4FBF1F41C70B0
:108840009DF80700FFF768FD03B030BD826810B5E2
:1088500004462AB143690168006998470023A36070
:1088600010BD0EB403B5039921B104AB01AA019365
:1088700000F076F802B05DF804EB03B070470A2907
:1088800038B504460D4602D10D21FFF7F8FFA36865
:108890002268591CA160D554D4E901329A4204D30C
:1088A0002046BDE83840FFF7D1BF38BD2DE9F84F6D
:1088B0009846DDE90A43154682460F460A464FF0C0
:1088C0000109AA420FD2C14538BFC14613F0010BBE
:1088D00001D16CB900240126B8F1010F1BD908F1B0
:1088E000FF386E43F8E709F10109B2FBF5F2E8E75A
:1088F0009B070ED5B8F1000F0CBF30262026A145EE
:10890000E9D2013C31465046FFF7B9FF002CF6D1C1
:10891000E0E72026F3E7B7FBF6F39D42E1D9DFF865
:108920003C80B7FBF6F3504618F8031006FB1377AC
:10893000FFF7A5FF3346AB42B6FBF5F6F1D2BBF12C
:10894000000F02D00CB1A14501D3BDE8F88F202162
:108950005046013CFFF793FFF4E700BFE6D8020062
:108960002DE9F74F054617468846002900F0428159
:1089700018F8011B49B92B7B002B00F03B812846DE
:1089800003B0BDE8F04FFFF761BF252940F0B78085
:10899000002698F800302D2B424608F1010823D01C
:1089A000302B24D02B2B25D000242A2B02F10101BF
:1089B00023D13B681A1D1B683A601C440A46137891
:1089C0002E2B26D101324FF0000A104610F8011B61
:1089D000A1F1300CBCF1090F1DD80A2303FB0A13C7
:1089E000A3F1300A0246F0E746F00106D1E746F06F
:1089F0000206CEE746F00406CBE711F8013CA3F1EE
:108A000030000928DBD80A2202FB0434303C0A4635
:108A1000CBE74FF0000A12F8011B01F0FB006828B9
:108A20009046F8D0782909D86F290CD8632962D0EC
:108A300022D8252963D0582900F0888098F8003082
:108A4000002B95D197E770390829F7D801A353F87F
:108A500021F000BFCF8B02003D8A02003D8A020058
:108A60005D8B02003D8A02003B8B02003D8A0200C2
:108A70003D8A02004D8B0200642901D06929DDD1B5
:108A80003A68D2F80090111D89EAE9723960A2EBC8
:108A9000E9724FF0010B092A35DCD34538BFD346C4
:108AA0002CB1B9F1000F01DB720700D5013CB3070F
:108AB00002D5BAF1000F03D0F00701D44CBB00245B
:108AC000B9F1000F2DDAC9F100092D212846FFF771
:108AD000D6FE06F00302022A04D1BAF1000F01D13A
:108AE0001CBB0024CDE9004653460A2249462846CD
:108AF000FFF7DCFEA2E73B681A1D19783A602846AA
:108B0000FFF7BDFE9AE70A230BF1010BB2FBF3F26C
:108B1000C1E7A345D4D220212846013CFFF7AFFE90
:108B2000CCE77107D5D52B21D0E7A345DAD2302188
:108B30002846013CFFF7A3FED2E73968CDE900469D
:108B40000A1D3A6053460A220968D0E739680A1DAF
:108B50003A60CDE9004653461022F5E73B681A1DFE
:108B60003A6016F00106D3F8009028D1B9F1000F51
:108B700003D0484604F019FA0646B44200D904BBB3
:108B800009F1FF3919F8011F00293FF457AF2846B2
:108B9000FFF775FEF6E728460136FFF770FE19F875
:108BA00006100029F7D1A642BFF448AF002C3FF4CD
:108BB00045AF20212846013CFFF761FEF3E7002680
:108BC000EDE720212846013CFFF759FED5E73B6839
:108BD0001A1D3A60302128461C68FFF750FE7821A4
:108BE0002846FFF74CFE00220823CDE9003221463B
:108BF00010227CE703B0BDE8F08F00BF2DE9F84FED
:108C0000B0F806A04579D2F800B09DF828900AFB8C
:108C100005F5043D88460BEB0301A94203F104046A
:108C200088BFA5EB030BB4FBFAF607460AFB164414
:108C3000C2F800B04EB9AAEB04055D4528BF5D46F9
:108C4000BBF1000F04D1BDE8F88F3F68013EF1E7AA
:108C5000043408EB06003C442A46B9F1000F0DD05D
:108C60002146ABEB050B04F022F9DA452E443F68B0
:108C700055464FF0000428BF5D46E1E70146204617
:108C8000EFE7FFF78EBDF8B546790146721E05463F
:108C9000002393422D6803D30024A64202D8F8BDD6
:108CA0000133F6E70F682846FFF7B6FD0134394671
:108CB000F3E72DE9F843068ACD1C0746FFF788FD48
:108CC000043E35440446B5FBF6F5F0B14FF480732D
:108CD000EDB28380C680013D076081464FF00008F9
:108CE000A84512D23846FFF773FD064648B16379AE
:108CF0000133637108F10108C9F80000076081467B
:108D0000EEE72046FFF7BFFF34462046BDE8F88374
:108D100001210430FFF727BD10B5012104460430BE
:108D2000FFF72DFD10F0FF0F04D12046BDE81040E5
:108D3000FFF7A9BF10BD1FB503920022009203AA3E
:108D4000FFF75CFF05B05DF804FB1FB5039201223D
:108D5000009203AAFFF752FF05B05DF804FB41DF64
:108D60007047000007B500230DF107008DF80730AC
:108D7000FFF7AEFAF1EE103A23F09F03E1EE103A5E
:108D8000BFF35F8F094B4022C3F884219DF8070091
:108D9000FFF7C2FA02F038F920B1FFF7E0FF03B0A5
:108DA0005DF804FB20BF40BF20BFF8E700E100E012
:108DB000836800225A60C3E904229A60DA601A606C
:108DC00070470B684A684360934208BF0023016004
:108DD00008BF43607047436843B1026891685268B6
:108DE0000B449342436004BF00234360704770B557
:108DF000446806460D46206818B1B368294698476E
:108E000018B923682B60256070BD2468F3E74368B8
:108E1000186808B102681A6070474368186870479C
:108E20004368186800B97047884203D102681A6025
:108E30000120704703460068F4E7000010B50D49B3
:108E4000A1F59472914201D800200FE08C1AE30F33
:108E500003EBE4035B1002EBC30452F833308342AC
:108E600005D802D204F10802ECE7606810BD214683
:108E7000E8E700BF00DE020008B5FFF7DFFF024BA6
:108E8000002808BF184608BDC2DC020010B5044621
:108E9000C0B2FFF7F5F9204610BD0000034B18687B
:108EA000A0F1080358425841704700BF300100103C
:108EB000064B1B68082B06D1054B1B68032B02D8F9
:108EC000044AD05C70470020704700BF300100109A
:108ED0003401001000DE020008B5FFF7DFFF40B1EB
:108EE0004FF080430022C3F80C21C3F81021C3F8CF
:108EF0003825FFF7D3FF002846D04FF080525E4B55
:108F0000D2F80414C3F82015D2F80814C3F82415B5
:108F1000D2F80C14C3F82815D2F81014C3F82C1585
:108F2000D2F81414C3F83015D2F81814C3F8341555
:108F3000D2F81C14C3F84015D2F82014C3F8441515
:108F4000D2F82414C3F84815D2F82814C3F84C15E5
:108F5000D2F82C14C3F85015D2F83014C3F85415B5
:108F6000D2F83414C3F86015D2F83814C3F8641575
:108F7000D2F83C14C3F86815D2F84014C3F86C1545
:108F8000D2F84424C3F87025FFF792FF10B13B4B91
:108F90003B4A1A60FFF78CFF18B13A4BFB22C3F82B
:108FA0001825FFF785FF48B13749384B0A681B6819
:108FB00022F00F0203F00F0313430B60FFF778FF5B
:108FC00018B1334B4FF400721A60FFF767FF48B1D6
:108FD0004FF08043D3F80024D20744BF6FF0010262
:108FE000C3F800242B4AD2F8883043F47003C2F847
:108FF0008830BFF34F8FBFF36F8F4FF01023D3F83C
:109000000022002A03DBD3F80432002B2FDA224B94
:109010000122C3F80425D3F80024002AFBD04FF026
:1090200010221221C2F80012D3F80024002AFBD02B
:109030004FF010231222C3F80422174B1A46D3F81C
:1090400000140029FBD00021C3F80415D2F8003425
:10905000002BFBD0BFF34F8F0E49104BCA6802F4B0
:10906000E0621343CB60BFF34F8F00BFFDE70C4BB3
:109070000C4A1A6008BD00BF00C000408C5600407A
:109080004881030000F00040E40E00405802001048
:109090004096024000ED00E000E001400400FA05C7
:1090A0000C2B00200090D00338B5074C051E04F1AE
:1090B000080318BF1C4623682BB11A6822605B683E
:1090C00028469847F7E738BDA8BF002020B9054BD0
:1090D00001225A70FFF7E8BF012802D1014A9070BF
:1090E000F8E77047A0BF002020B9034B01225A7057
:1090F000FFF7DABF704700BFA0BF002038B50E4CA5
:109100002378B3B90D486360A3602361E36000F086
:10911000E5F8054601F078FF08B900F0EBF8012307
:109120002370074BD3F800340BB10123A3702846FA
:1091300038BD8525F5E700BFA0BF0020CD90020017
:109140000000014037B50D4C00230DF107008DF8EC
:109150000730FFF7BDF8E368013BE360E36833B92C
:10916000074BD3F8005415B900F0D6F8A5709DF858
:109170000700FFF7D1F803B030BD00BFA0BF00204B
:1091800000000140012813B50CD0032820D038B9C5
:10919000124B0122C3F88020BFF34F8FBFF36F8FB4
:1091A00002B010BD0E4C00230DF107008DF8073002
:1091B000FFF78EF823780BB9FFF7A0FFE3689DF85F
:1091C00007000133E3600123A370FFF7A5F8E7E789
:1091D00000F090F8FFF7B6FFE2E700BF00E100E023
:1091E000A0BF00201FB503788DF8003043680193BD
:1091F00083688DF80830C368054A0393054B6846B9
:1092000053F8213052F82110984705B05DF804FB5F
:10921000B4BF0020BCBF00201FB503788DF800301C
:109220004368019383688DF80830C368054A039347
:10923000054B684653F8213052F82110984705B085
:109240005DF804FBB4BF0020BCBF0020F0B5194B93
:1092500090F800C0DFF86CE043F82C20164B16465F
:109260000A6943F82C204B7F0EF80C300C46074659
:109270000FCC89B06D460FC594E80F0085E80F004C
:109280001EF80C30CDF810C04BB1002E0B4A6946C9
:1092900008BF3246381D00F0C3FC09B0F0BD002EF7
:1092A000074A694608BF324607F10C0000F078FA19
:1092B000F3E700BFBCBF0020B4BF0020E59102006F
:1092C00019920200C4BF002000F18040002382B048
:1092D000036003680193019B02B07047044A13794D
:1092E00023B901211060918018467047852070478E
:1092F000C8BF0020074B1A68D20704D4C02283F8E5
:10930000002301221A604FF080430122C3F8182580
:10931000704700BF00E100E04FF0804208B5022333
:10932000C2F808334FF48270FFF7CEFF034B0121E0
:109330001960D2F81834DB03FBD408BD0C000040E0
:10934000124B1B6810B573B14FF48070FFF7BCFF70
:109350004FF080430122C3F808230D4B587910B910
:109360005A711B6898470B4B1B6873B14FF482709E
:10937000FFF7AAFF4FF080430222C3F80823044BF3
:10938000BDE810401B680120184710BD00010040D7
:10939000C8BF00200401004000F1804000F5C0403B
:1093A000002382B0036003680193019B02B0704701
:1093B00003681F2B83BF03F01F03036001484FF0B6
:1093C000A04070470003005007B5019001A8FFF7C7
:1093D000EFFF019B00EB8300D0F8003723F440330C
:1093E000C0F80037D0F8003743EA0141C0F8001751
:1093F00003B05DF804FB00002DE9FF470024CDE930
:109400000244584D4FF48072012102F1804303F56C
:10941000C04390B21B68012B06D1D5F804330B4230
:1094200002D0FFF7B9FF0C430432B2F5907F4FEA48
:109430004101EAD14C4B1B68012B11D14FF4BE7096
:10944000FFF7AAFF4FF0A04344F00044D3F82025D3
:109450000292C3F82025D3F820280392C3F82028CD
:1094600014F0FF0F1AD0414F00250126344210D0CE
:10947000AB0003F1804303F5C043D3F81005D3F8E4
:10948000101557F8253023B1C1F30141C0F3052071
:1094900098470135082D4FEA4606E7D1002C59DAE6
:1094A000324D334C334E4FF00008012716F9013B83
:1094B0005A1C3CD0C3F3C20104A801445FFA83F9EB
:1094C00011F8081C03F03F0203F0070307FA03F347
:1094D00019422CD001A80192FFF76AFF019B03F506
:1094E000E07350F82330C3F3014ABAF1020F10467B
:1094F0000CBF03210221FFF767FF01A80192FFF7CC
:1095000057FF019B07FA03F3C0F82035AB1893F916
:10951000303055F8233053B14FEA9911032904D064
:10952000BAF1020F19D1012901D11046984708F16B
:109530000108B8F1040FB9D14FF0A043D3F82025AA
:109540000292C3F82025D4F820350393C4F82035BF
:109550001343A7D104B0BDE8F087BAF1030FE6D1F9
:109560000229E1E7006000407C610040D0BF00209C
:109570000003005030C00020014B1B68184700BF9B
:109580003CC000200E4B984237B50C4602D000205C
:1095900003B030BD00230DF107008DF80730FEF752
:1095A00097FE084B1D7915B901221C601A719DF8B0
:1095B0000700FEF7B1FE002DE9D01120E8E700BF5B
:1095C000002000403CC000200023435082B043589C
:1095D0000193019B02B070470A4610B54FF48E719B
:1095E000FFF7F2FF136A9168C95C136A01331362D3
:1095F000C0F81C1510BD024608B500684FF4927102
:10960000FFF7E2FF4FF484711068FFF7DDFF136886
:1096100001221A6008BD8B690A4610B54FF48471A7
:1096200023B9FFF7D1FFD0F8183510BDFFF7CCFFF5
:10963000536AD168D0F81805C854536A013353628D
:10964000F3E700001FB501238DF80030044BCDE98E
:109650000110D3E900126846904705B05DF804FB9D
:1096600044C0002030B54C48D0F8043313F4007FD8
:1096700085B005464DD0D0F82431002B49D04FF4A9
:109680009271FFF7A1FF4FF40173C0F80833434B09
:1096900093F829200AB9012242603F4902228DF83D
:1096A0000020D1F88024C1F8802403929A690292A4
:1096B000DA6801920022C3E906226846D3E9001263
:1096C00090473548D0F81C315BB134494A690B6A80
:1096D0009A420A464AD991F82830002B46D1FFF722
:1096E0007BFF2D48D0F844318BB14FF4A271FFF7C6
:1096F0006BFF2A4B93F829200AB1012202609A6974
:109700002AB10022586AD9689A61FFF79BFF05B019
:1097100030BDD5F804335B07D3D5D5F80831002B1D
:10972000CFD01E4C1C482146FFF775FF636AA26923
:109730009A422346C5D1E269E1684AB12369E360F0
:109740000023606AA261E3616362FFF77BFFB8E711
:1097500094F829200AB901226A600F4A4FF4017077
:10976000C2F808030022586A9A61EEE70A484FF4EB
:109770008E71FFF729FF5369002BB2D05169029116
:10978000002391688DF80030019153616846D2E959
:1097900000139847A5E700BF0020004044C0002008
:1097A0002DE9F843614B057991462C2202FB0532E5
:1097B000064692F82A200C469846002A40F0B180CE
:1097C0005B490068FFF7DEFE0746002840F0AB80EB
:1097D00021684A1C10D01F2987BF564A01F01F0379
:1097E0000B464FF0A0420120984003F5E073C2F809
:1097F0000805032042F823006068431C0DD01F2891
:109800008BBF00F01F0303464A4A4FF0A04203F506
:10981000E0734FF0000C42F823C03368A269C3F82C
:10982000242594F814C0627DBCF1010F4CEA0202B9
:10983000C3F86C25C3F81405C3F80C152BD1A16827
:10984000481C0DD01F298BBF01F01F020A46394862
:109850004FF0A04002F5E0724FF0000C40F822C03B
:10986000E068421C13D01F2887BF324A00F01F0C4B
:1098700084464FF0A0424FF0010E0EFA0CFE0CF59C
:10988000E07CC2F808E54FF0030E42F82CE0C3F884
:109890000805C3F810152C236B4308EB0302C2F82C
:1098A0000490226948F80320B9F1000F21D03068F4
:1098B000247F4FF48E71FFF787FE4FF4A27130685A
:1098C000FFF782FE32681C4BC2F80433110B42F3DF
:1098D00007326301002ADBB21EDB1848841884F8C3
:1098E00000330123520901F01F0103FA01F140F88E
:1098F000221033680422C3F800252C2303FB0583C0
:109900000022C3E9062283F829205A61012283F844
:109910002A203846BDE8F883094A01F00F01535464
:10992000E7E70827F5E71127F3E700BF44C0002069
:1099300065960200000300508000020000E100E094
:1099400014ED00E02DE9F047204F90F804904FF01F
:109950002C0808FB097405466669002E34D1626143
:109960000068A16026624FF48E7184F82860FFF7CA
:109970002BFE2868012383602146FFF72DFE6368D4
:10998000A0468BB92868D4F814A0236A9A4511D848
:109990002A68D2F81C31002BFBD00123D3602C2382
:1099A00003FB097300225A613046BDE8F08794F842
:1099B00028303BB9D0F81C31002BF8D04146FFF7D6
:1099C0000BFEE2E70F26EAE71126EDE744C0002090
:1099D0000379044A2C2101FB03235869003818BF7E
:1099E0000120704744C000202DE9F843394F057924
:1099F0002C2303FB057306465C6824B103684FF40F
:109A00000170C3F808032C2303FB0573986950B158
:109A1000D86900283ED024B133684FF40172C3F8EE
:109A20000423112433E09A61D9605862D8612C2351
:109A300003FB057393F829301BB910B93046FFF7C3
:109A4000DAFD4FF02C0909FB05783068D8F80430AE
:109A5000002B34D14FF4A271C146FFF7B5FD306839
:109A6000D0F82431D0F80821D0F84441B2B90CB96B
:109A7000002BF4D02C2202FB05750022AA6123BB27
:109A80002CBB95F8291033680122B1B11A60204629
:109A9000BDE8F8831961DA610120C8E7002BE9D13C
:109AA000002CE7D14946FFF7B6FDD8F82430D8F8A6
:109AB00018209A42D3D82346DCE75A60E7E74FF4F0
:109AC0000173C0F804330024E1E70324DFE70F2427
:109AD000DDE700BF44C000200023435082B043585C
:109AE0000193019B02B070471FB501238DF8003030
:109AF000044BCDE90110D3E900126846904705B048
:109B00005DF804FB70C000207FB5434AD2F82461A1
:109B1000002E60D010464FF49271FFF7DDFF022354
:109B20008DF80030D2F88034C2F880340393D2F834
:109B30003C350293394BDA6801920022C3E90622D0
:109B40006846D3E9001290473348D0F8443173B1E6
:109B50004FF4A271FFF7C0FF304B9A693AB100226F
:109B6000C3E90622D968D0F83C05FFF7BDFF2A48B3
:109B7000D0F82031ABB14FF49071FFF7ADFF012366
:109B8000C360264B5A6962B1D0F84C15029100228D
:109B900099688DF8002001915A616846D3E9001256
:109BA00090471D48D0F858319BB14FF4AC71FFF786
:109BB00093FF1A4B5A6962B1D0F84C1502910022FA
:109BC00099688DF8002001915A616846D3E9001226
:109BD000904704B070BDD2F81031002BB4D04FF4D0
:109BE00088711046FFF778FF0C4BD2F83C05996955
:109BF0008842A9D1DC69D96864B1D2F8005225F055
:109C00002005C2F800521A699C61DA60DE61FFF734
:109C10006BFF99E79C61FAE70020004070C00020CC
:109C20002DE9F843674B06799146242202FB063260
:109C3000044692F820200D469846002A40F0BE8047
:109C400061490068FFF79EFC0746002840F0B88095
:109C50002868421C10D01F2887BF5C4A00F01F03F1
:109C600003464FF0A0420121994003F5E073C2F88A
:109C70000815032142F8231069684B1C0DD01F29D9
:109C80008BBF01F01F030B46504A4FF0A04203F573
:109C9000E0734FF0000C42F823C02368AA69C3F8B0
:109CA000242595F814C06A7DBCF1010F4CEA02022C
:109CB000C3F86C25C3F80C05C3F814152BD1A9689B
:109CC000481C0DD01F298BBF01F01F020A463F48D8
:109CD0004FF0A04002F5E0724FF0000C40F822C0B7
:109CE000E868421C13D01F2887BF384A00F01F0CB9
:109CF00084464FF0A0424FF0010E0EFA0CFE0CF518
:109D0000E07CC2F808E54FF0030E42F82CE0C3F8FF
:109D10000805C3F810152423734308EB0302C2F8A7
:109D200004902A6948F80320B9F1000F30D0206868
:109D30002A7F4FF48871FFF7CFFE20684FF49071AF
:109D4000FFF7CAFE20684FF49271FFF7C5FE206846
:109D50004FF4A271FFF7C0FE4FF4AC712068FFF71B
:109D6000BBFE23681A49C3F80413190B43F30733E6
:109D70005201002BD2B21CDB1648C51885F800230F
:109D800001225B0901F01F0102FA01F140F82310E2
:109D900023680822C3F80025242303FB068300223E
:109DA000C3E906225A61012283F820203846BDE823
:109DB000F883094B01F00F015A54E9E70827F5E74A
:109DC0001127F3E770C00020099B02000003005038
:109DD0001003420000E100E014ED00E001F06043F8
:109DE000B3F1005F2DE9F041064638D11E4B0779EB
:109DF000242505FB073598466C69002C31D16A6132
:109E00000068A9604FF49071FFF766FE4FF4AC71E3
:109E10003068FFF761FE33686A69A968C3F84415C2
:109E2000C3F8482501229A606A68AAB9D3F82021AC
:109E3000D3F858411AB9002CF8D00F2407E0002CB1
:109E4000FBD10122DA60D3F85821002AFBD0242369
:109E500003FB078700237B612046BDE8F0811024C7
:109E6000FAE71124F8E700BF70C000200379044A24
:109E7000242101FB03235869003818BF01207047D3
:109E800070C00020F8B501F06043B3F1005F0446F4
:109E90000F465ED10379304D242101FB03514968FF
:109EA00021B100684FF40476C0F80863242000FB59
:109EB00003539E6956B1D869002839D021B123686F
:109EC0004FF40472C3F80423112030E09A61DF607C
:109ED000DE6120684FF48871FFF7FEFD20684FF4C3
:109EE000A271FFF7F9FD2368C3F83475C3F838256C
:109EF00016BB01221A602179242202FB015252680A
:109F00000ABBD3F81041D3F84421D3F824011443F9
:109F100002D10028F5D02246242303FB015500235B
:109F2000984218BF03209A42AB6118BF0F20F8BDBA
:109F30001F61DA610126CCE7D3F8002242F020024B
:109F4000C3F80022D7E74FF40472C3F804230020BB
:109F5000EDE71020EBE700BF70C00020032811D808
:109F6000012A0AD101290FD100F10E02D2B20D4B04
:109F700000EB40001A54002070470129F7D0022955
:109F800004D049B1072070470022F8E7054B00EBE9
:109F9000400018444270EEE7024B00EB40001844CA
:109FA0008270E8E794C0002008B501220221002059
:109FB000FFF7D4FF08B1072810D1072202210120A2
:109FC000FFF7CCFF08B1072808D100210A22084674
:109FD000FFF7C4FF10B1072808BF002008BD00002C
:109FE0000388102B10B502D0112B1ED010BD1A4CB7
:109FF0002168B1B901220846FFF7B0FF08B1072870
:10A0000024D1072202210120FFF7A8FF08B1072869
:10A010001CD1042202210020FFF7A0FF08B107286D
:10A0200014D1236801332360E0E70B4A1368013B36
:10A030001360002BDAD1FFF7B7FF0028D6D0074B0B
:10A040001B68002BD2D0BDE810401847034B1B689B
:10A05000002BE6D09847E4E7A4C00020A0C0002071
:10A0600073B50378012B33D0022B31D073BB1A4C5C
:10A070001A4D20782844FEF7EDF823780133DBB23F
:10A080001D44237015F8012C0A2A05D00D2A03D08F
:10A09000134A12889A4219D8012B15D90F4D114E27
:10A0A0002378ADF806300DF106024FF6FF7329460E
:10A0B000304600F075FF082806D01328F0D0052898
:10A0C00002D008B1FDF7E2FD0023237002B070BD9D
:10A0D0004068FDF7DBFDF9E71CCE002028CD00200D
:10A0E000CAB80020CCB800202DE9F04F914D0FCD1B
:10A0F00097B010AC0FC495E803008F4B8F4A0C93B8
:10A100004FF4807384E80300CDE90E230D938C4A4D
:10A1100007230CA910A8FEF745F808B1FDF7B6FD16
:10A120004FF480410020FDF7AFFA08B1FDF7AEFD16
:10A13000FDF7EAF9FDF79EFE08B1FDF7A7FD81489E
:10A1400002F084FE8049814A00200B78DB01A3F5F0
:10A1500078531B1203F3070313704B78DB01A3F54D
:10A1600074531B1203F3070353708B780330DB0126
:10A17000A3F56253B0F5406F4FEA232301F10301C9
:10A1800003F3070302F1030202F8013CDDD170483A
:10A19000704CDFF800B202F059FE4FF0090A0623B6
:10A1A000CDE9053A6C4B0493202600254FF00208B8
:10A1B0004FF00109052303223146CDE900630896DB
:10A1C000664B079404F50040CDE902890A95CDF865
:10A1D00024B001F0D7FB624802F038FE4FF4004192
:10A1E000204600F07DFF5F4802F030FE102704F5A6
:10A1F0000043324631462046CDE90353CDE901877D
:10A200000323009502F0D6F9574802F01FFE574B82
:10A21000CDF818A00422059205223946CDE907475A
:10A22000CDE90393CDE90072514BCDF80880324659
:10A2300004F50040CDE909B500F08AFF484802F076
:10A2400005FE4FF48051204600F04AFF454802F0D9
:10A25000FDFD4FF0080A04F500433A463946204612
:10A26000CDE903B3CDE9018A0323009502F0A2F9F9
:10A270003D4802F0EBFD0723CDE905933D4BCDF8BA
:10A2800008800522CDE9006251463A46CDE9074AE9
:10A29000CDE9039304F50040374BCDE909B500F053
:10A2A00057FF2F4802F0D2FD4FF40061204600F026
:10A2B00017FF2C4802F0CAFD04F50043CDE903B3B3
:10A2C0000423324651462046CDE9018300950323FD
:10A2D00002F070F92448294E02F0B8FD284B2949B4
:10A2E00004944FF40072CDE901A304F500400A2361
:10A2F0000396CDF8009001F06FFF2348234C02F045
:10A30000A5FD32460A21304602F0A2FB204802F0A9
:10A310009DFD294616F9012B2046013502F096FDD8
:10A320000A2DF6D1FDF700FA0028FBD1FEF71AFD41
:10A33000F8E700BFA4DE020082D200208273012071
:10A3400061A0020026DE0200C09800208253012096
:10A350003EDE020082D30020102B0020302B002094
:10A3600053DE020065DE020071DE02009034002040
:10A37000A0340020A0660020C066002078D2002013
:10A38000C0A40020CAA4002080DE020099DE0200E2
:10A390008ADE0200A8C000200369C1688B429DBF0D
:10A3A0008268D21802F1FF3203F1FF3394BF501AD2
:10A3B000581A70472DE9F843D0E902940546A9EBF5
:10A3C00004084068904520440F46144404D902F024
:10A3D0006EFDEC60BDE8F8834246A4EB090402F090
:10A3E00066FD6868224607EB0801F0E72DE9F843AF
:10A3F000C5680646894617464FF000083469B368B9
:10A400007068A54228BFE418013C621B5C1BBC427B
:10A4100028BF3C46944228BF144649462844224659
:10A4200002F045FDB3682544AB4208BF00253F1B41
:10A43000A044A144F560E1D14046BDE8F8830000A6
:10A4400010B5114C114AA2610223C4E90433104B28
:10A45000E361A2644FF400730E4A0F492362E26481
:10A4600000231022E01DA3626362E362A3656365BB
:10A47000E365226502F077FD0849204602F073FD8E
:10A480002023A37110BD00BF84740120BCDE020034
:10A490000C750120FC740120C5DE0200C9DE02003B
:10A4A000F8B5184C182300FB033503FB0040254486
:10A4B000C46A012C0F4616460FD0022C1AD0F4B9EC
:10A4C0002846FFF769FF864205D8324639462846B6
:10A4D000FFF770FF34462046F8BD2846FFF75CFFC3
:10A4E0008642344628BF0446224639462846FFF7AE
:10A4F00061FFF0E72846BDE8F840FFF777BF00248A
:10A50000E9E700BF84740120FFF79ABF30B5C8B1F6
:10A51000F2B10024651C8D4206DA1588A54212D8D6
:10A5200005196D789D420ED1A14211D9005D48B147
:10A53000013880B230B10234A3B210FA84F4A142DF
:10A5400006DB138030BD055D01352C44A4B2E1E784
:10A550000020F7E713B513460022ADF806200DF1F1
:10A5600006020446FFF7D2FF10B1BDF80630E0182E
:10A5700002B010BD72DF704773DF704738B501223B
:10A5800004460D46B0F81414D0F81004FFF7E2FFAB
:10A5900000B1057004F13C0204F5826104F154003D
:10A5A000BDE83840FFF7E6BFF8B5077804460D462A
:10A5B000002F00F0098100F2264681700722002159
:10A5C000304602F09DFCE38813B1A378012B04D040
:10A5D000E3794BB1A378022B06D1636BA3B10122BF
:10A5E00084F82D2408209847334604F22C4113F8B0
:10A5F000012F12B99942FAD117466B1E032B57D877
:10A60000DFE803F0050B0F1284F82D34ECE7A37993
:10A610001BB194F8243003B95FB9E3790BB1002F73
:10A6200048D1237A002B47D1637A002B0CBF002539
:10A630000425636BA570002B40D0033D012D3DD850
:10A640006279002A3AD094F82E24002A36D184F870
:10A650003024012284F82F240720984704F13C0578
:10A6600018220021284602F04BFCE26A0123511E09
:10A67000994284F83C3001D9042A00D1D3B294F82D
:10A68000242084F8513042B1A36A591E012902D90D
:10A69000042B18BF012384F85230A178002384F8DA
:10A6A000503004291BD8DFE801F0770D223559001E
:10A6B0000025BEE70225BCE70325BAE7002384F89E
:10A6C0002F34CBE7C4E91063C4F8203402230122FD
:10A6D00084F83C30802384F83120A4F84830A378F3
:10A6E000002B5CD1636B002B6AD1002067E0022352
:10A6F000002A84F8313014BF0723032384F83C3048
:10A700002369A4F848300023C4F82034E3682664A1
:10A710006364E4E763696364A369A4F8483012B131
:10A72000062384F83C306379B3B194F82E349BB996
:10A7300094F8303483B1022384F850300421204649
:10A74000FFF71CFF0028CAD1052384F8313004F537
:10A750008263C4F82034C2E70323F6E7E369636445
:10A76000236AA4F8483012B1062384F83C30637998
:10A7700083B194F82E346BB994F8303453B102237A
:10A7800084F8503004212046FFF7F8FE0028A6D1B7
:10A790000623DAE70423D8E784F831309FE7D4F8BA
:10A7A00020142A4604F15400FFF7E4FE38B994F867
:10A7B000301094F85400FFF7DFFE002892D0F8BD67
:10A7C00094F83100984790E70820F8E70388112BA8
:10A7D00010B50C460AD0262B1FD0102B05D1C37BF9
:10A7E000012B02D18388A1F8243410BD0022838874
:10A7F00081F82E24B1F824249A42F6D10B79002B4B
:10A80000F3D101212046FFF7CFFE0028EDD0A36B46
:10A81000002BEAD0BDE810401847037A013B012B1A
:10A82000E3D8897805230131B1FBF3F303EB83030C
:10A83000C91AC9B2E6E70000034B1A8882420CBF6E
:10A8400018460020704700BF28770120024B9B6903
:10A8500003B11847704700BF0C77012037B50B468E
:10A86000497A0F4A71B9D2E901141D7A0246002DC6
:10A8700018BF21465868FDF72FFB08B1FFF7E6FF28
:10A8800003B030BD002119725369002BF8D00122AA
:10A89000ADF806008DF8042001A89847F0E700BF46
:10A8A0000C7701204B8802889A4213D842889A423A
:10A8B00010D380888A8840F2F313984294BF031A19
:10A8C000C31A934206D800F2F310904234BF00201E
:10A8D00001207047002070470388122B70B5014695
:10A8E00059D004D8102B1ED0112B44D070BD502B42
:10A8F000FCD12F4BC288DB899A42F7D1038A022B05
:10A90000F4D186883046FFF797FF05460028EDD042
:10A9100001F1120000F028F938BB6868FDF7F4FA7D
:10A920000028E3D009E0C37B012BDFD14FF6FF7095
:10A93000FFF782FF054620B90420BDE87040FFF70D
:10A9400085BF1C4A8E880680002303721368C0F8F6
:10A950000A305368C0F80E3010310A30FFF7A2FFFA
:10A96000134B6872DB89002BC0D129463046BDE805
:10A970007040FFF773BF8088FFF75EFF0446002832
:10A98000B4D04068FDF7C0FA08B1FFF75FFF4FF69B
:10A99000FF732380AAE786883046FFF74DFF054600
:10A9A0000028A3D008310A30FFF77CFF6872DCE78B
:10A9B0000C7701203C7701200AB1FDF789BEFDF735
:10A9C00090BE73B50191019C06466CB100252C46E2
:10A9D000294601A8FDF78FFE18B106EB44030134A8
:10A9E0009D800135142DF3D13046346002B070BD26
:10A9F0002DE9F04703888488103B8CB005460A2B6C
:10AA00001FD8DFE803F0063F1E1E1E1E1E1E1E601E
:10AA10004400314EB368DB43009371686846FDF72C
:10AA200096FE009901A8FFF7CCFF0DF108094FF041
:10AA30000008019B984507D3132C13D90420FDF778
:10AA400025F90CB0BDE8F08739F802AB00270137D3
:10AA5000514606EB8700FDF744FE1E2FF7D108F1A3
:10AA60000108E6E71D482146FDF732FE1C48214655
:10AA7000FDF72EFEEB7B022BE3D11A482146FDF7B2
:10AA800027FEDEE715482146FDF72BFED9E7027ABF
:10AA900015483F2A4FEA1215214694BF0022012291
:10AAA000FFF78AFF022D94BF002201220F482146A2
:10AAB000FFF782FF012D0E4894BF0022012221469C
:10AAC000FFF77AFFBDE7037A002BBAD1427A064836
:10AAD000C2F3C0022146F3E7447701204C770120FE
:10AAE00048770120507701205C77012058770120BA
:10AAF000547701201328014602D80248FDF7FBBD18
:10AB0000002070474877012010B50446FFF7F2FF98
:10AB1000002814BF2046142010BD70B50546164607
:10AB200008460AB90E2070BD00231360002DF9D02D
:10AB30002B68002BF6D0EB8813F003040ED1FFF73F
:10AB4000E3FFC0B214280BD02B7983420AD9EB88DB
:10AB50002A6800FB032030602046E4E70720E2E794
:10AB60000520E0E70420DEE7007800F001007047F0
:10AB700090DF7047A5DF7047B5DF70477FB50023D2
:10AB8000ADF80810ADF80A106A4602A9064603930C
:10AB90000093ADF80430FFF7EBFF054600B3124B0E
:10ABA000124CE41AE408FEF767F9240444F00104A7
:10ABB00003460F4932462046FCF707FFBDF8002048
:10ABC000BDF8023052EA030103D00A492046FCF7DF
:10ABD000FCFEBDF804201AB107492046FCF7ECFE44
:10ABE000284604B070BD00BFB0D6020000D70200F6
:10ABF000D0DE02001ADF020059DF020013B503465F
:10AC000080880C46B8B91A88242A00F0968014D897
:10AC1000112A71D0232A00F09E80102A3BD0A37AFB
:10AC20004BB1E1880020FFF7A5FF002840F0998094
:10AC30004FF48073638102B010BD3A2A65D0552A63
:10AC4000EDD1DB88C988A072172B38BF17238B4240
:10AC500028BF0B462381FFF78FFF60B1FEF70CF989
:10AC6000484B4949024649481B1ADB081B0443F07C
:10AC70000100FCF7A1FEE37A002BD0D12369002B61
:10AC8000CDD040F6772200922289ADF804206946A3
:10AC900020469847C3E7DB7B0A790A73012B13D060
:10ACA000022B14D0E18823898B4205D20020FFF7C4
:10ACB00061FF70B90123E372217B637B8B42AED2CB
:10ACC0000020FFF75BFFAAE70B88E380EAE74B88E9
:10ACD000FBE7112802D10123A372EDE7FEF7CCF8C0
:10ACE000284B2B49024629481B1ADB081B0443F05A
:10ACF0000100FCF761FEDFE7F723CB8017230B8110
:10AD000041F6FB3348818B8189E75B89CA8893428E
:10AD100028BF1346172B0A6938BF17230B814AB186
:10AD2000C97A39B140F677210091ADF8043069460F
:10AD3000204690470023638171E71A7A0B694A73B2
:10AD4000002B3FF46CAF4DF67A218DF80500009191
:10AD50008DF804209BE7197A237B994228BF194676
:10AD6000AFE711283FF467AFFEF786F8054B0849B7
:10AD7000024606481B1ADB081B0443F00100FCF7DF
:10AD80001BFE58E700D70200E0DF0200B0D6020049
:10AD9000AFDF0200B0DF704766DF704710B50021FB
:10ADA00004464088FFF7F8FF034608B9237210BD38
:10ADB000112801D10123F9E76368BDE81040184765
:10ADC000F0B5054685B00C46F1B1E8B10B78DE2B45
:10ADD0001AD182884B889A4204D10B7A13B1084663
:10ADE000FFF7DCFF2B88112B32D0512B0ED0012B1B
:10ADF0000AD12B7A012B07D1A9886288914203D10D
:10AE000023722046FFF7CAFF05B0F0BDAE88638805
:10AE1000B342F9D1AF79022FF6D1AD7B2B1F022BB4
:10AE2000F2D800211022684602F06AF8052D14BFFE
:10AE30004FF4C0730023694630468DF80070ADF8BA
:10AE40000430FFF7A7FF0028DED063689847DBE7F0
:10AE50006388AA889A4204BF4FF6FF736380D3E7E2
:10AE6000ADDF7047AEDF704770B505468AB00C465F
:10AE7000002962D0002860D00388502B37D0572B90
:10AE800072D0102B59D181886069002601AA0196E1
:10AE9000FFF743FE082231460DEB020002F030F8C6
:10AEA00002232189A888CDF80CD002AA0293FFF7CB
:10AEB000D7FF002841D1A369002B3ED00398FFF7AC
:10AEC00053FE002839D0019B0BB101221A701822C1
:10AED000002104A802F014F802238DF81030AB888A
:10AEE000ADF81830019B05940793A36923E081888E
:10AEF000606902AAFFF711FE1822002104A801F0E0
:10AF0000FFFFAB882189ADF81830EB88029A0594D1
:10AF10009942079218D12E8A022E15D16AB105F1F5
:10AF20001200FFF721FE029B48B101221A708DF832
:10AF30001060A3690BB104A898470AB070BD1870DF
:10AF400003238DF81030F4E7A2899A42F5D1A36962
:10AF5000002BF2D000228DF8102005F11202089289
:10AF60002A8AADF82420E6E78188606902AAFFF703
:10AF7000D4FD01460028E0D1029B1B78002BDCD0D9
:10AF8000A369002BD9D0182204A801F0B9FF01232E
:10AF90008DF81030AB88ADF818300594029BA3E70C
:10AFA000F0B50F4687B016461C46054618B34069F3
:10AFB00001AA1946FFF7B1FDD8B94FF6FF739C42BD
:10AFC0001BD0019BCBB11B78CBB13388F42B18D8A5
:10AFD0000146102202A801F093FFAB88ADF80830BB
:10AFE00002A901232046CDE904678DF80A30FFF756
:10AFF00039FF07B0F0BD0E20FBE70520F9E7082078
:10B00000F7E70720F5E70000014B1878704700BF0D
:10B01000C077012007B508496846FDF7D2FE019BBD
:10B0200013B903B05DF804FBD3E9002090476846EC
:10B03000FDF7D1FEF3E700BF2CE00200FFF7EABF07
:10B0400061DF704730B5114DADF5017D4FF4FA74F5
:10B050000DF1020103A8ADF80240FFF7F1FF70B94E
:10B06000294601A8FDF7ADFE029B002BF0D003A8F6
:10B07000D3E90021904701A8FDF7ADFEF4E70528CC
:10B0800001D0FCF703FE0DF5017D30BD44E0020068
:10B09000024B1B780BB1FFF7D5BF7047C17701207A
:10B0A0004BDF70471FB50D4C01A8FFF7F9FF70B9D2
:10B0B000214602A8FDF785FE039B002BF4D00198E2
:10B0C000D3E90021904702A8FDF785FEF4E70528A3
:10B0D00001D0FCF7DBFD04B010BD00BF5CE0020056
:10B0E00010B55FEA910E30D000EB8E0E002402689E
:10B0F000844602F0803304304FEAF3137045C4FAFB
:10B1000013F322EA0303CCF80030F0D111F003016D
:10B110001AD09EF900300139002BB8BF002389B244
:10B12000B8BF8EF8003079B19EF90130002BBCBF5A
:10B1300000238EF80130012906D09EF90230002B41
:10B14000BCBF00238EF8023010BD8646DEE700BF8C
:10B150002DE9F04F2DED048B99B09346BDF8984042
:10B16000129308EE904A02F0030304F00102BDF8C6
:10B17000A4400794BDF8AC401394BDF8B0400590CE
:10B180000F46BDF8A000BDF89C1011941343BDF804
:10B19000B8400A9109900B9440F0F083002800F029
:10B1A000E7832F9CCDF838B001FB01F20BFB02F2D4
:10B1B00004EB82020F9211FB01F212FB0BF292B22E
:10B1C000414208EE102A8AB2169214924FEA4B09B5
:10B1D000A2461A460B99002900F0C4839BB20A9933
:10B1E00007981593099B02FB0012A2EB030BBDF914
:10B1F000503010930022169B0C931346109959451A
:10B2000080F29983079C0A98BDF9306092B20D9242
:10B21000099A03FB04039C1A0D460A46A64220DA4B
:10B2200002FB07F3002D0693B046C0F28B829742D3
:10B2300040F37B82B4460895B8F1000F50464A4669
:10B240004FF0000102DB674500F3AE8201F058FECB
:10B2500008F101080FFA88F84445CA44C446EBDCFB
:10B26000089D01352DB25D452A46D7DB0F9B53451E
:10B2700000F03D830C9B07990D9A0B4401320B990A
:10B2800012B29BB28A420C931346B7DB149A079909
:10B29000159B0A44013309991BB292B28B42149256
:10B2A0001A4697DBDDF838B00D460B99491B9142E1
:10B2B000109140F33A810A9810FB00F111FB0BF159
:10B2C00089B209EE101A079913FB01F1491B0BFB18
:10B2D00000F489B2149104FB00F12F9800EB810176
:10B2E0000D9108EE104A610017914FEA4B0919467B
:10B2F000D846099B002B00F02983079B02FB03F330
:10B300008AB20999159316925A1A0A9BD3184A427F
:10B31000069393B20E934FF0000BBDF950300C938F
:10B320005C46069A0C9B9A4240F3DD820A9A079982
:10B3300004FB01241FFA8BF20F92099AA51ABDF99A
:10B34000382008921E469B46089B9D4223DD0BFB3E
:10B3500007FB1C469C4607E0013424B201F0D0FDF7
:10B36000AC42CA44A44616DA002C4A464FF000010B
:10B370005046F1DB6745EFDD059B0BEB0C0001341C
:10B38000514624B2424608FB003001F08DF8AC4231
:10B39000CA44A446E8DB069B013636B29E42B34659
:10B3A000D2DB0D9B534500F077820F9B0E9A03F181
:10B3B000010B079B1A4493B20E93099B0FFA8BFB68
:10B3C0009B455C46ADDB109B9B453FDA159B099A7C
:10B3D000CDF820B09D1A0A9BDDF85CB0CDF838900E
:10B3E0001D440C9B9D4222DD079ADDF8249004FB4E
:10B3F00002F618461C4618EE102A4346B846574631
:10B400009A46059B069208FB0060A0EB09000134F8
:10B410000AFB0030394624B201F046F8AC42069AE5
:10B420005F442046EDDB5346BA46474698460D9B9F
:10B43000534500F01582089B109A01331BB29342CA
:10B4400008931C46CDDBDDF838909B460B9B5B4593
:10B450005CDD099B159A0A99D21A0A440692079A4A
:10B460001BFB02F2D21A93B20E93069A0C9B9A42DD
:10B4700040F3F2810A9A07990BFB01251FFA8BF220
:10B480000F92099AAD1ABDF9382008921E469B46C4
:10B49000089BAB4223DA0BFB07FB1C469C4607E0EC
:10B4A000013424B201F02CFDAC42CA44A44616DAA1
:10B4B000002C4A464FF000015046F1DB6745EFDDB6
:10B4C000059B0BEB0C000134514624B2424608FBAD
:10B4D000003000F0E9FFAC42CA44A446E8DB069B1A
:10B4E000013636B29E42B346D2DB0D9B534500F087
:10B4F0008D810F9B0E9A03F1010B079B1A4493B2A7
:10B500000E930B9B0FFA8BFB9B45AEDB149A079BAC
:10B5100016991A4493B201311493109B09B29942BF
:10B520000A46FFF6E6AE0B46C3460B99914240F33E
:10B5300084800A982F9CCDF838B000FB00F10BFBFB
:10B5400001F104EB81010F9110FB00F111FB0BF1F4
:10B5500089B208EE101A0799099813FB01F1091A2C
:10B5600089B21491414289B216914FEA4B099BB2BC
:10B570000A9907981593099B02FB0012A2EB030B93
:10B58000BDF9503010930022169B0C93134610996E
:10B590008B4540F33881079C0A98BDF9306092B220
:10B5A0000D92099A03FB04039C1A0D460A46B44205
:10B5B00020DD02FB07F3002D0693B046C0F2DC80CD
:10B5C000974240F3CC80B4460895B8F1000F50463E
:10B5D0004A464FF0000102DB674500F3DA8001F0D4
:10B5E0008FFC08F101080FFA88F84445CA44C446A4
:10B5F000EBDC089D01352DB2AB452A46D7DC0F9B0D
:10B60000534500F0DC800C9B07990D9A0B440132E6
:10B610000B9912B29BB28A420C931346B7DB149A71
:10B620000799159B0A4401330B991BB292B28B42C6
:10B6300014921A469BDBDDF838B02F9B53456ED031
:10B6400018EE903A002B6AD02A9A129F551E2D9A16
:10B6500013449E460A9B119A03FB0BF603FB06F666
:10B6600013FB03F313FB0BF3C6F38F0603F0030383
:10B6700006F1FF3B4FF0010808FA02F81FFA8BFBB6
:10B680002F9A03F1FF390BF1010B1FFA89F94FEAE9
:10B690008B0A4FEA580802EBCB0BCDF8149015F942
:10B6A000012F13998A404244002E00F05E812F98AA
:10B6B00007EB0A0957F8041BD0F800C04FEA312401
:10B6C0002FFA81F12FFA84F421FB0C224168083013
:10B6D00024FB01224F45EDD15946002B00F0348167
:10B6E00099F900000C8814FB0022059858B199F9CB
:10B6F00001004C88022B14FB002204D0888899F9A1
:10B70000021010FB012209EB030711990A4102F311
:10B7100007022D9901F8012B71452D91BFD1002011
:10B7200019B0BDEC048BBDE8F08F08F1010850465C
:10B730004A4600210FFA88F801F0E2FB4445CA446A
:10B74000F3DC8EE508F1010850464A4600210FFA65
:10B7500088F801F0D5FBA045CA44F3DB81E508F188
:10B76000010850464A4600210FFA88F801F0C8FB4C
:10B770004445CA44F3DC3DE708F1010850464A4617
:10B7800000210FFA88F801F0BBFB4445CA44F3DC02
:10B7900030E7069B0E9A03EB0C00059B514602FB1B
:10B7A000003000F081FE1CE7069B0E9A03EB0C00B4
:10B7B000059B514602FB003000F076FE48E52D9BCC
:10B7C00003932A9B0293119B0193139B2F99009340
:10B7D00018EE902A18EE103A129800F0F9FB0C9B24
:10B7E00007990D9ADDF8BCA02D900B4401320B99FE
:10B7F00012B29BB28A420C931346BFF610AF109957
:10B800008B453FF7C8AE93B20D93F8E62D9B03939B
:10B810002A9B0293119B0193139B009318EE902A8D
:10B8200019EE103A2F99129800F0D2FB0F9B079A4D
:10B83000DDF8BCA02D9003F1010B0E9B13449BB2CD
:10B840000E930B9B0FFA8BFB9B45BFF65FAE069AE0
:10B850000C9B9A423FF70EAE1FFA8BF30F9344E610
:10B860002D9B03932A9B0293119B0193139B00939F
:10B8700018EE902A19EE103A2F99129800F0A8FBB2
:10B88000089B109A2D9001331BB2934208931C46DB
:10B8900054DADDF8BCA0A4E52D9B03932A9B029308
:10B8A000119B0193139B009318EE902A19EE103A06
:10B8B0002F99129800F08CFB0F9B079ADDF8BCA023
:10B8C0002D9003F1010B0E9B13449BB20E93099B29
:10B8D0000FFA8BFB9B455C46BFF675AD069A0C9B39
:10B8E0009A423FF723AD1FFA8BF30F9359E52D9B37
:10B8F00003932A9B0293119B0193139B2F9900930F
:10B9000018EE902A18EE103A129800F061FB0C9B8A
:10B9100007990D9ADDF8BCA02D900B4401320B99CC
:10B9200012B29BB28A420C931346BFF6AFAC109989
:10B930005945FFF667AC93B20D9397E4DDF8389064
:10B94000DDF8BCA09B4681E54F46DEE69B468BB208
:10B950001693079B02FB03F31593BDF950300C932C
:10B960005C4633E59BB2159390E42F99B946B4E653
:10B97000DDF8BCA003460246054696E46FF00200DF
:10B98000CEE600BF2DE9F04F2DED028B97B0032AD4
:10B990001093BDF88C300993BDF890300A93BDF830
:10B9A00094300793BDF89C301293BDF8A030BDF8D9
:10B9B00088400E93BDF8A830119408900B9340F086
:10B9C0006581002B00F01981099B2B9803FB03F282
:10B9D00013FB03F303EB43039BB208EE103A0A9BFD
:10B9E00015925B4202EB420200EB82028B4699B257
:10B9F00000230C9214910F9182461A461F469BB267
:10BA00000999079813930A9B02FB0012D41ABDF9F7
:10BA10003C300D930025149B06932B460D9AA242B1
:10BA200080F22D8109990798BDF918C003FB001316
:10BA30000A99ADB2591A104613468C4544DA0028CB
:10BA400003FB0BF835DB9B4540F3E5800AF106026A
:10BA50006346E646059023E008EB0E09F34509EB43
:10BA6000490921DD089850F809E02FFA8EF94FEACC
:10BA7000194A4FEA0A4A4FEA3E2E2FFA8EFE1FFA63
:10BA80008EFE4AEA0E0E22F8069C9246C6F802E0A6
:10BA900001331BB28B429E4602F1060280F2B38054
:10BAA000002BA2F10606D7DA3760924622F8027C14
:10BAB000EEE7634601331BB28B42CAF80070AAF866
:10BAC00004700AF1060AF5DB013000B2A042034619
:10BAD000B3DB0C9B534500F0B080DDE90632013545
:10BAE00013440B9A2DB29BB2954206932B4695DBDD
:10BAF0000F9A0799139B0A4401330B991BB292B218
:10BB00008B420F921A46FFF67AAF2B9B534574D0A7
:10BB1000119B002B71D0159ADFF878C1109C02EBB5
:10BB2000420818EE102A02F00307269A02F1FF3E9F
:10BB3000299AC8F38F081344994608F1FF330E9AE7
:10BB40009BB201334FF0010A0AFA02FA9A000592F9
:10BB50002B9A02EBC303CDE9063807F1FF3B4FEA0E
:10BB60005A0A1FFA8BFB129B1EF9012F9A40079B62
:10BB70005244002B00F08780059B2B9804EB0308B0
:10BB800054F8043B2FFA83F18DB206684FEA332351
:10BB90002FFA83F345EA034525FB062203EA0C034B
:10BBA00043EA1143083050F8041C23FB01224445AA
:10BBB000E6D1069B002F64D098F90010188810FB7E
:10BBC0000122BBF1000F0BD098F901105888022F09
:10BBD00010FB012204D0998898F9023011FB03224E
:10BBE00008EB07040E9B42FA03F303F30703299AB9
:10BBF00002F8013B4A452992B5D1002017B0BDECAF
:10BC0000028BBDE8F08F0598013000B2A0420346D8
:10BC1000FFF613AF5DE7634601331BB28B42CAF8F0
:10BC20000070AAF804700AF1060AF5DB013000B2D0
:10BC3000A0420346FFF601AF4BE7299B0393269BE7
:10BC400002930E9B0193129B119A00932B991098CB
:10BC500018EE103A00F020F8DDE906320135134401
:10BC60000B9ADDF8ACA029902DB29BB295420693B9
:10BC70002B46BFF63DAF0D9AA242FFF6D3AEADB252
:10BC800027E74446AEE72B9BA04693E76FF0020000
:10BC9000B4E700BF0000FFFF2DE9F04F97B0560852
:10BCA000239DBDF880400B941544BDF88440149248
:10BCB0008346099105930A941395159600F0038124
:10BCC0000122A2401846520800F003040C9201EB36
:10BCD0004000721E0E462299049492B2043101EB88
:10BCE00042020E92621E92B21292229A0F90023279
:10BCF0009B080392239A0D93013B02329BB20133BE
:10BD00000692AA1C07929A00089200EBC30206EB67
:10BD1000C30311921093039B0B9813F9021C13F9A0
:10BD2000012C059B0C9C814082400D985B44214472
:10BD300022440293002800F03E810898DDF83C8000
:10BD4000DDF824E0584401900E4610469A465BF810
:10BD5000045B2FFA85F44FEA35252FFA85F52F0C71
:10BD60005AF8043B2FFA83F93F0447EA1447A4B278
:10BD70004FEA332344EA05442FFA83FC4FEA1C457B
:10BD80001FFA89F32D0445EA194543EA0C43DEF80E
:10BD90000090D8F800C024FB091124FB0C6623FB9B
:10BDA000092223FB0C00DEF80430D8F804400EF121
:10BDB000080E08F1080827FB031127FB046625FB82
:10BDC000032225FB0400019B5B45C0D1029B089C1C
:10BDD00023440293DDE91043049D002D3ED0019FD2
:10BDE000029D97F900C095F90050B4F9007017FB57
:10BDF0000C1117FB0522B3F9007017FB0C6617FB3B
:10BE00000500129F37B3019F029D97F901C095F974
:10BE10000150B4F9027017FB052217FB0C11B3F99E
:10BE2000027017FB0500049D022D17FB0C6611D054
:10BE3000029DB4F9044095F90250B3F90430019F12
:10BE400014FB052213FB050097F9025014FB0511A2
:10BE500013FB0566019B049C234401930A9B194133
:10BE600001F30701069C1A4104F8021C02F30702C1
:10BE7000214604F8012C1E4106F30706079A1841D3
:10BE800002F8026C00F30700134602F8010C0233BB
:10BE9000039A0198059C07930E9B023220440231BD
:10BEA0009A420392834606917FF435AF159B229AFE
:10BEB00002EB43022292239A02EB43022392139A4B
:10BEC00002EB43031393149BDB076ED5229B0A9965
:10BED00093F900200B9B099C9A4001238B4002EBB5
:10BEE0005302059B5FEA930804EB430C6AD0374F7B
:10BEF0000BEB8806654611465BF8043B2FFA83F08E
:10BF00001FFA80FE4FEA33232FFA83F34EEA034EE3
:10BF10003B4043EA104320682EFB002228682EFB9A
:10BF20000011D4F804E068680834083523FB0E22B9
:10BF300023FB0011B345DFD1099B03EBC8030CEBD6
:10BF4000C80C0993059B13F0030320D0099D96F9B3
:10BF500000002C88013B14FB0022BCF800409BB27F
:10BF600014FB00119BB196F901006C8814FB0022B0
:10BF7000BCF80240012B14FB001108D096F90230E6
:10BF8000A88810FB0322BCF8040010FB03110A98D8
:10BF900042FA00F303F307030141239800F8013B41
:10BFA00001F30701139B239019701498239B1844E5
:10BFB00017B0BDE8F08F0F9B099CCDF804B0104678
:10BFC0000E4609E75E461146BCE700BF0000FFFFD2
:10BFD0002DE9F04F95B083462198BDF87840BDF823
:10BFE0007C50129208940D91049309951044002AF4
:10BFF00000F0E880561E0122AA4052080A9226F05C
:10C0000001021C46024404F0030504320C926A1E2D
:10C0100092B29B081192219A0B93013B02329BB280
:10C02000013302300692209A0590029201EB4400FF
:10C030009A00079201EBC30200EBC303139603952A
:10C040000E9010920F93029B089A93F9004093F977
:10C050000100049B0A99944090400B9A5B440C4465
:10C0600008440193002A00F0B080079ADDE90D89A9
:10C070005A440092054627469A465BF8042B5AF824
:10C08000043BD8F800E0D9F800C04FEA32264FEA66
:10C0900033212FFA82F22FFA86F62FFA83F32FFA42
:10C0A00081F122FB0E4422FB0C7723FB0E0023FBC5
:10C0B0000C55D8F80430D9F8042008F1080809F123
:10C0C000080926FB034426FB027721FB030021FB22
:10C0D0000255009B9B45D0D1019B079A13440193C5
:10C0E000DDE90F32039900293ED0009E019996F9AF
:10C0F00000C091F90010B2F9006016FB0C4416FB69
:10C100000100B3F9006016FB0C7716FB0155119E78
:10C1100036B3009E019996F901C091F90110B2F968
:10C12000026016FB010016FB0C44B3F9026016FB1B
:10C1300001550399022916FB0C7711D00199B2F928
:10C14000042091F90210B3F90430009E12FB0100A3
:10C1500013FB015596F9021012FB014413FB017702
:10C16000009B039A13440093099B1C4104F30704AA
:10C17000069A184102F8024C00F3070002F8010C7D
:10C180001F4107F3070705991D4101F8027C05F3DC
:10C19000070502320692029A049801F8015C023205
:10C1A0008B1C029200990C9A059301449A428B468B
:10C1B0007FF449AF139B129A23F001030233134417
:10C1C000219AD01815B0BDE8F08FDDE90D23CDF828
:10C1D00000B00546274685E72DE9F04F8DB09D0854
:10C1E00009930C46BDF858301A99BDF85C900B9233
:10C1F00016460A95029300F057F9002D00F0E280F0
:10C2000006F0030218990192013A90B26A1E92B2A6
:10C21000083101EB82020492421C9200B30808929A
:10C22000189A0393013B9BB2161D199A079001338C
:10C23000171D1A0105921A9A4FF0010808FA09F819
:10C2400002EBC3034FEA58080693029D16F9041C3B
:10C2500016F9030C16F9022C16F9013CA940A84066
:10C26000AA40AB40039D4144404442444344002D16
:10C2700000F01181059DDDF868C004EB050ED4F8CF
:10C2800000B0DCF800504FEA3B2A2FFA8BFB2FFA64
:10C290008AFA2BFB05112AFB0500D4F804A02FFA1B
:10C2A0008AFB4FEA3A2A2FFA8AFA2BFB05222AFB4D
:10C2B0000533D4F808B0DCF804504FEA3B2A0CF1FF
:10C2C000080C2FFA8BFB2FFA8AFA2BFB05112AFB9D
:10C2D0000500D4F80CB010344FEA3B2A2FFA8BFB40
:10C2E0002FFA8AFA2BFB05222AFB05337445C6D1A7
:10C2F000069D019C002C00F0CC80B5F900409EF911
:10C3000000C014FB0C119EF901C014FB0C009EF937
:10C3100002C014FB0C229EF903C014FB0C33079CD3
:10C3200034B3B5F902409EF904C014FB0C119EF918
:10C3300005C014FB0C009EF906C014FB0C229EF9EC
:10C3400007C014FB0C33019C022C11D0B5F904403A
:10C350009EF9085014FB05119EF9095014FB0500C5
:10C360009EF90A5014FB05229EF90B5014FB05336D
:10C37000089C744441FA09F101F3070107F8041C11
:10C3800040FA09F000F3070007F8030C42FA09F23B
:10C3900002F3070207F8022C43FA09F303F3070339
:10C3A00007F8013C049B0436B34207F104077FF40D
:10C3B0004CAF189A0A9B02EB83021892199A02EB6F
:10C3C00083031993099B13F003075ED0199B1F4445
:10C3D0000B9B03F0030C4FEA93080CF1FF3308F1B9
:10C3E000FF3B9BB21FFA8BFB04931A9BCDF8048092
:10C3F0000BF1010B4FEA8B0A03EBCB0B4FF0010E55
:10C40000D046CDF80CB0BB466746DDE918CA0EFA37
:10C4100009FE4FEA5E0E029A1CF9013B9340019A15
:10C420007344002A3CD01A9804EB080654F8042BF5
:10C4300005684FEA32212FFA82F22FFA81F125FBAB
:10C4400002334268083022FB0133B442EED1039A32
:10C4500027B396F90010108810FB0133049959B1E5
:10C4600096F901105088022F10FB013304D09188F7
:10C4700096F9022011FB0233F41943FA09F303F38E
:10C4800007030AF8013BDA45C5D100200DB0BDE82D
:10C49000F08F74466EE71A9DA6462AE73446ECE70D
:10C4A0001A9A2646D4E700BF30B5950824D001F18A
:10C4B000080C00EB850E50F8043B0CF1080C70459D
:10C4C0004FEA33242FFA83F32FFA84F44CE904342F
:10C4D000F1D101EBC50112F003020CD09EF900303E
:10C4E0000B80013A07D09EF901304B80012A1CBF16
:10C4F0009EF902308B8030BD8646ECE72DE9F04393
:10C50000970854D04FEA8708064601EB870751F891
:10C5100004EB33684FFA8EF55CB2AC42B8BF2C46E0
:10C520004EF3072943F307259C464D45B8BF4D46BA
:10C5300064F307034EF307494CF307444C454FEAB5
:10C540002C6CB8BF4C4665F30F23BCEB2E6F64F325
:10C5500017434FEA2E6425DA64F31F63B94246F8A5
:10C56000043BD4D1404412F0030219D097F90030B3
:10C5700090F90010013A994292B2B8BF03707AB1B3
:10C5800097F9013090F901109942B8BF4370012A20
:10C5900006D097F9023090F902209A42B8BF837012
:10C5A000BDE8F083B94246F8043BB0D1DAE70F4664
:10C5B000D9E700BF2DE9F04F2DED028B87B0824601
:10C5C0000293BDF84C300393BDF85030BDF848805D
:10C5D000009393460191002900F09C80002B00F00D
:10C5E0009280002305931F46019B03FB07F73B4402
:10C5F0000BFB03A3002604933346039A019CFD180A
:10C6000002FB03F3B3EB0800029A5CBFF918A1EB3D
:10C6100008010BFB05A5104454BF0BFB01A12946E3
:10C62000A04275DAFC18A4EB080414440BFB04A424
:10C6300001EB0B095A46284600F0EBFB4C4507D9A5
:10C6400049465A46D9442846FFF758FF4C45F7D883
:10C65000009A013636B296423346CEDB059B019AEC
:10C6600001331BB2934205931F46BDDB019BCDF8FE
:10C67000108003FB03F20BFB02A20592009ACDF897
:10C6800004A012FB0BF700210BFB02F208EE102AAC
:10C69000BFB203FB0BF60A4699468846009B02FB95
:10C6A00003F5039B03FB02F2169B0BFB0535049B72
:10C6B000D21A57BF019B019909FB02F10BFB013113
:10C6C000029B1A444A45B7BF019B059C09FB02F235
:10C6D0000BFB023401EB060A18EE102A284600F084
:10C6E00098FB544507D951463A46B2442846FFF7CD
:10C6F00005FF5445F7D8009B08F101080FFA88F8A8
:10C7000043454246CADC07B0BDEC028BBDE8F08F62
:10C71000049C8DE7002BA9D1F5E700BF2DE9F04F70
:10C7200093B01646BDF870400A93BDF874300B9371
:10C73000BDF87830DDF87C800993CDE905040891D7
:10C74000002900F080819208019206F00305002B79
:10C7500000F07481531E9BB20133990008EBC303B0
:10C7600000220293A74F0F9208EB46030D930C9102
:10C770001346089ADDF87C9003FB02F30793D31865
:10C78000059A06FB03230E930023049307990B9845
:10C79000069CCA1800FB03F3059806FB02020392ED
:10C7A0001A1B5EBFC918091B06FB01040A990898E9
:10C7B00048BF039C0A44824280F22081079A02EB20
:10C7C0000308069BA8EB0308059B884406FB083872
:10C7D00049463246204600F053FAA11988454CD903
:10C7E0000C9BCA18019B4FF0020E002B42D048460A
:10C7F0008C4692465CF8043B2FFA83FB1FFA8BF4BD
:10C800004FEA332394452FFA83F344EA034403EABF
:10C81000070343EA1B4300F1080050F808BC94FAF0
:10C820001BF450F804BC40F8084C93FA1BF340F892
:10C83000043CDFD1029B95B19AF900001C88012DC0
:10C84000204418800BD09AF901005C88022D204406
:10C85000588004D09AF902009C8820449880314482
:10C860000EF10103884532449BB208D99E46019BD4
:10C87000002BBCD14B468A46DDE74FF0010E5EB17E
:10C88000039B0D98591E4A4632F9023B93FBFEF377
:10C89000904201F8013FF7D1049B099901331BB283
:10C8A0008B420493FFF672AF0F9B089901331BB2C2
:10C8B0008B420F93FFF65DAFDDF87C800846099A46
:10C8C000059C049612FB06FACAF38D030193013B03
:10C8D00002FB06F19BB200FB00F206FB02420133B1
:10C8E00000FB06FB0D9198000E9208EBC3038AB281
:10C8F000A8F1020100250AF0030A0293414C0792B5
:10C9000001EB42031093119103950F902B4656466D
:10C910000B99099A02FB03F201FB03F3049901FB53
:10C9200002F20C92069A9B1A00F18B80089A02FB85
:10C9300003F5059A01FB05250A9A1344089A9342C8
:10C94000BBBF5343DDE904120E9F01FB03272846BA
:10C950000D9A414600F094F905EB0B0C674553D94D
:10C960000F9B0CEB0301019B4FF0020E002B42D0FA
:10C9700042466546894655F8043B2FFA83FA1FFA6A
:10C980008AF04FEA33238D422FFA83F340EA0340C3
:10C9900003EA040343EA1A4302F1080252F808AC1E
:10C9A00090FA1AF052F804AC42F8080C93FA1AF311
:10C9B00042F8043CDFD1029B96B199F90020188817
:10C9C000012E02441A800BD099F901205888022EBA
:10C9D00002445A8004D099F90220988802449A802F
:10C9E000DC440EF10103674559449BB20ED99E46C3
:10C9F000019B002BBCD14346E146DDE7DDF83880E2
:10CA0000E6E600BF0000FFFF4FF0010E079B6BB191
:10CA10000C9BDDE91002591E209B194432F9023F9C
:10CA200093FBFEF3824201F8013FF7D1039B099982
:10CA300001331BB28B420393FFF66AAF13B0BDE81C
:10CA4000F08F059D78E7002BF8D0084637E700BF48
:10CA50002DE9F04F83B0002900F008816FF07F04CA
:10CA60000023C5560133AC421BB2B8BF2C468B42E3
:10CA7000F7DBA3B2A3F1080A5FFA8AF701934FEA42
:10CA80000A4347EA0A6703F47F031F434FEA0A2376
:10CA900003F47F431F430FFA8AFA5FEA910900F01B
:10CAA000E080764E00EB890805464FF0000C01242B
:10CAB00055F8043BC3FA07F32FFA83FB1FFA8BFEEA
:10CAC0004FEA33232FFA83F34EEA034EAEF3030EFD
:10CAD000334043EA1B435FFA8EFB04FA0BFBCEF3B1
