:020000022000DC
:1070000000000420757302005D7302005F730200CC
:1070100061730200637302006573020000000000E8
:107020000000000000000000000000006773020084
:1070300069730200000000006B7302006D730200B0
:10704000919802006F7302002D9D02006F73020081
:107050006F7302006F730200AD9B0200F5A7020080
:107060006F7302006F7302006F7302006F73020090
:107070006F7302006F7302006F7302006F73020080
:107080006F730200798902006F7302006F73020050
:107090006F7302006F73020041BE02006F73020043
:1070A0006F7302006F73020089A702006F73020002
:1070B0006F7302006F730200000000000000000008
:1070C0006F7302006F7302006F7302006F73020030
:1070D0006F7302006F7302006F7302006F73020020
:1070E0006F7302006F7302006F73020000000000F4
:1070F000000000006F730200000000006F730200C8
:10710000000000000000000000000000000000007F
:10711000000000000000000000000000000000006F
:10712000000000000000000000000000000000005F
:10713000000000000000000000000000000000004F
:10714000000000000000000000000000000000003F
:10715000000000000000000000000000000000002F
:10716000000000000000000000000000000000001F
:10717000000000000000000000000000000000000F
:1071800000000000000000000000000000000000FF
:1071900000000000000000000000000000000000EF
:1071A00000000000000000000000000000000000DF
:1071B00000000000000000000000000000000000CF
:1071C00000000000000000000000000000000000BF
:1071D00000000000000000000000000000000000AF
:1071E000000000000000000000000000000000009F
:1071F000000000000000000000000000000000008F
:10720000354936480A1A02D0072291438D4634493F
:1072100034480A1A06D00722914381F309880222D2
:1072200082F3148830483149314A00F044F831483B
:107230003149324A00F03FF831483249324A00F0D1
:107240003AF832483249334A00F035F83248334987
:10725000334A00F030F833483349344A00F02BF811
:1072600033483449344A00F026F83448344900227F
:1072700000F02CF833483449002200F027F8334856
:107280003349091A082902DB002202604160314AB1
:1072900090471F481F49884205D00268043003B454
:1072A000904703BCF7E700208646EC46002000210B
:1072B000294A9047FEE7884207D0521A05D0037842
:1072C00001300B700131013AF9D17047884202D088
:1072D00002700130FAE770470000042000E003204C
:1072E00000000420000004203CDF0200E82A002007
:1072F0000C3D0320D0730200D0730200BCD1020009
:107300003CDF0200E82A0020E82A0020F8D2020030
:10731000F8D20200F8D20200F8D20200F8D202003D
:10732000F8D20200F8D20200F8D202003BDF0200DD
:1073300060F105000C3D03200C3D03200C3D0320B3
:107340002C6503202C6503202C6503202C6503206D
:107350002C8503209D73020059C10200FEE7FEE761
:10736000FEE7FEE7FEE7FEE7FEE7FEE7FEE7FEE7F5
:1073700000F002B8FFF7FCBF0F484FF00701884349
:1073800085460E4880470E48016841F4700101604F
:10739000BFF34F8FBFF36F8FFFF732BF09480A4922
:1073A0000A4A884207D0521A05D0037801300B7080
:1073B0000131013AF9D17047000004209192020096
:1073C00088ED00E0F8D20200E82A0020E82A002038
:1073D0007047000007B5044B0093044A402300F0B7
:1073E00032F803B05DF804FBF17302000D3D032099
:1073F0002DE9F84388461446B2B10F4B0F4E0325D2
:10740000002743F00109224608EB0701002003F0A2
:1074100041FF0744241A48B933782BB14FF47A401E
:10742000C847013D02D13570BDE8F88301233370B0
:10743000002CE8D1F8E700BF00D302000C3D032088
:10744000704703F05BBFF0B595B01D461646084681
:107450000C4601F043FE1A9B0D93CDE9086500250B
:107460002B46082205A920460A958DF82C500C952C
:1074700001F051FE079B0293069B03939DF8143085
:107480008DF8115003F00302012A1DD1BDF814201C
:10749000059DC3F3C203C2F383168DF81030B2000A
:1074A00008230EA9204601F036FEC5F3952508AB4A
:1074B0000093324602AB0EA9284600F02BFB204673
:1074C00001F010FE15B0F0BD022AF8D1BDF816503B
:1074D000C3F3C203C5F389158DF810300827082DB2
:1074E0002E4628BF08263B4632460EA9204601F00C
:1074F00012FEAD1B08AB02AA31460EA8374400F0BD
:107500006DFB002DEBD1DAE708B5FFF79AFF0448D1
:10751000042100F069FA034B01225A7108BD00BF33
:10752000E8D20200E82A0020037813F0040216D003
:1075300003F00303012B03D0022B09D00120704775
:107540000A6800880232C0F3831002440A60F5E73B
:107550000B684288023303EB92130B60EEE7104690
:10756000704700002DE9F04F87B000230446861CC9
:107570000DF107000F4615468DF8073001F08EF823
:10758000404A51683960936803F580735B1A9246EC
:1075900002F21C4702F5836902F21448B3421AD37F
:1075A0000020002D69D004F00F039B0143F0050378
:1075B00063F30F00DAF80430DAB203321E444AF8FB
:1075C00022009DF80700CAF8046001F08BF8012042
:1075D00007B0BDE8F08F0121384601F0AAFA48460D
:1075E00001F0BFFA404601F0BCFADAF80800029058
:1075F000C0B203300AEB800002A9FFF795FF029B9F
:1076000030BBDAB20AEB8202D16803919A1C0133D3
:10761000DBB20AEB83030292D3F80CB001F0030350
:10762000012B22D0022B15D08346404601F09CFA54
:1076300010B1029BCAF808305946384601F079FA71
:10764000DAF80830DAF8042003F580739B1AA5E70E
:10765000D8B2CEE7BDF80E30C3F3891303334FEA37
:107660001B4B02EB93030293DFE7BDF80C30C3F32F
:1076700083134FEA1B4B1344F5E7A40544F00600BF
:1076800098E700BF203E0320064B074810B50022B4
:107690001A7001F0DCFC044610B9044801F05CFDEE
:1076A000204610BD203E03203CD202003CD3020005
:1076B00030B50A4C71B10A4A0A49121BD20800239C
:1076C0009A4201D1002030BD31F82350854202D0CA
:1076D0000133F5E7034654F83300F4E750D20200D3
:1076E000E8D20200E82A0020094B013903EBC00070
:1076F000032909D8DFE801F00A02040604207047D4
:107700000079704740797047002070470220704729
:1077100050D2020070470000034BD3E90130C31A76
:1077200058425841704700BF203E03202DE9F041E8
:1077300086B0FFF7F1FF0546002840F0E680744C64
:10774000C4F81804BFF34F8FA3680293DBB203336E
:1077500004EB830002A9FFF7E7FE029B18B1D4F8FF
:107760001824002A55D0DAB2991C013304EB8202A6
:10777000DBB204EB8303D268DB68049302F00303FB
:10778000022B039202914FD1BDF80E306148C3F332
:107790008917502F3E4628BF502666F38F1306F1F7
:1077A0000801ADF80E3001F06AFC0546002800F033
:1077B000978001F093FC002303A90822284601F0DA
:1077C000A0FC0299CB43DBB20133C9B20331B6EB63
:1077D000830F4FEA830804EB810122D90823424634
:1077E000A6EB0806284601F08CFCF6B24A4908F1DF
:1077F00008033246284601F084FC029B033703EB62
:1078000097070297D4F81834002B41D1D4F81064AC
:1078100051E062689A4299D8A260284606B0BDE855
:10782000F08108233246E5E7012B59D1BDF80C3031
:107830003848C3F38311062928BF062161F3891351
:1078400002318900ADF80C3001F019FC0546002822
:1078500046D001F043FC0023082203A9284601F08A
:1078600050FC0026BDF80C20C2F38312B3009642F0
:1078700003F10803C6D202994A1CC9B2033102922D
:1078800004EB81010422284601F03BFC0136E9E7C4
:10789000284601F027FCFFF73FFF80F00100C5B24A
:1078A000BBE7F3685B7923B1336829461B68304630
:1078B0009847F3681E68002EF3D1284601F012FCA9
:1078C0000DF107008DF8076000F0E8FED4F81834D9
:1078D0000BB9029BA3609DF8070000F003FFDAE7F5
:1078E000D4F8104454B90D4B0D480E49C01AC008C5
:1078F000000440F0020000F05FF8CCE72368204667
:107900009B689847E3681C68ECE7002585E700BFA3
:10791000203E03203CD202002C3E032050D2020025
:1079200090D2020024D302002DE9F34704460E460C
:10793000924601A9012218469946FFF713FE1C4FF3
:1079400010B3019D4FF00008AA1CC84508EB0201C6
:1079500025D11848002101F0BDF880F31000000483
:1079600040EA1440E4006B1C04F03804DBB2EDB2D2
:1079700044F0010407EB8303033544EA881444EA26
:107980008624D86047F825403B781BB1FFF7CEFE30
:107990000028FBD1FFF7BEFE02B0BDE8F087C9B2F8
:1079A00007EB81015AF82830CB6008F10108CCE7D9
:1079B000203E03203C42032000231A46FFF7B4BFB9
:1079C00007B50123019201AAFFF7AEFF03B05DF8EE
:1079D00004FB07B5CDE9002302236A46FFF7A4FFA5
:1079E00003B05DF804FB000030B50F49D1F8102456
:1079F00003460020144634B9DC6820714AB9C1F846
:107A00001034226030BDE4682579854206D02468B0
:107A1000F1E7D268116821601360F3E701300A28AA
:107A2000E8D14FF0FF30EDE7203E0320084A38B59B
:107A30000123D2F8104413701D4604B938BDE36821
:107A40005D71236820465B689847E3681C68F4E72B
:107A5000203E032007B503460846197A052911D0B0
:107A60005B7A2BB1094A0A49019001F0E0F80198CC
:107A70000849019001F0DBF8019803B05DF804EBD0
:107A800001F0CAB8002AF8D0F2E700BF48D30200DC
:107A90004DD3020012DC020030B5C38885B0044625
:107AA0000D4633B1144A00921449154A284601F094
:107AB000BEF8217A05291DD0637A4BB1A088FFF763
:107AC00013FE104B104953F82020284601F0AFF860
:107AD000227A0E4BA08853F8222003920021FFF750
:107AE000E7FD039A0A490346284605B0BDE8304041
:107AF00001F09DB805B030BD48D3020058D3020054
:107B000050D30200D4D302004DD30200F8D30200B8
:107B100070D302002DE9F04385B01F460C9D002371
:107B200095F80C902B7306460C469046294638462D
:107B3000FFF7B2FFB8F1060F09D8DFE808F004122A
:107B4000181F283340003146284601F070F8002203
:107B500029463846FFF77EFF85F80C9005B0BDE852
:107B6000F08322683146284601F061F8EFE7D4E956
:107B700000233146284601F05AF8E8E7A36800934D
:107B80003146D4E90023284601F051F8DFE7E368E5
:107B90000193A36800933146D4E90023284601F0FD
:107BA00046F8D4E723690293E3680193A36800933E
:107BB0003146D4E90023284601F039F8C7E7636964
:107BC000039323690293E3680193A368009331460A
:107BD000D4E90023284601F02AF8B8E708292DE95E
:107BE000F74F80460E4617461C463CD8002593F8B2
:107BF0000C901D7319461046FFF74EFFDFF888A062
:107C0000DFF888B0AE4231D918F805205946204631
:107C100001F00DF80135082DF4D11949194DDFF89F
:107C200070A0204601F003F84FF0000B5E4522D90A
:107C300018F80B207E2A05D81046019204F0A8FE01
:107C4000019A00B92E225146204600F0F0FF0BF1B8
:107C5000010BBBF1080FE9D1012221463846FFF79D
:107C6000F9FE84F80C9003B0BDE8F08F5146204631
:107C700000F0DDFFCEE72946204600F0D8FFE6E71A
:107C800084D3020082D3020080D302007AD30200A0
:107C900086D30200C30710B507D4F023054A400875
:107CA000145C23401943115410BD0901C9B20F23BC
:107CB000F4E700BFE842032030B5094B1C78094BBC
:107CC000196800239C4202DC0022104630BD11F8E6
:107CD0003350854201EBC302F7D00133F2E700BF16
:107CE000D84203200843032013B504460191FFF74F
:107CF000E3FF38B143682BB10199204602B0BDE8DB
:107D00001040184702B010BD034B04481968002208
:107D1000490800F083BA00BFDC420320F02A0020AB
:107D200010B5C0B2FFF7C8FF0446007801F030FF7D
:107D300063785A1E53425341834208D1044BD3E91E
:107D40000023134303D1BDE81040FFF7DDBF10BD92
:107D5000E042032037B54308354AD35CC2074CBF25
:107D60001B0903F00F0304460D46042B35D8DFE84A
:107D700003F003252C383C0079B30121FFF78AFF7B
:107D800000230DF107008DF8073000F087FC01207B
:107D9000A4F12003C4F12001264A20FA01F100FADF
:107DA00003F30B43A040D2E9004120430B43C2E957
:107DB00000039DF8070000F095FC0EE0002918BFB5
:107DC00002212046FFF766FF07E041B10321FFF7DC
:107DD00061FF01212046FFF787FF03B030BD01217D
:107DE000EFE70029F9D10421EBE709B10321E8E726
:107DF000FFF750FF29462046FFF776FF0DF10700F9
:107E00008DF8075000F04AFC0120A4F12003C4F1D2
:107E10002001084A20FA01F100FA03F30B43A040C5
:107E2000D2E9004124EA000021EA0303BFE700BFD2
:107E3000E8420320E04203202DE9F041124E134FA7
:107E400000243378A34208DC114BD3E90023134309
:107E500018D0BDE8F041FFF757BF3D6805EBC408F7
:107E600015F8340001F094FE98F801305A1E534280
:107E70005341181A4142414115F83400FFF76AFF97
:107E80000134DEE7BDE8F081D84203200843032037
:107E9000E0420320092AF7B505460C4616463CD9B0
:107EA00001F0A6FDD8B11E4B1E481D601E4B1F4F92
:107EB0001C701F4B002120221E6004F0DEFD1D4BB4
:107EC00000200021C3E90001013CE4B20326FF2C9D
:107ED0000BD1194A1948002100F08EF903E001F096
:107EE00041FD0028DFD003B0F0BD9DF8063015F845
:107EF00034008DF8046005EBC40223F007038DF80D
:107F0000063001A993788DF805303A4601F07AFDE4
:107F1000013CE4B20028DAD0E5E70720E3E700BF40
:107F200008430320E8420320D8420320217D0200B9
:107F3000DC420320E0420320397E020018D4020014
:107F400070B5084D084E00242B789C4201D30020C8
:107F500070BD3368012113F8340001F0CFFD013406
:107F6000F2E700BFD8420320084303201FB50021D9
:107F7000039001AA44F20100CDE9011100F004F8D8
:107F800005B05DF804FB000010B572B6FFF74EFDBA
:107F9000FFF7CCFB0028FBD1104B114C1149E41A20
:107FA000E408240444F00100FFF706FD0E4B1B68B3
:107FB000DB0700D500BE0D4944F00200FFF7FCFCD2
:107FC000BFF34F8F0A490B4BCA6802F4E0621343B8
:107FD000CB60BFF34F8F00BFFDE700BF50D2020060
:107FE00090D202001CD40200F0ED00E028D4020080
:107FF00000ED00E00400FA0549B152B1531E1A40E9
:1080000007D1826001608380C260104670470E20F5
:1080100070470920704710B58468C2688388121BB6
:10802000934208D3C26813400268D154C368013335
:10803000C360002010BD0420FCE78268C3689A4238
:108040000AD08268838813400268D35C0B7083680F
:10805000013383600020704705207047D0E9022378
:10806000D1E90201994208BF90422CBF01200020B3
:108070007047000008B50B4800F067FC0A4B0B493D
:10808000D3E900231218D1E9000143F100038B4228
:1080900008BF824203D212F1807243F100031046FE
:1080A000194608BD102B00201043032088430320ED
:1080B00037B505460C460A4801A900F07AFC60B1C4
:1080C0000570446001A9064800F09DFC18B1054800
:1080D00000F040FC002003B030BD0420FBE700BFEF
:1080E00074430320102B0020284B73B51E780446E0
:1080F0001EB90026304602B070BD0028F9D0FFF747
:10810000B9FFD4E90223994208BF904238D3002333
:108110000DF107008DF8073000F0C0FA23692BB984
:108120004FF0FF324FF0FF33C4E902239DF8070000
:1081300000F0D8FAD4E90530984700250DF1070082
:108140008DF8075000F0AAFA2169B9B1D4E90223E9
:10815000581C08BFB2F1FF3F05D0521843F100038D
:10816000C4E9022335469DF8070000F0BBFA002D54
:10817000BFD00748214601F00EF8BBE70D46F2E7F5
:10818000013308BFB2F1FF3FB3D0F2E71843032039
:1081900044D4020013B5114B11491868019008230B
:1081A0001048582200F0F2FB044698B90E4A0F48D6
:1081B00001A900F0BBFA044660B90C48012100F0A7
:1081C000A7FB01230A4A0948194600F009FB094B9D
:1081D00001221A70204602B010BD00BF40D4020038
:1081E0001C43032074430320C9820200102B00208B
:1081F000FFFF7F001843032030B56AB103684FF0DA
:10820000FF344FF0FF355A614A1E5142C3E902451F
:1082100051411961002030BD0720FCE7F7B5054644
:1082200000240DF1070017460E468DF8074000F0B8
:1082300035FAD5E90223013308BFB2F1FF3F07D178
:10824000FFF718FF801941F10001C5E9020101247F
:108250009DF8070000F046FA4CB12B69AF6103B1FD
:108260002E6129460020FFF723FF03B0F0BD204612
:10827000FBE737B5054600240DF107008DF80740F0
:1082800000F00CFAD5E9022301330FBFB2F1FF3F32
:108290004FF0FF324FF0FF33C5E9022318BF01242E
:1082A0009DF8070000F01EFA2CB129460120FFF7C7
:1082B000FFFE03B030BD2046FBE70000014800F0A0
:1082C00044BB00BF102B00202DE9F74F804600F083
:1082D00027FB40B1634AD2E9003113F1807341F1C9
:1082E0000001C2E900310021404600F028FB38B10E
:1082F0005D4E336823B13068FFF7F6FE002333602C
:108300000121404600F01BFB20B1FFF7B3FE574BA5
:10831000C3E900015648DFF8509101A900F083FB42
:108320004FF0FF364FF0FF3798B9DFF848A14E4FB6
:10833000504600F046FF002800F08780D0E9022375
:10834000591C08BFB2F1FF3F34D1504600F033FF53
:10835000EEE70378012B20D0022B09D1DFF814A11E
:10836000504600F028FF002877D0C0E90267F7E701
:1083700053B94168D1E90223013308BFB2F1FF3F8D
:1083800002D03C4800F007FF01A9394800F076FB15
:1083900001A9374800F047FBC6E74168D9F800302B
:1083A000994203D10023C9F80030EDE7314800F0CD
:1083B0000BFFE9E7396891B13968D1E902018B42D5
:1083C00008BF82422FD23B68D3E90223013308BFA2
:1083D000B2F1FF3F03D03968504600F0DCFE504652
:1083E00000F0E9FED0E9026B8146FFF743FE341A44
:1083F0006BEB0105012C75F1000319DBB4F5350FAA
:1084000014D3FFF75BFF1C4A02441C484FF4960349
:10841000002100F005FA98B93B6813B9404600F016
:10842000D7F9C7F8009003B0BDE8F08F3246ECE70B
:108430001248002100F079FA4846FFF755FE01E0A6
:108440000D28F9D000233B6072E7074B1B68002B17
:10845000E9D1404600F0C0F9E5E7094B01221A7066
:1084600092E700BF1043032090430320884303207A
:108470007443032044D40200FFFFB400102B0020FB
:10848000184303200648074A03780749D35C0122B2
:1084900013B1043002F0D0B80C3001F07FBE00BF41
:1084A000182B00200C440320BC4303200648074A35
:1084B00003780749D35C012213B1043002F068B895
:1084C0000C3001F019BE00BF182B00200C44032013
:1084D000BD43032037B50578012D0BD0022D2ED0DA
:1084E00065B91E491E48FFF7A8FD002832D1FFF7E5
:1084F000DDFF03E0037A1BB9FFF7C4FF03B030BD13
:108500004368184C19782046FFF785FD80B18DF837
:1085100000500190144B68461B689847A168E368B7
:10852000A2885B1A9A42E7D2104B01221A70E5E743
:10853000A268E3689A42F1D08DF80000EAE7C368C8
:108540008DF800500193FFF79DFF074B68461B68AD
:108550009847D3E703238DF80030F6E7BD430320A7
:10856000AC4303209843032094430320A8430320F3
:10857000F0B51F46234B89B004461A600D4600290A
:108580003DD08A8820480968FFF736FD002834D19D
:10859000AA89A9681D48FFF72FFD00282DD11C4E80
:1085A0000FCE6D460FC596E80F0085E80F00636992
:1085B0000693237C174A18488DF81C70003B18BF9F
:1085C00001238DF81430637C002B14BF0E2300238D
:1085D0008DF81530E3680293A36803932368019331
:1085E00069466368009301F0D9F830B90B4B1870F5
:1085F0002368013301D0FFF745FF09B0F0BD072024
:10860000FBE700BF9443032098430320AC430320BF
:1086100050D40200D5840200182B0020A843032068
:1086200070B5084D014608482E78FFF706FD044650
:1086300036B100232B70FFF725FF08B1FFF796FC3A
:10864000204670BDA84303209843032010B501467F
:108650000E48FFF7E0FC0446A8B90D480D4A037820
:10866000D35C63B1043001F0DBFF60B90A4907480D
:10867000FFF7E3FC38B9BDE81040FFF717BF0C3037
:1086800001F080FDF1E7204610BD00BFAC430320A0
:10869000182B00200C440320BD43032070B5EFF3DA
:1086A000108672B60C4A946801239CB993600B4BF8
:1086B0000B4DD3F8801029401160C3F88050D3F8D7
:1086C000841051604FF0FF32C3F88420047006B963
:1086D00062B670BD0370FAE7C043032000E100E01A
:1086E000FC06FFBD084B9A6810B55AB150B9EFF3BC
:1086F000108172B6054A1C6814605C68546098600A
:1087000001B962B610BD00BFC043032000E100E024
:10871000435882B03BB10023435043580193019B1F
:10872000012002B070471846FBE70000F8B5204B67
:108730004479204D43F824201F4A204B05EBC40404
:108740009B1A2279DB081B0432B143F002001C495A
:10875000FFF732F90820F8BD02680C88C2F8084516
:1087600090F904608A7804795201002ED2B219DBA4
:1087700014498F1987F800230122760904F01F0499
:1087800002FA04F441F82640427905EBC2010124C3
:1087900045F832000C7143F003000B49FFF70CF968
:1087A0000020D8E7094904F00F040A55ECE700BFA0
:1087B000D4430320CC43032050D20200A0D20200B5
:1087C00070D4020000E100E092D4020014ED00E059
:1087D000036801221A607047036801225A607047DB
:1087E00073B501F15005AD000068ADB24FF48034AF
:1087F0008C400026C0F80843C0F84843465101F5B4
:10880000A8714559019522F07F42019D40F8212031
:10881000C0F844430BB1C0F8044302B070BD00007F
:108820002DE9F74F0D4622F07F4402684FF4803760
:1088300005F150068F408046B60002EB8500C2F875
:108840004873B6B2C2F80873D2F8041599464FF0CF
:10885000000BD0F84035C0F8401542F806B05B1A5E
:108860009259009223F07F43012B009A4FEA850A28
:108870000CD1264B4FF4806043F001039847D8F8A1
:10888000003043F806B09B590193019BD8F80010C3
:10889000D1F80465C1F84473A31B23F07F43012B77
:1088A0001CD11A4B05F5A875013443F0010341F8BA
:1088B00025404FF480609847D8F80030D3F804354D
:1088C0009E4209D1D8F800300020C3F84473C3F8A1
:1088D000047303B0BDE8F08F0D20FAE78A44C9F1B4
:1088E000FF13CAF84045D1F80405221A013A22F0D4
:1088F0007F4203F57F439342EED3002AE2D1013455
:10890000CAF84045D1F804359842DAE7B0D40200FD
:1089100003680222C3F8442309B1C3F80423704753
:1089200000684FF48271FFF7F3BE4FF4803303FA0F
:1089300001F10368C3F84813C3F8081370475031B6
:108940008900006889B2FFF7E3BE0368D3F8040525
:108950007047000090F90430002B09DB5A0901210F
:1089600003F01F0301FA03F34032024941F82230B9
:10897000704700BF00E100E0024B034A1B6810682B
:10898000184700BFD4430320CC43032010B561B186
:10899000B2FBF3F403FB1424A4B244B9C0E90014FD
:1089A00084608281C381204610BD0E20FCE709202F
:1089B000FAE737B550E8013F9DB2C4892544848960
:1089C000A54228BF2D1B0489A54202BFBFF32F8FEC
:1089D000002207E0C5EA030540E80154002CE9D174
:1089E0004FF001028DF803200193019B9DF80320B5
:1089F0000B6002F0FF0322B10B880068184403B03B
:108A000030BD1846FBE70A884B889A4209D150E8E6
:108A1000012FC2EA024240E80123002BF7D10120D6
:108A200070470020704737B550E8023F1FFAA3F5A2
:108A3000C488A54202BFBFF32F8F00220DE0C48976
:108A400025448489A54228BF2D1BC3EA054540E87B
:108A50000254002CE8D14FF001028DF8032001935D
:108A6000019B9DF803200B6002F0FF0322B14B88AD
:108A70000068184403B030BD1846FBE70A884B88ED
:108A80009A4209D150E8022FC2EA224240E802236A
:108A9000002BF7D1012070470020704701F01F0222
:108AA0004B090121914000EB830000F01EB801F05A
:108AB0001F0301229A404B0900EB8300D14300F0D1
:108AC0002CB84B0901F01F0150F82300C84000F0FA
:108AD0000100704710B5034653E8000F0A4643E80B
:108AE000002494F0000FF7D110BD10B5034653E8F1
:108AF000002F42EA010043E8000494F0000FF6D191
:108B000010BD10B5034653E8000F00EA010243E828
:108B1000002494F0000FF6D110BD10B5034653E8C1
:108B2000002F02EA010043E8000494F0000FF6D1A0
:108B300010BD10B5034653E8002F02EB010043E8D7
:108B4000000494F0000FF6D110BD10B5034653E8B1
:108B5000002FA2EB010043E8000494F0000FF6D1CF
:108B600010BD0121FFF7C1BF0021FFF7CABF10B53B
:108B700090B1D0E9012301689B1ADBB20A60013B86
:108B8000DBB2FF2B026802D10020107110BD11680A
:108B90004C1C14600B70F2E70E20F7E737B5054662
:108BA00000240DF107008DF80740FFF777FD2A68D4
:108BB0006B68116899420ED9481E106011F8014C7B
:108BC000EB68298A01FB0434AB6811791B1ADBB20C
:108BD000994238BF13719DF80700FFF783FD2046C7
:108BE00003B030BD37B5054600230DF107000C4634
:108BF0008DF80730FFF752FD2A681368591C116081
:108C0000E968641A298AB4FBF1F41C709DF8070026
:108C1000FFF768FD03B030BD826810B504462AB185
:108C200043690168006998470023A36010BD0EB432
:108C300003B5039921B104AB01AA019300F076F8C2
:108C400002B05DF804EB03B070470A2938B504465A
:108C50000D4602D10D21FFF7F8FFA3682268591CC9
:108C6000A160D554D4E901329A4204D32046BDE82C
:108C70003840FFF7D1BF38BD2DE9F84F9846DDE900
:108C80000A43154682460F460A464FF00109AA429A
:108C90000FD2C14538BFC14613F0010B01D16CB9E9
:108CA00000240126B8F1010F1BD908F1FF386E43EB
:108CB000F8E709F10109B2FBF5F2E8E79B070ED5E9
:108CC000B8F1000F0CBF30262026A145E9D2013CA7
:108CD00031465046FFF7B9FF002CF6D1E0E72026D9
:108CE000F3E7B7FBF6F39D42E1D9DFF83C80B7FB31
:108CF000F6F3504618F8031006FB1377FFF7A5FFAD
:108D00003346AB42B6FBF5F6F1D2BBF1000F02D011
:108D10000CB1A14501D3BDE8F88F20215046013C9C
:108D2000FFF793FFF4E700BFB6D402002DE9F74F39
:108D3000054617468846002900F0428118F8011BB5
:108D400049B92B7B002B00F03B81284603B0BDE8DE
:108D5000F04FFFF761BF252940F0B780002698F853
:108D600000302D2B424608F1010823D0302B24D0AF
:108D70002B2B25D000242A2B02F1010123D13B68A3
:108D80001A1D1B683A601C440A4613782E2B26D104
:108D900001324FF0000A104610F8011BA1F1300C0F
:108DA000BCF1090F1DD80A2303FB0A13A3F1300AF3
:108DB0000246F0E746F00106D1E746F00206CEE7AC
:108DC00046F00406CBE711F8013CA3F13000092876
:108DD000DBD80A2202FB0434303C0A46CBE74FF0D2
:108DE000000A12F8011B01F0FB0068289046F8D039
:108DF000782909D86F290CD8632962D022D825296F
:108E000063D0582900F0888098F80030002B95D165
:108E100097E770390829F7D801A353F821F000BF6C
:108E20009B8F0200098E0200098E0200298F02002A
:108E3000098E0200078F0200098E0200098E0200CF
:108E4000198F0200642901D06929DDD13A68D2F86E
:108E50000090111D89EAE9723960A2EBE9724FF0C6
:108E6000010B092A35DCD34538BFD3462CB1B9F103
:108E7000000F01DB720700D5013CB30702D5BAF140
:108E8000000F03D0F00701D44CBB0024B9F1000F50
:108E90002DDAC9F100092D212846FFF7D6FE06F08C
:108EA0000302022A04D1BAF1000F01D11CBB002435
:108EB000CDE9004653460A2249462846FFF7DCFE24
:108EC000A2E73B681A1D19783A602846FFF7BDFEF5
:108ED0009AE70A230BF1010BB2FBF3F2C1E7A345BA
:108EE000D4D220212846013CFFF7AFFECCE7710722
:108EF000D5D52B21D0E7A345DAD230212846013C35
:108F0000FFF7A3FED2E73968CDE900460A1D3A60B3
:108F100053460A220968D0E739680A1D3A60CDE94C
:108F2000004653461022F5E73B681A1D3A6016F0DA
:108F30000106D3F8009028D1B9F1000F03D04846BC
:108F400003F0F0FD0646B44200D904BB09F1FF3935
:108F500019F8011F00293FF457AF2846FFF775FEA7
:108F6000F6E728460136FFF770FE19F806100029CB
:108F7000F7D1A642BFF448AF002C3FF445AF202103
:108F80002846013CFFF761FEF3E70026EDE72021CC
:108F90002846013CFFF759FED5E73B681A1D3A60A9
:108FA000302128461C68FFF750FE78212846FFF73D
:108FB0004CFE00220823CDE90032214610227CE736
:108FC00003B0BDE8F08F00BF2DE9F84FB0F806A060
:108FD0004579D2F800B09DF828900AFB05F5043DCC
:108FE00088460BEB0301A94203F1040488BFA5EBFB
:108FF000030BB4FBFAF607460AFB1644C2F800B0AE
:109000004EB9AAEB04055D4528BF5D46BBF1000FD4
:1090100004D1BDE8F88F3F68013EF1E7043408EB66
:1090200006003C442A46B9F1000F0DD02146ABEBB7
:10903000050B03F0F9FCDA452E443F6855464FF026
:10904000000428BF5D46E1E701462046EFE7FFF751
:109050008EBDF8B546790146721E0546002393423F
:109060002D6803D30024A64202D8F8BD0133F6E7E9
:109070000F682846FFF7B6FD01343946F3E72DE9BE
:10908000F843068ACD1C0746FFF788FD043E3544A9
:109090000446B5FBF6F5F0B14FF48073EDB2838072
:1090A000C680013D076081464FF00008A84512D2F6
:1090B0003846FFF773FD064648B1637901336371A3
:1090C00008F10108C9F8000007608146EEE7204674
:1090D000FFF7BFFF34462046BDE8F8830121043086
:1090E000FFF727BD10B5012104460430FFF72DFD21
:1090F00010F0FF0F04D12046BDE81040FFF7A9BFD4
:1091000010BD1FB503920022009203AAFFF75CFF77
:1091100005B05DF804FB1FB503920122009203AA7B
:10912000FFF752FF05B05DF804FB0000064B10B5D9
:1091300000241C70054B1C60BFF35F8F0449054879
:1091400000F013F8204610BDE0430320E443032061
:10915000D0D40200D8430320836800225A60C3E9B8
:1091600004229A60DA601A6070470B684A684360AC
:10917000934208BF0023016008BF43607047436803
:1091800043B10268916852680B449342436004BF44
:1091900000234360704770B5446806460D4620685A
:1091A00018B1B3682946984718B923682B60256021
:1091B00070BD2468F3E74368186808B102681A6054
:1091C00070474368186870474368186800B970476B
:1091D000884203D102681A60012070470346006884
:1091E000F4E7000010B50D49A1F59472914201D841
:1091F00000200FE08C1AE30F03EBE4035B1002EB9B
:10920000C30452F83330834205D802D204F1080275
:10921000ECE7606810BD2146E8E700BFDCD902003A
:1092200008B5FFF7DFFF024B002808BF184608BD4E
:109230009FD8020010B50446C0B2FFF707FA2046D7
:1092400010BD0000034B1868A0F1080358425841B4
:10925000704700BF30010010064B1B68082B06D179
:10926000054B1B68052B02D8044AD05C70470020D0
:10927000704700BF3001001034010010E2D9020035
:10928000024AD2F80034002BFBD0704700E00140C6
:1092900010B5FFF7D7FF40B14FF080430022C3F86D
:1092A0000C21C3F81021C3F83825FFF7CBFF0028A5
:1092B00046D04FF08052614BD2F80414C3F8201509
:1092C000D2F80814C3F82415D2F80C14C3F82815E2
:1092D000D2F81014C3F82C15D2F81414C3F83015B2
:1092E000D2F81814C3F83415D2F81C14C3F840157A
:1092F000D2F82014C3F84415D2F82414C3F8481542
:10930000D2F82814C3F84C15D2F82C14C3F8501511
:10931000D2F83014C3F85415D2F83414C3F86015D9
:10932000D2F83814C3F86415D2F83C14C3F86815A1
:10933000D2F84014C3F86C15D2F84424C3F8702551
:10934000FFF78AFF10B13E4B3E4A1A60FFF784FFD9
:1093500018B13D4BFB22C3F81825FFF77DFF48B13C
:109360003A493B4B0A681B6822F00F0203F00F03D7
:1093700013430B60FFF770FF18B1364B4FF40072C8
:109380001A60FFF75FFF48B14FF08043D3F8002425
:10939000D20744BF6FF00102C3F800242E4AD2F86E
:1093A000883043F47003C2F88830BFF34F8FBFF3A7
:1093B0006F8F2A4B1B68082B0ED1294B1B68052B7E
:1093C00002D8284AD35C3BB14FF01023D3F80822CF
:1093D0004FF08043C3F858254FF01023D3F80022F4
:1093E000002A03DBD3F80432002B22DA1E490123C2
:1093F000C1F80435FFF744FF4FF010201224C0F8E5
:109400000042FFF73DFFC0F80442FFF739FF002399
:10941000C1F80435FFF734FFBFF34F8F0E49134BEC
:10942000CA6802F4E0621343CB60BFF34F8F00BF02
:10943000FDE70F4B0F4A1A6010BD00BF00C000408F
:109440008C5600404881030000F00040E40E0040CC
:10945000580200104096024000ED00E0300100107C
:1094600034010010DCD9020000E001400400FA05DC
:109470002C2B00200090D003074B1B5C1F2B8ABFB6
:10948000064A4FF0A04203F01F03D2F80405D8406B
:10949000C04300F001007047ECD902000003005007
:1094A000074B1B5C1F2B86BF064903F01F034FF0C1
:1094B000A041012202FA03F3C1F80C35704700BF46
:1094C000ECD9020000030050074B1B5C1F2B86BF2A
:1094D000064903F01F034FF0A041012202FA03F3F3
:1094E000C1F80835704700BFECD9020000030050F6
:1094F00008B50020FFF7E8FF0120FFF7E5FF022095
:10950000FFF7E2FFBDE808400320FFF7DDBF08B525
:109510000020FFF7C5FF0120FFF7C2FF0220FFF781
:10952000BFFFBDE808400320FFF7BABF0A4B185C35
:109530001F288ABF094B4FF0A04300F01F00D3F84B
:1095400004250121814021EA02000A40C3F80805F0
:10955000C3F80C25704700BFECD90200000300508F
:10956000074B1B5C1F2B8ABF064A4FF0A04203F03B
:109570001F03D2F81005D840C04300F00100704727
:10958000E8D90200000300500B2809D00C2809D0AC
:10959000182809D019280CBF03204FF0FF3070475E
:1095A000002070470120704702207047014B185C73
:1095B000704700BFE8D90200C20710B504460CD5B9
:1095C0004FF0A0430322C3F83427C3F83827C3F869
:1095D0003C27C3F84027FFF78BFFA3070AD54FF0BE
:1095E000A0430C22C3F82C27C3F83027C3F8602708
:1095F000C3F8642710BD000038B5074C051E04F100
:10960000080318BF1C4623682BB11A6822605B68E8
:1096100028469847F7E738BDF043032020B9054BAB
:1096200001225A70FFF7E8BF012802D1014A907069
:10963000F8E77047E843032020B9034B01225A7032
:10964000FFF7DABF704700BFE843032038B50E4C80
:109650002378B3B90D486360A3602361E36000F031
:10966000E5F8054602F0D2FB08B900F0EBF801235B
:109670002370074BD3F800340BB10123A3702846A5
:1096800038BD8525F5E700BFE84303201D9602009D
:109690000000014037B50D4C00230DF107008DF897
:1096A0000730FEF7FBFFE368013BE360E36833B993
:1096B000074BD3F8005415B900F0D6F8A5709DF803
:1096C0000700FFF70FF803B030BD00BFE8430320E9
:1096D00000000140012813B50CD0032820D038B970
:1096E000124B0122C3F88020BFF34F8FBFF36F8F5F
:1096F00002B010BD0E4C00230DF107008DF80730AD
:10970000FEF7CCFF23780BB9FFF7A0FFE3689DF8C5
:1097100007000133E3600123A370FEF7E3FFE7E7EF
:1097200000F090F8FFF7B6FFE2E700BF00E100E0CD
:10973000E84303201FB503788DF800304368019398
:1097400083688DF80830C368054A0393054B684663
:1097500053F8213052F82110984705B05DF804FB0A
:10976000FC430320044403201FB503788DF8003028
:109770004368019383688DF80830C368054A0393F2
:10978000054B684653F8213052F82110984705B030
:109790005DF804FBFC43032004440320F0B5194B9F
:1097A00090F800C0DFF86CE043F82C20164B16460A
:1097B0000A6943F82C204B7F0EF80C300C46074604
:1097C0000FCC89B06D460FC594E80F0085E80F00F7
:1097D0001EF80C30CDF810C04BB1002E0B4A694674
:1097E00008BF3246381D00F0F5FD09B0F0BD002E6F
:1097F000074A694608BF324607F10C0000F0AAFB91
:10980000F3E700BF04440320FC4303203597020024
:10981000699702000C44032000F18040002382B0CD
:10982000036003680193019B02B07047044A1379F7
:1098300023B9012110609180184670478520704738
:1098400010440320074B1A68D20704D4C02283F8BF
:10985000002301221A604FF080430122C3F818252B
:10986000704700BF00E100E04FF0804208B50223DE
:10987000C2F808334FF48270FFF7CEFF034B01218B
:109880001960D2F81834DB03FBD408BD0C0000408B
:10989000124B1B6810B573B14FF48070FFF7BCFF1B
:1098A0004FF080430122C3F808230D4B587910B9BB
:1098B0005A711B6898470B4B1B6873B14FF4827049
:1098C000FFF7AAFF4FF080430222C3F80823044B9E
:1098D000BDE810401B680120184710BD0001004082
:1098E000104403200401004000F1804000F5C04016
:1098F000002382B0036003680193019B02B07047AC
:1099000003681F2B83BF03F01F03036001484FF060
:10991000A04070470003005007B5019001A8FFF771
:10992000EFFF019B00EB8300D0F8003723F44033B6
:10993000C0F80037D0F8003743EA0141C0F80017FB
:1099400003B05DF804FB0000054B4FF0FF32072821
:1099500043F8202084BFC01880F85820704700BF0B
:109960001844032038B51E4C94F86A30ABBB4FF650
:10997000FF71FF205A09012A14BF4FF0FF320A4637
:1099800003F01F05EA40D20748BFE21803F10103C4
:1099900048BF82F83000302BECD10021C8B2FFF76D
:1099A000D3FF01310C29F9D1062200210D4803F023
:1099B00064F80D4BC02283F8062340221A604FF44E
:1099C000BE70FFF791FF094B4FF00042C3F804232C
:1099D000012384F86A30002038BD0820FCE700BF6E
:1099E000184403207C44032000E100E000600040B4
:1099F000034B93F86A00003818BF0120704700BF7E
:109A000018440320F7B53B4E3318054693F9303020
:109A1000002B6CDA8B78C3F34003002B0BBF0824B8
:109A200000240C200820844202D1042003B0F0BDA1
:109A300056F82470013743D1701946F8242080F875
:109A4000304013B9331983F858508B785A0717D41C
:109A5000D80737D501A80195FFF752FF019B00EB0E
:109A60008300D0F8003723F00203C0F80037224803
:109A7000EA0805F007070123BB40875C3B4383549A
:109A80008B780A7813F0020328D0A40004F18044F4
:109A900004F5C0442D02D4F8103523F44F3323F4D9
:109AA0004073C4F810351204D4F8103505F47C5511
:109AB00002F4403215431D43C4F810550020B5E7A9
:109AC0000134B0E701A84A780195FFF719FF019B1F
:109AD00003F5E073920040F82320C8E7083C3444C3
:109AE00094F8605045EA821284F86020E6E7082086
:109AF0009CE700BF184403207C44032073B5224C2C
:109B00002618054696F93020072A1ADD224492F8D5
:109B100058309B09032B0FD1019001A8FFF7F0FEED
:109B2000019BD0F81015D94001F0010102312846FF
:109B3000FFF7F2FE02B070BD012B0CBF0221032122
:109B4000F5E7D3B2072BF5D8930003F1804303F573
:109B5000C043D3F8100540F00100C3F8100502F12E
:109B60004000800080B2FFF7BFFE0029E2D096F9E6
:109B7000303054F82330002BDCD0012303FA02F2FA
:109B8000024BC3F80423D5E71844032000600040CB
:109B900007B5019001A8FFF7B3FE019BD0F81005AF
:109BA000D84000F0010003B05DF804FB2DE9FF4749
:109BB0000024CDE90244584D4FF48072012102F196
:109BC000804303F5C04390B21B68012B06D1D5F842
:109BD00004330B4202D0FFF787FE0C430432B2F588
:109BE000907F4FEA4101EAD14C4B1B68012B11D108
:109BF0004FF4BE70FFF778FE4FF0A04344F00044EE
:109C0000D3F820250292C3F82025D3F82028039208
:109C1000C3F8202814F0FF0F1AD0414F0025012669
:109C2000344210D0AB0003F1804303F5C043D3F8B6
:109C30001005D3F8101557F8253023B1C1F30141B1
:109C4000C0F3052098470135082D4FEA4606E7D1B5
:109C5000002C59DA324D334C334E4FF000080127B7
:109C600016F9013B5A1C3CD0C3F3C20104A80144BD
:109C70005FFA83F911F8081C03F03F0203F00703B1
:109C800007FA03F319422CD001A80192FFF738FE1E
:109C9000019B03F5E07350F82330C3F3014ABAF196
:109CA000020F10460CBF03210221FFF735FE01A869
:109CB0000192FFF725FE019B07FA03F3C0F8203558
:109CC000AB1893F9303055F8233053B14FEA99115E
:109CD000032904D0BAF1020F19D1012901D110468C
:109CE000984708F10108B8F1040FB9D14FF0A0432B
:109CF000D3F820250292C3F82025D4F82035039309
:109D0000C4F820351343A7D104B0BDE8F087BAF1F9
:109D1000030FE6D10229E1E7006000407C610040CA
:109D2000184403200003005078440320014B1B68B3
:109D3000184700BF844403200E4B984237B50C46A9
:109D400002D0002003B030BD00230DF107008DF8D4
:109D50000730FEF7A3FC084B1D7915B901221C60E2
:109D60001A719DF80700FEF7BDFC002DE9D0112007
:109D7000E8E700BF00200040844403200023435054
:109D800082B043580193019B02B070470A4610B558
:109D90004FF48E71FFF7F2FF136A9168C95C136A82
:109DA00001331362C0F81C1510BD024608B50068E7
:109DB0004FF49271FFF7E2FF4FF484711068FFF7E0
:109DC000DDFF136801221A6008BD8B690A4610B5D1
:109DD0004FF4847123B9FFF7D1FFD0F8183510BDC7
:109DE000FFF7CCFF536AD168D0F81805C854536AFE
:109DF00001335362F3E700001FB501238DF80030F3
:109E0000044BCDE90110D3E900126846904705B034
:109E10005DF804FB8C44032030B54C48D0F8043383
:109E200013F4007F85B005464DD0D0F82431002BC7
:109E300049D04FF49271FFF7A1FF4FF40173C0F8BE
:109E40000833434B93F829200AB9012242603F4965
:109E500002228DF80020D1F88024C1F880240392DA
:109E60009A690292DA6801920022C3E906226846E2
:109E7000D3E9001290473548D0F81C315BB1344922
:109E80004A690B6A9A420A464AD991F82830002B4F
:109E900046D1FFF77BFF2D48D0F844318BB14FF40A
:109EA000A271FFF76BFF2A4B93F829200AB1012218
:109EB00002609A692AB10022586AD9689A61FFF74C
:109EC0009BFF05B030BDD5F804335B07D3D5D5F87B
:109ED0000831002BCFD01E4C1C482146FFF775FFE0
:109EE000636AA2699A422346C5D1E269E1684AB130
:109EF0002369E3600023606AA261E3616362FFF7A4
:109F00007BFFB8E794F829200AB901226A600F4A5A
:109F10004FF40170C2F808030022586A9A61EEE714
:109F20000A484FF48E71FFF729FF5369002BB2D016
:109F300051690291002391688DF8003001915361BD
:109F40006846D2E900139847A5E700BF002000400B
:109F50008C4403202DE9F843614B057991462C226E
:109F600002FB0532064692F82A200C469846002A43
:109F700040F0B1805B490068FFF7DEFE074600282D
:109F800040F0AB8021684A1C10D01F2987BF564A79
:109F900001F01F030B464FF0A0420120984003F54B
:109FA000E073C2F80805032042F823006068431CF0
:109FB0000DD01F288BBF00F01F0303464A4A4FF005
:109FC000A04203F5E0734FF0000C42F823C0336861
:109FD000A269C3F8242594F814C0627DBCF1010F76
:109FE0004CEA0202C3F86C25C3F81405C3F80C153B
:109FF0002BD1A168481C0DD01F298BBF01F01F0277
:10A000000A4639484FF0A04002F5E0724FF0000CCC
:10A0100040F822C0E068421C13D01F2887BF324A94
:10A0200000F01F0C84464FF0A0424FF0010E0EFAD4
:10A030000CFE0CF5E07CC2F808E54FF0030E42F888
:10A040002CE0C3F80805C3F810152C236B4308EB6C
:10A050000302C2F80490226948F80320B9F1000F06
:10A0600021D03068247F4FF48E71FFF787FE4FF4C4
:10A07000A2713068FFF782FE32681C4BC2F80433CD
:10A08000110B42F307326301002ADBB21EDB1848D2
:10A09000841884F800330123520901F01F0103FAE8
:10A0A00001F140F8221033680422C3F800252C2364
:10A0B00003FB05830022C3E9062283F829205A61A5
:10A0C000012283F82A203846BDE8F883094A01F0C6
:10A0D0000F015354E7E70827F5E71127F3E700BF1F
:10A0E0008C440320199E02000003005080000200EF
:10A0F00000E100E014ED00E02DE9F047204F90F87A
:10A1000004904FF02C0808FB097405466669002E80
:10A1100034D162610068A16026624FF48E7184F8C8
:10A120002860FFF72BFE2868012383602146FFF794
:10A130002DFE6368A0468BB92868D4F814A0236A62
:10A140009A4511D82A68D2F81C31002BFBD0012384
:10A15000D3602C2303FB097300225A613046BDE80B
:10A16000F08794F828303BB9D0F81C31002BF8D098
:10A170004146FFF70BFEE2E70F26EAE71126EDE77F
:10A180008C4403200379044A2C2101FB03235869E2
:10A19000003818BF012070478C4403202DE9F84394
:10A1A000394F05792C2303FB057306465C6824B1FF
:10A1B00003684FF40170C3F808032C2303FB0573F5
:10A1C000986950B1D86900283ED024B133684FF463
:10A1D0000172C3F80423112433E09A61D9605862F4
:10A1E000D8612C2303FB057393F829301BB910B9F0
:10A1F0003046FFF7DAFD4FF02C0909FB057830688F
:10A20000D8F80430002B34D14FF4A271C146FFF7C7
:10A21000B5FD3068D0F82431D0F80821D0F8444199
:10A22000B2B90CB9002BF4D02C2202FB0575002228
:10A23000AA6123BB2CBB95F8291033680122B1B168
:10A240001A602046BDE8F8831961DA610120C8E789
:10A25000002BE9D1002CE7D14946FFF7B6FDD8F82D
:10A260002430D8F818209A42D3D82346DCE75A6025
:10A27000E7E74FF40173C0F804330024E1E7032457
:10A28000DFE70F24DDE700BF8C44032000234350A9
:10A2900082B043580193019B02B070471FB5012360
:10A2A0008DF80030044BCDE90110D3E90012684667
:10A2B000904705B05DF804FBB84403207FB5434ADE
:10A2C000D2F82461002E60D010464FF49271FFF74F
:10A2D000DDFF02238DF80030D2F88034C2F88034DC
:10A2E0000393D2F83C350293394BDA68019200228D
:10A2F000C3E906226846D3E9001290473348D0F8F4
:10A30000443173B14FF4A271FFF7C0FF304B9A692B
:10A310003AB10022C3E90622D968D0F83C05FFF71C
:10A32000BDFF2A48D0F82031ABB14FF49071FFF750
:10A33000ADFF0123C360264B5A6962B1D0F84C15BA
:10A340000291002299688DF8002001915A616846B7
:10A35000D3E9001290471D48D0F858319BB14FF413
:10A36000AC71FFF793FF1A4B5A6962B1D0F84C15E4
:10A370000291002299688DF8002001915A61684687
:10A38000D3E90012904704B070BDD2F81031002B11
:10A39000B4D04FF488711046FFF778FF0C4BD2F819
:10A3A0003C0599698842A9D1DC69D96864B1D2F8C1
:10A3B000005225F02005C2F800521A699C61DA604B
:10A3C000DE61FFF76BFF99E79C61FAE70020004030
:10A3D000B84403202DE9F843674B067991462422BF
:10A3E00002FB0632044692F820200D469846002AC9
:10A3F00040F0BE8061490068FFF79EFC07460028D8
:10A4000040F0B8802868421C10D01F2887BF5C4AE3
:10A4100000F01F0303464FF0A0420121994003F5CD
:10A42000E073C2F80815032142F8231069684B1C39
:10A430000DD01F298BBF01F01F030B46504A4FF070
:10A44000A04203F5E0734FF0000C42F823C02368EC
:10A45000AA69C3F8242595F814C06A7DBCF1010FE0
:10A460004CEA0202C3F86C25C3F80C05C3F81415B6
:10A470002BD1A968481C0DD01F298BBF01F01F02EA
:10A480000A463F484FF0A04002F5E0724FF0000C42
:10A4900040F822C0E868421C13D01F2887BF384A02
:10A4A00000F01F0C84464FF0A0424FF0010E0EFA50
:10A4B0000CFE0CF5E07CC2F808E54FF0030E42F804
:10A4C0002CE0C3F80805C3F810152423734308EBE8
:10A4D0000302C2F804902A6948F80320B9F1000F7A
:10A4E00030D020682A7F4FF48871FFF7CFFE2068B4
:10A4F0004FF49071FFF7CAFE20684FF49271FFF796
:10A50000C5FE20684FF4A271FFF7C0FE4FF4AC7196
:10A510002068FFF7BBFE23681A49C3F80413190B20
:10A5200043F307335201002BD2B21CDB1648C51887
:10A5300085F8002301225B0901F01F0102FA01F1F5
:10A5400040F8231023680822C3F80025242303FBC6
:10A5500006830022C3E906225A61012283F82020E3
:10A560003846BDE8F883094B01F00F015A54E9E77A
:10A570000827F5E71127F3E7B8440320BDA202003E
:10A58000000300501003420000E100E014ED00E081
:10A5900001F06043B3F1005F2DE9F041064638D188
:10A5A0001E4B0779242505FB073598466C69002C5E
:10A5B00031D16A610068A9604FF49071FFF766FEBF
:10A5C0004FF4AC713068FFF761FE33686A69A968BF
:10A5D000C3F84415C3F8482501229A606A68AAB9ED
:10A5E000D3F82021D3F858411AB9002CF8D00F2401
:10A5F00007E0002CFBD10122DA60D3F85821002AB1
:10A60000FBD0242303FB078700237B612046BDE8A2
:10A61000F0811024FAE71124F8E700BFB8440320C2
:10A620000379044A242101FB03235869003818BF29
:10A6300001207047B8440320F8B501F06043B3F13E
:10A64000005F04460F465ED10379304D242101FBA3
:10A650000351496821B100684FF40476C0F80863DB
:10A66000242000FB03539E6956B1D869002839D0D5
:10A6700021B123684FF40472C3F80423112030E0A1
:10A680009A61DF60DE6120684FF48871FFF7FEFD9C
:10A6900020684FF4A271FFF7F9FD2368C3F8347501
:10A6A000C3F8382516BB01221A602179242202FB47
:10A6B000015252680ABBD3F81041D3F84421D3F8B1
:10A6C0002401144302D10028F5D02246242303FBA1
:10A6D00001550023984218BF03209A42AB6118BF6E
:10A6E0000F20F8BD1F61DA610126CCE7D3F8002204
:10A6F00042F02002C3F80022D7E74FF40472C3F8F7
:10A7000004230020EDE71020EBE700BFB84403204E
:10A71000036801221A600379034A0C2101FB032319
:10A7200002221A72704700BFDC44032037B54FF491
:10A73000803400688C407BB18B0003F5A07300254A
:10A74000C550C3580193019BC0F8044301F5A8719B
:10A7500040F8212003B030BDC0F80843F6E770B4DC
:10A76000046840F20116D4F800528E4025EA06052E
:10A77000C4F80052D4F800522B43C4F800329DF8BC
:10A780000C3070BCFFF7D2BF2DE9F341104C114FD4
:10A79000114E00254FF48038236883B1D7F8043375
:10A7A00008FA05F21A420AD00023236023680193B5
:10A7B00004F5C040019B80B2D6E9003198470135CD
:10A7C000062D04F10404E7D102B0BDE8F08100BF1A
:10A7D00040A1014000A00140DC44032000F1804082
:10A7E00000F5E040002382B0036003680193019B01
:10A7F00002B07047F0B5504B504C1B6885B0002B31
:10A800003DD04FF4827094F82E20FFF7E7FF2AB373
:10A8100094F82F3013BB4A4B1B68002B33D04FF4F6
:10A820008070FFF7DBFF638B94F82D108B424FD9BC
:10A8300022895B1A9BB292B26383D31A626802EBDD
:10A840004303404AC2F82C36C2F830164FF48270E7
:10A85000FFF7C4FF3C4B01221A6014E063680293C7
:10A860002389ADF80C30E36800218DF8041023BB78
:10A870002374236801A89847002384F82F3094F8A4
:10A880002E30002BC7D1314B1B685BB14FF4887061
:10A89000FFF7A4FF0023237402238DF8043001A8DE
:10A8A000236898472A4B1B68EBB14FF48A70FFF777
:10A8B00095FF0023237405B0F0BD208B6083636097
:10A8C0002081E160002AD4D11E4B01221A60D0E71A
:10A8D000BCD1E368012284F82F2013B100226283E7
:10A8E000AFE76383B2E766694FF000470125002EAA
:10A8F000E1D0B6FA86F227FA02F34632920026EA4F
:10A90000030602F1804303F5E0431B68002BEED001
:10A910001046FFF763FFA2F58C72D30882F00402A1
:10A92000C2F380028DF808308DF8045023688DF84A
:10A93000092001A89847DAE704710040E8440320A1
:10A940000071004000700040047000401071004031
:10A950001471004038B5204A92F82C300446002B80
:10A9600037D111601D490078C1F8F0056078C1F851
:10A97000F4050125137482F82D30536182F82F30CD
:10A98000E07882F82E006FF0004382F82C504FF4EC
:10A990008270C1F80833FFF721FF4FF48070FFF792
:10A9A0001DFF4FF48A70FFF719FFA3780C485B0175
:10A9B000DBB280F80733802303600223C1F804333D
:10A9C00092F82E300BB1C1F80453C1F800550020A5
:10A9D00038BD0820FCE700BFE844032000700040B9
:10A9E00000E100E030B5224B1A7C002A3ED100F194
:10A9F0000C0403EB4402127922B993F82D200132A2
:10AA000083F82D2003EB4403CA790C7A8D781A71F0
:10AA10005C714B782D021B0105F4E06503F03003F7
:10AA20002B430D7805F003052B43CD782D0305F45A
:10AA300080552B430D792D0405F4E0252B434D79EA
:10AA400089792D0505F48015090601F080712B43E5
:10AA50000B43010101F1804101F5E0410020C1F803
:10AA60001835C1F81445C1F8102530BD1120FCE798
:10AA7000E8440320054B93F82E30002B14BF002030
:10AA8000042000F1804000F5E0407047E8440320D6
:10AA900070B5264A264B05461220C2F808031C7CD6
:10AAA000022C03D1C2F80403112070BD187C0128C8
:10AAB0001DD1D86818B10223C2F80433F4E7DD6071
:10AAC000198393F82E3063B91A4A1368002BFCD00F
:10AAD0004FF48070FFF782FE144BC3F82C56C3F876
:10AAE0003016124B0222C3F804230020DDE70220B7
:10AAF00093F82E40C2F80403012600201E745D6006
:10AB00001981D8603CB1598393F82D30C2F82C5686
:10AB1000C2F83036C9E7C2F82C564FF48070C2F83C
:10AB20003016FFF75BFE20461660BEE7007000405F
:10AB3000E8440320007100402DE9F74F4FF0000971
:10AB4000154D164F06464FF0040AC8465FFA89FBBA
:10AB500001240DF1070004FA0BF48DF80780FDF7CE
:10AB60009DFD2C4208D03B6814EA030201BF234339
:10AB70003B6086F800B092469DF80700FDF7B2FDF5
:10AB8000BAF1000F03D0A54309F10109DED1504607
:10AB900003B0BDE8F08F00BFFFFF010018450320A0
:10ABA00010B5A1B19AB101238340C3F3100484B15D
:10ABB0000A4C246823420ED0C00000F1804000F50A
:10ABC000F830C0F81015C0F81425002010BD0E2074
:10ABD000FCE70720FAE70820F8E700BF1845032044
:10ABE000012202FA00F3580C400440B91BB1064A96
:10ABF0001268134205D0054AC2F804357047072091
:10AC000070470820704700BF1845032000F001403E
:10AC1000034B187810B901221A70704785207047CD
:10AC20001C4503200220FEF781BC00002DE9F047FF
:10AC300080460D46FEF7A8FC0328044610D8012DD7
:10AC400010D0022D30D05DB91A48FDF712FB1A4B17
:10AC500004EB440213449E78184B1B5DB34219D099
:10AC6000BDE8F087144D00EB4002A918AE5C4A78AD
:10AC7000470052B1DFF84C900E484A464FF48041ED
:10AC8000FDF7CCFA08B989F800803B192B449A7873
:10AC90000A4B1A55002EE3D0094B1B68002BDFD05E
:10ACA0003046BDE8F047184700EB40040248044432
:10ACB0006678EFE7502B00201F450320394503201D
:10ACC000344503201D45032000780221FFF7AEBF65
:10ACD00008B5094B1B7853B10020FEF7F5FB0120A6
:10ACE000FEF7F2FBBDE808400320FEF7EDBBBDE830
:10ACF0000840FEF7FDBB00BF1E450320F8B57B4CA6
:10AD0000237805461BB100232370FFF7E1FF172DC1
:10AD100000F28880DFE805F00C1717435465768051
:10AD2000888D888D959A9A9A9A9AC4C9D1D9E4E463
:10AD3000FFF7CEFF6E48FDF79CFA6E4B00220446EB
:10AD40001A702046F8BD0020FEF796FBF8B10020EF
:10AD5000FEF7BAFB022D0CBF4FF4E1614FF47A61AC
:10AD6000644B1D704FF400404FF47A740025E0FBF3
:10AD700001454FF4FA6200232046294601F014FDF4
:10AD800000220146BDE8F8405948FDF747BAFEF7F2
:10AD900087FB022D0CBFC8214FF4C871E0E70020EB
:10ADA000FEF76AFB40B10020FEF78EFB4FF44871BE
:10ADB000504B03221A70D5E7FEF772FBC821F7E764
:10ADC0000020FEF759FB38B10020FEF77DFB4FF461
:10ADD0007A61484B0422EDE7FEF762FB4FF4C8713D
:10ADE000F7E70020FEF748FB48B10020FEF76CFBB8
:10ADF000404B05221A7040F6CD410022C2E7FEF713
:10AE00004FFBF5E70020FEF791FB3A4B06221A7044
:10AE1000002240F26661B5E70020FEF741FB354BAA
:10AE200007221A7000248CE701202070FEF77EFBB9
:10AE3000EEE701202070FEF779FB00224FF400516D
:10AE4000A0E7FEF764FB2B4B0C22EAE72A482B4EC7
:10AE5000FDF70FFAD5F1110504461CD0D8B9012D24
:10AE600013D0C8235D434FF400474FF47A7000219C
:10AE70004FF4FA620023C7FB050101F095FC22465E
:10AE800001461D48FDF7CAF904460220FEF708FBFB
:10AE90000123337055E70220FEF716FB0023F8E785
:10AEA000FFF716FF134B1222BBE7FFF711FF00203D
:10AEB000FEF7F6FA0F4B1322B3E7FFF709FF012065
:10AEC000FEF7EEFA0B4B1422ABE7FFF701FF002071
:10AED000FEF7E6FA0120FEF7E3FA064B1522A0E79B
:10AEE000FEF715FB034B1D709CE700BF30450320A8
:10AEF000702B002038450320302B00201E450320F6
:10AF0000044B1B68DB0703D5034B1878FFF7F6BE2D
:10AF1000704700BF2C45032038450320002910B599
:10AF200014BF03240024FEF741FB1F288ABF0A4BED
:10AF30004FF0A04300F01F0003EB8000D0F8002783
:10AF400022F44032C0F80027D0F8003743EA044327
:10AF5000C0F80037002010BD00030050032801D8BE
:10AF6000FEF7FEBA00207047044B1B6813F0010384
:10AF700001D0FFF7C3BE1846704700BF2C45032021
:10AF800038B51C4B18601C4B10F0020405461960C4
:10AF90001AD01A4B1A480E221A700F22DA70102299
:10AFA0009A7111225A72042140F23332FCF772FF77
:10AFB000044648B9FCF7C4FF044628B90146114AC3
:10AFC0001148FDF719F90446EB0711D50120FEF7EA
:10AFD000F3FA6CB921460D4A0D48FDF70DF9044608
:10AFE00030B9BDE838400B4A0B480121FDF704B9E0
:10AFF000204638BD2C450320344503201F4503203F
:10B0000024DA0200C9AC020048DA020001AF0200F3
:10B010004CDA020025AC020044DA0200032811D801
:10B02000012A0AD101290FD100F10E02D2B20D4B33
:10B0300000EB40001A54002070470129F7D0022984
:10B0400004D049B1072070470022F8E7054B00EB18
:10B05000400018444270EEE7024B00EB40001844F9
:10B060008270E8E71F450320032802D80121FFF77B
:10B0700055BF0620704708B5012202210020FFF7C6
:10B08000CDFF08B1072810D1072202210120FFF7C8
:10B09000C5FF08B1072808D100210A220846FFF79A
:10B0A000BDFF10B1072808BF002008BD0388102B82
:10B0B00010B502D0112B1ED010BD1A4C2168B1B9A9
:10B0C00001220846FFF7AAFF08B1072824D107226A
:10B0D00002210120FFF7A2FF08B107281CD104229A
:10B0E00002210020FFF79AFF08B1072814D1236836
:10B0F00001332360E0E70B4A1368013B1360002B28
:10B10000DAD1FFF7B8FF0028D6D0074B1B68002B19
:10B11000D2D0BDE810401847034B1B68002BE6D087
:10B120009847E4E7444503204045032008B5002044
:10B13000FFF79AFF08B1062806D10120FFF794FF18
:10B1400010B1062808BF002008BD00000D4B10B547
:10B1500018600C4629B10120FFF700FF40B102231F
:10B160002370094B1B6853B9BDE81040FFF783BF3C
:10B17000FFF7F4FE08B10B23F2E72070F1E700209F
:10B1800010BD00BF40450320444503200369C1684A
:10B190008B429DBF8268D21802F1FF3203F1FF3368
:10B1A00094BF501A581A70472DE9F843D0E9029419
:10B1B0000546A9EB04084068904520440F46144416
:10B1C00004D901F031FCEC60BDE8F8834246A4EB01
:10B1D000090401F029FC6868224607EB0801F0E742
:10B1E0002DE9F843C5680646894617464FF0000822
:10B1F0003469B3687068A54228BFE418013C621B3B
:10B200005C1BBC4228BF3C46944228BF14464946BA
:10B210002844224601F008FCB3682544AB4208BF2D
:10B2200000253F1BA044A144F560E1D14046BDE8A4
:10B23000F883000010B5114C114AA2610223C4E941
:10B240000433104BE361A2644FF400730E4A0F49BC
:10B250002362E26400231022E01DA3626362E362C2
:10B26000A3656365E365226501F03AFC0849204661
:10B2700001F036FC2023A37110BD00BF4845032018
:10B2800050DA0200D0450320C045032059DA0200FD
:10B290005DDA0200F8B5184C182300FB033503FBF8
:10B2A00000402544C46A012C0F4616460FD0022CDC
:10B2B0001AD0F4B92846FFF769FF864205D832460E
:10B2C00039462846FFF770FF34462046F8BD284629
:10B2D000FFF75CFF8642344628BF044622463946C3
:10B2E0002846FFF761FFF0E72846BDE8F840FFF782
:10B2F00077BF0024E9E700BF48450320FFF79ABF66
:10B3000030B5C8B1F2B10024651C8D4206DA15884B
:10B31000A54212D805196D789D420ED1A14211D9CE
:10B32000005D48B1013880B230B10234A3B210FAE6
:10B3300084F4A14206DB138030BD055D01352C4449
:10B34000A4B2E1E70020F7E713B513460022ADF8F9
:10B3500006200DF106020446FFF7D2FF10B1BDF83A
:10B360000630E01802B010BD72DF704773DF70471F
:10B3700074DF704738B5012204460D46B0F8141446
:10B38000D0F81004FFF7E0FF00B1057004F13C02B3
:10B3900004F5826104F15400BDE83840FFF7E4BFD2
:10B3A000F8B5077804460D46002F00F0098100F239
:10B3B0002646817007220021304601F05EFBE388BB
:10B3C00013B1A378012B04D0E3794BB1A378022BFE
:10B3D00006D1636BA3B1012284F82D24082098477D
:10B3E000334604F22C4113F8012F12B99942FAD1D5
:10B3F00017466B1E032B57D8DFE803F0050B0F121F
:10B4000084F82D34ECE7A3791BB194F8243003B908
:10B410005FB9E3790BB1002F48D1237A002B47D1D4
:10B42000637A002B0CBF00250425636BA570002BED
:10B4300040D0033D012D3DD86279002A3AD094F8DE
:10B440002E24002A36D184F83024012284F82F24B7
:10B450000720984704F13C0518220021284601F0F6
:10B460000CFBE26A0123511E994284F83C3001D959
:10B47000042A00D1D3B294F8242084F8513042B188
:10B48000A36A591E012902D9042B18BF012384F88D
:10B490005230A178002384F8503004291BD8DFE80B
:10B4A00001F0770D223559000025BEE70225BCE7E3
:10B4B0000325BAE7002384F82F34CBE7C4E91063EF
:10B4C000C4F820340223012284F83C30802384F81D
:10B4D0003120A4F84830A378002B5CD1636B002B9B
:10B4E0006AD1002067E00223002A84F8313014BFBB
:10B4F0000723032384F83C302369A4F84830002351
:10B50000C4F82034E36826646364E4E76369636431
:10B51000A369A4F8483012B1062384F83C3063795B
:10B52000B3B194F82E349BB994F8303483B102232C
:10B5300084F8503004212046FFF71CFF0028CAD1B0
:10B54000052384F8313004F58263C4F82034C2E75F
:10B550000323F6E7E3696364236AA4F8483012B171
:10B56000062384F83C30637983B194F82E346BB9A8
:10B5700094F8303453B1022384F85030042120462B
:10B58000FFF7F8FE0028A6D10623DAE70423D8E760
:10B5900084F831309FE7D4F820142A4604F154008F
:10B5A000FFF7E2FE38B994F8301094F85400FFF732
:10B5B000DDFE002892D0F8BD94F83100984790E75E
:10B5C0000820F8E70388112B10B50C460AD0262B6B
:10B5D0001FD0102B05D1C37B012B02D18388A1F88A
:10B5E000243410BD0022838881F82E24B1F824244D
:10B5F0009A42F6D10B79002BF3D101212046FFF7B7
:10B60000CFFE0028EDD0A36B002BEAD0BDE81040A0
:10B610001847037A013B012BE3D8897805230131D0
:10B62000B1FBF3F303EB8303C91AC9B2E6E738B5FC
:10B63000044690F85400FFF79BFE012384F82E3453
:10B64000002384F8303484F8503006212046FFF778
:10B6500091FE054638B9A1782046FFF7A1FE10B14A
:10B66000A36B03B19847284638BD0000034B1A88E6
:10B6700082420CBF18460020704700BFEC470320F1
:10B68000024B9B6903B11847704700BFD0470320A6
:10B6900037B50B46497A0F4A71B9D2E901141D7AC0
:10B6A0000246002D18BF21465868FCF7B7FD08B1C7
:10B6B000FFF7E6FF03B030BD002119725369002B7C
:10B6C000F8D00122ADF806008DF8042001A89847B3
:10B6D000F0E700BFD04703204B8802889A4213D876
:10B6E00042889A4210D380888A8840F2F3139842A5
:10B6F00094BF031AC31A934206D800F2F310904283
:10B7000034BF002001207047002070470388122BAF
:10B7100070B5014659D004D8102B1ED0112B44D03F
:10B7200070BD502BFCD12F4BC288DB899A42F7D1D8
:10B73000038A022BF4D186883046FFF797FF05462F
:10B740000028EDD001F1120000F028F938BB68683C
:10B75000FCF78FFD0028E3D009E0C37B012BDFD18C
:10B760004FF6FF70FFF782FF054620B90420BDE8C1
:10B770007040FFF785BF1C4A8E8806800023037245
:10B780001368C0F80A305368C0F80E3010310A3020
:10B79000FFF7A2FF134B6872DB89002BC0D129464B
:10B7A0003046BDE87040FFF773BF8088FFF75EFF4B
:10B7B00004460028B4D04068FCF75BFD08B1FFF7F1
:10B7C0005FFF4FF6FF732380AAE786883046FFF7B6
:10B7D0004DFF05460028A3D008310A30FFF77CFF53
:10B7E0006872DCE7D0470320004803200AB1FDF768
:10B7F00055B9FDF75CB973B50191019C06466CB172
:10B8000000252C46294601A8FDF75BF918B106EB87
:10B81000440301349D800135142DF3D1304634604A
:10B8200002B070BD2DE9F04703888488103B8CB0CE
:10B8300005460A2B1FD8DFE803F0063F1E1E1E1E1A
:10B840001E1E1E604400314EB368DB4300937168D6
:10B850006846FDF762F9009901A8FFF7CCFF0DF1EA
:10B8600008094FF00008019B984507D3132C13D902
:10B870000420FCF77BFB0CB0BDE8F08739F802AB85
:10B8800000270137514606EB8700FDF710F91E2F00
:10B89000F7D108F10108E6E71D482146FDF7FEF85B
:10B8A0001C482146FDF7FAF8EB7B022BE3D11A483E
:10B8B0002146FDF7F3F8DEE715482146FDF7F7F8D6
:10B8C000D9E7027A15483F2A4FEA1215214694BF5C
:10B8D00000220122FFF78AFF022D94BF00220122DD
:10B8E0000F482146FFF782FF012D0E4894BF00222A
:10B8F00001222146FFF77AFFBDE7037A002BBAD178
:10B90000427A0648C2F3C0022146F3E70848032002
:10B91000104803200C48032014480320204803202B
:10B920001C480320184803201328014602D8024867
:10B93000FDF7C7B8002070470C48032010B5044637
:10B94000FFF7F2FF002814BF2046142010BD70B589
:10B950000546164608460AB90E2070BD002313603E
:10B96000002DF9D02B68002BF6D0EB8813F00304E0
:10B970000ED1FFF7E3FFC0B214280BD02B7983421E
:10B980000AD9EB882A6800FB032030602046E4E7F0
:10B990000720E2E70520E0E70420DEE7007800F07A
:10B9A0000100704790DF7047A5DF7047B5DF704733
:10B9B0007FB50023ADF80810ADF80A106A4602A959
:10B9C000064603930093ADF80430FFF7EBFF0546FE
:10B9D00000B3124B124CE41AE408FDF721FC2404D6
:10B9E00044F0010403460F4932462046FBF7F1FFBD
:10B9F000BDF80020BDF8023052EA030103D00A4925
:10BA00002046FBF7E6FFBDF804201AB1074920469F
:10BA1000FBF7D6FF284604B070BD00BF50D202002D
:10BA2000B8D2020064DA0200AEDA0200EDDA0200F7
:10BA300013B5034680880C46A0B91A88242A75D00D
:10BA400012D8112A51D0232A7DD0102A3AD0A37AB5
:10BA500043B1E1880020FFF7A7FF002879D14FF418
:10BA60008073638102B010BD3A2A47D0552AEED1C7
:10BA7000DB88C988A072172B38BF17238B4228BFD9
:10BA80000B462381FFF792FF60B1FDF7C9FB394BED
:10BA90003949024639481B1ADB081B0443F00100F0
:10BAA000FBF78EFFE37A002BD1D12369002BCED098
:10BAB00040F6772200922289ADF80420694620469C
:10BAC0009847C4E7DB7B09792173012B08D0022B4F
:10BAD00009D0637B8B42BAD20020FFF769FFB6E73B
:10BAE0002388E380F5E76388FBE7F723CB80172300
:10BAF0000B8141F6FB3348818B81A8E75B89CA88BB
:10BB0000934228BF1346172B0A6938BF17230B81AE
:10BB10004AB1C97A39B140F677210091ADF80430C5
:10BB20006946204690470023638190E71A7A0B69A3
:10BB30004A73002B8BD04DF67A218DF805000091C9
:10BB40008DF80420BAE7197A237B994228BF194659
:10BB5000C3E7112886D0FDF763FB064B0849024670
:10BB600006481B1ADB081B0443F00100FBF728FF03
:10BB700078E700BFB8D2020043DB020050D20200D7
:10BB800072DB0200B0DF704766DF704710B500213E
:10BB900004464088FFF7F8FF034608B9237210BD3A
:10BBA000112801D10123F9E76368BDE81040184767
:10BBB00028B10378DE2B04D14180002070470E208D
:10BBC000704708207047F0B5054685B00C46F1B1C6
:10BBD000E8B10B78DE2B1AD182884B889A4204D1C7
:10BBE0000B7A13B10846FFF7D1FF2B88112B32D007
:10BBF000512B0ED0012B0AD12B7A012B07D1A9880A
:10BC00006288914203D123722046FFF7BFFF05B03F
:10BC1000F0BDAE886388B342F9D1AF79022FF6D177
:10BC2000AD7B2B1F022BF2D800211022684600F0BA
:10BC300024FF052D14BF4FF4C0730023694630461E
:10BC40008DF80070ADF80430FFF79CFF0028DED0BF
:10BC500063689847DBE76388AA889A4204BF4FF677
:10BC6000FF736380D3E7ADDF7047AEDF704770B519
:10BC700005468AB00C46002962D0002860D00388AF
:10BC8000502B37D0572B72D0102B59D18188606937
:10BC9000002601AA0196FFF75AFE082231460DEB55
:10BCA000020000F0EAFE02232189A888CDF80CD01A
:10BCB00002AA0293FFF7D7FF002841D1A369002B06
:10BCC0003ED00398FFF76AFE002839D0019B0BB1E4
:10BCD00001221A701822002104A800F0CEFE0223CF
:10BCE0008DF81030AB88ADF81830019B05940793A0
:10BCF000A36923E08188606902AAFFF728FE182261
:10BD0000002104A800F0B9FEAB882189ADF81830F5
:10BD1000EB88029A05949942079218D12E8A022E36
:10BD200015D16AB105F11200FFF738FE029B48B148
:10BD300001221A708DF81060A3690BB104A898470E
:10BD40000AB070BD187003238DF81030F4E7A28993
:10BD50009A42F5D1A369002BF2D000228DF8102071
:10BD600005F1120208922A8AADF82420E6E78188BC
:10BD7000606902AAFFF7EBFD01460028E0D1029BB3
:10BD80001B78002BDCD0A369002BD9D0182204A883
:10BD900000F073FE01238DF81030AB88ADF8183039
:10BDA0000594029BA3E7F0B50F4687B016461C46E4
:10BDB000054618B3406901AA1946FFF7C8FDD8B96E
:10BDC0004FF6FF739C421BD0019BCBB11B78CBB1CC
:10BDD0003388F42B18D80146102202A800F04DFE3B
:10BDE000AB88ADF8083002A901232046CDE90467ED
:10BDF0008DF80A30FFF739FF07B0F0BD0E20FBE7E2
:10BE00000520F9E70820F7E70720F5E7014B187848
:10BE1000704700BF8448032007B508496846FDF70E
:10BE2000A4F9019B13B903B05DF804FBD3E900202A
:10BE300090476846FDF7A3F9F3E700BFC0DB0200B7
:10BE4000FFF7EABF61DF704730B5114DADF5017DF9
:10BE50004FF4FA740DF1020103A8ADF80240FFF7A8
:10BE6000F1FF70B9294601A8FDF77FF9029B002B6D
:10BE7000F0D003A8D3E90021904701A8FDF77FF98E
:10BE8000F4E7052801D0FCF771F80DF5017D30BD10
:10BE9000D8DB0200024B1B780BB1FFF7D5BF704710
:10BEA000854803204BDF70471FB50D4C01A8FFF7F5
:10BEB000F9FF70B9214602A8FDF757F9039B002B43
:10BEC000F4D00198D3E90021904702A8FDF757F973
:10BED000F4E7052801D0FCF749F804B010BD00BF15
:10BEE000F0DB02002DE9F3414E0804460D4600EB5D
:10BEF00086060027B4420AD1EB0705D5B4F9003015
:10BF0000002BBCBF0023238002B0BDE8F0810422D7
:10BF10000DEB0200214600F087FD019A02F080231C
:10BF200004F104084FEAF333D7FA13F322EA0303C8
:10BF3000042220460DEB02010193444600F074FDFB
:10BF4000D8E72DE9F04F8FB015460993BDF8603062
:10BF50000293BDF864300393099B05909B080793F7
:10BF60001A9B03F108081B9B03F10809530800EB17
:10BF700083021B010A93079B08920C460693069BBB
:10BF800013BB1B9B079A03EBC2081A9B03EBC2036C
:10BF90000193099B03F0030308EB43030693059BFE
:10BFA000AE084FEA450B04EBC60905F0030503EBA9
:10BFB000C60606EB45030493069B984540F0878030
:10BFC00000200FB0BDE8F08F029A38F9083C38F92C
:10BFD000047C38F9026C9340019338F9063C03FA6B
:10BFE00002FB059B97409640A246089A934236D1A1
:10BFF0000A9B1C44EB0712D5B2F900300198224687
:10C0000032F8081B13FB01010191618813FB01BB8E
:10C01000A18813FB0177E188144613FB0166039A9C
:10C02000019B134103F30F0329F8083C4BFA02F379
:10C0300003F30F0329F8063C069B013B9BB2174113
:10C04000164107F30F0706F30F0629F8047C29F8B9
:10C05000026C069308F1080809F108098FE71946F0
:10C0600004220DA8049300F0DFFC049B04330B931F
:10C0700051460D9B049304220DA800F0D5FC0D9AA7
:10C08000049B019923FB021304220AEB02010DA871
:10C09000019300F0C9FC0D9A049B23FB02BB042210
:10C0A0000AF108010DA800F0BFFC0D9A049B23FBC8
:10C0B000027704220AF10C010DA800F0B5FC0AF188
:10C0C000100A0D9A049B23FB02660B9B8DE7019BD4
:10C0D000DDF814A033F9025B0193029B27469D40D3
:10C0E0004F454A460CD13346049999422DD1039BC2
:10C0F0005C441D41D94405F30F0528F8025B5BE75A
:10C10000394604220DA800F08FFC0D9B07930422F2
:10C1100051460DA800F088FC0D9A079B22FB0355A1
:10C120000422B9180DA800F07FFC04220D9B079390
:10C130000AEB02010DA800F077FC08370D9A079B67
:10C140000AF1080A22FB0355CAE733F8020B32F85A
:10C15000021B10FB0155C7E78FB500F093F94FF4B0
:10C1600080410020FBF790FA08B1FBF7FFFEFBF7D8
:10C17000CBF900F07DF90DF1070000F0A9F9FCF70B
:10C18000D5FF08B1FBF7F2FE00F0BEF900F006FAA9
:10C1900000F0F6F91648174E00F000FC0023029359
:10C1A000012703934FF0A043D3F81025110518D5AC
:10C1B000039A012AF8D1F3680F4C002543F08073ED
:10C1C000F3606560236843F00103236000F074FAB4
:10C1D0006368029303950299084800F0DFFB02951B
:10C1E000E0E70397D3F810251205FBD5E0E700BF81
:10C1F000FCDB0200F0ED00E0001000E015DC0200C6
:10C2000076DF70477FDF70478FDF7047B1DF7047A1
:10C2100033DF70470388212B13B504463DD007D880
:10C22000112B2BD0132B40D0102B0CD002B010BDF3
:10C23000522B42D0562B01D03B2BF7D1A088132193
:10C24000FFF7DEFF15E0214B21482249C01AC00844
:10C25000000440F00300FBF7AFFB0720FEF784FE6D
:10C2600008B1FBF783FE1C4BA1881C481980FFF71F
:10C270009FFC0028DAD0FBF779FED7E7134B144870
:10C280001749C01AC008000440F00300FBF794FBF4
:10C29000114B4FF6FF721A80C8E7002301A980886E
:10C2A000ADF80430FFF7B0FFE3E70B4800231A4670
:10C2B00085210088FFF7A6FFDBE7074800231A4621
:10C2C00019460088FFF7A2FFD3E700BF50D2020053
:10C2D00090D2020027DC0200B62B00205C52032023
:10C2E00031DC020008B50020FEF73EFE08B1FBF786
:10C2F0003DFEFEF71BFF08B1FBF738FEFFF788FF96
:10C3000018B1BDE80840FBF731BE08BD072808B5E5
:10C3100013D00A280DD0042819D10D4B13211888E9
:10C32000FFF76EFF30F0080311D0BDE80840FBF7BF
:10C330001DBEBDE80840FFF7D5BF054B1A884FF674
:10C34000FF739A4203D10348FFF771F9EAE708BD8A
:10C35000B62B0020DC4D0320F7B50378012B33D03A
:10C36000022B31D073BB1A4C1A4D20782844FCF7AD
:10C3700057F923780133DBB21D44237015F8012CE3
:10C380000A2A05D00D2A03D0134A12889A4219D8D6
:10C39000012B15D9114D0F4E114F2378ADF80630F2
:10C3A0000DF106022B8831463846FFF7FCFC0828C1
:10C3B00006D01328F1D0052802D008B1FBF7D6FD2E
:10C3C0000023237003B0F0BD4068FBF7CFFDF9E711
:10C3D000D44D0320E04C0320B42B0020B62B0020CA
:10C3E000B82B002010B5037894B00446002B34D14C
:10C3F00040680621FEF74CFB08B1FBF7B7FD61680A
:10C400004FF49670B1F90230B1F900200490B1F9FF
:10C410000A000390B1F908000290B1F906000190FA
:10C42000B1F90410009107A80D4900F0D7FA0D4B9F
:10C43000ADF81A001B880C480DF11A0207A9FFF786
:10C44000B2FC0528034604D033F0080301D0FBF703
:10C450008DFD064A13680133136014B010BD00BF90
:10C460003EDC0200B62B0020B82B0020D84D032064
:10C4700008B5FBF78FFE18B1BDE80840FBF776BDA5
:10C4800008BD000030B50E4D0FCD8BB004AC0FC40D
:10C4900095E803000B4B0C4A00934FF4807384E83B
:10C4A0000300CDE902230193084A0723694604A843
:10C4B000FCF75EF808B1FBF759FD0BB030BD00BFCB
:10C4C00060DC0200685203206853032059C3020055
:10C4D00013B504460B490320FEF752FD08B1FBF7E4
:10C4E00045FD0DF107010020FEF730FE08B1FBF716
:10C4F0003DFD9DF807309A1E53425341237002B010
:10C5000010BD00BF0DC3020013B5FEF781FB04464A
:10C5100020B1FBF72BFD2046FBF728FD134B1448F9
:10C52000D3F810250021D2B220FA02F200910123A3
:10C530001048FEF714F90F48FEF7EAF8FEF79AFAEA
:10C5400004460D48FEF7F8FA08B1FBF70FFD0A4B59
:10C550000A4918782246FEF723FB20B102B0BDE855
:10C560001040FBF703BD02B010BD00BF00A00140AA
:10C5700000350C00B4DC02005852032040A10140F9
:10C5800008B5054B1878FEF72BFB18B1BDE808403D
:10C59000FBF7ECBC08BD00BF5852032030B5424B3E
:10C5A00095B01C461868019054F8040F0222616887
:10C5B0008DF804201D4602AA03C255F80D0F217AFA
:10C5C0001170696805AC03C4297A21701D4608AC56
:10C5D00055F8160F696803C4297A21701D460BAC03
:10C5E00055F81F0F696803C4297A21701D464FF45E
:10C5F0008172ADF80A20ADF81620ADF82220ADF812
:10C600002E2055F8280F69680EAC03C453F8310F7B
:10C61000297A217059681B7AADF83A2011AC03C40D
:10C620002249237001A8ADF84620FEF793F908B11E
:10C63000FBF79CFC02A90020FEF7D4F908B1FBF738
:10C6400095FC05A90120FEF7CDF908B1FBF78EFC9A
:10C6500008A90220FEF7C6F908B1FBF787FC0BA971
:10C660000320FEF7BFF908B1FBF780FC0EA90420F8
:10C67000FEF7B8F908B1FBF779FC11A90520FEF720
:10C68000B1F908B1FBF772FC09480621FEF700FA80
:10C6900008B1FBF76BFC07480621FEF7F9F908B172
:10C6A000FBF764FC15B030BD78DC0200E5C3020086
:10C6B000105203201C5203202DE9F0412C482D4C30
:10C6C0002D4D86B000F06AF92C4B029313220723FC
:10C6D000CDE900322A49049564234FF4447203944F
:10C6E0002848FFF72EFC20466421FFF7FBFB264B72
:10C6F000029304F1C807032664234FF00F081A467B
:10C70000CDE900682149049520460397FFF719FCFD
:10C7100064213846FFF7E6FB1D4B1E490096CDE924
:10C72000018364231A46CDE903453846FFF709FC27
:10C7300020466421FFF7D6FB174B04950293174D53
:10C74000174903951023CDE9006320460A2364228C
:10C75000FFF7F7FB134E002435F9021B3046013476
:10C7600000F01CF90A2CF7D106B0BDE8F08100BF3B
:10C77000BCDC0200085F032068540320DC2B00208F
:10C78000A42C0020D836032024910220EC91022012
:10C790000CE00220D4E00220F42E0320E85803200D
:10C7A000082F032022DC020053EA020C61D02DE99D
:10C7B000F04BB3FA83F51E0007BFB2FA82F502FA16
:10C7C00005F403FA05F41646C5F120051EBF22FA4A
:10C7D00005F73C43203556EA044C4FEA144418BF91
:10C7E0000134A3464FF00009C846904271EB030C98
:10C7F00039D3094207BFB0FA80F700FA07F6B1FA59
:10C8000081F701FA07F6C7F120071EBF20FA07FCDF
:10C8100046EA0C062037B6FBFBFC7F1B103F07F0F7
:10C820001F04C4F120060CFA04F42CFA06F644BFE7
:10C8300034460026202FA4BF2646002454EA060CC6
:10C8400008BF012418EB040849EB0609A4FB027C8D
:10C85000C01B06FB02CC04FB03CC71EB0C01904225
:10C8600071EB030CC5D20B46024649464046BDE873
:10C87000F08BB2FBF3F200007F2805D8034B185C65
:10C88000034B5B5C1840704700207047E0DC0200FF
:10C8900060DD0200A0F16103192B98BF20387047BA
:10C8A000A0F14103192B98BF203070477F2805D88D
:10C8B000034B185C034B5B5C1840704700207047CB
:10C8C000E0DC020060DD0200A0F16103192B98BFDB
:10C8D00020387047A0F14103192B98BF20307047D2
:10C8E0007F299ABF017001206FF02E0070475AB166
:10C8F0000A787F2A0AD800B10260002119605960C5
:10C90000501A18BF01207047002070476FF02E00AA
:10C91000704738B504460846A26842B1236861688A
:10C920005D1C8D4208BF00208B4208D2D054E368C2
:10C930002BB121686268914201D221469847236851
:10C940000133236038BD70B54C1E09D41646C5B2FC
:10C9500029463046FFF7DDFF013CB4F1FF3FF7D138
:10C9600070BD10F0100F08D108B510F4007F14BF8F
:10C9700030202020FFF7E7FF08BD704708B5034BC4
:10C980005B689B681B68984708BD00BFF83C0320A4
:10C9900008B50921FFF7F2FF08BD00000FB410B57C
:10C9A00086B008AB53F8044B0593002303936FF054
:10C9B00000430293084B049300F0FEFB059A2146C6
:10C9C00001A800F0DFF8044600F0F7FB204606B0AF
:10C9D000BDE8104004B07047359202000EB400B5B7
:10C9E00086B007AA52F8041B059203900023049313
:10C9F0006FF00043029301A800F0C4F806B05DF8A0
:10CA000004EB03B07047037853B159B101440346B6
:10CA100013F8012F12B18B42FAD10B46181A704746
:10CA20000346FBE70346F9E7844640EA010313F0B7
:10CA3000030F18D18446202A0BD32DE9F007B1E863
:10CA4000F807A0E8F807A2F12002202AF7D2BDE8F3
:10CA5000F007042A07D351F8043B40F8043BA2F145
:10CA60000402042AF7D2002A05D011F8013B00F88D
:10CA7000013B013AF9D1604670478446002A2DD027
:10CA800010F0030F04D000F8011B013A26D0F7E79D
:10CA9000C9B241EA012141EA0141202A12D3A2F19F
:10CAA00020022DE9F0030B460C460D460E460F46BC
:10CAB00088468946A0E8FA03203AFBD2BDE8F00395
:10CAC00020320BD0042A05D340F8041B043A05D0C9
:10CAD000042AF9D200F8011B013AFBD160467047E5
